{
  "contractName": "CakePool",
  "abi": [
    {
      "inputs": [],
      "stateMutability": "nonpayable",
      "type": "constructor"
    },
    {
      "anonymous": false,
      "inputs": [
        {
          "indexed": true,
          "internalType": "address",
          "name": "owner",
          "type": "address"
        },
        {
          "indexed": true,
          "internalType": "address",
          "name": "spender",
          "type": "address"
        },
        {
          "indexed": false,
          "internalType": "uint256",
          "name": "value",
          "type": "uint256"
        }
      ],
      "name": "Approval",
      "type": "event"
    },
    {
      "anonymous": false,
      "inputs": [
        {
          "indexed": true,
          "internalType": "address",
          "name": "from",
          "type": "address"
        },
        {
          "indexed": true,
          "internalType": "address",
          "name": "to",
          "type": "address"
        },
        {
          "indexed": false,
          "internalType": "uint256",
          "name": "value",
          "type": "uint256"
        }
      ],
      "name": "Transfer",
      "type": "event"
    },
    {
      "inputs": [
        {
          "internalType": "address",
          "name": "",
          "type": "address"
        },
        {
          "internalType": "address",
          "name": "",
          "type": "address"
        }
      ],
      "name": "allowance",
      "outputs": [
        {
          "internalType": "uint256",
          "name": "",
          "type": "uint256"
        }
      ],
      "stateMutability": "view",
      "type": "function"
    },
    {
      "inputs": [
        {
          "internalType": "address",
          "name": "",
          "type": "address"
        }
      ],
      "name": "balances",
      "outputs": [
        {
          "internalType": "uint256",
          "name": "",
          "type": "uint256"
        }
      ],
      "stateMutability": "view",
      "type": "function"
    },
    {
      "inputs": [],
      "name": "decimals",
      "outputs": [
        {
          "internalType": "uint256",
          "name": "",
          "type": "uint256"
        }
      ],
      "stateMutability": "view",
      "type": "function"
    },
    {
      "inputs": [],
      "name": "name",
      "outputs": [
        {
          "internalType": "string",
          "name": "",
          "type": "string"
        }
      ],
      "stateMutability": "view",
      "type": "function"
    },
    {
      "inputs": [],
      "name": "symbol",
      "outputs": [
        {
          "internalType": "string",
          "name": "",
          "type": "string"
        }
      ],
      "stateMutability": "view",
      "type": "function"
    },
    {
      "inputs": [],
      "name": "totalSupply",
      "outputs": [
        {
          "internalType": "uint256",
          "name": "",
          "type": "uint256"
        }
      ],
      "stateMutability": "view",
      "type": "function"
    },
    {
      "inputs": [
        {
          "internalType": "address",
          "name": "owner",
          "type": "address"
        }
      ],
      "name": "balanceOf",
      "outputs": [
        {
          "internalType": "uint256",
          "name": "",
          "type": "uint256"
        }
      ],
      "stateMutability": "view",
      "type": "function"
    },
    {
      "inputs": [
        {
          "internalType": "address",
          "name": "to",
          "type": "address"
        },
        {
          "internalType": "uint256",
          "name": "value",
          "type": "uint256"
        }
      ],
      "name": "transfer",
      "outputs": [
        {
          "internalType": "bool",
          "name": "",
          "type": "bool"
        }
      ],
      "stateMutability": "nonpayable",
      "type": "function"
    },
    {
      "inputs": [
        {
          "internalType": "address",
          "name": "from",
          "type": "address"
        },
        {
          "internalType": "address",
          "name": "to",
          "type": "address"
        },
        {
          "internalType": "uint256",
          "name": "value",
          "type": "uint256"
        }
      ],
      "name": "transferFrom",
      "outputs": [
        {
          "internalType": "bool",
          "name": "",
          "type": "bool"
        }
      ],
      "stateMutability": "nonpayable",
      "type": "function"
    },
    {
      "inputs": [
        {
          "internalType": "address",
          "name": "spender",
          "type": "address"
        },
        {
          "internalType": "uint256",
          "name": "value",
          "type": "uint256"
        }
      ],
      "name": "approve",
      "outputs": [
        {
          "internalType": "bool",
          "name": "",
          "type": "bool"
        }
      ],
      "stateMutability": "nonpayable",
      "type": "function"
    }
  ],
  "bytecode": "0x6a084595161401484a00000060025560c0604052600860809081526710d85ad9541bdbdb60c21b60a052600390610036908261012d565b5060408051808201909152600881526710d85ad9541bdbdb60c21b6020820152600490610063908261012d565b50601260055534801561007557600080fd5b50600254336000908152602081905260409020556101ec565b634e487b7160e01b600052604160045260246000fd5b600181811c908216806100b857607f821691505b6020821081036100d857634e487b7160e01b600052602260045260246000fd5b50919050565b601f82111561012857600081815260208120601f850160051c810160208610156101055750805b601f850160051c820191505b8181101561012457828155600101610111565b5050505b505050565b81516001600160401b038111156101465761014661008e565b61015a8161015484546100a4565b846100de565b602080601f83116001811461018f57600084156101775750858301515b600019600386901b1c1916600185901b178555610124565b600085815260208120601f198616915b828110156101be5788860151825594840194600190910190840161019f565b50858210156101dc5787850151600019600388901b60f8161c191681555b5050505050600190811b01905550565b6106de806101fb6000396000f3fe608060405234801561001057600080fd5b506004361061008e5760003560e01c806306fdde0314610093578063095ea7b3146100b157806318160ddd146100d457806323b872dd146100eb57806327e235e3146100fe578063313ce5671461011e57806370a082311461012757806395d89b411461013a578063a9059cbb14610142578063dd62ed3e14610155575b600080fd5b61009b610180565b6040516100a89190610499565b60405180910390f35b6100c46100bf36600461050a565b61020e565b60405190151581526020016100a8565b6100dd60025481565b6040519081526020016100a8565b6100c46100f9366004610534565b61027a565b6100dd61010c366004610570565b60006020819052908152604090205481565b6100dd60055481565b6100dd610135366004610570565b6103cb565b61009b6103e6565b6100c461015036600461050a565b6103f3565b6100dd610163366004610592565b600160209081526000928352604080842090915290825290205481565b6003805461018d906105c5565b80601f01602080910402602001604051908101604052809291908181526020018280546101b9906105c5565b80156102065780601f106101db57610100808354040283529160200191610206565b820191906000526020600020905b8154815290600101906020018083116101e957829003601f168201915b505050505081565b3360008181526001602090815260408083206001600160a01b038716808552925280832085905551919290917f8c5be1e5ebec7d5bd14f71427d1e84f3dd0314c0f7b2291e5b200ac8c7c3b925906102699086815260200190565b60405180910390a350600192915050565b600081610286856103cb565b10156102ad5760405162461bcd60e51b81526004016102a4906105ff565b60405180910390fd5b6001600160a01b038416600090815260016020908152604080832033845290915290205482111561032a5760405162461bcd60e51b815260206004820152602160248201527f53656d207065726d697373616f2028616c6c6f77616e636520746f6f206c6f776044820152602960f81b60648201526084016102a4565b6001600160a01b03831660009081526020819052604081208054849290610352908490610659565b90915550506001600160a01b0384166000908152602081905260408120805484929061037f908490610671565b92505081905550826001600160a01b0316846001600160a01b0316600080516020610689833981519152846040516103b991815260200190565b60405180910390a35060019392505050565b6001600160a01b031660009081526020819052604090205490565b6004805461018d906105c5565b6000816103ff336103cb565b101561041d5760405162461bcd60e51b81526004016102a4906105ff565b6001600160a01b03831660009081526020819052604081208054849290610445908490610659565b90915550503360009081526020819052604081208054849290610469908490610671565b90915550506040518281526001600160a01b03841690339060008051602061068983398151915290602001610269565b600060208083528351808285015260005b818110156104c6578581018301518582016040015282016104aa565b818111156104d8576000604083870101525b50601f01601f1916929092016040019392505050565b80356001600160a01b038116811461050557600080fd5b919050565b6000806040838503121561051d57600080fd5b610526836104ee565b946020939093013593505050565b60008060006060848603121561054957600080fd5b610552846104ee565b9250610560602085016104ee565b9150604084013590509250925092565b60006020828403121561058257600080fd5b61058b826104ee565b9392505050565b600080604083850312156105a557600080fd5b6105ae836104ee565b91506105bc602084016104ee565b90509250929050565b600181811c908216806105d957607f821691505b6020821081036105f957634e487b7160e01b600052602260045260246000fd5b50919050565b60208082526024908201527f53616c646f20696e737566696369656e7465202862616c616e636520746f6f206040820152636c6f772960e01b606082015260800190565b634e487b7160e01b600052601160045260246000fd5b6000821982111561066c5761066c610643565b500190565b60008282101561068357610683610643565b50039056feddf252ad1be2c89b69c2b068fc378daa952ba7f163c4a11628f55a4df523b3efa2646970667358221220d3fe498a82567d78caa8cd90373d90a118b30d56a15789e4d51817f104e2f2c364736f6c634300080f0033",
  "immutableReferences": {},
  "source": "/**\r\n *Submitted for verification at BscScan.com on 2021-07-24\r\n */\r\n\r\n// SPDX-License-Identifier: MIT\r\npragma solidity 0.8.15;\r\n\r\ncontract CakePool {\r\n    mapping(address => uint256) public balances;\r\n    mapping(address => mapping(address => uint256)) public allowance;\r\n\r\n    uint256 public totalSupply = 10000000 * 10**18;\r\n    string public name = \"CakePool\";\r\n    string public symbol = \"CakePool\";\r\n    uint256 public decimals = 18;\r\n\r\n    event Transfer(address indexed from, address indexed to, uint256 value);\r\n    event Approval(\r\n        address indexed owner,\r\n        address indexed spender,\r\n        uint256 value\r\n    );\r\n\r\n    constructor() {\r\n        balances[msg.sender] = totalSupply;\r\n    }\r\n\r\n    function balanceOf(address owner) public view returns (uint256) {\r\n        return balances[owner];\r\n    }\r\n\r\n    function transfer(address to, uint256 value) public returns (bool) {\r\n        require(\r\n            balanceOf(msg.sender) >= value,\r\n            \"Saldo insuficiente (balance too low)\"\r\n        );\r\n        balances[to] += value;\r\n        balances[msg.sender] -= value;\r\n        emit Transfer(msg.sender, to, value);\r\n        return true;\r\n    }\r\n\r\n    function transferFrom(\r\n        address from,\r\n        address to,\r\n        uint256 value\r\n    ) public returns (bool) {\r\n        require(\r\n            balanceOf(from) >= value,\r\n            \"Saldo insuficiente (balance too low)\"\r\n        );\r\n        require(\r\n            allowance[from][msg.sender] >= value,\r\n            \"Sem permissao (allowance too low)\"\r\n        );\r\n        balances[to] += value;\r\n        balances[from] -= value;\r\n        emit Transfer(from, to, value);\r\n        return true;\r\n    }\r\n\r\n    function approve(address spender, uint256 value) public returns (bool) {\r\n        allowance[msg.sender][spender] = value;\r\n        emit Approval(msg.sender, spender, value);\r\n        return true;\r\n    }\r\n}\r\n",
  "sourcePath": "C:\\GitHub\\zoinks\\contracts\\Development\\src\\contracts\\FakeForTest\\CakePool.sol",
  "compiler": {
    "name": "solc",
    "version": "0.8.15+commit.e14f2714.Emscripten.clang"
  },
  "schemaVersion": "3.4.8",
  "updatedAt": "2022-08-08T18:33:02.742Z",
  "devdoc": {
    "kind": "dev",
    "methods": {},
    "version": 1
  },
  "userdoc": {
    "kind": "user",
    "methods": {},
    "version": 1
  }
}