{
  "contractName": "CakePulse",
  "abi": [
    {
      "inputs": [],
      "stateMutability": "nonpayable",
      "type": "constructor"
    },
    {
      "anonymous": false,
      "inputs": [
        {
          "indexed": true,
          "internalType": "address",
          "name": "owner",
          "type": "address"
        },
        {
          "indexed": true,
          "internalType": "address",
          "name": "spender",
          "type": "address"
        },
        {
          "indexed": false,
          "internalType": "uint256",
          "name": "value",
          "type": "uint256"
        }
      ],
      "name": "Approval",
      "type": "event"
    },
    {
      "anonymous": false,
      "inputs": [],
      "name": "Circulate",
      "type": "event"
    },
    {
      "anonymous": false,
      "inputs": [
        {
          "indexed": true,
          "internalType": "address",
          "name": "from",
          "type": "address"
        },
        {
          "indexed": true,
          "internalType": "address",
          "name": "to",
          "type": "address"
        },
        {
          "indexed": false,
          "internalType": "uint256",
          "name": "value",
          "type": "uint256"
        }
      ],
      "name": "Transfer",
      "type": "event"
    },
    {
      "inputs": [
        {
          "internalType": "address",
          "name": "owner",
          "type": "address"
        },
        {
          "internalType": "address",
          "name": "spender",
          "type": "address"
        }
      ],
      "name": "allowance",
      "outputs": [
        {
          "internalType": "uint256",
          "name": "",
          "type": "uint256"
        }
      ],
      "stateMutability": "view",
      "type": "function"
    },
    {
      "inputs": [
        {
          "internalType": "address",
          "name": "spender",
          "type": "address"
        },
        {
          "internalType": "uint256",
          "name": "amount",
          "type": "uint256"
        }
      ],
      "name": "approve",
      "outputs": [
        {
          "internalType": "bool",
          "name": "",
          "type": "bool"
        }
      ],
      "stateMutability": "nonpayable",
      "type": "function"
    },
    {
      "inputs": [
        {
          "internalType": "address",
          "name": "account",
          "type": "address"
        }
      ],
      "name": "balanceOf",
      "outputs": [
        {
          "internalType": "uint256",
          "name": "",
          "type": "uint256"
        }
      ],
      "stateMutability": "view",
      "type": "function"
    },
    {
      "inputs": [],
      "name": "busd",
      "outputs": [
        {
          "internalType": "contract IERC20",
          "name": "",
          "type": "address"
        }
      ],
      "stateMutability": "view",
      "type": "function"
    },
    {
      "inputs": [],
      "name": "cake",
      "outputs": [
        {
          "internalType": "contract IERC20",
          "name": "",
          "type": "address"
        }
      ],
      "stateMutability": "view",
      "type": "function"
    },
    {
      "inputs": [],
      "name": "cakepool",
      "outputs": [
        {
          "internalType": "address",
          "name": "",
          "type": "address"
        }
      ],
      "stateMutability": "view",
      "type": "function"
    },
    {
      "inputs": [],
      "name": "decimals",
      "outputs": [
        {
          "internalType": "uint8",
          "name": "",
          "type": "uint8"
        }
      ],
      "stateMutability": "view",
      "type": "function"
    },
    {
      "inputs": [
        {
          "internalType": "address",
          "name": "spender",
          "type": "address"
        },
        {
          "internalType": "uint256",
          "name": "subtractedValue",
          "type": "uint256"
        }
      ],
      "name": "decreaseAllowance",
      "outputs": [
        {
          "internalType": "bool",
          "name": "",
          "type": "bool"
        }
      ],
      "stateMutability": "nonpayable",
      "type": "function"
    },
    {
      "inputs": [
        {
          "internalType": "address",
          "name": "spender",
          "type": "address"
        },
        {
          "internalType": "uint256",
          "name": "addedValue",
          "type": "uint256"
        }
      ],
      "name": "increaseAllowance",
      "outputs": [
        {
          "internalType": "bool",
          "name": "",
          "type": "bool"
        }
      ],
      "stateMutability": "nonpayable",
      "type": "function"
    },
    {
      "inputs": [],
      "name": "isInitialized",
      "outputs": [
        {
          "internalType": "bool",
          "name": "",
          "type": "bool"
        }
      ],
      "stateMutability": "view",
      "type": "function"
    },
    {
      "inputs": [],
      "name": "name",
      "outputs": [
        {
          "internalType": "string",
          "name": "",
          "type": "string"
        }
      ],
      "stateMutability": "view",
      "type": "function"
    },
    {
      "inputs": [],
      "name": "pancakeRouter",
      "outputs": [
        {
          "internalType": "contract IRouter",
          "name": "",
          "type": "address"
        }
      ],
      "stateMutability": "view",
      "type": "function"
    },
    {
      "inputs": [],
      "name": "snacks",
      "outputs": [
        {
          "internalType": "contract IERC20",
          "name": "",
          "type": "address"
        }
      ],
      "stateMutability": "view",
      "type": "function"
    },
    {
      "inputs": [],
      "name": "snackspool",
      "outputs": [
        {
          "internalType": "address",
          "name": "",
          "type": "address"
        }
      ],
      "stateMutability": "view",
      "type": "function"
    },
    {
      "inputs": [],
      "name": "symbol",
      "outputs": [
        {
          "internalType": "string",
          "name": "",
          "type": "string"
        }
      ],
      "stateMutability": "view",
      "type": "function"
    },
    {
      "inputs": [],
      "name": "totalSupply",
      "outputs": [
        {
          "internalType": "uint256",
          "name": "",
          "type": "uint256"
        }
      ],
      "stateMutability": "view",
      "type": "function"
    },
    {
      "inputs": [
        {
          "internalType": "address",
          "name": "to",
          "type": "address"
        },
        {
          "internalType": "uint256",
          "name": "amount",
          "type": "uint256"
        }
      ],
      "name": "transfer",
      "outputs": [
        {
          "internalType": "bool",
          "name": "",
          "type": "bool"
        }
      ],
      "stateMutability": "nonpayable",
      "type": "function"
    },
    {
      "inputs": [
        {
          "internalType": "address",
          "name": "from",
          "type": "address"
        },
        {
          "internalType": "address",
          "name": "to",
          "type": "address"
        },
        {
          "internalType": "uint256",
          "name": "amount",
          "type": "uint256"
        }
      ],
      "name": "transferFrom",
      "outputs": [
        {
          "internalType": "bool",
          "name": "",
          "type": "bool"
        }
      ],
      "stateMutability": "nonpayable",
      "type": "function"
    },
    {
      "inputs": [],
      "name": "zoinks",
      "outputs": [
        {
          "internalType": "contract IERC20",
          "name": "",
          "type": "address"
        }
      ],
      "stateMutability": "view",
      "type": "function"
    },
    {
      "inputs": [],
      "name": "zoinksRouter",
      "outputs": [
        {
          "internalType": "contract IRouter",
          "name": "",
          "type": "address"
        }
      ],
      "stateMutability": "view",
      "type": "function"
    },
    {
      "inputs": [
        {
          "internalType": "contract IRouter",
          "name": "_zoinksRouter",
          "type": "address"
        },
        {
          "internalType": "contract IERC20",
          "name": "_zoinks",
          "type": "address"
        },
        {
          "internalType": "contract IERC20",
          "name": "_snacks",
          "type": "address"
        },
        {
          "internalType": "address",
          "name": "_snackspool",
          "type": "address"
        }
      ],
      "name": "initialize",
      "outputs": [],
      "stateMutability": "nonpayable",
      "type": "function"
    },
    {
      "inputs": [],
      "name": "circulate",
      "outputs": [],
      "stateMutability": "nonpayable",
      "type": "function"
    },
    {
      "inputs": [
        {
          "internalType": "contract IERC20",
          "name": "_snacks",
          "type": "address"
        },
        {
          "internalType": "uint256",
          "name": "_amount",
          "type": "uint256"
        },
        {
          "internalType": "uint256",
          "name": "rate",
          "type": "uint256"
        }
      ],
      "name": "buySnacks",
      "outputs": [],
      "stateMutability": "nonpayable",
      "type": "function"
    },
    {
      "inputs": [
        {
          "internalType": "contract IERC20",
          "name": "_snacks",
          "type": "address"
        },
        {
          "internalType": "uint256",
          "name": "amount",
          "type": "uint256"
        }
      ],
      "name": "redeemSnacks",
      "outputs": [],
      "stateMutability": "nonpayable",
      "type": "function"
    },
    {
      "inputs": [
        {
          "internalType": "address",
          "name": "pool",
          "type": "address"
        },
        {
          "internalType": "uint256",
          "name": "amount",
          "type": "uint256"
        }
      ],
      "name": "deposit",
      "outputs": [],
      "stateMutability": "nonpayable",
      "type": "function"
    },
    {
      "inputs": [
        {
          "internalType": "address",
          "name": "pool",
          "type": "address"
        }
      ],
      "name": "updatePool",
      "outputs": [],
      "stateMutability": "nonpayable",
      "type": "function"
    },
    {
      "inputs": [
        {
          "internalType": "contract IRouter",
          "name": "router",
          "type": "address"
        },
        {
          "internalType": "address",
          "name": "from",
          "type": "address"
        },
        {
          "internalType": "address",
          "name": "to",
          "type": "address"
        },
        {
          "internalType": "uint256",
          "name": "amount",
          "type": "uint256"
        }
      ],
      "name": "swap",
      "outputs": [
        {
          "internalType": "uint256",
          "name": "",
          "type": "uint256"
        }
      ],
      "stateMutability": "nonpayable",
      "type": "function"
    },
    {
      "inputs": [
        {
          "internalType": "contract IRouter",
          "name": "router",
          "type": "address"
        },
        {
          "internalType": "uint256",
          "name": "amount",
          "type": "uint256"
        }
      ],
      "name": "addLiquidity",
      "outputs": [
        {
          "internalType": "uint256",
          "name": "",
          "type": "uint256"
        }
      ],
      "stateMutability": "nonpayable",
      "type": "function"
    },
    {
      "inputs": [
        {
          "internalType": "contract IERC20",
          "name": "_snacks",
          "type": "address"
        },
        {
          "internalType": "uint256",
          "name": "_amount",
          "type": "uint256"
        },
        {
          "internalType": "uint256",
          "name": "rate",
          "type": "uint256"
        }
      ],
      "name": "calculateBuyAmount",
      "outputs": [
        {
          "internalType": "uint256",
          "name": "",
          "type": "uint256"
        }
      ],
      "stateMutability": "view",
      "type": "function"
    }
  ],
  "bytecode": "0x6080604052600019600555600980546001600160a01b03199081167310ed43c718714eb63d5aa57b78b54704e256024e17909155600b805482167345c54210128a065de780c4b0df3d16664f7f859e179055600c8054821673e9e7cea3dedca5984780bafc599bd69add087d56179055600d8054909116730e09fabb73bd3ade0a17ecc321fd13a19e81ce821790553480156200009b57600080fd5b5060408051808201825260098082526843414b4550554c534560b81b6020808401829052845180860190955291845290830152906003620000dd83826200019a565b506004620000ec82826200019a565b50505062000266565b634e487b7160e01b600052604160045260246000fd5b600181811c908216806200012057607f821691505b6020821081036200014157634e487b7160e01b600052602260045260246000fd5b50919050565b601f8211156200019557600081815260208120601f850160051c81016020861015620001705750805b601f850160051c820191505b8181101562000191578281556001016200017c565b5050505b505050565b81516001600160401b03811115620001b657620001b6620000f5565b620001ce81620001c784546200010b565b8462000147565b602080601f831160018114620002065760008415620001ed5750858301515b600019600386901b1c1916600185901b17855562000191565b600085815260208120601f198616915b82811015620002375788860151825594840194600190910190840162000216565b5085821015620002565787850151600019600388901b60f8161c191681555b5050505050600190811b01905550565b611ed980620002766000396000f3fe608060405234801561001057600080fd5b506004361061015f5760003560e01c80630244234f14610164578063035b0b0c1461018d57806306fdde03146101a2578063095ea7b3146101b757806318160ddd146101da57806323b872dd146101ec578063313ce567146101ff578063392e53cd1461020e578063395093511461021b5780633ca5b2341461022e57806347e7ef241461024157806348676ff314610254578063512eb14b1461026757806351c5343a1461027f57806356688700146102925780636fc978ee146102a557806370a08231146102b8578063775b1b23146102e15780637b46c54f146102e95780638f4947a3146102fc57806395d89b411461030f578063a457c2d714610317578063a9059cbb1461032a578063a9678a181461033d578063ae12311414610350578063c21ebd0714610363578063dce1748414610376578063dd62ed3e14610389578063f8c8765e1461039c575b600080fd5b600754610177906001600160a01b031681565b60405161018491906118ce565b60405180910390f35b6101a061019b3660046118fa565b6103af565b005b6101aa610507565b6040516101849190611952565b6101ca6101c53660046118fa565b610599565b6040519015158152602001610184565b6002545b604051908152602001610184565b6101ca6101fa366004611985565b6105b3565b60405160128152602001610184565b6006546101ca9060ff1681565b6101ca6102293660046118fa565b6105d9565b600c54610177906001600160a01b031681565b6101a061024f3660046118fa565b6105fb565b600b54610177906001600160a01b031681565b6006546101779061010090046001600160a01b031681565b6101de61028d3660046119c6565b610726565b6101de6102a03660046118fa565b610808565b600854610177906001600160a01b031681565b6101de6102c63660046119fb565b6001600160a01b031660009081526020819052604090205490565b6101a06108c8565b6101a06102f73660046119fb565b610bb5565b6101a061030a3660046119c6565b610cd1565b6101aa610e1b565b6101ca6103253660046118fa565b610e2a565b6101ca6103383660046118fa565b610eb0565b6101de61034b366004611a18565b610ebe565b600a54610177906001600160a01b031681565b600954610177906001600160a01b031681565b600d54610177906001600160a01b031681565b6101de610397366004611a69565b610ff6565b6101a06103aa366004611aa2565b611021565b806000036103bb575050565b6103cd81670de0b6b3a7640000611365565b604080518082018252600f81526e72656465656d2875696e743235362960881b60209182015281516024808201859052835180830390910181526044909101835290810180516001600160e01b031663db006a7560e01b179052905191925060009182916001600160a01b038616916104469190611afe565b6000604051808303816000865af19150503d8060008114610483576040519150601f19603f3d011682016040523d82523d6000602084013e610488565b606091505b50915091508180156104b25750805115806104b25750808060200190518101906104b29190611b1a565b6105015760405162461bcd60e51b815260206004820152601b60248201527a14155314d14e8814915111515357d4d39050d2d4d7d19052531151602a1b60448201526064015b60405180910390fd5b50505050565b60606003805461051690611b3c565b80601f016020809104026020016040519081016040528092919081815260200182805461054290611b3c565b801561058f5780601f106105645761010080835404028352916020019161058f565b820191906000526020600020905b81548152906001019060200180831161057257829003601f168201915b5050505050905090565b6000336105a78185856113bd565b60019150505b92915050565b6000336105c18582856114e1565b6105cc858585611555565b60019150505b9392505050565b6000336105a78185856105ec8383610ff6565b6105f69190611b86565b6113bd565b604080518082018252601081526f6465706f7369742875696e743235362960801b60209182015281516024808201859052835180830390910181526044909101835290810180516001600160e01b031663b6b55f2560e01b179052905160009182916001600160a01b0386169161067191611afe565b6000604051808303816000865af19150503d80600081146106ae576040519150601f19603f3d011682016040523d82523d6000602084013e6106b3565b606091505b50915091508180156106dd5750805115806106dd5750808060200190518101906106dd9190611b1a565b6105015760405162461bcd60e51b815260206004820152601a60248201527914155314d14e8811115413d4d25517d413d3d317d1905253115160321b60448201526064016104f8565b6000826000036107375750816105d2565b6000806107ae670de0b6b3a7640000876001600160a01b03166318160ddd6040518163ffffffff1660e01b8152600401602060405180830381865afa158015610784573d6000803e3d6000fd5b505050506040513d601f19601f820116820180604052508101906107a89190611b9e565b90611365565b90506107c660016107c0836002611723565b906117a5565b90506107ed6107e86107dd866107a8896008611723565b6107c0600285611c9b565b611802565b91506107fe60026107a88484611872565b9695505050505050565b60008160000361081a575060006105ad565b600654600c5460405162e8e33760e81b81526001600160a01b03610100909304831660048201529082166024820152604481018490526064810184905260006084820181905260a482018190523060c483015263ffffffff60e48301529185169063e8e3370090610104016060604051808303816000875af11580156108a4573d6000803e3d6000fd5b505050506040513d601f19601f820116820180604052508101906107fe9190611caa565b6007546040516370a0823160e01b81526000916001600160a01b0316906370a08231906108f99030906004016118ce565b602060405180830381865afa158015610916573d6000803e3d6000fd5b505050506040513d601f19601f8201168201806040525081019061093a9190611b9e565b600a54909150610953906001600160a01b0316826105fb565b6007546040516370a0823160e01b81526001600160a01b03909116906370a08231906109839030906004016118ce565b602060405180830381865afa1580156109a0573d6000803e3d6000fd5b505050506040513d601f19601f820116820180604052508101906109c49190611b9e565b600a549091506109dc906001600160a01b0316610bb5565b600a546109f3906001600160a01b031660006105fb565b6007546040516370a0823160e01b8152600091610a719184916001600160a01b0316906370a0823190610a2a9030906004016118ce565b602060405180830381865afa158015610a47573d6000803e3d6000fd5b505050506040513d601f19601f82011682018060405250810190610a6b9190611b9e565b90611872565b600754909150610a8a906001600160a01b0316826103af565b6006546040516370a0823160e01b815260009161010090046001600160a01b0316906370a0823190610ac09030906004016118ce565b602060405180830381865afa158015610add573d6000803e3d6000fd5b505050506040513d601f19601f82011682018060405250810190610b019190611b9e565b600854600654600c54929350600092610b2f926001600160a01b039081169261010090048116911685610ebe565b600954600c54600d54929350610b56926001600160a01b0392831692918216911684610ebe565b600b54909150610b6f906001600160a01b0316826105fb565b600b54610b86906001600160a01b031660006105fb565b6040517f182e1d6d31bb1edf1d32a2cc540c8ac6f4f29f63742779af15d5e18e1ffb8bf290600090a150505050565b604080518082018252600c81526b757064617465506f6f6c282960a01b60209182015281516004815260248101835290810180516001600160e01b031663e3161ddd60e01b179052905160009182916001600160a01b03851691610c1891611afe565b6000604051808303816000865af19150503d8060008114610c55576040519150601f19603f3d011682016040523d82523d6000602084013e610c5a565b606091505b5091509150818015610c84575080511580610c84575080806020019051810190610c849190611b1a565b610ccc5760405162461bcd60e51b815260206004820152601960248201527814155314d14e8815541110551157d413d3d317d19052531151603a1b60448201526064016104f8565b505050565b6000610cde848484610726565b905080600003610cee5750505050565b604080518082018252600c81526b6275792875696e743235362960a01b60209182015281516024808201859052835180830390910181526044909101835290810180516001600160e01b0316636cb504a560e11b179052905160009182916001600160a01b03881691610d6091611afe565b6000604051808303816000865af19150503d8060008114610d9d576040519150601f19603f3d011682016040523d82523d6000602084013e610da2565b606091505b5091509150818015610dcc575080511580610dcc575080806020019051810190610dcc9190611b1a565b610e135760405162461bcd60e51b815260206004820152601860248201527714155314d14e8810955657d4d39050d2d4d7d1905253115160421b60448201526064016104f8565b505050505050565b60606004805461051690611b3c565b60003381610e388286610ff6565b905083811015610e985760405162461bcd60e51b815260206004820152602560248201527f45524332303a2064656372656173656420616c6c6f77616e63652062656c6f77604482015264207a65726f60d81b60648201526084016104f8565b610ea582868684036113bd565b506001949350505050565b6000336105a7818585611555565b600081600003610ed057506000610fee565b604080516002808252606080830184529260009291906020830190803683370190505090508581600081518110610f0957610f09611cee565b60200260200101906001600160a01b031690816001600160a01b0316815250508481600181518110610f3d57610f3d611cee565b6001600160a01b0392831660209182029290920101526040516338ed173960e01b8152908816906338ed173990610f859087906000908690309063ffffffff90600401611d04565b6000604051808303816000875af1158015610fa4573d6000803e3d6000fd5b505050506040513d6000823e601f3d908101601f19168201604052610fcc9190810190611d75565b915081600181518110610fe157610fe1611cee565b6020026020010151925050505b949350505050565b6001600160a01b03918216600090815260016020908152604080832093909416825291909152205490565b60068054600880546001600160a01b038089166001600160a01b0319928316179092558682166101009081026001600160a81b03199094169390931760011793849055600780548784169083168117909155600a805487851693169290921790915560055460405163095ea7b360e01b8152939094049091169263095ea7b3926110af929190600401611e32565b6020604051808303816000875af11580156110ce573d6000803e3d6000fd5b505050506040513d601f19601f820116820180604052508101906110f29190611b1a565b50600754600a5460055460405163095ea7b360e01b81526001600160a01b039384169363095ea7b39361112a93911691600401611e32565b6020604051808303816000875af1158015611149573d6000803e3d6000fd5b505050506040513d601f19601f8201168201806040525081019061116d9190611b1a565b5060065460085460055460405163095ea7b360e01b81526001600160a01b0361010090940484169363095ea7b3936111aa93911691600401611e32565b6020604051808303816000875af11580156111c9573d6000803e3d6000fd5b505050506040513d601f19601f820116820180604052508101906111ed9190611b1a565b50600c5460085460055460405163095ea7b360e01b81526001600160a01b039384169363095ea7b39361122593911691600401611e32565b6020604051808303816000875af1158015611244573d6000803e3d6000fd5b505050506040513d601f19601f820116820180604052508101906112689190611b1a565b50600c5460095460055460405163095ea7b360e01b81526001600160a01b039384169363095ea7b3936112a093911691600401611e32565b6020604051808303816000875af11580156112bf573d6000803e3d6000fd5b505050506040513d601f19601f820116820180604052508101906112e39190611b1a565b50600d54600b5460055460405163095ea7b360e01b81526001600160a01b039384169363095ea7b39361131b93911691600401611e32565b6020604051808303816000875af115801561133a573d6000803e3d6000fd5b505050506040513d601f19601f8201168201806040525081019061135e9190611b1a565b5050505050565b60008082116113b35760405162461bcd60e51b815260206004820152601a602482015279536166654d6174683a206469766973696f6e206279207a65726f60301b60448201526064016104f8565b6105d28284611e4b565b6001600160a01b03831661141f5760405162461bcd60e51b8152602060048201526024808201527f45524332303a20617070726f76652066726f6d20746865207a65726f206164646044820152637265737360e01b60648201526084016104f8565b6001600160a01b0382166114805760405162461bcd60e51b815260206004820152602260248201527f45524332303a20617070726f766520746f20746865207a65726f206164647265604482015261737360f01b60648201526084016104f8565b6001600160a01b0383811660008181526001602090815260408083209487168084529482529182902085905590518481527f8c5be1e5ebec7d5bd14f71427d1e84f3dd0314c0f7b2291e5b200ac8c7c3b925910160405180910390a3505050565b60006114ed8484610ff6565b9050600019811461050157818110156115485760405162461bcd60e51b815260206004820152601d60248201527f45524332303a20696e73756666696369656e7420616c6c6f77616e636500000060448201526064016104f8565b61050184848484036113bd565b6001600160a01b0383166115b95760405162461bcd60e51b815260206004820152602560248201527f45524332303a207472616e736665722066726f6d20746865207a65726f206164604482015264647265737360d81b60648201526084016104f8565b6001600160a01b03821661161b5760405162461bcd60e51b815260206004820152602360248201527f45524332303a207472616e7366657220746f20746865207a65726f206164647260448201526265737360e81b60648201526084016104f8565b6001600160a01b038316600090815260208190526040902054818110156116935760405162461bcd60e51b815260206004820152602660248201527f45524332303a207472616e7366657220616d6f756e7420657863656564732062604482015265616c616e636560d01b60648201526084016104f8565b6001600160a01b038085166000908152602081905260408082208585039055918516815290812080548492906116ca908490611b86565b92505081905550826001600160a01b0316846001600160a01b03167fddf252ad1be2c89b69c2b068fc378daa952ba7f163c4a11628f55a4df523b3ef8460405161171691815260200190565b60405180910390a3610501565b600082600003611735575060006105ad565b60006117418385611e6d565b90508261174e8583611e4b565b146105d25760405162461bcd60e51b815260206004820152602160248201527f536166654d6174683a206d756c7469706c69636174696f6e206f766572666c6f6044820152607760f81b60648201526084016104f8565b6000806117b28385611b86565b9050838110156105d25760405162461bcd60e51b815260206004820152601b60248201527a536166654d6174683a206164646974696f6e206f766572666c6f7760281b60448201526064016104f8565b60006003821115611863575080600061181c600283611e4b565b611827906001611b86565b90505b8181101561185d579050806002816118428186611e4b565b61184c9190611b86565b6118569190611e4b565b905061182a565b50919050565b811561186d575060015b919050565b6000828211156118c45760405162461bcd60e51b815260206004820152601e60248201527f536166654d6174683a207375627472616374696f6e206f766572666c6f77000060448201526064016104f8565b6105d28284611e8c565b6001600160a01b0391909116815260200190565b6001600160a01b03811681146118f757600080fd5b50565b6000806040838503121561190d57600080fd5b8235611918816118e2565b946020939093013593505050565b60005b83811015611941578181015183820152602001611929565b838111156105015750506000910152565b6020815260008251806020840152611971816040850160208701611926565b601f01601f19169190910160400192915050565b60008060006060848603121561199a57600080fd5b83356119a5816118e2565b925060208401356119b5816118e2565b929592945050506040919091013590565b6000806000606084860312156119db57600080fd5b83356119e6816118e2565b95602085013595506040909401359392505050565b600060208284031215611a0d57600080fd5b81356105d2816118e2565b60008060008060808587031215611a2e57600080fd5b8435611a39816118e2565b93506020850135611a49816118e2565b92506040850135611a59816118e2565b9396929550929360600135925050565b60008060408385031215611a7c57600080fd5b8235611a87816118e2565b91506020830135611a97816118e2565b809150509250929050565b60008060008060808587031215611ab857600080fd5b8435611ac3816118e2565b93506020850135611ad3816118e2565b92506040850135611ae3816118e2565b91506060850135611af3816118e2565b939692955090935050565b60008251611b10818460208701611926565b9190910192915050565b600060208284031215611b2c57600080fd5b815180151581146105d257600080fd5b600181811c90821680611b5057607f821691505b60208210810361185d57634e487b7160e01b600052602260045260246000fd5b634e487b7160e01b600052601160045260246000fd5b60008219821115611b9957611b99611b70565b500190565b600060208284031215611bb057600080fd5b5051919050565b600181815b80851115611bf2578160001904821115611bd857611bd8611b70565b80851615611be557918102915b93841c9390800290611bbc565b509250929050565b600082611c09575060016105ad565b81611c16575060006105ad565b8160018114611c2c5760028114611c3657611c52565b60019150506105ad565b60ff841115611c4757611c47611b70565b50506001821b6105ad565b5060208310610133831016604e8410600b8410161715611c75575081810a6105ad565b611c7f8383611bb7565b8060001904821115611c9357611c93611b70565b029392505050565b60006105d260ff841683611bfa565b600080600060608486031215611cbf57600080fd5b8351925060208401519150604084015190509250925092565b634e487b7160e01b600052604160045260246000fd5b634e487b7160e01b600052603260045260246000fd5b600060a082018783526020878185015260a0604085015281875180845260c086019150828901935060005b81811015611d545784516001600160a01b031683529383019391830191600101611d2f565b50506001600160a01b03969096166060850152505050608001529392505050565b60006020808385031215611d8857600080fd5b82516001600160401b0380821115611d9f57600080fd5b818501915085601f830112611db357600080fd5b815181811115611dc557611dc5611cd8565b8060051b604051601f19603f83011681018181108582111715611dea57611dea611cd8565b604052918252848201925083810185019188831115611e0857600080fd5b938501935b82851015611e2657845184529385019392850192611e0d565b98975050505050505050565b6001600160a01b03929092168252602082015260400190565b600082611e6857634e487b7160e01b600052601260045260246000fd5b500490565b6000816000190483118215151615611e8757611e87611b70565b500290565b600082821015611e9e57611e9e611b70565b50039056fea2646970667358221220695db8e88d8f3d522b9b0e5eebda2fdf7c11a034de036325615b9eadf28f74be64736f6c634300080f0033",
  "immutableReferences": {},
  "source": "/************************************************************\r\n *\r\n * Autor: Zoinks\r\n *\r\n * 446576656c6f7065723a20416e746f6e20506f6c656e79616b61 ****/\r\n\r\n// SPDX-License-Identifier: UNLICENSED\r\npragma solidity 0.8.15;\r\n\r\nimport \"./abstract/Context.sol\";\r\nimport \"./common/ERC20.sol\";\r\nimport \"./interfaces/IERC20.sol\";\r\nimport \"./interfaces/IERC20Metadata.sol\";\r\nimport \"./interfaces/IRouter.sol\";\r\nimport \"./librarys/SafeMath.sol\";\r\nimport \"./librarys/SafeERC20.sol\";\r\nimport \"./librarys/Math.sol\";\r\n\r\ncontract CakePulse is ERC20 {\r\n    using SafeMath for uint256;\r\n    using SafeERC20 for IERC20;\r\n\r\n    //maximum-integer\r\n    uint256 MAX_INT =\r\n        0xffffffffffffffffffffffffffffffffffffffffffffffffffffffffffffffff;\r\n    // Whether it is initialized\r\n    bool public isInitialized;\r\n    //zoinks contract\r\n    IERC20 public zoinks;\r\n    // snacks contract\r\n    IERC20 public snacks;\r\n    //router contract address\r\n    IRouter public zoinksRouter;\r\n    // pancakeRouter contract address\r\n    // TestNet strange address of pancake router 0x481454b78F5F6442b1dCD4C28C0bF4a16b7C8C21\r\n    // TestNet real by https://docs.pancakeswap.finance/v/espanol/devs/migracion/cake-syrup-pool: 0xD99D1c33F9fC3444f8101754aBC46c52416550D1\r\n    // MainNet BSC: 0x10ED43C718714eb63d5aA57B78B54704E256024E\r\n    IRouter public pancakeRouter =\r\n        IRouter(0x10ED43C718714eb63d5aA57B78B54704E256024E);\r\n    //snackspool contract address\r\n    address public snackspool;\r\n    // cakepool contract address\r\n    // TestNet strange address of cakepool 0x281F929FD3696f80e4dB0613804F6870265A39Ce\r\n    // TestNet real by https://docs.pancakeswap.finance/v/espanol/devs/migracion/cake-syrup-pool: 0x683433ba14e8F26774D43D3E90DA6Dd7a22044Fe\r\n    // MainNet 0x45c54210128a065de780C4B0Df3d16664f7f859e\r\n    address public cakepool = 0x45c54210128a065de780C4B0Df3d16664f7f859e;\r\n    //busd contract\r\n    // Testnet our old BUSD token: 0xD0F7d3611d2faDc1838FBAc6c2Dbe19EC8cCE359\r\n    // TestNet our new BUSD token: 0xAFA8413aB62B3e2A4C0E0Dbc460d32b89db93aFd\r\n    // MainNet 0xe9e7CEA3DedcA5984780Bafc599bD69ADd087D56\r\n    IERC20 public busd = IERC20(0xe9e7CEA3DedcA5984780Bafc599bD69ADd087D56);\r\n    // cake contract\r\n    // TestNet strange address of cake 0xB4452E6DCa8bB6Ff5C14Df586bc03ec8Bc4b9094\r\n    // TestNet real by https://docs.pancakeswap.finance/v/espanol/devs/migracion/cake-syrup-pool: 0xFa60D973F7642B748046464e165A65B7323b0DEE (Dummy Tokens)\r\n    // MainNet 0x0E09FaBB73Bd3Ade0a17ECC321fD13a19e81cE82\r\n    IERC20 public cake = IERC20(0x0E09FaBB73Bd3Ade0a17ECC321fD13a19e81cE82); // Is address of token? What is CakeToken, is our test token?\r\n\r\n    event Circulate();\r\n\r\n    constructor() ERC20(\"CAKEPULSE\", \"CAKEPULSE\") {}\r\n\r\n    /*\r\n     * @notice Initialize the contract\r\n     * @param _master: master contract address\r\n     * @param _zoinks: zoinks token address\r\n     * @param _snacks: snacks token address\r\n     * @param _snackspool: snackspool contract address\r\n     */\r\n    function initialize(\r\n        IRouter _zoinksRouter,\r\n        IERC20 _zoinks,\r\n        IERC20 _snacks,\r\n        address _snackspool\r\n    ) external {\r\n        //require(!isInitialized, \"Already initialized\");\r\n\r\n        // Make this contract initialized\r\n        isInitialized = true;\r\n\r\n        zoinksRouter = _zoinksRouter;\r\n        zoinks = _zoinks;\r\n        snacks = _snacks;\r\n        snackspool = _snackspool;\r\n\r\n        // Approve zoinks to snacks for buy(zoinks -> snacks)\r\n        zoinks.approve(address(snacks), MAX_INT);\r\n        // Approve snacks to snackspool for deposit(snacks to snacksPool)\r\n        snacks.approve(address(snackspool), MAX_INT);\r\n        // Approve zoinks to router for swap(zoinks to busd), add liquidity\r\n        zoinks.approve(address(zoinksRouter), MAX_INT);\r\n        // Approve busd to router for add liquidity\r\n        busd.approve(address(zoinksRouter), MAX_INT);\r\n        // Approve cake to router for swap(busd to cake)\r\n        busd.approve(address(pancakeRouter), MAX_INT);\r\n        // Approve cake to cakepool for deposit(cake to cakepool)\r\n        cake.approve(address(cakepool), MAX_INT);\r\n    }\r\n\r\n    /*\r\n     * @main entry point\r\n     * @notice calculate amount of snacks corresponding amount of zoinks\r\n     * @param zoinksAmount: amount of zoinks\r\n     */\r\n\r\n    function circulate() public {\r\n        // 1. Get balance of contract\r\n        uint256 snacksBalance = snacks.balanceOf(address(this));\r\n        // 2. Stake Snacks -> Snacks Pool\r\n        deposit(snackspool, snacksBalance);\r\n        snacksBalance = snacks.balanceOf(address(this));\r\n        // 3. Claim reward Snacks\r\n        updatePool(snackspool);\r\n        deposit(snackspool, 0);\r\n        uint256 snacksReward = snacks.balanceOf(address(this)).sub(\r\n            snacksBalance\r\n        );\r\n        // 4. Redeem reward Snacks to get Zoinks\r\n        redeemSnacks(snacks, snacksReward);\r\n        uint256 zoinksBalance = zoinks.balanceOf(address(this));\r\n        // 5. Swap Zoinks to BUSD in Zoinks Router\r\n        uint256 swappedAmount = swap(\r\n            zoinksRouter,\r\n            address(zoinks),\r\n            address(busd),\r\n            zoinksBalance\r\n        );\r\n        // 6. Swap BUSD to Cake in Pancake swap Router\r\n        swappedAmount = swap(\r\n            pancakeRouter,\r\n            address(busd),\r\n            address(cake),\r\n            swappedAmount\r\n        );\r\n        // 7. Stake Cake to Cake Pool in Pancake swap\r\n        deposit(cakepool, swappedAmount);\r\n        // 8. Claim reward Cake in Pancake swap\r\n        deposit(cakepool, 0);\r\n\r\n        emit Circulate();\r\n    }\r\n\r\n    /*\r\n     * @notice buy snacks/ethSnacks/btcSnacks corresponding amount of zoinks/eth/btc\r\n     * @param _snacks: snacks/ethSnacks/btcSnacks contract\r\n     * @param _amount: amount of zoinks/eth/btc\r\n     * @param rate: rate of tokens\r\n     */\r\n    function buySnacks(\r\n        IERC20 _snacks,\r\n        uint256 _amount,\r\n        uint256 rate\r\n    ) public {\r\n        uint256 amount = calculateBuyAmount(_snacks, _amount, rate);\r\n        if (amount == 0) {\r\n            return;\r\n        }\r\n        (bool success, bytes memory data) = address(_snacks).call(\r\n            abi.encodeWithSelector(\r\n                bytes4(keccak256(bytes(\"buy(uint256)\"))),\r\n                amount\r\n            )\r\n        );\r\n        require(\r\n            success && (data.length == 0 || abi.decode(data, (bool))),\r\n            \"PULSE: BUY_SNACKS_FAILED\"\r\n        );\r\n    }\r\n\r\n    /*\r\n     * @notice buyback snacks/ethSnacks/btcSnacks\r\n     * @param _snacks: address of snacks/ethSnacks/btcSnacks\r\n     * @param amount: amount of snacks/ethSnacks/btcSnacks to redeem\r\n     */\r\n    function redeemSnacks(IERC20 _snacks, uint256 amount) public {\r\n        if (amount == 0) {\r\n            return;\r\n        }\r\n        amount = amount.div(10**18);\r\n        (bool success, bytes memory data) = address(_snacks).call(\r\n            abi.encodeWithSelector(\r\n                bytes4(keccak256(bytes(\"redeem(uint256)\"))),\r\n                amount\r\n            )\r\n        );\r\n        require(\r\n            success && (data.length == 0 || abi.decode(data, (bool))),\r\n            \"PULSE: REDEEM_SNACKS_FAILED\"\r\n        );\r\n    }\r\n\r\n    /*\r\n     * @notice deposit token to pool\r\n     * @param amount: amount to deposit\r\n     */\r\n    function deposit(address pool, uint256 amount) public {\r\n        (bool success, bytes memory data) = pool.call(\r\n            abi.encodeWithSelector(\r\n                bytes4(keccak256(bytes(\"deposit(uint256)\"))),\r\n                amount\r\n            )\r\n        );\r\n        require(\r\n            success && (data.length == 0 || abi.decode(data, (bool))),\r\n            \"PULSE: DEPOSIT_POOL_FAILED\"\r\n        );\r\n    }\r\n\r\n    /*\r\n     * @notice update pool for calculate reward\r\n     */\r\n    function updatePool(address pool) public {\r\n        (bool success, bytes memory data) = pool.call(\r\n            abi.encodeWithSelector(bytes4(keccak256(bytes(\"updatePool()\"))))\r\n        );\r\n        require(\r\n            success && (data.length == 0 || abi.decode(data, (bool))),\r\n            \"PULSE: UPDATE_POOL_FAILED\"\r\n        );\r\n    }\r\n\r\n    /*\r\n     * @notice swap tokens\r\n     * @param amount: amount to swap\r\n     */\r\n    function swap(\r\n        IRouter router,\r\n        address from,\r\n        address to,\r\n        uint256 amount\r\n    ) public returns (uint256) {\r\n        if (amount == 0) {\r\n            return 0;\r\n        }\r\n        uint256[] memory swappedAmount;\r\n        address[] memory path = new address[](2);\r\n        path[0] = from;\r\n        path[1] = to;\r\n        swappedAmount = router.swapExactTokensForTokens(\r\n            amount,\r\n            0,\r\n            path,\r\n            address(this),\r\n            0xffffffff\r\n        );\r\n        return swappedAmount[1];\r\n    }\r\n\r\n    /*\r\n     * @notice add liquidity with zoinks and busd\r\n     * @param amount: amount of zoinks and busd\r\n     */\r\n    function addLiquidity(IRouter router, uint256 amount)\r\n        public\r\n        returns (uint256)\r\n    {\r\n        if (amount == 0) {\r\n            return 0;\r\n        }\r\n        (, , uint256 liquidity) = router.addLiquidity(\r\n            address(zoinks),\r\n            address(busd),\r\n            amount,\r\n            amount,\r\n            0,\r\n            0,\r\n            address(this),\r\n            0xffffffff\r\n        );\r\n        return liquidity;\r\n    }\r\n\r\n    /*\r\n     * @notice calculate amount of snacks/ethSnacks/btcSnacks corresponding amount of zoinks/etc/btc\r\n     * @param _snacks: snacks/ethSnacks/btcSnacks contract\r\n     * @param _amount: amount of zoinks/eth/btc\r\n     * @param rate: rate of tokens\r\n     */\r\n    function calculateBuyAmount(\r\n        IERC20 _snacks,\r\n        uint256 _amount,\r\n        uint256 rate\r\n    ) public view returns (uint256) {\r\n        if (_amount == 0) {\r\n            return _amount;\r\n        }\r\n        uint256 _snacksAmount;\r\n        uint256 totalSupply = _snacks.totalSupply().div(10**18);\r\n        totalSupply = totalSupply.mul(2).add(1);\r\n        _snacksAmount = Math.sqrt(\r\n            (totalSupply**2).add(_amount.mul(8).div(rate))\r\n        );\r\n        _snacksAmount = _snacksAmount.sub(totalSupply).div(2);\r\n        return _snacksAmount;\r\n    }\r\n}\r\n",
  "sourcePath": "C:\\GitHub\\zoinks\\contracts\\Development\\src\\contracts\\CakePulse.sol",
  "compiler": {
    "name": "solc",
    "version": "0.8.15+commit.e14f2714.Emscripten.clang"
  },
  "schemaVersion": "3.4.8",
  "updatedAt": "2022-08-08T18:33:02.657Z",
  "devdoc": {
    "kind": "dev",
    "methods": {
      "allowance(address,address)": {
        "details": "See {IERC20-allowance}."
      },
      "approve(address,uint256)": {
        "details": "See {IERC20-approve}. NOTE: If `amount` is the maximum `uint256`, the allowance is not updated on `transferFrom`. This is semantically equivalent to an infinite approval. Requirements: - `spender` cannot be the zero address."
      },
      "balanceOf(address)": {
        "details": "See {IERC20-balanceOf}."
      },
      "decimals()": {
        "details": "Returns the number of decimals used to get its user representation. For example, if `decimals` equals `2`, a balance of `505` tokens should be displayed to a user as `5.05` (`505 / 10 ** 2`). Tokens usually opt for a value of 18, imitating the relationship between Ether and Wei. This is the value {ERC20} uses, unless this function is overridden; NOTE: This information is only used for _display_ purposes: it in no way affects any of the arithmetic of the contract, including {IERC20-balanceOf} and {IERC20-transfer}."
      },
      "decreaseAllowance(address,uint256)": {
        "details": "Atomically decreases the allowance granted to `spender` by the caller. This is an alternative to {approve} that can be used as a mitigation for problems described in {IERC20-approve}. Emits an {Approval} event indicating the updated allowance. Requirements: - `spender` cannot be the zero address. - `spender` must have allowance for the caller of at least `subtractedValue`."
      },
      "increaseAllowance(address,uint256)": {
        "details": "Atomically increases the allowance granted to `spender` by the caller. This is an alternative to {approve} that can be used as a mitigation for problems described in {IERC20-approve}. Emits an {Approval} event indicating the updated allowance. Requirements: - `spender` cannot be the zero address."
      },
      "name()": {
        "details": "Returns the name of the token."
      },
      "symbol()": {
        "details": "Returns the symbol of the token, usually a shorter version of the name."
      },
      "totalSupply()": {
        "details": "See {IERC20-totalSupply}."
      },
      "transfer(address,uint256)": {
        "details": "See {IERC20-transfer}. Requirements: - `to` cannot be the zero address. - the caller must have a balance of at least `amount`."
      },
      "transferFrom(address,address,uint256)": {
        "details": "See {IERC20-transferFrom}. Emits an {Approval} event indicating the updated allowance. This is not required by the EIP. See the note at the beginning of {ERC20}. NOTE: Does not update the allowance if the current allowance is the maximum `uint256`. Requirements: - `from` and `to` cannot be the zero address. - `from` must have a balance of at least `amount`. - the caller must have allowance for ``from``'s tokens of at least `amount`."
      }
    },
    "version": 1
  },
  "userdoc": {
    "kind": "user",
    "methods": {},
    "version": 1
  }
}