{
  "contractName": "CakeToken",
  "abi": [
    {
      "anonymous": false,
      "inputs": [
        {
          "indexed": true,
          "internalType": "address",
          "name": "owner",
          "type": "address"
        },
        {
          "indexed": true,
          "internalType": "address",
          "name": "spender",
          "type": "address"
        },
        {
          "indexed": false,
          "internalType": "uint256",
          "name": "value",
          "type": "uint256"
        }
      ],
      "name": "Approval",
      "type": "event"
    },
    {
      "anonymous": false,
      "inputs": [
        {
          "indexed": true,
          "internalType": "address",
          "name": "delegator",
          "type": "address"
        },
        {
          "indexed": true,
          "internalType": "address",
          "name": "fromDelegate",
          "type": "address"
        },
        {
          "indexed": true,
          "internalType": "address",
          "name": "toDelegate",
          "type": "address"
        }
      ],
      "name": "DelegateChanged",
      "type": "event"
    },
    {
      "anonymous": false,
      "inputs": [
        {
          "indexed": true,
          "internalType": "address",
          "name": "delegate",
          "type": "address"
        },
        {
          "indexed": false,
          "internalType": "uint256",
          "name": "previousBalance",
          "type": "uint256"
        },
        {
          "indexed": false,
          "internalType": "uint256",
          "name": "newBalance",
          "type": "uint256"
        }
      ],
      "name": "DelegateVotesChanged",
      "type": "event"
    },
    {
      "anonymous": false,
      "inputs": [
        {
          "indexed": true,
          "internalType": "address",
          "name": "previousOwner",
          "type": "address"
        },
        {
          "indexed": true,
          "internalType": "address",
          "name": "newOwner",
          "type": "address"
        }
      ],
      "name": "OwnershipTransferred",
      "type": "event"
    },
    {
      "anonymous": false,
      "inputs": [
        {
          "indexed": true,
          "internalType": "address",
          "name": "from",
          "type": "address"
        },
        {
          "indexed": true,
          "internalType": "address",
          "name": "to",
          "type": "address"
        },
        {
          "indexed": false,
          "internalType": "uint256",
          "name": "value",
          "type": "uint256"
        }
      ],
      "name": "Transfer",
      "type": "event"
    },
    {
      "inputs": [],
      "name": "DELEGATION_TYPEHASH",
      "outputs": [
        {
          "internalType": "bytes32",
          "name": "",
          "type": "bytes32"
        }
      ],
      "stateMutability": "view",
      "type": "function"
    },
    {
      "inputs": [],
      "name": "DOMAIN_TYPEHASH",
      "outputs": [
        {
          "internalType": "bytes32",
          "name": "",
          "type": "bytes32"
        }
      ],
      "stateMutability": "view",
      "type": "function"
    },
    {
      "inputs": [
        {
          "internalType": "address",
          "name": "owner",
          "type": "address"
        },
        {
          "internalType": "address",
          "name": "spender",
          "type": "address"
        }
      ],
      "name": "allowance",
      "outputs": [
        {
          "internalType": "uint256",
          "name": "",
          "type": "uint256"
        }
      ],
      "stateMutability": "view",
      "type": "function"
    },
    {
      "inputs": [
        {
          "internalType": "address",
          "name": "spender",
          "type": "address"
        },
        {
          "internalType": "uint256",
          "name": "amount",
          "type": "uint256"
        }
      ],
      "name": "approve",
      "outputs": [
        {
          "internalType": "bool",
          "name": "",
          "type": "bool"
        }
      ],
      "stateMutability": "nonpayable",
      "type": "function"
    },
    {
      "inputs": [
        {
          "internalType": "address",
          "name": "account",
          "type": "address"
        }
      ],
      "name": "balanceOf",
      "outputs": [
        {
          "internalType": "uint256",
          "name": "",
          "type": "uint256"
        }
      ],
      "stateMutability": "view",
      "type": "function"
    },
    {
      "inputs": [
        {
          "internalType": "address",
          "name": "",
          "type": "address"
        },
        {
          "internalType": "uint32",
          "name": "",
          "type": "uint32"
        }
      ],
      "name": "checkpoints",
      "outputs": [
        {
          "internalType": "uint32",
          "name": "fromBlock",
          "type": "uint32"
        },
        {
          "internalType": "uint256",
          "name": "votes",
          "type": "uint256"
        }
      ],
      "stateMutability": "view",
      "type": "function"
    },
    {
      "inputs": [],
      "name": "decimals",
      "outputs": [
        {
          "internalType": "uint8",
          "name": "",
          "type": "uint8"
        }
      ],
      "stateMutability": "view",
      "type": "function"
    },
    {
      "inputs": [
        {
          "internalType": "address",
          "name": "spender",
          "type": "address"
        },
        {
          "internalType": "uint256",
          "name": "subtractedValue",
          "type": "uint256"
        }
      ],
      "name": "decreaseAllowance",
      "outputs": [
        {
          "internalType": "bool",
          "name": "",
          "type": "bool"
        }
      ],
      "stateMutability": "nonpayable",
      "type": "function"
    },
    {
      "inputs": [],
      "name": "getOwner",
      "outputs": [
        {
          "internalType": "address",
          "name": "",
          "type": "address"
        }
      ],
      "stateMutability": "view",
      "type": "function"
    },
    {
      "inputs": [
        {
          "internalType": "address",
          "name": "spender",
          "type": "address"
        },
        {
          "internalType": "uint256",
          "name": "addedValue",
          "type": "uint256"
        }
      ],
      "name": "increaseAllowance",
      "outputs": [
        {
          "internalType": "bool",
          "name": "",
          "type": "bool"
        }
      ],
      "stateMutability": "nonpayable",
      "type": "function"
    },
    {
      "inputs": [],
      "name": "name",
      "outputs": [
        {
          "internalType": "string",
          "name": "",
          "type": "string"
        }
      ],
      "stateMutability": "view",
      "type": "function"
    },
    {
      "inputs": [
        {
          "internalType": "address",
          "name": "",
          "type": "address"
        }
      ],
      "name": "nonces",
      "outputs": [
        {
          "internalType": "uint256",
          "name": "",
          "type": "uint256"
        }
      ],
      "stateMutability": "view",
      "type": "function"
    },
    {
      "inputs": [
        {
          "internalType": "address",
          "name": "",
          "type": "address"
        }
      ],
      "name": "numCheckpoints",
      "outputs": [
        {
          "internalType": "uint32",
          "name": "",
          "type": "uint32"
        }
      ],
      "stateMutability": "view",
      "type": "function"
    },
    {
      "inputs": [],
      "name": "owner",
      "outputs": [
        {
          "internalType": "address",
          "name": "",
          "type": "address"
        }
      ],
      "stateMutability": "view",
      "type": "function"
    },
    {
      "inputs": [],
      "name": "renounceOwnership",
      "outputs": [],
      "stateMutability": "nonpayable",
      "type": "function"
    },
    {
      "inputs": [],
      "name": "symbol",
      "outputs": [
        {
          "internalType": "string",
          "name": "",
          "type": "string"
        }
      ],
      "stateMutability": "view",
      "type": "function"
    },
    {
      "inputs": [],
      "name": "totalSupply",
      "outputs": [
        {
          "internalType": "uint256",
          "name": "",
          "type": "uint256"
        }
      ],
      "stateMutability": "view",
      "type": "function"
    },
    {
      "inputs": [
        {
          "internalType": "address",
          "name": "recipient",
          "type": "address"
        },
        {
          "internalType": "uint256",
          "name": "amount",
          "type": "uint256"
        }
      ],
      "name": "transfer",
      "outputs": [
        {
          "internalType": "bool",
          "name": "",
          "type": "bool"
        }
      ],
      "stateMutability": "nonpayable",
      "type": "function"
    },
    {
      "inputs": [
        {
          "internalType": "address",
          "name": "sender",
          "type": "address"
        },
        {
          "internalType": "address",
          "name": "recipient",
          "type": "address"
        },
        {
          "internalType": "uint256",
          "name": "amount",
          "type": "uint256"
        }
      ],
      "name": "transferFrom",
      "outputs": [
        {
          "internalType": "bool",
          "name": "",
          "type": "bool"
        }
      ],
      "stateMutability": "nonpayable",
      "type": "function"
    },
    {
      "inputs": [
        {
          "internalType": "address",
          "name": "newOwner",
          "type": "address"
        }
      ],
      "name": "transferOwnership",
      "outputs": [],
      "stateMutability": "nonpayable",
      "type": "function"
    },
    {
      "inputs": [
        {
          "internalType": "address",
          "name": "_to",
          "type": "address"
        },
        {
          "internalType": "uint256",
          "name": "_amount",
          "type": "uint256"
        }
      ],
      "name": "mint",
      "outputs": [],
      "stateMutability": "nonpayable",
      "type": "function"
    },
    {
      "inputs": [
        {
          "internalType": "uint256",
          "name": "amount",
          "type": "uint256"
        }
      ],
      "name": "mint",
      "outputs": [
        {
          "internalType": "bool",
          "name": "",
          "type": "bool"
        }
      ],
      "stateMutability": "nonpayable",
      "type": "function"
    },
    {
      "inputs": [
        {
          "internalType": "address",
          "name": "delegator",
          "type": "address"
        }
      ],
      "name": "delegates",
      "outputs": [
        {
          "internalType": "address",
          "name": "",
          "type": "address"
        }
      ],
      "stateMutability": "view",
      "type": "function"
    },
    {
      "inputs": [
        {
          "internalType": "address",
          "name": "delegatee",
          "type": "address"
        }
      ],
      "name": "delegate",
      "outputs": [],
      "stateMutability": "nonpayable",
      "type": "function"
    },
    {
      "inputs": [
        {
          "internalType": "address",
          "name": "delegatee",
          "type": "address"
        },
        {
          "internalType": "uint256",
          "name": "nonce",
          "type": "uint256"
        },
        {
          "internalType": "uint256",
          "name": "expiry",
          "type": "uint256"
        },
        {
          "internalType": "uint8",
          "name": "v",
          "type": "uint8"
        },
        {
          "internalType": "bytes32",
          "name": "r",
          "type": "bytes32"
        },
        {
          "internalType": "bytes32",
          "name": "s",
          "type": "bytes32"
        }
      ],
      "name": "delegateBySig",
      "outputs": [],
      "stateMutability": "nonpayable",
      "type": "function"
    },
    {
      "inputs": [
        {
          "internalType": "address",
          "name": "account",
          "type": "address"
        }
      ],
      "name": "getCurrentVotes",
      "outputs": [
        {
          "internalType": "uint256",
          "name": "",
          "type": "uint256"
        }
      ],
      "stateMutability": "view",
      "type": "function"
    },
    {
      "inputs": [
        {
          "internalType": "address",
          "name": "account",
          "type": "address"
        },
        {
          "internalType": "uint256",
          "name": "blockNumber",
          "type": "uint256"
        }
      ],
      "name": "getPriorVotes",
      "outputs": [
        {
          "internalType": "uint256",
          "name": "",
          "type": "uint256"
        }
      ],
      "stateMutability": "view",
      "type": "function"
    }
  ],
  "bytecode": "0x60806040523480156200001157600080fd5b506040518060400160405280601081526020016f2d37b4b735b9a9bbb0b8102a37b5b2b760811b8152506040518060400160405280600481526020016343616b6560e01b815250620000726200006c620000a560201b60201c565b620000a9565b60046200008083826200019e565b5060056200008f82826200019e565b50506006805460ff19166012179055506200026a565b3390565b600080546001600160a01b038381166001600160a01b0319831681178455604051919092169283917f8be0079c531659141344cd1fd0a4f28419497f9722a3daafe3b4186f6b6457e09190a35050565b634e487b7160e01b600052604160045260246000fd5b600181811c908216806200012457607f821691505b6020821081036200014557634e487b7160e01b600052602260045260246000fd5b50919050565b601f8211156200019957600081815260208120601f850160051c81016020861015620001745750805b601f850160051c820191505b81811015620001955782815560010162000180565b5050505b505050565b81516001600160401b03811115620001ba57620001ba620000f9565b620001d281620001cb84546200010f565b846200014b565b602080601f8311600181146200020a5760008415620001f15750858301515b600019600386901b1c1916600185901b17855562000195565b600085815260208120601f198616915b828110156200023b578886015182559484019460019091019084016200021a565b50858210156200025a5787850151600019600388901b60f8161c191681555b5050505050600190811b01905550565b6119f4806200027a6000396000f3fe608060405234801561001057600080fd5b50600436106101495760003560e01c806306fdde031461014e578063095ea7b31461016c57806318160ddd1461018f57806320606b70146101a157806323b872dd146101b6578063313ce567146101c957806339509351146101de57806340c10f19146101f1578063587cde1e146102065780635c19a95c1461024a5780636fcfff451461025d57806370a0823114610298578063715018a6146102ab578063782d6fe1146102b35780637ecebe00146102c6578063893d20e8146102e65780638da5cb5b146102ee57806395d89b41146102f6578063a0712d68146102fe578063a457c2d714610311578063a9059cbb14610324578063b4b5ea5714610337578063c3cda5201461034a578063dd62ed3e1461035d578063e7a324dc14610396578063f1127ed8146103ab578063f2fde38b14610402575b600080fd5b610156610415565b6040516101639190611593565b60405180910390f35b61017f61017a3660046115ff565b6104a7565b6040519015158152602001610163565b6003545b604051908152602001610163565b6101936000805160206118b883398151915281565b61017f6101c4366004611629565b6104be565b60065460405160ff9091168152602001610163565b61017f6101ec3660046115ff565b610527565b6102046101ff3660046115ff565b61055d565b005b610232610214366004611665565b6001600160a01b039081166000908152600760205260409020541690565b6040516001600160a01b039091168152602001610163565b610204610258366004611665565b6105c8565b61028361026b366004611665565b60096020526000908152604090205463ffffffff1681565b60405163ffffffff9091168152602001610163565b6101936102a6366004611665565b6105d5565b6102046105f0565b6101936102c13660046115ff565b61062b565b6101936102d4366004611665565b600a6020526000908152604090205481565b610232610893565b6102326108a2565b6101566108b1565b61017f61030c366004611680565b6108c0565b61017f61031f3660046115ff565b610904565b61017f6103323660046115ff565b610953565b610193610345366004611665565b610960565b610204610358366004611699565b6109d5565b61019361036b3660046116f9565b6001600160a01b03918216600090815260026020908152604080832093909416825291909152205490565b6101936000805160206118d883398151915281565b6103e66103b936600461172c565b60086020908152600092835260408084209091529082529020805460019091015463ffffffff9091169082565b6040805163ffffffff9093168352602083019190915201610163565b610204610410366004611665565b610c7f565b6060600480546104249061176c565b80601f01602080910402602001604051908101604052809291908181526020018280546104509061176c565b801561049d5780601f106104725761010080835404028352916020019161049d565b820191906000526020600020905b81548152906001019060200180831161048057829003601f168201915b5050505050905090565b60006104b4338484610d1c565b5060015b92915050565b60006104cb848484610e41565b61051d8433610518856040518060600160405280602881526020016118f8602891396001600160a01b038a1660009081526002602090815260408083203384529091529020549190610fb5565b610d1c565b5060019392505050565b3360008181526002602090815260408083206001600160a01b038716845290915281205490916104b49185906105189086610fec565b336105666108a2565b6001600160a01b0316146105955760405162461bcd60e51b815260040161058c906117a6565b60405180910390fd5b61059f8282611049565b6001600160a01b038083166000908152600760205260408120546105c492168361111d565b5050565b6105d23382611281565b50565b6001600160a01b031660009081526001602052604090205490565b336105f96108a2565b6001600160a01b03161461061f5760405162461bcd60e51b815260040161058c906117a6565b6106296000611316565b565b600043821061068c5760405162461bcd60e51b815260206004820152602760248201527f43414b453a3a6765745072696f72566f7465733a206e6f742079657420646574604482015266195c9b5a5b995960ca1b606482015260840161058c565b6001600160a01b03831660009081526009602052604081205463ffffffff16908190036106bd5760009150506104b8565b6001600160a01b038416600090815260086020526040812084916106e26001856117f1565b63ffffffff9081168252602082019290925260400160002054161161074b576001600160a01b0384166000908152600860205260408120906107256001846117f1565b63ffffffff1663ffffffff168152602001908152602001600020600101549150506104b8565b6001600160a01b038416600090815260086020908152604080832083805290915290205463ffffffff168310156107865760009150506104b8565b6000806107946001846117f1565b90505b8163ffffffff168163ffffffff16111561085c57600060026107b984846117f1565b6107c39190611816565b6107cd90836117f1565b6001600160a01b038816600090815260086020908152604080832063ffffffff8086168552908352928190208151808301909252805490931680825260019093015491810191909152919250879003610830576020015194506104b89350505050565b805163ffffffff1687111561084757819350610855565b6108526001836117f1565b92505b5050610797565b506001600160a01b038516600090815260086020908152604080832063ffffffff9094168352929052206001015491505092915050565b600061089d6108a2565b905090565b6000546001600160a01b031690565b6060600580546104249061176c565b6000336108cb6108a2565b6001600160a01b0316146108f15760405162461bcd60e51b815260040161058c906117a6565b6108fb3383611049565b5060015b919050565b60006104b433846105188560405180606001604052806025815260200161199a602591393360009081526002602090815260408083206001600160a01b038d1684529091529020549190610fb5565b60006104b4338484610e41565b6001600160a01b03811660009081526009602052604081205463ffffffff168061098b5760006109ce565b6001600160a01b0383166000908152600860205260408120906109af6001846117f1565b63ffffffff1663ffffffff168152602001908152602001600020600101545b9392505050565b60006000805160206118b88339815191526109ee610415565b805190602001206109fc4690565b60408051602080820195909552808201939093526060830191909152306080808401919091528151808403909101815260a0830182528051908401206000805160206118d883398151915260c08401526001600160a01b038b1660e084015261010083018a90526101208084018a90528251808503909101815261014084019092528151919093012061190160f01b610160830152610162820183905261018282018190529192506000906101a20160408051601f198184030181528282528051602091820120600080855291840180845281905260ff8a169284019290925260608301889052608083018790529092509060019060a0016020604051602081039080840390855afa158015610b16573d6000803e3d6000fd5b5050604051601f1901519150506001600160a01b038116610b885760405162461bcd60e51b815260206004820152602660248201527f43414b453a3a64656c656761746542795369673a20696e76616c6964207369676044820152656e617475726560d01b606482015260840161058c565b6001600160a01b0381166000908152600a60205260408120805491610bac83611847565b919050558914610c095760405162461bcd60e51b815260206004820152602260248201527f43414b453a3a64656c656761746542795369673a20696e76616c6964206e6f6e604482015261636560f01b606482015260840161058c565b87421115610c685760405162461bcd60e51b815260206004820152602660248201527f43414b453a3a64656c656761746542795369673a207369676e617475726520656044820152651e1c1a5c995960d21b606482015260840161058c565b610c72818b611281565b505050505b505050505050565b33610c886108a2565b6001600160a01b031614610cae5760405162461bcd60e51b815260040161058c906117a6565b6001600160a01b038116610d135760405162461bcd60e51b815260206004820152602660248201527f4f776e61626c653a206e6577206f776e657220697320746865207a65726f206160448201526564647265737360d01b606482015260840161058c565b6105d281611316565b6001600160a01b038316610d7e5760405162461bcd60e51b8152602060048201526024808201527f42455032303a20617070726f76652066726f6d20746865207a65726f206164646044820152637265737360e01b606482015260840161058c565b6001600160a01b038216610ddf5760405162461bcd60e51b815260206004820152602260248201527f42455032303a20617070726f766520746f20746865207a65726f206164647265604482015261737360f01b606482015260840161058c565b6001600160a01b0383811660008181526002602090815260408083209487168084529482529182902085905590518481527f8c5be1e5ebec7d5bd14f71427d1e84f3dd0314c0f7b2291e5b200ac8c7c3b92591015b60405180910390a3505050565b6001600160a01b038316610ea55760405162461bcd60e51b815260206004820152602560248201527f42455032303a207472616e736665722066726f6d20746865207a65726f206164604482015264647265737360d81b606482015260840161058c565b6001600160a01b038216610f075760405162461bcd60e51b815260206004820152602360248201527f42455032303a207472616e7366657220746f20746865207a65726f206164647260448201526265737360e81b606482015260840161058c565b610f4481604051806060016040528060268152602001611954602691396001600160a01b0386166000908152600160205260409020549190610fb5565b6001600160a01b038085166000908152600160205260408082209390935590841681522054610f739082610fec565b6001600160a01b03808416600081815260016020526040908190209390935591519085169060008051602061197a83398151915290610e349085815260200190565b60008184841115610fd95760405162461bcd60e51b815260040161058c9190611593565b50610fe48385611860565b949350505050565b600080610ff98385611877565b9050838110156109ce5760405162461bcd60e51b815260206004820152601b60248201527a536166654d6174683a206164646974696f6e206f766572666c6f7760281b604482015260640161058c565b6001600160a01b03821661109f5760405162461bcd60e51b815260206004820152601f60248201527f42455032303a206d696e7420746f20746865207a65726f206164647265737300604482015260640161058c565b6003546110ac9082610fec565b6003556001600160a01b0382166000908152600160205260409020546110d29082610fec565b6001600160a01b03831660008181526001602052604080822093909355915190919060008051602061197a833981519152906111119085815260200190565b60405180910390a35050565b816001600160a01b0316836001600160a01b03161415801561113f5750600081115b1561127c576001600160a01b038316156111e2576001600160a01b03831660009081526009602052604081205463ffffffff16908161117f5760006111c2565b6001600160a01b0385166000908152600860205260408120906111a36001856117f1565b63ffffffff1663ffffffff168152602001908152602001600020600101545b905060006111d08285611366565b90506111de868484846113c2565b5050505b6001600160a01b0382161561127c576001600160a01b03821660009081526009602052604081205463ffffffff16908161121d576000611260565b6001600160a01b0384166000908152600860205260408120906112416001856117f1565b63ffffffff1663ffffffff168152602001908152602001600020600101545b9050600061126e8285610fec565b9050610c77858484846113c2565b505050565b6001600160a01b03808316600090815260076020526040812054909116906112a8846105d5565b6001600160a01b0385811660008181526007602052604080822080546001600160a01b031916898616908117909155905194955093928616927f3134e8a2e6d97e929a7e54011ea5485d7d196dd5f0ba4d4ef95803e8e3fc257f9190a461131082848361111d565b50505050565b600080546001600160a01b038381166001600160a01b0319831681178455604051919092169283917f8be0079c531659141344cd1fd0a4f28419497f9722a3daafe3b4186f6b6457e09190a35050565b6000828211156113b85760405162461bcd60e51b815260206004820152601e60248201527f536166654d6174683a207375627472616374696f6e206f766572666c6f770000604482015260640161058c565b6109ce8284611860565b60006113e64360405180606001604052806034815260200161192060349139611564565b905060008463ffffffff1611801561144057506001600160a01b038516600090815260086020526040812063ffffffff8316916114246001886117f1565b63ffffffff908116825260208201929092526040016000205416145b15611489576001600160a01b0385166000908152600860205260408120839161146a6001886117f1565b63ffffffff168152602081019190915260400160002060010155611519565b60408051808201825263ffffffff838116825260208083018681526001600160a01b038a166000908152600883528581208a851682529092529390209151825463ffffffff1916911617815590516001918201556114e890859061188f565b6001600160a01b0386166000908152600960205260409020805463ffffffff191663ffffffff929092169190911790555b60408051848152602081018490526001600160a01b038716917fdec2bacdd2f05b59de34da9b523dff8be42e5e38e818c82fdb0bae774387a724910160405180910390a25050505050565b600081600160201b841061158b5760405162461bcd60e51b815260040161058c9190611593565b509192915050565b600060208083528351808285015260005b818110156115c0578581018301518582016040015282016115a4565b818111156115d2576000604083870101525b50601f01601f1916929092016040019392505050565b80356001600160a01b03811681146108ff57600080fd5b6000806040838503121561161257600080fd5b61161b836115e8565b946020939093013593505050565b60008060006060848603121561163e57600080fd5b611647846115e8565b9250611655602085016115e8565b9150604084013590509250925092565b60006020828403121561167757600080fd5b6109ce826115e8565b60006020828403121561169257600080fd5b5035919050565b60008060008060008060c087890312156116b257600080fd5b6116bb876115e8565b95506020870135945060408701359350606087013560ff811681146116df57600080fd5b9598949750929560808101359460a0909101359350915050565b6000806040838503121561170c57600080fd5b611715836115e8565b9150611723602084016115e8565b90509250929050565b6000806040838503121561173f57600080fd5b611748836115e8565b9150602083013563ffffffff8116811461176157600080fd5b809150509250929050565b600181811c9082168061178057607f821691505b6020821081036117a057634e487b7160e01b600052602260045260246000fd5b50919050565b6020808252818101527f4f776e61626c653a2063616c6c6572206973206e6f7420746865206f776e6572604082015260600190565b634e487b7160e01b600052601160045260246000fd5b600063ffffffff8381169083168181101561180e5761180e6117db565b039392505050565b600063ffffffff8084168061183b57634e487b7160e01b600052601260045260246000fd5b92169190910492915050565b600060018201611859576118596117db565b5060010190565b600082821015611872576118726117db565b500390565b6000821982111561188a5761188a6117db565b500190565b600063ffffffff8083168185168083038211156118ae576118ae6117db565b0194935050505056fe8cad95687ba82c2ce50e74f7b754645e5117c3a5bec8151c0726d5857980a866e48329057bfd03d55e49b547132e39cffd9c1820ad7b9d4c5307691425d15adf42455032303a207472616e7366657220616d6f756e74206578636565647320616c6c6f77616e636543414b453a3a5f7772697465436865636b706f696e743a20626c6f636b206e756d6265722065786365656473203332206269747342455032303a207472616e7366657220616d6f756e7420657863656564732062616c616e6365ddf252ad1be2c89b69c2b068fc378daa952ba7f163c4a11628f55a4df523b3ef42455032303a2064656372656173656420616c6c6f77616e63652062656c6f77207a65726fa2646970667358221220ff7f193adedce876c407549a1b941fde68c5a59ec33407583563c1fb6fceab8764736f6c634300080f0033",
  "immutableReferences": {},
  "source": "/************************************************************\r\n *\r\n * Autor: Zoinks\r\n *\r\n * 446576656c6f7065723a20416e746f6e20506f6c656e79616b61 ****/\r\n\r\n// SPDX-License-Identifier: GPL-3.0\r\npragma solidity 0.8.15;\r\n\r\nimport \"./common/BEP20.sol\";\r\n\r\n// CakeToken with Governance.\r\ncontract CakeToken is BEP20(\"ZoinksSwap Token\", \"Cake\") {\r\n    using SafeMath for uint256;\r\n\r\n    /// @notice Creates `_amount` token to `_to`. Must only be called by the owner (MasterChef).\r\n    function mint(address _to, uint256 _amount) public onlyOwner {\r\n        _mint(_to, _amount);\r\n        _moveDelegates(address(0), _delegates[_to], _amount);\r\n    }\r\n\r\n    // Copied and modified from YAM code:\r\n    // https://github.com/yam-finance/yam-protocol/blob/master/contracts/token/YAMGovernanceStorage.sol\r\n    // https://github.com/yam-finance/yam-protocol/blob/master/contracts/token/YAMGovernance.sol\r\n    // Which is copied and modified from COMPOUND:\r\n    // https://github.com/compound-finance/compound-protocol/blob/master/contracts/Governance/Comp.sol\r\n\r\n    /// @dev A record of each accounts delegate\r\n    mapping(address => address) internal _delegates;\r\n\r\n    /// @notice A checkpoint for marking number of votes from a given block\r\n    struct Checkpoint {\r\n        uint32 fromBlock;\r\n        uint256 votes;\r\n    }\r\n\r\n    /// @notice A record of votes checkpoints for each account, by index\r\n    mapping(address => mapping(uint32 => Checkpoint)) public checkpoints;\r\n\r\n    /// @notice The number of checkpoints for each account\r\n    mapping(address => uint32) public numCheckpoints;\r\n\r\n    /// @notice The EIP-712 typehash for the contract's domain\r\n    bytes32 public constant DOMAIN_TYPEHASH =\r\n        keccak256(\r\n            \"EIP712Domain(string name,uint256 chainId,address verifyingContract)\"\r\n        );\r\n\r\n    /// @notice The EIP-712 typehash for the delegation struct used by the contract\r\n    bytes32 public constant DELEGATION_TYPEHASH =\r\n        keccak256(\"Delegation(address delegatee,uint256 nonce,uint256 expiry)\");\r\n\r\n    /// @notice A record of states for signing / validating signatures\r\n    mapping(address => uint256) public nonces;\r\n\r\n    /// @notice An event thats emitted when an account changes its delegate\r\n    event DelegateChanged(\r\n        address indexed delegator,\r\n        address indexed fromDelegate,\r\n        address indexed toDelegate\r\n    );\r\n\r\n    /// @notice An event thats emitted when a delegate account's vote balance changes\r\n    event DelegateVotesChanged(\r\n        address indexed delegate,\r\n        uint256 previousBalance,\r\n        uint256 newBalance\r\n    );\r\n\r\n    /**\r\n     * @notice Delegate votes from `msg.sender` to `delegatee`\r\n     * @param delegator The address to get delegatee for\r\n     */\r\n    function delegates(address delegator) external view returns (address) {\r\n        return _delegates[delegator];\r\n    }\r\n\r\n    /**\r\n     * @notice Delegate votes from `msg.sender` to `delegatee`\r\n     * @param delegatee The address to delegate votes to\r\n     */\r\n    function delegate(address delegatee) external {\r\n        return _delegate(msg.sender, delegatee);\r\n    }\r\n\r\n    /**\r\n     * @notice Delegates votes from signatory to `delegatee`\r\n     * @param delegatee The address to delegate votes to\r\n     * @param nonce The contract state required to match the signature\r\n     * @param expiry The time at which to expire the signature\r\n     * @param v The recovery byte of the signature\r\n     * @param r Half of the ECDSA signature pair\r\n     * @param s Half of the ECDSA signature pair\r\n     */\r\n    function delegateBySig(\r\n        address delegatee,\r\n        uint256 nonce,\r\n        uint256 expiry,\r\n        uint8 v,\r\n        bytes32 r,\r\n        bytes32 s\r\n    ) external {\r\n        bytes32 domainSeparator = keccak256(\r\n            abi.encode(\r\n                DOMAIN_TYPEHASH,\r\n                keccak256(bytes(name())),\r\n                getChainId(),\r\n                address(this)\r\n            )\r\n        );\r\n\r\n        bytes32 structHash = keccak256(\r\n            abi.encode(DELEGATION_TYPEHASH, delegatee, nonce, expiry)\r\n        );\r\n\r\n        bytes32 digest = keccak256(\r\n            abi.encodePacked(\"\\x19\\x01\", domainSeparator, structHash)\r\n        );\r\n\r\n        address signatory = ecrecover(digest, v, r, s);\r\n        require(\r\n            signatory != address(0),\r\n            \"CAKE::delegateBySig: invalid signature\"\r\n        );\r\n        require(\r\n            nonce == nonces[signatory]++,\r\n            \"CAKE::delegateBySig: invalid nonce\"\r\n        );\r\n        require(\r\n            block.timestamp <= expiry,\r\n            \"CAKE::delegateBySig: signature expired\"\r\n        );\r\n        return _delegate(signatory, delegatee);\r\n    }\r\n\r\n    /**\r\n     * @notice Gets the current votes balance for `account`\r\n     * @param account The address to get votes balance\r\n     * @return The number of current votes for `account`\r\n     */\r\n    function getCurrentVotes(address account) external view returns (uint256) {\r\n        uint32 nCheckpoints = numCheckpoints[account];\r\n        return\r\n            nCheckpoints > 0 ? checkpoints[account][nCheckpoints - 1].votes : 0;\r\n    }\r\n\r\n    /**\r\n     * @notice Determine the prior number of votes for an account as of a block number\r\n     * @dev Block number must be a finalized block or else this function will revert to prevent misinformation.\r\n     * @param account The address of the account to check\r\n     * @param blockNumber The block number to get the vote balance at\r\n     * @return The number of votes the account had as of the given block\r\n     */\r\n    function getPriorVotes(address account, uint256 blockNumber)\r\n        external\r\n        view\r\n        returns (uint256)\r\n    {\r\n        require(\r\n            blockNumber < block.number,\r\n            \"CAKE::getPriorVotes: not yet determined\"\r\n        );\r\n\r\n        uint32 nCheckpoints = numCheckpoints[account];\r\n        if (nCheckpoints == 0) {\r\n            return 0;\r\n        }\r\n\r\n        // First check most recent balance\r\n        if (checkpoints[account][nCheckpoints - 1].fromBlock <= blockNumber) {\r\n            return checkpoints[account][nCheckpoints - 1].votes;\r\n        }\r\n\r\n        // Next check implicit zero balance\r\n        if (checkpoints[account][0].fromBlock > blockNumber) {\r\n            return 0;\r\n        }\r\n\r\n        uint32 lower = 0;\r\n        uint32 upper = nCheckpoints - 1;\r\n        while (upper > lower) {\r\n            uint32 center = upper - (upper - lower) / 2; // ceil, avoiding overflow\r\n            Checkpoint memory cp = checkpoints[account][center];\r\n            if (cp.fromBlock == blockNumber) {\r\n                return cp.votes;\r\n            } else if (cp.fromBlock < blockNumber) {\r\n                lower = center;\r\n            } else {\r\n                upper = center - 1;\r\n            }\r\n        }\r\n        return checkpoints[account][lower].votes;\r\n    }\r\n\r\n    function _delegate(address delegator, address delegatee) internal {\r\n        address currentDelegate = _delegates[delegator];\r\n        uint256 delegatorBalance = balanceOf(delegator); // balance of underlying CAKEs (not scaled);\r\n        _delegates[delegator] = delegatee;\r\n\r\n        emit DelegateChanged(delegator, currentDelegate, delegatee);\r\n\r\n        _moveDelegates(currentDelegate, delegatee, delegatorBalance);\r\n    }\r\n\r\n    function _moveDelegates(\r\n        address srcRep,\r\n        address dstRep,\r\n        uint256 amount\r\n    ) internal {\r\n        if (srcRep != dstRep && amount > 0) {\r\n            if (srcRep != address(0)) {\r\n                // decrease old representative\r\n                uint32 srcRepNum = numCheckpoints[srcRep];\r\n                uint256 srcRepOld = srcRepNum > 0\r\n                    ? checkpoints[srcRep][srcRepNum - 1].votes\r\n                    : 0;\r\n                uint256 srcRepNew = srcRepOld.sub(amount);\r\n                _writeCheckpoint(srcRep, srcRepNum, srcRepOld, srcRepNew);\r\n            }\r\n\r\n            if (dstRep != address(0)) {\r\n                // increase new representative\r\n                uint32 dstRepNum = numCheckpoints[dstRep];\r\n                uint256 dstRepOld = dstRepNum > 0\r\n                    ? checkpoints[dstRep][dstRepNum - 1].votes\r\n                    : 0;\r\n                uint256 dstRepNew = dstRepOld.add(amount);\r\n                _writeCheckpoint(dstRep, dstRepNum, dstRepOld, dstRepNew);\r\n            }\r\n        }\r\n    }\r\n\r\n    function _writeCheckpoint(\r\n        address delegatee,\r\n        uint32 nCheckpoints,\r\n        uint256 oldVotes,\r\n        uint256 newVotes\r\n    ) internal {\r\n        uint32 blockNumber = safe32(\r\n            block.number,\r\n            \"CAKE::_writeCheckpoint: block number exceeds 32 bits\"\r\n        );\r\n\r\n        if (\r\n            nCheckpoints > 0 &&\r\n            checkpoints[delegatee][nCheckpoints - 1].fromBlock == blockNumber\r\n        ) {\r\n            checkpoints[delegatee][nCheckpoints - 1].votes = newVotes;\r\n        } else {\r\n            checkpoints[delegatee][nCheckpoints] = Checkpoint(\r\n                blockNumber,\r\n                newVotes\r\n            );\r\n            numCheckpoints[delegatee] = nCheckpoints + 1;\r\n        }\r\n\r\n        emit DelegateVotesChanged(delegatee, oldVotes, newVotes);\r\n    }\r\n\r\n    function safe32(uint256 n, string memory errorMessage)\r\n        internal\r\n        pure\r\n        returns (uint32)\r\n    {\r\n        require(n < 2**32, errorMessage);\r\n        return uint32(n);\r\n    }\r\n\r\n    function getChainId() internal view returns (uint256) {\r\n        uint256 chainId;\r\n        assembly {\r\n            chainId := chainid()\r\n        }\r\n        return chainId;\r\n    }\r\n}\r\n",
  "sourcePath": "C:\\GitHub\\zoinks\\contracts\\Development\\src\\contracts\\CakeToken.sol",
  "compiler": {
    "name": "solc",
    "version": "0.8.15+commit.e14f2714.Emscripten.clang"
  },
  "schemaVersion": "3.4.8",
  "updatedAt": "2022-08-08T18:33:02.690Z",
  "devdoc": {
    "kind": "dev",
    "methods": {
      "allowance(address,address)": {
        "details": "See {BEP20-allowance}."
      },
      "approve(address,uint256)": {
        "details": "See {BEP20-approve}. Requirements: - `spender` cannot be the zero address."
      },
      "balanceOf(address)": {
        "details": "See {BEP20-balanceOf}."
      },
      "decimals()": {
        "details": "Returns the token decimals."
      },
      "decreaseAllowance(address,uint256)": {
        "details": "Atomically decreases the allowance granted to `spender` by the caller. This is an alternative to {approve} that can be used as a mitigation for problems described in {BEP20-approve}. Emits an {Approval} event indicating the updated allowance. Requirements: - `spender` cannot be the zero address. - `spender` must have allowance for the caller of at least `subtractedValue`."
      },
      "delegate(address)": {
        "params": {
          "delegatee": "The address to delegate votes to"
        }
      },
      "delegateBySig(address,uint256,uint256,uint8,bytes32,bytes32)": {
        "params": {
          "delegatee": "The address to delegate votes to",
          "expiry": "The time at which to expire the signature",
          "nonce": "The contract state required to match the signature",
          "r": "Half of the ECDSA signature pair",
          "s": "Half of the ECDSA signature pair",
          "v": "The recovery byte of the signature"
        }
      },
      "delegates(address)": {
        "params": {
          "delegator": "The address to get delegatee for"
        }
      },
      "getCurrentVotes(address)": {
        "params": {
          "account": "The address to get votes balance"
        },
        "returns": {
          "_0": "The number of current votes for `account`"
        }
      },
      "getOwner()": {
        "details": "Returns the bep token owner."
      },
      "getPriorVotes(address,uint256)": {
        "details": "Block number must be a finalized block or else this function will revert to prevent misinformation.",
        "params": {
          "account": "The address of the account to check",
          "blockNumber": "The block number to get the vote balance at"
        },
        "returns": {
          "_0": "The number of votes the account had as of the given block"
        }
      },
      "increaseAllowance(address,uint256)": {
        "details": "Atomically increases the allowance granted to `spender` by the caller. This is an alternative to {approve} that can be used as a mitigation for problems described in {BEP20-approve}. Emits an {Approval} event indicating the updated allowance. Requirements: - `spender` cannot be the zero address."
      },
      "mint(uint256)": {
        "details": "Creates `amount` tokens and assigns them to `msg.sender`, increasing the total supply. Requirements - `msg.sender` must be the token owner"
      },
      "name()": {
        "details": "Returns the token name."
      },
      "owner()": {
        "details": "Returns the address of the current owner."
      },
      "renounceOwnership()": {
        "details": "Leaves the contract without owner. It will not be possible to call `onlyOwner` functions anymore. Can only be called by the current owner. NOTE: Renouncing ownership will leave the contract without an owner, thereby removing any functionality that is only available to the owner."
      },
      "symbol()": {
        "details": "Returns the token symbol."
      },
      "totalSupply()": {
        "details": "See {BEP20-totalSupply}."
      },
      "transfer(address,uint256)": {
        "details": "See {BEP20-transfer}. Requirements: - `recipient` cannot be the zero address. - the caller must have a balance of at least `amount`."
      },
      "transferFrom(address,address,uint256)": {
        "details": "See {BEP20-transferFrom}. Emits an {Approval} event indicating the updated allowance. This is not required by the EIP. See the note at the beginning of {BEP20}; Requirements: - `sender` and `recipient` cannot be the zero address. - `sender` must have a balance of at least `amount`. - the caller must have allowance for `sender`'s tokens of at least `amount`."
      },
      "transferOwnership(address)": {
        "details": "Transfers ownership of the contract to a new account (`newOwner`). Can only be called by the current owner."
      }
    },
    "stateVariables": {
      "_delegates": {
        "details": "A record of each accounts delegate"
      }
    },
    "version": 1
  },
  "userdoc": {
    "events": {
      "DelegateChanged(address,address,address)": {
        "notice": "An event thats emitted when an account changes its delegate"
      },
      "DelegateVotesChanged(address,uint256,uint256)": {
        "notice": "An event thats emitted when a delegate account's vote balance changes"
      }
    },
    "kind": "user",
    "methods": {
      "DELEGATION_TYPEHASH()": {
        "notice": "The EIP-712 typehash for the delegation struct used by the contract"
      },
      "DOMAIN_TYPEHASH()": {
        "notice": "The EIP-712 typehash for the contract's domain"
      },
      "checkpoints(address,uint32)": {
        "notice": "A record of votes checkpoints for each account, by index"
      },
      "delegate(address)": {
        "notice": "Delegate votes from `msg.sender` to `delegatee`"
      },
      "delegateBySig(address,uint256,uint256,uint8,bytes32,bytes32)": {
        "notice": "Delegates votes from signatory to `delegatee`"
      },
      "delegates(address)": {
        "notice": "Delegate votes from `msg.sender` to `delegatee`"
      },
      "getCurrentVotes(address)": {
        "notice": "Gets the current votes balance for `account`"
      },
      "getPriorVotes(address,uint256)": {
        "notice": "Determine the prior number of votes for an account as of a block number"
      },
      "mint(address,uint256)": {
        "notice": "Creates `_amount` token to `_to`. Must only be called by the owner (MasterChef)."
      },
      "nonces(address)": {
        "notice": "A record of states for signing / validating signatures"
      },
      "numCheckpoints(address)": {
        "notice": "The number of checkpoints for each account"
      }
    },
    "version": 1
  }
}