{
  "contractName": "EthSnacks",
  "abi": [
    {
      "inputs": [
        {
          "internalType": "contract IERC20",
          "name": "eth_",
          "type": "address"
        },
        {
          "internalType": "address",
          "name": "pulse_",
          "type": "address"
        },
        {
          "internalType": "address",
          "name": "masterChef_",
          "type": "address"
        },
        {
          "internalType": "address",
          "name": "snacksStakingPool_",
          "type": "address"
        },
        {
          "internalType": "address",
          "name": "seniorageAddress_",
          "type": "address"
        }
      ],
      "stateMutability": "nonpayable",
      "type": "constructor"
    },
    {
      "inputs": [
        {
          "internalType": "uint256",
          "name": "prod1",
          "type": "uint256"
        },
        {
          "internalType": "uint256",
          "name": "denominator",
          "type": "uint256"
        }
      ],
      "name": "PRBMath__MulDivOverflow",
      "type": "error"
    },
    {
      "anonymous": false,
      "inputs": [
        {
          "indexed": true,
          "internalType": "address",
          "name": "owner",
          "type": "address"
        },
        {
          "indexed": true,
          "internalType": "address",
          "name": "spender",
          "type": "address"
        },
        {
          "indexed": false,
          "internalType": "uint256",
          "name": "value",
          "type": "uint256"
        }
      ],
      "name": "Approval",
      "type": "event"
    },
    {
      "anonymous": false,
      "inputs": [
        {
          "indexed": false,
          "internalType": "address",
          "name": "buyer",
          "type": "address"
        },
        {
          "indexed": false,
          "internalType": "uint256",
          "name": "startTotalSupply",
          "type": "uint256"
        },
        {
          "indexed": false,
          "internalType": "uint256",
          "name": "snacksRealBuyed",
          "type": "uint256"
        },
        {
          "indexed": false,
          "internalType": "uint256",
          "name": "snacksFee",
          "type": "uint256"
        },
        {
          "indexed": false,
          "internalType": "uint256",
          "name": "zoinksPayed",
          "type": "uint256"
        }
      ],
      "name": "Buy",
      "type": "event"
    },
    {
      "anonymous": false,
      "inputs": [
        {
          "indexed": true,
          "internalType": "address",
          "name": "previousOwner",
          "type": "address"
        },
        {
          "indexed": true,
          "internalType": "address",
          "name": "newOwner",
          "type": "address"
        }
      ],
      "name": "OwnershipTransferred",
      "type": "event"
    },
    {
      "anonymous": false,
      "inputs": [
        {
          "indexed": false,
          "internalType": "address",
          "name": "seller",
          "type": "address"
        },
        {
          "indexed": false,
          "internalType": "uint256",
          "name": "currentTotalSupply",
          "type": "uint256"
        },
        {
          "indexed": false,
          "internalType": "uint256",
          "name": "snacksRealReturned",
          "type": "uint256"
        },
        {
          "indexed": false,
          "internalType": "uint256",
          "name": "snacksFee",
          "type": "uint256"
        },
        {
          "indexed": false,
          "internalType": "uint256",
          "name": "zoinksReturned",
          "type": "uint256"
        }
      ],
      "name": "Redeem",
      "type": "event"
    },
    {
      "anonymous": false,
      "inputs": [
        {
          "indexed": true,
          "internalType": "address",
          "name": "from",
          "type": "address"
        },
        {
          "indexed": true,
          "internalType": "address",
          "name": "to",
          "type": "address"
        },
        {
          "indexed": false,
          "internalType": "uint256",
          "name": "value",
          "type": "uint256"
        }
      ],
      "name": "Transfer",
      "type": "event"
    },
    {
      "inputs": [],
      "name": "D",
      "outputs": [
        {
          "internalType": "uint256",
          "name": "",
          "type": "uint256"
        }
      ],
      "stateMutability": "view",
      "type": "function"
    },
    {
      "inputs": [],
      "name": "FEE_BTCETH_SNACK_HOLDERS",
      "outputs": [
        {
          "internalType": "uint256",
          "name": "",
          "type": "uint256"
        }
      ],
      "stateMutability": "view",
      "type": "function"
    },
    {
      "inputs": [],
      "name": "FEE_MASTERCHEF",
      "outputs": [
        {
          "internalType": "uint256",
          "name": "",
          "type": "uint256"
        }
      ],
      "stateMutability": "view",
      "type": "function"
    },
    {
      "inputs": [],
      "name": "FEE_PULSE",
      "outputs": [
        {
          "internalType": "uint256",
          "name": "",
          "type": "uint256"
        }
      ],
      "stateMutability": "view",
      "type": "function"
    },
    {
      "inputs": [],
      "name": "FEE_SENIORAGE",
      "outputs": [
        {
          "internalType": "uint256",
          "name": "",
          "type": "uint256"
        }
      ],
      "stateMutability": "view",
      "type": "function"
    },
    {
      "inputs": [],
      "name": "FEE_SNACKS_STAKING",
      "outputs": [
        {
          "internalType": "uint256",
          "name": "",
          "type": "uint256"
        }
      ],
      "stateMutability": "view",
      "type": "function"
    },
    {
      "inputs": [],
      "name": "FEE_SNACK_HOLDERS",
      "outputs": [
        {
          "internalType": "uint256",
          "name": "",
          "type": "uint256"
        }
      ],
      "stateMutability": "view",
      "type": "function"
    },
    {
      "inputs": [],
      "name": "FEE_ZOINKS_STAKING",
      "outputs": [
        {
          "internalType": "uint256",
          "name": "",
          "type": "uint256"
        }
      ],
      "stateMutability": "view",
      "type": "function"
    },
    {
      "inputs": [],
      "name": "ONE_SNACK",
      "outputs": [
        {
          "internalType": "uint256",
          "name": "",
          "type": "uint256"
        }
      ],
      "stateMutability": "view",
      "type": "function"
    },
    {
      "inputs": [],
      "name": "SNACKS_MULTIPLIER",
      "outputs": [
        {
          "internalType": "uint256",
          "name": "",
          "type": "uint256"
        }
      ],
      "stateMutability": "view",
      "type": "function"
    },
    {
      "inputs": [],
      "name": "TAX_PERCENT_FOR_BUY",
      "outputs": [
        {
          "internalType": "uint8",
          "name": "",
          "type": "uint8"
        }
      ],
      "stateMutability": "view",
      "type": "function"
    },
    {
      "inputs": [],
      "name": "TAX_PERCENT_FOR_REDEEM",
      "outputs": [
        {
          "internalType": "uint8",
          "name": "",
          "type": "uint8"
        }
      ],
      "stateMutability": "view",
      "type": "function"
    },
    {
      "inputs": [
        {
          "internalType": "address",
          "name": "owner",
          "type": "address"
        },
        {
          "internalType": "address",
          "name": "spender",
          "type": "address"
        }
      ],
      "name": "allowance",
      "outputs": [
        {
          "internalType": "uint256",
          "name": "",
          "type": "uint256"
        }
      ],
      "stateMutability": "view",
      "type": "function"
    },
    {
      "inputs": [
        {
          "internalType": "address",
          "name": "spender",
          "type": "address"
        },
        {
          "internalType": "uint256",
          "name": "amount",
          "type": "uint256"
        }
      ],
      "name": "approve",
      "outputs": [
        {
          "internalType": "bool",
          "name": "",
          "type": "bool"
        }
      ],
      "stateMutability": "nonpayable",
      "type": "function"
    },
    {
      "inputs": [
        {
          "internalType": "address",
          "name": "account",
          "type": "address"
        }
      ],
      "name": "balanceOf",
      "outputs": [
        {
          "internalType": "uint256",
          "name": "",
          "type": "uint256"
        }
      ],
      "stateMutability": "view",
      "type": "function"
    },
    {
      "inputs": [
        {
          "internalType": "uint256",
          "name": "amountSnacksToMint",
          "type": "uint256"
        }
      ],
      "name": "buy",
      "outputs": [],
      "stateMutability": "nonpayable",
      "type": "function"
    },
    {
      "inputs": [
        {
          "internalType": "uint256",
          "name": "payTokenAmount_",
          "type": "uint256"
        }
      ],
      "name": "buyTotal",
      "outputs": [],
      "stateMutability": "nonpayable",
      "type": "function"
    },
    {
      "inputs": [
        {
          "internalType": "uint256",
          "name": "currentTotalSupply",
          "type": "uint256"
        },
        {
          "internalType": "uint256",
          "name": "amountSnacksToMint",
          "type": "uint256"
        }
      ],
      "name": "calculateBuyAmount",
      "outputs": [
        {
          "internalType": "uint256",
          "name": "",
          "type": "uint256"
        }
      ],
      "stateMutability": "view",
      "type": "function"
    },
    {
      "inputs": [
        {
          "internalType": "uint256",
          "name": "payTokenAmount_",
          "type": "uint256"
        }
      ],
      "name": "calculateBuyTotal",
      "outputs": [
        {
          "internalType": "uint256",
          "name": "",
          "type": "uint256"
        }
      ],
      "stateMutability": "view",
      "type": "function"
    },
    {
      "inputs": [
        {
          "internalType": "uint256",
          "name": "currentTotalSupply",
          "type": "uint256"
        },
        {
          "internalType": "uint256",
          "name": "amountSnacksToBurn",
          "type": "uint256"
        }
      ],
      "name": "calculateRedeemAmount",
      "outputs": [
        {
          "internalType": "uint256",
          "name": "",
          "type": "uint256"
        }
      ],
      "stateMutability": "view",
      "type": "function"
    },
    {
      "inputs": [],
      "name": "decimals",
      "outputs": [
        {
          "internalType": "uint8",
          "name": "",
          "type": "uint8"
        }
      ],
      "stateMutability": "view",
      "type": "function"
    },
    {
      "inputs": [
        {
          "internalType": "address",
          "name": "spender",
          "type": "address"
        },
        {
          "internalType": "uint256",
          "name": "subtractedValue",
          "type": "uint256"
        }
      ],
      "name": "decreaseAllowance",
      "outputs": [
        {
          "internalType": "bool",
          "name": "",
          "type": "bool"
        }
      ],
      "stateMutability": "nonpayable",
      "type": "function"
    },
    {
      "inputs": [],
      "name": "distributeFee",
      "outputs": [],
      "stateMutability": "nonpayable",
      "type": "function"
    },
    {
      "inputs": [],
      "name": "feeBTCETHSnacksHolders",
      "outputs": [
        {
          "internalType": "uint256",
          "name": "",
          "type": "uint256"
        }
      ],
      "stateMutability": "view",
      "type": "function"
    },
    {
      "inputs": [],
      "name": "feeMasterChef",
      "outputs": [
        {
          "internalType": "uint256",
          "name": "",
          "type": "uint256"
        }
      ],
      "stateMutability": "view",
      "type": "function"
    },
    {
      "inputs": [],
      "name": "feePulse",
      "outputs": [
        {
          "internalType": "uint256",
          "name": "",
          "type": "uint256"
        }
      ],
      "stateMutability": "view",
      "type": "function"
    },
    {
      "inputs": [],
      "name": "feeSeniorage",
      "outputs": [
        {
          "internalType": "uint256",
          "name": "",
          "type": "uint256"
        }
      ],
      "stateMutability": "view",
      "type": "function"
    },
    {
      "inputs": [],
      "name": "feeSnacksHolders",
      "outputs": [
        {
          "internalType": "uint256",
          "name": "",
          "type": "uint256"
        }
      ],
      "stateMutability": "view",
      "type": "function"
    },
    {
      "inputs": [],
      "name": "feeSnacksStakingPool",
      "outputs": [
        {
          "internalType": "uint256",
          "name": "",
          "type": "uint256"
        }
      ],
      "stateMutability": "view",
      "type": "function"
    },
    {
      "inputs": [],
      "name": "feeZoinksStakingPool",
      "outputs": [
        {
          "internalType": "uint256",
          "name": "",
          "type": "uint256"
        }
      ],
      "stateMutability": "view",
      "type": "function"
    },
    {
      "inputs": [],
      "name": "getTotalHoldersBalance",
      "outputs": [
        {
          "internalType": "uint256",
          "name": "",
          "type": "uint256"
        }
      ],
      "stateMutability": "view",
      "type": "function"
    },
    {
      "inputs": [
        {
          "internalType": "uint256",
          "name": "",
          "type": "uint256"
        }
      ],
      "name": "holderList",
      "outputs": [
        {
          "internalType": "address",
          "name": "",
          "type": "address"
        }
      ],
      "stateMutability": "view",
      "type": "function"
    },
    {
      "inputs": [
        {
          "internalType": "address",
          "name": "spender",
          "type": "address"
        },
        {
          "internalType": "uint256",
          "name": "addedValue",
          "type": "uint256"
        }
      ],
      "name": "increaseAllowance",
      "outputs": [
        {
          "internalType": "bool",
          "name": "",
          "type": "bool"
        }
      ],
      "stateMutability": "nonpayable",
      "type": "function"
    },
    {
      "inputs": [],
      "name": "isInitilized",
      "outputs": [
        {
          "internalType": "bool",
          "name": "",
          "type": "bool"
        }
      ],
      "stateMutability": "view",
      "type": "function"
    },
    {
      "inputs": [],
      "name": "masterChef",
      "outputs": [
        {
          "internalType": "address",
          "name": "",
          "type": "address"
        }
      ],
      "stateMutability": "view",
      "type": "function"
    },
    {
      "inputs": [],
      "name": "multiplier",
      "outputs": [
        {
          "internalType": "uint256",
          "name": "",
          "type": "uint256"
        }
      ],
      "stateMutability": "view",
      "type": "function"
    },
    {
      "inputs": [],
      "name": "name",
      "outputs": [
        {
          "internalType": "string",
          "name": "",
          "type": "string"
        }
      ],
      "stateMutability": "view",
      "type": "function"
    },
    {
      "inputs": [],
      "name": "numberOfHolders",
      "outputs": [
        {
          "internalType": "uint256",
          "name": "",
          "type": "uint256"
        }
      ],
      "stateMutability": "view",
      "type": "function"
    },
    {
      "inputs": [],
      "name": "owner",
      "outputs": [
        {
          "internalType": "address",
          "name": "",
          "type": "address"
        }
      ],
      "stateMutability": "view",
      "type": "function"
    },
    {
      "inputs": [],
      "name": "payToken",
      "outputs": [
        {
          "internalType": "contract IERC20",
          "name": "",
          "type": "address"
        }
      ],
      "stateMutability": "view",
      "type": "function"
    },
    {
      "inputs": [],
      "name": "pulse",
      "outputs": [
        {
          "internalType": "address",
          "name": "",
          "type": "address"
        }
      ],
      "stateMutability": "view",
      "type": "function"
    },
    {
      "inputs": [
        {
          "internalType": "uint256",
          "name": "amountSnacksToBurn",
          "type": "uint256"
        }
      ],
      "name": "redeem",
      "outputs": [],
      "stateMutability": "nonpayable",
      "type": "function"
    },
    {
      "inputs": [],
      "name": "renounceOwnership",
      "outputs": [],
      "stateMutability": "nonpayable",
      "type": "function"
    },
    {
      "inputs": [],
      "name": "seniorageAddress",
      "outputs": [
        {
          "internalType": "address",
          "name": "",
          "type": "address"
        }
      ],
      "stateMutability": "view",
      "type": "function"
    },
    {
      "inputs": [
        {
          "internalType": "address",
          "name": "seniorage",
          "type": "address"
        }
      ],
      "name": "setSeniorage",
      "outputs": [],
      "stateMutability": "nonpayable",
      "type": "function"
    },
    {
      "inputs": [],
      "name": "snacks",
      "outputs": [
        {
          "internalType": "address",
          "name": "",
          "type": "address"
        }
      ],
      "stateMutability": "view",
      "type": "function"
    },
    {
      "inputs": [],
      "name": "snacksStakingPool",
      "outputs": [
        {
          "internalType": "address",
          "name": "",
          "type": "address"
        }
      ],
      "stateMutability": "view",
      "type": "function"
    },
    {
      "inputs": [],
      "name": "symbol",
      "outputs": [
        {
          "internalType": "string",
          "name": "",
          "type": "string"
        }
      ],
      "stateMutability": "view",
      "type": "function"
    },
    {
      "inputs": [],
      "name": "totalSupply",
      "outputs": [
        {
          "internalType": "uint256",
          "name": "",
          "type": "uint256"
        }
      ],
      "stateMutability": "view",
      "type": "function"
    },
    {
      "inputs": [
        {
          "internalType": "address",
          "name": "to",
          "type": "address"
        },
        {
          "internalType": "uint256",
          "name": "amount",
          "type": "uint256"
        }
      ],
      "name": "transfer",
      "outputs": [
        {
          "internalType": "bool",
          "name": "",
          "type": "bool"
        }
      ],
      "stateMutability": "nonpayable",
      "type": "function"
    },
    {
      "inputs": [
        {
          "internalType": "address",
          "name": "from",
          "type": "address"
        },
        {
          "internalType": "address",
          "name": "to",
          "type": "address"
        },
        {
          "internalType": "uint256",
          "name": "amount",
          "type": "uint256"
        }
      ],
      "name": "transferFrom",
      "outputs": [
        {
          "internalType": "bool",
          "name": "",
          "type": "bool"
        }
      ],
      "stateMutability": "nonpayable",
      "type": "function"
    },
    {
      "inputs": [
        {
          "internalType": "address",
          "name": "newOwner",
          "type": "address"
        }
      ],
      "name": "transferOwnership",
      "outputs": [],
      "stateMutability": "nonpayable",
      "type": "function"
    },
    {
      "inputs": [],
      "name": "undistributedFeeSnacks",
      "outputs": [
        {
          "internalType": "uint256",
          "name": "",
          "type": "uint256"
        }
      ],
      "stateMutability": "view",
      "type": "function"
    },
    {
      "inputs": [
        {
          "internalType": "address",
          "name": "snacks_",
          "type": "address"
        }
      ],
      "name": "init",
      "outputs": [],
      "stateMutability": "nonpayable",
      "type": "function"
    }
  ],
  "bytecode": "0x6102206040523480156200001257600080fd5b50604051620031dd380380620031dd833981016040819052620000359162000242565b8484848460405180604001604052806009815260200168455448534e41434b5360b81b81525060405180604001604052806009815260200168455448534e41434b5360b81b8152506402540be40087600f6014600f6014600f6000600f8a8a8160039081620000a5919062000367565b506004620000b4828262000367565b505050620000d1620000cb620001d360201b60201c565b620001d7565b6001600160a01b039e8f1660808190529d8f1660a0529b8e1660c08190529a8e1660e08190523061010081905261012099909952600680546001600160a01b03191698909f1697909717909d556101409490945261016092909252610180526101a0526101c0526101e09790975261020094909452505060086020527f5eff886ea0ce6ca488a3d6e336d6c0f75f46d19b42c06ce5ee98e42c96d256c7805460ff19908116600190811790925560009485526040808620805483168417905592855282852080548216831790559484528184208054861682179055918352909120805490921617905550506005805460ff60a01b191690555062000433915050565b3390565b600580546001600160a01b038381166001600160a01b0319831681179093556040519116919082907f8be0079c531659141344cd1fd0a4f28419497f9722a3daafe3b4186f6b6457e090600090a35050565b6001600160a01b03811681146200023f57600080fd5b50565b600080600080600060a086880312156200025b57600080fd5b8551620002688162000229565b60208701519095506200027b8162000229565b60408701519094506200028e8162000229565b6060870151909350620002a18162000229565b6080870151909250620002b48162000229565b809150509295509295909350565b634e487b7160e01b600052604160045260246000fd5b600181811c90821680620002ed57607f821691505b6020821081036200030e57634e487b7160e01b600052602260045260246000fd5b50919050565b601f8211156200036257600081815260208120601f850160051c810160208610156200033d5750805b601f850160051c820191505b818110156200035e5782815560010162000349565b5050505b505050565b81516001600160401b03811115620003835762000383620002c2565b6200039b81620003948454620002d8565b8462000314565b602080601f831160018114620003d35760008415620003ba5750858301515b600019600386901b1c1916600185901b1785556200035e565b600085815260208120601f198616915b828110156200040457888601518255948401946001909101908401620003e3565b5085821015620004235787850151600019600388901b60f8161c191681555b5050505050600190811b01905550565b60805160a05160c05160e05161010051610120516101405161016051610180516101a0516101c0516101e05161020051612c506200058d600039600081816105290152610d08015260006104890152600081816103bf01528181611de60152611e470152600081816105b80152611c980152600081816104d301528181610c010152610c8001526000818161038301528181610afa0152610b79015260008181610447015281816109f30152610a720152600081816103410152818161071d015281816116f10152611766015260008181610a2101528181610b2801528181610c2f01528181610d5301528181611d110152611e170152600081816106660152610c560152600081816104180152610b4f0152600081816106370152610a4801526000818161050201528181610fd8015281816110c4015281816111de015281816112d20152818161145b01526115540152612c506000f3fe608060405234801561001057600080fd5b50600436106102725760003560e01c80630199c7b2146102775780630244234f1461028e57806303ff40fb146102ae57806306fdde03146102c1578063095ea7b3146102d65780630f529ba2146102f9578063104e8cfc1461030457806316ad42ad1461030c57806318160ddd1461031f57806319ab453c146103275780631b3ed7221461033c57806323b872dd1461036357806326c4e60d146103765780632e2674fd1461037e578063313ce567146103a5578063339b825a146103ba57806339509351146103e15780633ec059f8146103f45780633eef5a9f146103fc57806342e95e8e14610404578063575a86b2146104135780635c51cfd21461043a5780635f3c7a7e1461044257806370a0823114610469578063715018a61461047c5780637efb801a1461048457806383a3c7fd146103fc5780638525e0e3146104ab5780638da5cb5b146104b35780638ea8caba146104bb578063924340df146104ce57806395d89b41146104f557806396336b30146104fd57806398bab16e146105245780639bcca00a1461054b578063a0b45d2c146103fc578063a457c2d714610553578063a70da64c146103fc578063a9059cbb14610566578063a9689e2714610579578063c63543911461058d578063c8352730146105a0578063d43ce22b146105b3578063d96a094a146105da578063db006a75146105ed578063dd62ed3e14610600578063de3502bb14610613578063dea0ff2514610626578063deb189b514610632578063e850731414610659578063f093338914610661578063f2fde38b14610688578063f7392d5b146103f4578063fc3ac4551461069b575b600080fd5b6007545b6040519081526020015b60405180910390f35b6009546102a1906001600160a01b031681565b6040516102859190612763565b61027b6102bc366004612777565b6106ae565b6102c9610755565b60405161028591906127c5565b6102e96102e436600461280f565b6107e7565b6040519015158152602001610285565b61027b6305f5e10081565b61027b6107ff565b6102a161031a366004612839565b61080f565b60025461027b565b61033a610335366004612852565b610839565b005b61027b7f000000000000000000000000000000000000000000000000000000000000000081565b6102e961037136600461286d565b610910565b61033a610936565b61027b7f000000000000000000000000000000000000000000000000000000000000000081565b60125b60405160ff9091168152602001610285565b61027b7f000000000000000000000000000000000000000000000000000000000000000081565b6102e96103ef36600461280f565b610dd5565b61027b601481565b61027b600f81565b61027b670de0b6b3a764000081565b6102a17f000000000000000000000000000000000000000000000000000000000000000081565b61027b600081565b61027b7f000000000000000000000000000000000000000000000000000000000000000081565b61027b610477366004612852565b610df7565b61033a610e12565b61027b7f000000000000000000000000000000000000000000000000000000000000000081565b61027b610e4d565b6102a1610ebc565b6006546102a1906001600160a01b031681565b61027b7f000000000000000000000000000000000000000000000000000000000000000081565b6102c9610ecb565b6102a17f000000000000000000000000000000000000000000000000000000000000000081565b61027b7f000000000000000000000000000000000000000000000000000000000000000081565b6103a8600581565b6102e961056136600461280f565b610eda565b6102e961057436600461280f565b610f60565b6005546102e990600160a01b900460ff1681565b61033a61059b366004612852565b610f6e565b61033a6105ae366004612839565b610fbf565b61027b7f000000000000000000000000000000000000000000000000000000000000000081565b61033a6105e8366004612839565b611169565b61033a6105fb366004612839565b61135e565b61027b61060e3660046128a9565b6115cd565b61027b610621366004612777565b6115f8565b61027b6402540be40081565b6102a17f000000000000000000000000000000000000000000000000000000000000000081565b6103a8600a81565b6102a17f000000000000000000000000000000000000000000000000000000000000000081565b61033a610696366004612852565b611636565b61027b6106a9366004612839565b6116d6565b6000806106c3670de0b6b3a7640000856128f2565b905060006106d184866128f2565b90506000610710600261070a670de0b6b3a76400006106f0878761290a565b6106fa91906128f2565b61070487876128f2565b90611816565b90611898565b90506000610748610741837f0000000000000000000000000000000000000000000000000000000000000000611816565b60026118f0565b9450505050505b92915050565b60606003805461076490612921565b80601f016020809104026020016040519081016040528092919081815260200182805461079090612921565b80156107dd5780601f106107b2576101008083540402835291602001916107dd565b820191906000526020600020905b8154815290600101906020018083116107c057829003601f168201915b5050505050905090565b6000336107f581858561192f565b5060019392505050565b600061080a30610df7565b905090565b6007818154811061081f57600080fd5b6000918252602090912001546001600160a01b0316905081565b33610842610ebc565b6001600160a01b0316146108715760405162461bcd60e51b815260040161086890612955565b60405180910390fd5b600554600160a01b900460ff16156108da5760405162461bcd60e51b815260206004820152602660248201527f4552524f523a20436f6e747261637420697320616c726561647920696e6974696044820152656c697a65642160d01b6064820152608401610868565b600980546001600160a01b039092166001600160a01b03199092169190911790556005805460ff60a01b1916600160a01b179055565b60003361091e858285611a53565b610929858585611ac7565b60019150505b9392505050565b3361093f610ebc565b6001600160a01b0316146109655760405162461bcd60e51b815260040161086890612955565b600554600160a01b900460ff166109c95760405162461bcd60e51b815260206004820152602260248201527f4552524f523a20436f6e7472616374206973206e6f7420696e6974696c697a65604482015261642160f01b6064820152608401610868565b60006109d3610e4d565b905060006109df6107ff565b90506109eb8183611c89565b8015610dd1577f000000000000000000000000000000000000000000000000000000000000000015610af8576001600160a01b037f00000000000000000000000000000000000000000000000000000000000000001663a9059cbb7f0000000000000000000000000000000000000000000000000000000000000000610a96606461070a867f0000000000000000000000000000000000000000000000000000000000000000611816565b6040518363ffffffff1660e01b8152600401610ab392919061298a565b6020604051808303816000875af1158015610ad2573d6000803e3d6000fd5b505050506040513d601f19601f82011682018060405250810190610af691906129a3565b505b7f000000000000000000000000000000000000000000000000000000000000000015610bff576001600160a01b037f00000000000000000000000000000000000000000000000000000000000000001663a9059cbb7f0000000000000000000000000000000000000000000000000000000000000000610b9d606461070a867f0000000000000000000000000000000000000000000000000000000000000000611816565b6040518363ffffffff1660e01b8152600401610bba92919061298a565b6020604051808303816000875af1158015610bd9573d6000803e3d6000fd5b505050506040513d601f19601f82011682018060405250810190610bfd91906129a3565b505b7f000000000000000000000000000000000000000000000000000000000000000015610d06576001600160a01b037f00000000000000000000000000000000000000000000000000000000000000001663a9059cbb7f0000000000000000000000000000000000000000000000000000000000000000610ca4606461070a867f0000000000000000000000000000000000000000000000000000000000000000611816565b6040518363ffffffff1660e01b8152600401610cc192919061298a565b6020604051808303816000875af1158015610ce0573d6000803e3d6000fd5b505050506040513d601f19601f82011682018060405250810190610d0491906129a3565b505b7f000000000000000000000000000000000000000000000000000000000000000015610dd1576000610d366107ff565b60065460405163a9059cbb60e01b81529192506001600160a01b037f000000000000000000000000000000000000000000000000000000000000000081169263a9059cbb92610d8b921690859060040161298a565b6020604051808303816000875af1158015610daa573d6000803e3d6000fd5b505050506040513d601f19601f82011682018060405250810190610dce91906129a3565b50505b5050565b6000336107f5818585610de883836115cd565b610df291906128f2565b61192f565b6001600160a01b031660009081526020819052604090205490565b33610e1b610ebc565b6001600160a01b031614610e415760405162461bcd60e51b815260040161086890612955565b610e4b6000611e98565b565b600080805b60075463ffffffff82161015610eb657610e9860078263ffffffff1681548110610e7e57610e7e6129c5565b6000918252602090912001546001600160a01b0316610df7565b610ea290836128f2565b915080610eae816129db565b915050610e52565b50919050565b6005546001600160a01b031690565b60606004805461076490612921565b60003381610ee882866115cd565b905083811015610f485760405162461bcd60e51b815260206004820152602560248201527f45524332303a2064656372656173656420616c6c6f77616e63652062656c6f77604482015264207a65726f60d81b6064820152608401610868565b610f55828686840361192f565b506001949350505050565b6000336107f5818585611ac7565b33610f77610ebc565b6001600160a01b031614610f9d5760405162461bcd60e51b815260040161086890612955565b600680546001600160a01b0319166001600160a01b0392909216919091179055565b6040516370a0823160e01b815281906001600160a01b037f000000000000000000000000000000000000000000000000000000000000000016906370a082319061100d903390600401612763565b602060405180830381865afa15801561102a573d6000803e3d6000fd5b505050506040513d601f19601f8201168201806040525081019061104e91906129fe565b10156110aa5760405162461bcd60e51b815260206004820152602560248201527f4552524f523a206e656564206d616e7920746f6b656e7320746f2070617920536044820152646e61636b7360d81b6064820152608401610868565b60006110b5826116d6565b90506110ec6001600160a01b037f000000000000000000000000000000000000000000000000000000000000000016333085611eea565b600060646110fb600584612a17565b6111059190612a4c565b90506111113082611f55565b6111243361111f838561290a565b611f55565b600080516020612bdb833981519152338361113e60025490565b611148919061290a565b84848760405161115c959493929190612a6e565b60405180910390a1505050565b600081116111c55760405162461bcd60e51b815260206004820152602360248201527f4552524f523a20616d6f756e7420536e61636b7320746f20627579206973207a60448201526265726f60e81b6064820152608401610868565b60006111d96111d360025490565b836106ae565b9050807f00000000000000000000000000000000000000000000000000000000000000006001600160a01b03166370a08231336040518263ffffffff1660e01b81526004016112289190612763565b602060405180830381865afa158015611245573d6000803e3d6000fd5b505050506040513d601f19601f8201168201806040525081019061126991906129fe565b10156112c55760405162461bcd60e51b815260206004820152602560248201527f4552524f523a206e656564206d616e79205a6f696e6b7320746f2070617920536044820152646e61636b7360d81b6064820152608401610868565b6112fa6001600160a01b037f000000000000000000000000000000000000000000000000000000000000000016333084611eea565b600061130c606461070a856005611816565b90506113183082611f55565b6113263361111f838661290a565b600080516020612bdb833981519152338461134060025490565b61134a919061290a565b85848660405161115c959493929190612a6e565b600081116113bd5760405162461bcd60e51b815260206004820152602660248201527f4552524f523a20616d6f756e7420536e61636b7320746f2072656465656d206960448201526573207a65726f60d01b6064820152608401610868565b806113c733610df7565b101561141f5760405162461bcd60e51b815260206004820152602160248201527f4552524f523a20616d6f756e74206578636565647320796f757220536e61636b6044820152607360f81b6064820152608401610868565b6000611431606461070a84600a611816565b905061143d3082610f60565b50600061145661144c60025490565b610621848661290a565b9050807f00000000000000000000000000000000000000000000000000000000000000006001600160a01b03166370a08231306040518263ffffffff1660e01b81526004016114a59190612763565b602060405180830381865afa1580156114c2573d6000803e3d6000fd5b505050506040513d601f19601f820116820180604052508101906114e691906129fe565b10156115475760405162461bcd60e51b815260206004820152602a60248201527f4552524f523a206e6f74205a6f696e6b732066756e647320746f20627579206260448201526961636b20536e61636b7360b01b6064820152608401610868565b61157b6001600160a01b037f000000000000000000000000000000000000000000000000000000000000000016338361202a565b61158e33611589848661290a565b612049565b7fe02f6383e19e87c24e0c03e2cd5dbd05156cb29a1b0f3dbca1fa3430e444f63d336115b960025490565b85858560405161115c959493929190612a6e565b6001600160a01b03918216600090815260016020908152604080832093909416825291909152205490565b60008281670de0b6b3a764000061160f858461290a565b61161991906128f2565b90506000610710600261070a61162f85876128f2565b8890611816565b3361163f610ebc565b6001600160a01b0316146116655760405162461bcd60e51b815260040161086890612955565b6001600160a01b0381166116ca5760405162461bcd60e51b815260206004820152602660248201527f4f776e61626c653a206e6577206f776e657220697320746865207a65726f206160448201526564647265737360d01b6064820152608401610868565b6116d381611e98565b50565b6000806305f5e1006002546116eb9190612a4c565b611715907f00000000000000000000000000000000000000000000000000000000000000006128f2565b9050808310156117645760405162461bcd60e51b815260206004820152601a602482015279125b9cdd59999a58da595b9d081d1bdad95b9cc8185b5bdd5b9d60321b6044820152606401610868565b7f0000000000000000000000000000000000000000000000000000000000000000600081611793846002612a17565b61179d919061290a565b905060006117ac866002612a17565b90506000816117bc856004612a17565b6117c69190612a17565b6117d1600285612b80565b6117db91906128f2565b905060006117e88261218c565b905060006118096117f9868461290a565b611804886002612a17565b6121f6565b9998505050505050505050565b6000826000036118285750600061074f565b60006118348385612a17565b9050826118418583612a4c565b1461092f5760405162461bcd60e51b815260206004820152602160248201527f536166654d6174683a206d756c7469706c69636174696f6e206f766572666c6f6044820152607760f81b6064820152608401610868565b60008082116118e65760405162461bcd60e51b815260206004820152601a602482015279536166654d6174683a206469766973696f6e206279207a65726f60301b6044820152606401610868565b61092f8284612a4c565b600082815b838110156119275761191361190c6012600a612b80565b8390611898565b91508061191f81612b8f565b9150506118f5565b509392505050565b6001600160a01b0383166119915760405162461bcd60e51b8152602060048201526024808201527f45524332303a20617070726f76652066726f6d20746865207a65726f206164646044820152637265737360e01b6064820152608401610868565b6001600160a01b0382166119f25760405162461bcd60e51b815260206004820152602260248201527f45524332303a20617070726f766520746f20746865207a65726f206164647265604482015261737360f01b6064820152608401610868565b6001600160a01b0383811660008181526001602090815260408083209487168084529482529182902085905590518481527f8c5be1e5ebec7d5bd14f71427d1e84f3dd0314c0f7b2291e5b200ac8c7c3b925910160405180910390a3505050565b6000611a5f84846115cd565b90506000198114610dce5781811015611aba5760405162461bcd60e51b815260206004820152601d60248201527f45524332303a20696e73756666696369656e7420616c6c6f77616e63650000006044820152606401610868565b610dce848484840361192f565b6001600160a01b038316611b2b5760405162461bcd60e51b815260206004820152602560248201527f45524332303a207472616e736665722066726f6d20746865207a65726f206164604482015264647265737360d81b6064820152608401610868565b6001600160a01b038216611b8d5760405162461bcd60e51b815260206004820152602360248201527f45524332303a207472616e7366657220746f20746865207a65726f206164647260448201526265737360e81b6064820152608401610868565b6001600160a01b03831660009081526020819052604090205481811015611c055760405162461bcd60e51b815260206004820152602660248201527f45524332303a207472616e7366657220616d6f756e7420657863656564732062604482015265616c616e636560d01b6064820152608401610868565b6001600160a01b03808516600090815260208190526040808220858503905591851681529081208054849290611c3c9084906128f2565b92505081905550826001600160a01b0316846001600160a01b0316600080516020612bfb83398151915284604051611c7691815260200190565b60405180910390a3610dce84848461220b565b8115610dd15760006064611cbd7f000000000000000000000000000000000000000000000000000000000000000085612a17565b611cc79190612a4c565b90508115611de45760005b600754811015611de2576000611cf460078381548110610e7e57610e7e6129c5565b9050600084611d038386612a17565b611d0d9190612a4c565b90507f00000000000000000000000000000000000000000000000000000000000000006001600160a01b031663a9059cbb60078581548110611d5157611d516129c5565b6000918252602090912001546040516001600160e01b031960e084901b168152611d89916001600160a01b031690859060040161298a565b6020604051808303816000875af1158015611da8573d6000803e3d6000fd5b505050506040513d601f19601f82011682018060405250810190611dcc91906129a3565b5050508080611dda90612b8f565b915050611cd2565b505b7f000000000000000000000000000000000000000000000000000000000000000015611e93576009546001600160a01b037f000000000000000000000000000000000000000000000000000000000000000081169163a9059cbb91166064611e6c7f000000000000000000000000000000000000000000000000000000000000000088612a17565b611e769190612a4c565b6040518363ffffffff1660e01b8152600401610d8b92919061298a565b505050565b600580546001600160a01b038381166001600160a01b0319831681179093556040519116919082907f8be0079c531659141344cd1fd0a4f28419497f9722a3daafe3b4186f6b6457e090600090a35050565b6040516001600160a01b0380851660248301528316604482015260648101829052610dce9085906323b872dd60e01b906084015b60408051601f198184030181529190526020810180516001600160e01b03166001600160e01b031990931692909217909152612269565b6001600160a01b038216611fab5760405162461bcd60e51b815260206004820152601f60248201527f45524332303a206d696e7420746f20746865207a65726f2061646472657373006044820152606401610868565b8060026000828254611fbd91906128f2565b90915550506001600160a01b03821660009081526020819052604081208054839290611fea9084906128f2565b90915550506040518181526001600160a01b03831690600090600080516020612bfb8339815191529060200160405180910390a3610dd16000838361220b565b611e938363a9059cbb60e01b8484604051602401611f1e92919061298a565b6001600160a01b0382166120a95760405162461bcd60e51b815260206004820152602160248201527f45524332303a206275726e2066726f6d20746865207a65726f206164647265736044820152607360f81b6064820152608401610868565b6001600160a01b0382166000908152602081905260409020548181101561211d5760405162461bcd60e51b815260206004820152602260248201527f45524332303a206275726e20616d6f756e7420657863656564732062616c616e604482015261636560f01b6064820152608401610868565b6001600160a01b038316600090815260208190526040812083830390556002805484929061214c90849061290a565b90915550506040518281526000906001600160a01b03851690600080516020612bfb8339815191529060200160405180910390a3611e938360008461220b565b600060038211156121e757508060006121a6600283612a4c565b6121b19060016128f2565b90505b81811015610eb6579050806002816121cc8186612a4c565b6121d691906128f2565b6121e09190612a4c565b90506121b4565b81156121f1575060015b919050565b600061092f83670de0b6b3a76400008461233b565b8015611e93576001600160a01b0383161580159061222f575061222d83610df7565b155b1561223d5761223d83612408565b6001600160a01b0382161580159061225b57506122598261250f565b155b15611e9357611e9382612577565b60006122be826040518060400160405280602081526020017f5361666545524332303a206c6f772d6c6576656c2063616c6c206661696c6564815250856001600160a01b03166125eb9092919063ffffffff16565b805190915015611e9357808060200190518101906122dc91906129a3565b611e935760405162461bcd60e51b815260206004820152602a60248201527f5361666545524332303a204552433230206f7065726174696f6e20646964206e6044820152691bdd081cdd58d8d9595960b21b6064820152608401610868565b60008080600019858709858702925082811083820303915050806000036123755783828161236b5761236b612a36565b049250505061092f565b83811061239f57604051631dcf306360e21b81526004810182905260248101859052604401610868565b60008486880960026001871981018816978890046003810283188082028403028082028403028082028403028082028403028082028403029081029092039091026000889003889004909101858311909403939093029303949094049190911702949350505050565b60005b600754811015610dd157816001600160a01b031660078281548110612432576124326129c5565b6000918252602090912001546001600160a01b0316036124fd576007805461245c9060019061290a565b8154811061246c5761246c6129c5565b600091825260209091200154600780546001600160a01b039092169183908110612498576124986129c5565b9060005260206000200160006101000a8154816001600160a01b0302191690836001600160a01b0316021790555060078054806124d7576124d7612ba8565b600082815260209020810160001990810180546001600160a01b03191690550190555050565b8061250781612b8f565b91505061240b565b600080805b60075481101561257057836001600160a01b03166007828154811061253b5761253b6129c5565b6000918252602090912001546001600160a01b03160361255e5760019150612570565b8061256881612b8f565b915050612514565b5092915050565b6001600160a01b03811660009081526008602052604081205460ff16151590036116d357600780546001810182556000919091527fa66cc928b5edb82af9bd49922954155ab7b0942694bea4ce44661d9a8736c6880180546001600160a01b0383166001600160a01b031990911617905550565b60606125fa8484600085612602565b949350505050565b6060824710156126635760405162461bcd60e51b815260206004820152602660248201527f416464726573733a20696e73756666696369656e742062616c616e636520666f6044820152651c8818d85b1b60d21b6064820152608401610868565b843b6126b15760405162461bcd60e51b815260206004820152601d60248201527f416464726573733a2063616c6c20746f206e6f6e2d636f6e74726163740000006044820152606401610868565b600080866001600160a01b031685876040516126cd9190612bbe565b60006040518083038185875af1925050503d806000811461270a576040519150601f19603f3d011682016040523d82523d6000602084013e61270f565b606091505b509150915061271f82828661272a565b979650505050505050565b6060831561273957508161092f565b8251156127495782518084602001fd5b8160405162461bcd60e51b815260040161086891906127c5565b6001600160a01b0391909116815260200190565b6000806040838503121561278a57600080fd5b50508035926020909101359150565b60005b838110156127b457818101518382015260200161279c565b83811115610dce5750506000910152565b60208152600082518060208401526127e4816040850160208701612799565b601f01601f19169190910160400192915050565b80356001600160a01b03811681146121f157600080fd5b6000806040838503121561282257600080fd5b61282b836127f8565b946020939093013593505050565b60006020828403121561284b57600080fd5b5035919050565b60006020828403121561286457600080fd5b61092f826127f8565b60008060006060848603121561288257600080fd5b61288b846127f8565b9250612899602085016127f8565b9150604084013590509250925092565b600080604083850312156128bc57600080fd5b6128c5836127f8565b91506128d3602084016127f8565b90509250929050565b634e487b7160e01b600052601160045260246000fd5b60008219821115612905576129056128dc565b500190565b60008282101561291c5761291c6128dc565b500390565b600181811c9082168061293557607f821691505b602082108103610eb657634e487b7160e01b600052602260045260246000fd5b6020808252818101527f4f776e61626c653a2063616c6c6572206973206e6f7420746865206f776e6572604082015260600190565b6001600160a01b03929092168252602082015260400190565b6000602082840312156129b557600080fd5b8151801515811461092f57600080fd5b634e487b7160e01b600052603260045260246000fd5b600063ffffffff8083168181036129f4576129f46128dc565b6001019392505050565b600060208284031215612a1057600080fd5b5051919050565b6000816000190483118215151615612a3157612a316128dc565b500290565b634e487b7160e01b600052601260045260246000fd5b600082612a6957634e487b7160e01b600052601260045260246000fd5b500490565b6001600160a01b03959095168552602085019390935260408401919091526060830152608082015260a00190565b600181815b80851115612ad7578160001904821115612abd57612abd6128dc565b80851615612aca57918102915b93841c9390800290612aa1565b509250929050565b600082612aee5750600161074f565b81612afb5750600061074f565b8160018114612b115760028114612b1b57612b37565b600191505061074f565b60ff841115612b2c57612b2c6128dc565b50506001821b61074f565b5060208310610133831016604e8410600b8410161715612b5a575081810a61074f565b612b648383612a9c565b8060001904821115612b7857612b786128dc565b029392505050565b600061092f60ff841683612adf565b600060018201612ba157612ba16128dc565b5060010190565b634e487b7160e01b600052603160045260246000fd5b60008251612bd0818460208701612799565b919091019291505056fe064fb1933e186be0b289a87e98518dc18cc9856ecbc9f1353d1a138ddf733ec5ddf252ad1be2c89b69c2b068fc378daa952ba7f163c4a11628f55a4df523b3efa26469706673582212201357b5a24bdd5c249cde7b87c51c395cd7a3550995a3e940eff9b0843116bf1c64736f6c634300080f0033",
  "immutableReferences": {
    "22138": [
      {
        "length": 32,
        "start": 1282
      },
      {
        "length": 32,
        "start": 4056
      },
      {
        "length": 32,
        "start": 4292
      },
      {
        "length": 32,
        "start": 4574
      },
      {
        "length": 32,
        "start": 4818
      },
      {
        "length": 32,
        "start": 5211
      },
      {
        "length": 32,
        "start": 5460
      }
    ],
    "22140": [
      {
        "length": 32,
        "start": 1591
      },
      {
        "length": 32,
        "start": 2632
      }
    ],
    "22142": [
      {
        "length": 32,
        "start": 1048
      },
      {
        "length": 32,
        "start": 2895
      }
    ],
    "22144": [
      {
        "length": 32,
        "start": 1638
      },
      {
        "length": 32,
        "start": 3158
      }
    ],
    "22147": [
      {
        "length": 32,
        "start": 2593
      },
      {
        "length": 32,
        "start": 2856
      },
      {
        "length": 32,
        "start": 3119
      },
      {
        "length": 32,
        "start": 3411
      },
      {
        "length": 32,
        "start": 7441
      },
      {
        "length": 32,
        "start": 7703
      }
    ],
    "22149": [
      {
        "length": 32,
        "start": 833
      },
      {
        "length": 32,
        "start": 1821
      },
      {
        "length": 32,
        "start": 5873
      },
      {
        "length": 32,
        "start": 5990
      }
    ],
    "22153": [
      {
        "length": 32,
        "start": 1095
      },
      {
        "length": 32,
        "start": 2547
      },
      {
        "length": 32,
        "start": 2674
      }
    ],
    "22155": [
      {
        "length": 32,
        "start": 899
      },
      {
        "length": 32,
        "start": 2810
      },
      {
        "length": 32,
        "start": 2937
      }
    ],
    "22157": [
      {
        "length": 32,
        "start": 1235
      },
      {
        "length": 32,
        "start": 3073
      },
      {
        "length": 32,
        "start": 3200
      }
    ],
    "22159": [
      {
        "length": 32,
        "start": 1464
      },
      {
        "length": 32,
        "start": 7320
      }
    ],
    "22161": [
      {
        "length": 32,
        "start": 959
      },
      {
        "length": 32,
        "start": 7654
      },
      {
        "length": 32,
        "start": 7751
      }
    ],
    "22163": [
      {
        "length": 32,
        "start": 1161
      }
    ],
    "22165": [
      {
        "length": 32,
        "start": 1321
      },
      {
        "length": 32,
        "start": 3336
      }
    ]
  },
  "source": "/************************************************************\r\n *\r\n * Autor: Zoinks\r\n *\r\n * 446576656c6f7065723a20416e746f6e20506f6c656e79616b61 ****/\r\n\r\n// SPDX-License-Identifier: UNLICENSED\r\npragma solidity 0.8.15;\r\n\r\nimport \"./abstract/SnacksBase.sol\";\r\nimport \"./librarys/Math.sol\";\r\nimport \"@prb/math/contracts/PRBMathUD60x18.sol\";\r\n\r\ncontract EthSnacks is SnacksBase {\r\n    // ================= Library using =================================================================\r\n\r\n    using SafeERC20 for IERC20;\r\n    using PRBMathUD60x18 for uint256;\r\n    // ================= Constants =====================================================================\r\n\r\n    uint256 public constant SNACKS_MULTIPLIER = 0.00000001 * 10**18; // 18 - decimals()\r\n    uint256 public constant D = 100000000;\r\n    uint256 public constant FEE_PULSE = 15;\r\n    uint256 public constant FEE_MASTERCHEF = 20;\r\n    uint256 public constant FEE_SNACKS_STAKING = 15;\r\n    uint256 public constant FEE_BTCETH_SNACK_HOLDERS = 20;\r\n    uint256 public constant FEE_SNACK_HOLDERS = 15;\r\n    uint256 public constant FEE_ZOINKS_STAKING = 0;\r\n    uint256 public constant FEE_SENIORAGE = 15;\r\n\r\n    // ================= Attributies/Properties ========================================================\r\n\r\n    address public snacks; // Snacks contract address (Snack Holders)\r\n\r\n    // ================= Constructors ===================================================================\r\n\r\n    constructor(\r\n        IERC20 eth_,\r\n        address pulse_,\r\n        address masterChef_,\r\n        address snacksStakingPool_,\r\n        address seniorageAddress_\r\n    )\r\n        SnacksBase(\r\n            eth_,\r\n            pulse_,\r\n            masterChef_,\r\n            snacksStakingPool_,\r\n            \"ETHSNACKS\",\r\n            \"ETHSNACKS\",\r\n            SNACKS_MULTIPLIER,\r\n            seniorageAddress_,\r\n            FEE_PULSE,\r\n            FEE_MASTERCHEF,\r\n            FEE_SNACKS_STAKING,\r\n            FEE_BTCETH_SNACK_HOLDERS,\r\n            FEE_SNACK_HOLDERS,\r\n            FEE_ZOINKS_STAKING,\r\n            FEE_SENIORAGE\r\n        )\r\n    {\r\n        isInitilized = false;\r\n    }\r\n\r\n    // ================= Methods: Publics/External ======================================================\r\n\r\n    function init(address snacks_) external onlyOwner {\r\n        require(!isInitilized, \"ERROR: Contract is already initilized!\");\r\n        snacks = snacks_;\r\n        isInitilized = true;\r\n    }\r\n\r\n    function _beforeDistributeFee(\r\n        uint256 feeEthSnacks_,\r\n        uint256 totalEthHoldersBalance_\r\n    ) internal override {\r\n        if (feeEthSnacks_ > 0) {\r\n            // % EthSnacks holders\r\n            uint256 feeToHolders = (feeEthSnacks_ * feeBTCETHSnacksHolders) /\r\n                100;\r\n            // Calculate and give fee of snacks to every holder\r\n            // Check if we have any holder with balance, if is not correct, we save this fee to next lap\r\n            if (totalEthHoldersBalance_ > 0) {\r\n                for (uint256 i = 0; i < holderList.length; i++) {\r\n                    uint256 holderBalance = balanceOf(holderList[i]);\r\n                    uint256 holderFee = (feeToHolders * holderBalance) /\r\n                        totalEthHoldersBalance_;\r\n                    _selfTokenSnacks.transfer(holderList[i], holderFee);\r\n                }\r\n            }\r\n            // % Snacks holders\r\n            if (feeSnacksHolders > 0) {\r\n                _selfTokenSnacks.transfer(\r\n                    snacks,\r\n                    (feeEthSnacks_ * feeSnacksHolders) / 100\r\n                );\r\n            }\r\n        }\r\n    }\r\n\r\n    function _D() internal pure override returns (uint256) {\r\n        return D;\r\n    }\r\n}\r\n",
  "sourcePath": "C:\\GitHub\\zoinks\\contracts\\Development\\src\\contracts\\EthSnacks.sol",
  "compiler": {
    "name": "solc",
    "version": "0.8.15+commit.e14f2714.Emscripten.clang"
  },
  "schemaVersion": "3.4.8",
  "updatedAt": "2022-08-08T18:33:02.710Z",
  "devdoc": {
    "kind": "dev",
    "methods": {
      "allowance(address,address)": {
        "details": "See {IERC20-allowance}."
      },
      "approve(address,uint256)": {
        "details": "See {IERC20-approve}. NOTE: If `amount` is the maximum `uint256`, the allowance is not updated on `transferFrom`. This is semantically equivalent to an infinite approval. Requirements: - `spender` cannot be the zero address."
      },
      "balanceOf(address)": {
        "details": "See {IERC20-balanceOf}."
      },
      "calculateBuyTotal(uint256)": {
        "details": "Stepan",
        "params": {
          "payTokenAmount_": "How many tokens we wont to pay to get Snacks/BTCSnacks/ETHSnacks"
        },
        "returns": {
          "_0": "How many Snacks/BTCSnacks/ETHSnacks can you buy with Zoinks/BTC/ETH"
        }
      },
      "decimals()": {
        "details": "Returns the number of decimals used to get its user representation. For example, if `decimals` equals `2`, a balance of `505` tokens should be displayed to a user as `5.05` (`505 / 10 ** 2`). Tokens usually opt for a value of 18, imitating the relationship between Ether and Wei. This is the value {ERC20} uses, unless this function is overridden; NOTE: This information is only used for _display_ purposes: it in no way affects any of the arithmetic of the contract, including {IERC20-balanceOf} and {IERC20-transfer}."
      },
      "decreaseAllowance(address,uint256)": {
        "details": "Atomically decreases the allowance granted to `spender` by the caller. This is an alternative to {approve} that can be used as a mitigation for problems described in {IERC20-approve}. Emits an {Approval} event indicating the updated allowance. Requirements: - `spender` cannot be the zero address. - `spender` must have allowance for the caller of at least `subtractedValue`."
      },
      "increaseAllowance(address,uint256)": {
        "details": "Atomically increases the allowance granted to `spender` by the caller. This is an alternative to {approve} that can be used as a mitigation for problems described in {IERC20-approve}. Emits an {Approval} event indicating the updated allowance. Requirements: - `spender` cannot be the zero address."
      },
      "name()": {
        "details": "Returns the name of the token."
      },
      "owner()": {
        "details": "Returns the address of the current owner."
      },
      "renounceOwnership()": {
        "details": "Leaves the contract without owner. It will not be possible to call `onlyOwner` functions anymore. Can only be called by the current owner. NOTE: Renouncing ownership will leave the contract without an owner, thereby removing any functionality that is only available to the owner."
      },
      "symbol()": {
        "details": "Returns the symbol of the token, usually a shorter version of the name."
      },
      "totalSupply()": {
        "details": "See {IERC20-totalSupply}."
      },
      "transfer(address,uint256)": {
        "details": "See {IERC20-transfer}. Requirements: - `to` cannot be the zero address. - the caller must have a balance of at least `amount`."
      },
      "transferFrom(address,address,uint256)": {
        "details": "See {IERC20-transferFrom}. Emits an {Approval} event indicating the updated allowance. This is not required by the EIP. See the note at the beginning of {ERC20}. NOTE: Does not update the allowance if the current allowance is the maximum `uint256`. Requirements: - `from` and `to` cannot be the zero address. - `from` must have a balance of at least `amount`. - the caller must have allowance for ``from``'s tokens of at least `amount`."
      },
      "transferOwnership(address)": {
        "details": "Transfers ownership of the contract to a new account (`newOwner`). Can only be called by the current owner."
      }
    },
    "version": 1
  },
  "userdoc": {
    "errors": {
      "PRBMath__MulDivOverflow(uint256,uint256)": [
        {
          "notice": "Emitted when the result overflows uint256."
        }
      ]
    },
    "kind": "user",
    "methods": {
      "calculateBuyTotal(uint256)": {
        "notice": "Calculate how many Snacks/ETHSnacks/BTCSnacks we can buy with this amount"
      }
    },
    "version": 1
  }
}