{
  "contractName": "MasterChef",
  "abi": [
    {
      "inputs": [
        {
          "internalType": "contract CakeToken",
          "name": "_cake",
          "type": "address"
        },
        {
          "internalType": "address",
          "name": "_seniorage",
          "type": "address"
        }
      ],
      "stateMutability": "nonpayable",
      "type": "constructor"
    },
    {
      "anonymous": false,
      "inputs": [
        {
          "indexed": true,
          "internalType": "address",
          "name": "user",
          "type": "address"
        },
        {
          "indexed": true,
          "internalType": "uint256",
          "name": "pid",
          "type": "uint256"
        },
        {
          "indexed": false,
          "internalType": "uint256",
          "name": "amount",
          "type": "uint256"
        }
      ],
      "name": "Deposit",
      "type": "event"
    },
    {
      "anonymous": false,
      "inputs": [
        {
          "indexed": true,
          "internalType": "address",
          "name": "user",
          "type": "address"
        },
        {
          "indexed": true,
          "internalType": "uint256",
          "name": "pid",
          "type": "uint256"
        },
        {
          "indexed": false,
          "internalType": "uint256",
          "name": "amount",
          "type": "uint256"
        }
      ],
      "name": "EmergencyWithdraw",
      "type": "event"
    },
    {
      "anonymous": false,
      "inputs": [
        {
          "indexed": true,
          "internalType": "address",
          "name": "user",
          "type": "address"
        },
        {
          "indexed": true,
          "internalType": "uint256",
          "name": "pid",
          "type": "uint256"
        },
        {
          "indexed": false,
          "internalType": "uint256",
          "name": "amount",
          "type": "uint256"
        }
      ],
      "name": "LeaveStaking",
      "type": "event"
    },
    {
      "anonymous": false,
      "inputs": [
        {
          "indexed": true,
          "internalType": "address",
          "name": "previousOwner",
          "type": "address"
        },
        {
          "indexed": true,
          "internalType": "address",
          "name": "newOwner",
          "type": "address"
        }
      ],
      "name": "OwnershipTransferred",
      "type": "event"
    },
    {
      "anonymous": false,
      "inputs": [
        {
          "indexed": true,
          "internalType": "address",
          "name": "user",
          "type": "address"
        },
        {
          "indexed": false,
          "internalType": "uint256",
          "name": "zoinksReward",
          "type": "uint256"
        }
      ],
      "name": "RewardTransfer",
      "type": "event"
    },
    {
      "anonymous": false,
      "inputs": [
        {
          "indexed": true,
          "internalType": "address",
          "name": "user",
          "type": "address"
        },
        {
          "indexed": false,
          "internalType": "uint256",
          "name": "snacksReward",
          "type": "uint256"
        },
        {
          "indexed": false,
          "internalType": "uint256",
          "name": "ethSnacksReward",
          "type": "uint256"
        },
        {
          "indexed": false,
          "internalType": "uint256",
          "name": "btcSnacksReward",
          "type": "uint256"
        }
      ],
      "name": "SnacksReward",
      "type": "event"
    },
    {
      "inputs": [],
      "name": "BONUS_MULTIPLIER",
      "outputs": [
        {
          "internalType": "uint256",
          "name": "",
          "type": "uint256"
        }
      ],
      "stateMutability": "view",
      "type": "function"
    },
    {
      "inputs": [],
      "name": "SMART_CHEF_FACTORY",
      "outputs": [
        {
          "internalType": "address",
          "name": "",
          "type": "address"
        }
      ],
      "stateMutability": "view",
      "type": "function"
    },
    {
      "inputs": [],
      "name": "btcSnacks",
      "outputs": [
        {
          "internalType": "contract BEP20",
          "name": "",
          "type": "address"
        }
      ],
      "stateMutability": "view",
      "type": "function"
    },
    {
      "inputs": [],
      "name": "cake",
      "outputs": [
        {
          "internalType": "contract CakeToken",
          "name": "",
          "type": "address"
        }
      ],
      "stateMutability": "view",
      "type": "function"
    },
    {
      "inputs": [],
      "name": "ethSnacks",
      "outputs": [
        {
          "internalType": "contract BEP20",
          "name": "",
          "type": "address"
        }
      ],
      "stateMutability": "view",
      "type": "function"
    },
    {
      "inputs": [],
      "name": "isInitialized",
      "outputs": [
        {
          "internalType": "bool",
          "name": "",
          "type": "bool"
        }
      ],
      "stateMutability": "view",
      "type": "function"
    },
    {
      "inputs": [],
      "name": "migrator",
      "outputs": [
        {
          "internalType": "contract IMigratorChef",
          "name": "",
          "type": "address"
        }
      ],
      "stateMutability": "view",
      "type": "function"
    },
    {
      "inputs": [],
      "name": "owner",
      "outputs": [
        {
          "internalType": "address",
          "name": "",
          "type": "address"
        }
      ],
      "stateMutability": "view",
      "type": "function"
    },
    {
      "inputs": [
        {
          "internalType": "uint256",
          "name": "",
          "type": "uint256"
        }
      ],
      "name": "poolInfo",
      "outputs": [
        {
          "internalType": "contract IBEP20",
          "name": "lpToken",
          "type": "address"
        },
        {
          "internalType": "uint256",
          "name": "totalRewardDebtZoinks",
          "type": "uint256"
        },
        {
          "internalType": "uint256",
          "name": "totalRewardDebtSnacks",
          "type": "uint256"
        },
        {
          "internalType": "uint256",
          "name": "totalRewardDebtEthSnacks",
          "type": "uint256"
        },
        {
          "internalType": "uint256",
          "name": "totalRewardDebtBtcSnacks",
          "type": "uint256"
        }
      ],
      "stateMutability": "view",
      "type": "function"
    },
    {
      "inputs": [],
      "name": "renounceOwnership",
      "outputs": [],
      "stateMutability": "nonpayable",
      "type": "function"
    },
    {
      "inputs": [],
      "name": "seniorageAddress",
      "outputs": [
        {
          "internalType": "address",
          "name": "",
          "type": "address"
        }
      ],
      "stateMutability": "view",
      "type": "function"
    },
    {
      "inputs": [],
      "name": "snacks",
      "outputs": [
        {
          "internalType": "contract BEP20",
          "name": "",
          "type": "address"
        }
      ],
      "stateMutability": "view",
      "type": "function"
    },
    {
      "inputs": [
        {
          "internalType": "address",
          "name": "newOwner",
          "type": "address"
        }
      ],
      "name": "transferOwnership",
      "outputs": [],
      "stateMutability": "nonpayable",
      "type": "function"
    },
    {
      "inputs": [
        {
          "internalType": "uint256",
          "name": "",
          "type": "uint256"
        }
      ],
      "name": "userAddressList",
      "outputs": [
        {
          "internalType": "address",
          "name": "",
          "type": "address"
        }
      ],
      "stateMutability": "view",
      "type": "function"
    },
    {
      "inputs": [
        {
          "internalType": "uint256",
          "name": "",
          "type": "uint256"
        },
        {
          "internalType": "address",
          "name": "",
          "type": "address"
        }
      ],
      "name": "userInfo",
      "outputs": [
        {
          "internalType": "uint256",
          "name": "amount",
          "type": "uint256"
        },
        {
          "internalType": "uint256",
          "name": "rewardDebtZoinks",
          "type": "uint256"
        },
        {
          "internalType": "uint256",
          "name": "rewardDebtSnacks",
          "type": "uint256"
        },
        {
          "internalType": "uint256",
          "name": "rewardDebtEthSnacks",
          "type": "uint256"
        },
        {
          "internalType": "uint256",
          "name": "rewardDebtBtcSnacks",
          "type": "uint256"
        },
        {
          "internalType": "uint256",
          "name": "lastDepositDate",
          "type": "uint256"
        }
      ],
      "stateMutability": "view",
      "type": "function"
    },
    {
      "inputs": [],
      "name": "zoinks",
      "outputs": [
        {
          "internalType": "contract BEP20",
          "name": "",
          "type": "address"
        }
      ],
      "stateMutability": "view",
      "type": "function"
    },
    {
      "inputs": [
        {
          "internalType": "contract BEP20",
          "name": "_zoinks",
          "type": "address"
        },
        {
          "internalType": "contract BEP20",
          "name": "_snacks",
          "type": "address"
        },
        {
          "internalType": "contract BEP20",
          "name": "_ethSnacks",
          "type": "address"
        },
        {
          "internalType": "contract BEP20",
          "name": "_btcSnacks",
          "type": "address"
        }
      ],
      "name": "initialize",
      "outputs": [],
      "stateMutability": "nonpayable",
      "type": "function"
    },
    {
      "inputs": [
        {
          "internalType": "uint256",
          "name": "multiplierNumber",
          "type": "uint256"
        }
      ],
      "name": "updateMultiplier",
      "outputs": [],
      "stateMutability": "nonpayable",
      "type": "function"
    },
    {
      "inputs": [],
      "name": "poolLength",
      "outputs": [
        {
          "internalType": "uint256",
          "name": "",
          "type": "uint256"
        }
      ],
      "stateMutability": "view",
      "type": "function"
    },
    {
      "inputs": [
        {
          "internalType": "contract IBEP20",
          "name": "_lpToken",
          "type": "address"
        },
        {
          "internalType": "bool",
          "name": "_withUpdate",
          "type": "bool"
        }
      ],
      "name": "add",
      "outputs": [],
      "stateMutability": "nonpayable",
      "type": "function"
    },
    {
      "inputs": [
        {
          "internalType": "contract IMigratorChef",
          "name": "_migrator",
          "type": "address"
        }
      ],
      "name": "setMigrator",
      "outputs": [],
      "stateMutability": "nonpayable",
      "type": "function"
    },
    {
      "inputs": [
        {
          "internalType": "uint256",
          "name": "_pid",
          "type": "uint256"
        }
      ],
      "name": "migrate",
      "outputs": [],
      "stateMutability": "nonpayable",
      "type": "function"
    },
    {
      "inputs": [
        {
          "internalType": "uint256",
          "name": "_from",
          "type": "uint256"
        },
        {
          "internalType": "uint256",
          "name": "_to",
          "type": "uint256"
        }
      ],
      "name": "getMultiplier",
      "outputs": [
        {
          "internalType": "uint256",
          "name": "",
          "type": "uint256"
        }
      ],
      "stateMutability": "view",
      "type": "function"
    },
    {
      "inputs": [
        {
          "internalType": "uint256",
          "name": "_pid",
          "type": "uint256"
        },
        {
          "internalType": "address",
          "name": "_user",
          "type": "address"
        }
      ],
      "name": "pendingCake",
      "outputs": [
        {
          "internalType": "uint256",
          "name": "",
          "type": "uint256"
        }
      ],
      "stateMutability": "view",
      "type": "function"
    },
    {
      "inputs": [],
      "name": "massUpdatePools",
      "outputs": [],
      "stateMutability": "nonpayable",
      "type": "function"
    },
    {
      "inputs": [
        {
          "internalType": "uint256",
          "name": "_pid",
          "type": "uint256"
        },
        {
          "internalType": "uint256",
          "name": "_amount",
          "type": "uint256"
        }
      ],
      "name": "deposit",
      "outputs": [],
      "stateMutability": "nonpayable",
      "type": "function"
    },
    {
      "inputs": [
        {
          "internalType": "uint256",
          "name": "_pid",
          "type": "uint256"
        }
      ],
      "name": "withdraw",
      "outputs": [],
      "stateMutability": "nonpayable",
      "type": "function"
    },
    {
      "inputs": [
        {
          "internalType": "uint256",
          "name": "_pid",
          "type": "uint256"
        }
      ],
      "name": "emergencyWithdraw",
      "outputs": [],
      "stateMutability": "nonpayable",
      "type": "function"
    },
    {
      "inputs": [
        {
          "internalType": "uint256",
          "name": "_amount",
          "type": "uint256"
        }
      ],
      "name": "enterStaking",
      "outputs": [],
      "stateMutability": "nonpayable",
      "type": "function"
    },
    {
      "inputs": [
        {
          "internalType": "uint256",
          "name": "_amount",
          "type": "uint256"
        }
      ],
      "name": "leaveStaking",
      "outputs": [],
      "stateMutability": "nonpayable",
      "type": "function"
    },
    {
      "inputs": [
        {
          "internalType": "address",
          "name": "seniorage",
          "type": "address"
        }
      ],
      "name": "setSeniorage",
      "outputs": [],
      "stateMutability": "nonpayable",
      "type": "function"
    }
  ],
  "bytecode": "0x60806040526001600755600019600d553480156200001c57600080fd5b5060405162002e2e38038062002e2e8339810160408190526200003f91620001f0565b6200004a3362000187565b600280546001600160a01b039384166001600160a01b031991821681179092556040805160a0810182529283526000602084018181529184018181526060850182815260808601838152600980546001810182559452955160059093027f6e1540171b6c0c960b71a7020d9f60077f6af931a8bbf590da0223dacf75c7af81018054948a169487169490941790935592517f6e1540171b6c0c960b71a7020d9f60077f6af931a8bbf590da0223dacf75c7b0830155517f6e1540171b6c0c960b71a7020d9f60077f6af931a8bbf590da0223dacf75c7b182015590517f6e1540171b6c0c960b71a7020d9f60077f6af931a8bbf590da0223dacf75c7b282015591517f6e1540171b6c0c960b71a7020d9f60077f6af931a8bbf590da0223dacf75c7b390920191909155600c80549290931691161790556200022f565b600080546001600160a01b038381166001600160a01b0319831681178455604051919092169283917f8be0079c531659141344cd1fd0a4f28419497f9722a3daafe3b4186f6b6457e09190a35050565b6001600160a01b0381168114620001ed57600080fd5b50565b600080604083850312156200020457600080fd5b82516200021181620001d7565b60208401519092506200022481620001d7565b809150509250929050565b612bef806200023f6000396000f3fe608060405234801561001057600080fd5b50600436106101745760003560e01c806256c930146101795780630244234f146101a2578063081e3eda146101b55780631058d281146101c75780631175a1dd146101dc5780631526fe27146101ef57806323cf3118146102345780632e1a7d4d14610247578063392e53cd1461025a57806341441d3b1461027e578063454b060814610291578063512eb14b146102a45780635312ea8e146102b757806356b2f01f146102ca5780635ffe6146146102dd578063630b5ba1146102f05780636e983466146102f8578063715018a61461030b5780637cd07e47146103135780638aa28550146103265780638da5cb5b1461032f5780638dbb1e3a146103375780638ea8caba1461034a57806393f1a40b1461035d578063a64699a3146103d8578063bd617191146103eb578063c6354391146103fe578063dce1748414610411578063e2bbb15814610424578063f2fde38b14610437578063f8c8765e1461044a575b600080fd5b60065461018c906001600160a01b031681565b60405161019991906127ca565b60405180910390f35b60045461018c906001600160a01b031681565b6009545b604051908152602001610199565b6101da6101d53660046127de565b61045d565b005b6101b96101ea36600461280c565b6105cc565b6102026101fd3660046127de565b6105f9565b604080516001600160a01b0390961686526020860194909452928401919091526060830152608082015260a001610199565b6101da61024236600461283c565b610644565b6101da6102553660046127de565b610695565b600c5461026e90600160a01b900460ff1681565b6040519015158152602001610199565b6101da61028c3660046127de565b6106cd565b6101da61029f3660046127de565b610798565b60035461018c906001600160a01b031681565b6101da6102c53660046127de565b6109de565b60055461018c906001600160a01b031681565b6101da6102eb3660046127de565b610aee565b6101da610b22565b6101da610306366004612867565b611168565b6101da6112c0565b60085461018c906001600160a01b031681565b6101b960075481565b61018c6112fb565b6101b9610345366004612895565b61130a565b600c5461018c906001600160a01b031681565b6103ab61036b36600461280c565b600a602090815260009283526040808420909152908252902080546001820154600283015460038401546004850154600590950154939492939192909186565b604080519687526020870195909552938501929092526060840152608083015260a082015260c001610199565b61018c6103e63660046127de565b61132b565b60015461018c906001600160a01b031681565b6101da61040c36600461283c565b611355565b60025461018c906001600160a01b031681565b6101da610432366004612895565b6113a6565b6101da61044536600461283c565b611495565b6101da6104583660046128b7565b611532565b6000600960008154811061047357610473612913565b60009182526020808320338452600080516020612b7a83398151915290915260409092208054600590920290920192508311156105075760405162461bcd60e51b815260206004820152602760248201527f496e73756666696369656e742066756e6473206f6e207468652062616c616e6360448201526619481cda19595d60ca1b60648201526084015b60405180910390fd5b61051160006117e6565b821561058e5760004282600501546201518061052d919061293f565b116105425761053d600a85612957565b61054d565b61054d600285612957565b600c54845491925061056c916001600160a01b03908116911683611fc1565b61058c3361057a8387612979565b85546001600160a01b03169190611fc1565b505b60405183815260009033907fb25c6f82f9f3dcae49796f29e88f331316c742c62cf5def8c5c3a71a953b0ef0906020015b60405180910390a3505050565b6000828152600a602090815260408083206001600160a01b03851684529091529020600101545b92915050565b6009818154811061060957600080fd5b6000918252602090912060059091020180546001820154600283015460038401546004909401546001600160a01b0390931694509092909185565b3361064d6112fb565b6001600160a01b0316146106735760405162461bcd60e51b81526004016104fe90612990565b600880546001600160a01b0319166001600160a01b0392909216919091179055565b80158015906106a5575060095481105b6106c15760405162461bcd60e51b81526004016104fe906129c5565b6106ca816117e6565b50565b600081116106ed5760405162461bcd60e51b81526004016104fe906129ee565b6000600960008154811061070357610703612913565b60009182526020808320338452600080516020612b7a8339815191529091526040909220805460059092029092019250156107425761074260006117e6565b8154610759906001600160a01b031633308661201c565b8054610765908461203d565b815542600582015561077561209a565b6040518381526000903390600080516020612b5a833981519152906020016105bf565b6008546001600160a01b03166107e75760405162461bcd60e51b815260206004820152601460248201527336b4b3b930ba329d1037379036b4b3b930ba37b960611b60448201526064016104fe565b6000600982815481106107fc576107fc612913565b60009182526020822060059091020180546040516370a0823160e01b81529193506001600160a01b0316919082906370a082319061083e9030906004016127ca565b602060405180830381865afa15801561085b573d6000803e3d6000fd5b505050506040513d601f19601f8201168201806040525081019061087f9190612a16565b60085490915061089c906001600160a01b03848116911683612145565b60085460405163ce5494bb60e01b81526000916001600160a01b03169063ce5494bb906108cd9086906004016127ca565b6020604051808303816000875af11580156108ec573d6000803e3d6000fd5b505050506040513d601f19601f820116820180604052508101906109109190612a2f565b6040516370a0823160e01b81529091506001600160a01b038216906370a082319061093f9030906004016127ca565b602060405180830381865afa15801561095c573d6000803e3d6000fd5b505050506040513d601f19601f820116820180604052508101906109809190612a16565b82146109bd5760405162461bcd60e51b815260206004820152600c60248201526b1b5a59dc985d194e8818985960a21b60448201526064016104fe565b83546001600160a01b0319166001600160a01b039190911617909255505050565b6000600982815481106109f3576109f3612913565b60009182526020808320858452600a825260408085203386529092529220600590910290910191508215801590610a2b575060095483105b610a475760405162461bcd60e51b81526004016104fe906129c5565b8054610a8b5760405162461bcd60e51b81526020600482015260136024820152726e6f7468696e6720746f20776974686472617760681b60448201526064016104fe565b8054610a96846117e6565b8254610aac906001600160a01b03163383611fc1565b60008255604051818152849033907fbb757047c2b5f3974fe26b7c10f732e7bce710b0952a71082702781e62ae0595906020015b60405180910390a350505050565b33610af76112fb565b6001600160a01b031614610b1d5760405162461bcd60e51b81526004016104fe90612990565b600755565b6009546003546040516370a0823160e01b815260009182916001600160a01b03909116906370a0823190610b5a9030906004016127ca565b602060405180830381865afa158015610b77573d6000803e3d6000fd5b505050506040513d601f19601f82011682018060405250810190610b9b9190612a16565b905060015b83811015610c8f57610c4460098281548110610bbe57610bbe612913565b60009182526020909120600590910201546040516370a0823160e01b81526001600160a01b03909116906370a0823190610bfc9030906004016127ca565b602060405180830381865afa158015610c19573d6000803e3d6000fd5b505050506040513d601f19601f82011682018060405250810190610c3d9190612a16565b849061203d565b9250610c7d60098281548110610c5c57610c5c612913565b9060005260206000209060050201600101548361224990919063ffffffff16565b9150610c8881612a4c565b9050610ba0565b8115610cbc575060015b83811015610cbc57610cac8383836122a5565b610cb581612a4c565b9050610c99565b600184106111625760006009600181548110610cda57610cda612913565b60009182526020822060059091020180546040516370a0823160e01b81529193506001600160a01b0316906370a0823190610d199030906004016127ca565b602060405180830381865afa158015610d36573d6000803e3d6000fd5b505050506040513d601f19601f82011682018060405250810190610d5a9190612a16565b905080600003610d9c5760405162461bcd60e51b815260206004820152600d60248201526c06c70537570706c79206973203609c1b60448201526064016104fe565b6002820154600480546040516370a0823160e01b8152600093610e1e9390926001600160a01b0316916370a0823191610dd7913091016127ca565b602060405180830381865afa158015610df4573d6000803e3d6000fd5b505050506040513d601f19601f82011682018060405250810190610e189190612a16565b90612249565b90508015610f2c5760005b600b54811015610f1657610e9583610e8f600a6000600181526020019081526020016000206000600b8681548110610e6357610e63612913565b60009182526020808320909101546001600160a01b031683528201929092526040019020548590612456565b906124d8565b60016000908152600a602052600b8054600080516020612b9a83398151915292919085908110610ec757610ec7612913565b60009182526020808320909101546001600160a01b0316835282019290925260400181206002018054909190610efe90849061293f565b90915550819050610f0e81612a4c565b915050610e29565b506002830154610f26908261203d565b60028401555b60038301546005546040516370a0823160e01b8152600092610f6a9290916001600160a01b03909116906370a0823190610dd79030906004016127ca565b905080156110465760005b600b5481101561103057610faf84610e8f600a6000600181526020019081526020016000206000600b8681548110610e6357610e63612913565b60016000908152600a602052600b8054600080516020612b9a83398151915292919085908110610fe157610fe1612913565b60009182526020808320909101546001600160a01b031683528201929092526040018120600301805490919061101890849061293f565b9091555081905061102881612a4c565b915050610f75565b506003840154611040908261203d565b60038501555b6004808501546006546040516370a0823160e01b815260009361108093926001600160a01b0316916370a0823191610dd7913091016127ca565b9050801561115c5760005b600b54811015611146576110c585610e8f600a6000600181526020019081526020016000206000600b8681548110610e6357610e63612913565b60016000908152600a602052600b8054600080516020612b9a833981519152929190859081106110f7576110f7612913565b60009182526020808320909101546001600160a01b031683528201929092526040018120600401805490919061112e90849061293f565b9091555081905061113e81612a4c565b91505061108b565b506004850154611156908261203d565b60048601555b50505050505b50505050565b336111716112fb565b6001600160a01b0316146111975760405162461bcd60e51b81526004016104fe90612990565b80156111a5576111a5610b22565b506040805160a0810182526001600160a01b039283168152600060208201818152928201818152606083018281526080840183815260098054600181018255945293517f6e1540171b6c0c960b71a7020d9f60077f6af931a8bbf590da0223dacf75c7af600590940293840180546001600160a01b031916919097161790955592517f6e1540171b6c0c960b71a7020d9f60077f6af931a8bbf590da0223dacf75c7b082015591517f6e1540171b6c0c960b71a7020d9f60077f6af931a8bbf590da0223dacf75c7b183015591517f6e1540171b6c0c960b71a7020d9f60077f6af931a8bbf590da0223dacf75c7b282015590517f6e1540171b6c0c960b71a7020d9f60077f6af931a8bbf590da0223dacf75c7b390910155565b336112c96112fb565b6001600160a01b0316146112ef5760405162461bcd60e51b81526004016104fe90612990565b6112f96000612530565b565b6000546001600160a01b031690565b6007546000906113249061131e8486612249565b90612456565b9392505050565b600b818154811061133b57600080fd5b6000918252602090912001546001600160a01b0316905081565b3361135e6112fb565b6001600160a01b0316146113845760405162461bcd60e51b81526004016104fe90612990565b600c80546001600160a01b0319166001600160a01b0392909216919091179055565b81158015906113b6575060095482105b6113d25760405162461bcd60e51b81526004016104fe906129c5565b600081116113f25760405162461bcd60e51b81526004016104fe906129ee565b60006009838154811061140757611407612913565b60009182526020808320868452600a825260408085203386529092529220805460059092029092019250156114405761144060006117e6565b8154611457906001600160a01b031633308661201c565b8054611463908461203d565b815542600582015561147361209a565b60405183815284903390600080516020612b5a83398151915290602001610ae0565b3361149e6112fb565b6001600160a01b0316146114c45760405162461bcd60e51b81526004016104fe90612990565b6001600160a01b0381166115295760405162461bcd60e51b815260206004820152602660248201527f4f776e61626c653a206e6577206f776e657220697320746865207a65726f206160448201526564647265737360d01b60648201526084016104fe565b6106ca81612530565b3361153b6112fb565b6001600160a01b0316146115615760405162461bcd60e51b81526004016104fe90612990565b600c54600160a01b900460ff16156115b15760405162461bcd60e51b8152602060048201526013602482015272105b1c9958591e481a5b9a5d1a585b1a5e9959606a1b60448201526064016104fe565b600c805460ff60a01b1916600160a01b179055600380546001600160a01b038087166001600160a01b031992831681179093556004805487831690841617815560058054878416908516179055600680549286169290931691909117909155600d5460405163095ea7b360e01b815263095ea7b392611634923092909101612a65565b6020604051808303816000875af1158015611653573d6000803e3d6000fd5b505050506040513d601f19601f820116820180604052508101906116779190612a7e565b5060048054600d5460405163095ea7b360e01b81526001600160a01b039092169263095ea7b3926116ac923092909101612a65565b6020604051808303816000875af11580156116cb573d6000803e3d6000fd5b505050506040513d601f19601f820116820180604052508101906116ef9190612a7e565b50600554600d5460405163095ea7b360e01b81526001600160a01b039092169163095ea7b39161172491309190600401612a65565b6020604051808303816000875af1158015611743573d6000803e3d6000fd5b505050506040513d601f19601f820116820180604052508101906117679190612a7e565b50600654600d5460405163095ea7b360e01b81526001600160a01b039092169163095ea7b39161179c91309190600401612a65565b6020604051808303816000875af11580156117bb573d6000803e3d6000fd5b505050506040513d601f19601f820116820180604052508101906117df9190612a7e565b5050505050565b6000818152600a6020908152604080832033845290915281206001810154909181156119bd57600583015461181e906201518061293f565b42106118345761182f600a83612957565b61183f565b61183f600283612957565b600354600c546040516323b872dd60e01b81529293506001600160a01b03918216926323b872dd9261187a9230929116908690600401612a9b565b6020604051808303816000875af1158015611899573d6000803e3d6000fd5b505050506040513d601f19601f820116820180604052508101906118bd9190612a7e565b506003546001600160a01b03166323b872dd30336118db8587612979565b6040518463ffffffff1660e01b81526004016118f993929190612a9b565b6020604051808303816000875af1158015611918573d6000803e3d6000fd5b505050506040513d601f19601f8201168201806040525081019061193c9190612a7e565b506000848152600a60209081526040808320338452909152812060010155600980546119949184918790811061197457611974612913565b90600052602060002090600502016001015461224990919063ffffffff16565b600985815481106119a7576119a7612913565b9060005260206000209060050201600101819055505b83600103611f86576000848152600a602090815260408083203384529091529020600201548015611b975760058401546119fa906201518061293f565b4210611a1057611a0b600a82612957565b611a1b565b611a1b600282612957565b60048054600c546040516323b872dd60e01b81529395506001600160a01b03918216936323b872dd93611a549330931691889101612a9b565b6020604051808303816000875af1158015611a73573d6000803e3d6000fd5b505050506040513d601f19601f82011682018060405250810190611a979190612a7e565b506004546001600160a01b03166323b872dd3033611ab58686612979565b6040518463ffffffff1660e01b8152600401611ad393929190612a9b565b6020604051808303816000875af1158015611af2573d6000803e3d6000fd5b505050506040513d601f19601f82011682018060405250810190611b169190612a7e565b506000858152600a6020908152604080832033845290915281206002015560098054611b6e91839188908110611b4e57611b4e612913565b90600052602060002090600502016002015461224990919063ffffffff16565b60098681548110611b8157611b81612913565b9060005260206000209060050201600201819055505b6000858152600a602090815260408083203384529091529020600301548015611d6b576005850154611bcc906201518061293f565b4210611be257611bdd600a82612957565b611bed565b611bed600282612957565b600554600c546040516323b872dd60e01b81529295506001600160a01b03918216926323b872dd92611c289230929116908890600401612a9b565b6020604051808303816000875af1158015611c47573d6000803e3d6000fd5b505050506040513d601f19601f82011682018060405250810190611c6b9190612a7e565b506005546001600160a01b03166323b872dd3033611c898786612979565b6040518463ffffffff1660e01b8152600401611ca793929190612a9b565b6020604051808303816000875af1158015611cc6573d6000803e3d6000fd5b505050506040513d601f19601f82011682018060405250810190611cea9190612a7e565b506000868152600a6020908152604080832033845290915281206003015560098054611d4291839189908110611d2257611d22612913565b90600052602060002090600502016003015461224990919063ffffffff16565b60098781548110611d5557611d55612913565b9060005260206000209060050201600301819055505b6000868152600a602090815260408083203384529091529020600401548015611f3f576005860154611da0906201518061293f565b4210611db657611db1600a82612957565b611dc1565b611dc1600282612957565b600654600c546040516323b872dd60e01b81529296506001600160a01b03918216926323b872dd92611dfc9230929116908990600401612a9b565b6020604051808303816000875af1158015611e1b573d6000803e3d6000fd5b505050506040513d601f19601f82011682018060405250810190611e3f9190612a7e565b506006546001600160a01b03166323b872dd3033611e5d8886612979565b6040518463ffffffff1660e01b8152600401611e7b93929190612a9b565b6020604051808303816000875af1158015611e9a573d6000803e3d6000fd5b505050506040513d601f19601f82011682018060405250810190611ebe9190612a7e565b506000878152600a6020908152604080832033845290915281206004015560098054611f169183918a908110611ef657611ef6612913565b90600052602060002090600502016004015461224990919063ffffffff16565b60098881548110611f2957611f29612913565b9060005260206000209060050201600401819055505b604080518481526020810184905290810182905233907fc62061918a6112582e269b30e0407c0d1d15c29a5095ca0c000fe1eaff6f1e159060600160405180910390a25050505b60405182815233907fef14dc981ddf2d8e0948f894c0cb32a0940f4dc18cf89edbff80bb05c31f6a309060200160405180910390a250505050565b6120178363a9059cbb60e01b8484604051602401611fe0929190612a65565b60408051601f198184030181529190526020810180516001600160e01b03166001600160e01b031990931692909217909152612580565b505050565b611162846323b872dd60e01b858585604051602401611fe093929190612a9b565b60008061204a838561293f565b9050838110156113245760405162461bcd60e51b815260206004820152601b60248201527a536166654d6174683a206164646974696f6e206f766572666c6f7760281b60448201526064016104fe565b6000805b600b548110156120fa57336001600160a01b0316600b82815481106120c5576120c5612913565b6000918252602090912001546001600160a01b0316036120e857600191506120fa565b806120f281612a4c565b91505061209e565b50806106ca57600b80546001810182556000919091527f0175b7a638427703f0dbe7bb9bbf987a2551717b34e79f33b5b1008d1fa01db90180546001600160a01b0319163317905550565b8015806121bf5750604051636eb1769f60e11b81523060048201526001600160a01b03838116602483015284169063dd62ed3e90604401602060405180830381865afa158015612199573d6000803e3d6000fd5b505050506040513d601f19601f820116820180604052508101906121bd9190612a16565b155b61222a5760405162461bcd60e51b815260206004820152603660248201527f5361666542455032303a20617070726f76652066726f6d206e6f6e2d7a65726f60448201527520746f206e6f6e2d7a65726f20616c6c6f77616e636560501b60648201526084016104fe565b6120178363095ea7b360e01b8484604051602401611fe0929190612a65565b60008282111561229b5760405162461bcd60e51b815260206004820152601e60248201527f536166654d6174683a207375627472616374696f6e206f766572666c6f77000060448201526064016104fe565b6113248284612979565b6000600982815481106122ba576122ba612913565b60009182526020822060059091020180546040516370a0823160e01b81529193506001600160a01b0316906370a08231906122f99030906004016127ca565b602060405180830381865afa158015612316573d6000803e3d6000fd5b505050506040513d601f19601f8201168201806040525081019061233a9190612a16565b90508060000361234b575050505050565b61235985610e8f8684612456565b935060005b600b54811015612437576123c382610e8f600a60008881526020019081526020016000206000600b868154811061239757612397612913565b60009182526020808320909101546001600160a01b031683528201929092526040019020548890612456565b6000858152600a60205260408120600b8054919291859081106123e8576123e8612913565b60009182526020808320909101546001600160a01b031683528201929092526040018120600101805490919061241f90849061293f565b9091555081905061242f81612a4c565b91505061235e565b506001820154612447908561203d565b82600101819055505050505050565b600082600003612468575060006105f3565b60006124748385612abf565b9050826124818583612957565b146113245760405162461bcd60e51b815260206004820152602160248201527f536166654d6174683a206d756c7469706c69636174696f6e206f766572666c6f6044820152607760f81b60648201526084016104fe565b60008082116125265760405162461bcd60e51b815260206004820152601a602482015279536166654d6174683a206469766973696f6e206279207a65726f60301b60448201526064016104fe565b6113248284612957565b600080546001600160a01b038381166001600160a01b0319831681178455604051919092169283917f8be0079c531659141344cd1fd0a4f28419497f9722a3daafe3b4186f6b6457e09190a35050565b60006125d5826040518060400160405280602081526020017f5361666542455032303a206c6f772d6c6576656c2063616c6c206661696c6564815250856001600160a01b03166126529092919063ffffffff16565b80519091501561201757808060200190518101906125f39190612a7e565b6120175760405162461bcd60e51b815260206004820152602a60248201527f5361666542455032303a204245503230206f7065726174696f6e20646964206e6044820152691bdd081cdd58d8d9595960b21b60648201526084016104fe565b60606126618484600085612669565b949350505050565b6060824710156126ca5760405162461bcd60e51b815260206004820152602660248201527f416464726573733a20696e73756666696369656e742062616c616e636520666f6044820152651c8818d85b1b60d21b60648201526084016104fe565b843b6127185760405162461bcd60e51b815260206004820152601d60248201527f416464726573733a2063616c6c20746f206e6f6e2d636f6e747261637400000060448201526064016104fe565b600080866001600160a01b031685876040516127349190612b0a565b60006040518083038185875af1925050503d8060008114612771576040519150601f19603f3d011682016040523d82523d6000602084013e612776565b606091505b5091509150612786828286612791565b979650505050505050565b606083156127a0575081611324565b8251156127b05782518084602001fd5b8160405162461bcd60e51b81526004016104fe9190612b26565b6001600160a01b0391909116815260200190565b6000602082840312156127f057600080fd5b5035919050565b6001600160a01b03811681146106ca57600080fd5b6000806040838503121561281f57600080fd5b823591506020830135612831816127f7565b809150509250929050565b60006020828403121561284e57600080fd5b8135611324816127f7565b80151581146106ca57600080fd5b6000806040838503121561287a57600080fd5b8235612885816127f7565b9150602083013561283181612859565b600080604083850312156128a857600080fd5b50508035926020909101359150565b600080600080608085870312156128cd57600080fd5b84356128d8816127f7565b935060208501356128e8816127f7565b925060408501356128f8816127f7565b91506060850135612908816127f7565b939692955090935050565b634e487b7160e01b600052603260045260246000fd5b634e487b7160e01b600052601160045260246000fd5b6000821982111561295257612952612929565b500190565b60008261297457634e487b7160e01b600052601260045260246000fd5b500490565b60008282101561298b5761298b612929565b500390565b6020808252818101527f4f776e61626c653a2063616c6c6572206973206e6f7420746865206f776e6572604082015260600190565b6020808252600f908201526e1a5b9d985b1a59081c1bdbdb081a59608a1b604082015260600190565b6020808252600e908201526d1a5b9d985b1a5908185b5bdd5b9d60921b604082015260600190565b600060208284031215612a2857600080fd5b5051919050565b600060208284031215612a4157600080fd5b8151611324816127f7565b600060018201612a5e57612a5e612929565b5060010190565b6001600160a01b03929092168252602082015260400190565b600060208284031215612a9057600080fd5b815161132481612859565b6001600160a01b039384168152919092166020820152604081019190915260600190565b6000816000190483118215151615612ad957612ad9612929565b500290565b60005b83811015612af9578181015183820152602001612ae1565b838111156111625750506000910152565b60008251612b1c818460208701612ade565b9190910192915050565b6020815260008251806020840152612b45816040850160208701612ade565b601f01601f1916919091016040019291505056fe90890809c654f11d6e72a28fa60149770a0d11ec6c92319d6ceb2bb0a4ea1a1513da86008ba1c6922daee3e07db95305ef49ebced9f5467a0b8613fcc6b343e3bbc70db1b6c7afd11e79c0fb0051300458f1a3acb8ee9789d9b6b26c61ad9bc7a264697066735822122098ae4e3ab2d11457348e98306efa39da304e7b9d658ae625d2a0f4c803f9ddd864736f6c634300080f0033",
  "immutableReferences": {},
  "source": "/************************************************************\r\n *\r\n * Autor: Zoinks\r\n *\r\n * 446576656c6f7065723a20416e746f6e20506f6c656e79616b61 ****/\r\n\r\n// SPDX-License-Identifier: GPL-3.0\r\npragma solidity 0.8.15;\r\n\r\nimport \"./librarys/SafeMath.sol\";\r\nimport \"./abstract/Ownable.sol\";\r\nimport \"./librarys/SafeBEP20.sol\";\r\nimport \"./CakeToken.sol\";\r\nimport \"./interfaces/IMigratorChef.sol\";\r\n\r\n// MasterChef is the master of Cake. He can make Cake and he is a fair guy.\r\n//\r\n// Note that it's ownable and the owner wields tremendous power. The ownership\r\n// will be transferred to a governance smart contract once CAKE is sufficiently\r\n// distributed and the community can show to govern itself.\r\n//\r\n// Have fun reading it. Hopefully it's bug-free. God bless.\r\ncontract MasterChef is Ownable {\r\n    using SafeMath for uint256;\r\n    using SafeBEP20 for IBEP20;\r\n    using SafeBEP20 for CakeToken;\r\n\r\n    // The address of the smart chef factory\r\n    address public SMART_CHEF_FACTORY;\r\n\r\n    // Info of each user.\r\n    struct UserInfo {\r\n        uint256 amount; // How many LP tokens the user has provided.\r\n        uint256 rewardDebtZoinks; // Reward debt of zoinks. See explanation below.\r\n        uint256 rewardDebtSnacks; // Reward debt of snacks. See explanation below.\r\n        uint256 rewardDebtEthSnacks; // Reward debt of ethSnacks. See explanation below.\r\n        uint256 rewardDebtBtcSnacks; // Reward debt of btcSnacks. See explanation below.\r\n        uint256 lastDepositDate; // Last Withdraw Time\r\n        //\r\n        // We do some fancy math here. Basically, any point in time, the amount of CAKEs\r\n        // entitled to a user but is pending to be distributed is:\r\n        //\r\n        //   pending reward = (user.amount / total lp amount) * new reward\r\n        //\r\n        // Whenever a user deposits or withdraws LP tokens to a pool. Here's what happens:\r\n        //   1. User receives User's `rewardDebt` sent to his/her address.\r\n        //   2. User's `amount` gets updated.\r\n        //   3. User's `rewardDebt` gets initialized.\r\n        // Whenever a user call distributeReward(). Here's what happens:\r\n        //   User's `rewardDebt` set with pending reward above.\r\n    }\r\n\r\n    // Info of each pool.\r\n    struct PoolInfo {\r\n        IBEP20 lpToken; // Address of LP token contract.\r\n        uint256 totalRewardDebtZoinks; // Total Reward debt of zoinks\r\n        uint256 totalRewardDebtSnacks; // Total Reward debt of snacks\r\n        uint256 totalRewardDebtEthSnacks; // Total Reward debt of ethSnacks\r\n        uint256 totalRewardDebtBtcSnacks; // Total Reward debt of btcSnacks\r\n    }\r\n\r\n    // The CAKE TOKEN!\r\n    CakeToken public cake;\r\n    // The ZOINKS TOKEN\r\n    BEP20 public zoinks;\r\n    // The SNACKS TOKEN\r\n    BEP20 public snacks;\r\n    // The ETHSNACKS TOKEN\r\n    BEP20 public ethSnacks;\r\n    // The BTCSNACKS TOKEN\r\n    BEP20 public btcSnacks;\r\n    // Bonus muliplier for early cake makers.\r\n    uint256 public BONUS_MULTIPLIER = 1;\r\n    // The migrator contract. It has a lot of power. Can only be set through governance (owner).\r\n    IMigratorChef public migrator;\r\n\r\n    // Info of each pool.\r\n    PoolInfo[] public poolInfo;\r\n    // Info of each user that stakes LP tokens.\r\n    mapping(uint256 => mapping(address => UserInfo)) public userInfo;\r\n    address[] public userAddressList;\r\n    // Total allocation poitns. Must be the sum of all allocation points in all pools.\r\n\r\n    // Seniorage address\r\n    address public seniorageAddress;\r\n\r\n    // Whether it is initialized\r\n    bool public isInitialized;\r\n\r\n    //maximum-integer\r\n    uint256 MAX_INT =\r\n        0xffffffffffffffffffffffffffffffffffffffffffffffffffffffffffffffff;\r\n\r\n    event Deposit(address indexed user, uint256 indexed pid, uint256 amount);\r\n    event EmergencyWithdraw(address indexed user, uint256 indexed pid, uint256 amount);\r\n    event LeaveStaking(address indexed user, uint256 indexed pid, uint256 amount);\r\n    event RewardTransfer(\r\n        address indexed user,\r\n        uint256 zoinksReward\r\n    );\r\n    event SnacksReward(\r\n        address indexed user,\r\n        uint256 snacksReward,\r\n        uint256 ethSnacksReward,\r\n        uint256 btcSnacksReward\r\n    );\r\n\r\n    constructor(\r\n        CakeToken _cake,\r\n        address _seniorage\r\n    ) {\r\n        cake = _cake;\r\n        // staking pool\r\n        poolInfo.push(\r\n            PoolInfo({\r\n                lpToken: _cake,\r\n                totalRewardDebtZoinks: 0,\r\n                totalRewardDebtSnacks: 0,\r\n                totalRewardDebtEthSnacks: 0,\r\n                totalRewardDebtBtcSnacks: 0\r\n            })\r\n        );\r\n        seniorageAddress = _seniorage; // Ex.: 0x467927774B59F7cB023863b07960669f958EC19a\r\n    }\r\n\r\n    function initialize(\r\n        BEP20 _zoinks,\r\n        BEP20 _snacks,\r\n        BEP20 _ethSnacks,\r\n        BEP20 _btcSnacks\r\n    ) external onlyOwner {\r\n        require(!isInitialized, \"Already initialized\");\r\n\r\n        // Make this contract initialized\r\n        isInitialized = true;\r\n\r\n        zoinks = _zoinks;\r\n        snacks = _snacks;\r\n        ethSnacks = _ethSnacks;\r\n        btcSnacks = _btcSnacks;\r\n        //Approve contracts  for rewardTransfer\r\n        zoinks.approve(address(this), MAX_INT);\r\n        snacks.approve(address(this), MAX_INT);\r\n        ethSnacks.approve(address(this), MAX_INT);\r\n        btcSnacks.approve(address(this), MAX_INT);\r\n    }\r\n\r\n    function updateMultiplier(uint256 multiplierNumber) public onlyOwner {\r\n        BONUS_MULTIPLIER = multiplierNumber;\r\n    }\r\n\r\n    function poolLength() external view returns (uint256) {\r\n        return poolInfo.length;\r\n    }\r\n\r\n    // Add a new lp to the pool. Can only be called by the owner.\r\n    // XXX DO NOT add the same LP token more than once. Rewards will be messed up if you do.\r\n    function add(IBEP20 _lpToken, bool _withUpdate) public onlyOwner {\r\n        if (_withUpdate) {\r\n            massUpdatePools();\r\n        }\r\n        poolInfo.push(\r\n            PoolInfo({\r\n                lpToken: _lpToken,\r\n                totalRewardDebtZoinks: 0,\r\n                totalRewardDebtSnacks: 0,\r\n                totalRewardDebtEthSnacks: 0,\r\n                totalRewardDebtBtcSnacks: 0\r\n            })\r\n        );\r\n    }\r\n\r\n    // Set the migrator contract. Can only be called by the owner.\r\n    function setMigrator(IMigratorChef _migrator) public onlyOwner {\r\n        migrator = _migrator;\r\n    }\r\n\r\n    // Migrate lp token to another lp contract. Can be called by anyone. We trust that migrator contract is good.\r\n    function migrate(uint256 _pid) public {\r\n        require(address(migrator) != address(0), \"migrate: no migrator\");\r\n        PoolInfo storage pool = poolInfo[_pid];\r\n        IBEP20 lpToken = pool.lpToken;\r\n        uint256 bal = lpToken.balanceOf(address(this));\r\n        lpToken.safeApprove(address(migrator), bal);\r\n        IBEP20 newLpToken = migrator.migrate(lpToken);\r\n        require(bal == newLpToken.balanceOf(address(this)), \"migrate: bad\");\r\n        pool.lpToken = newLpToken;\r\n    }\r\n\r\n    // Return reward multiplier over the given _from to _to block.\r\n    function getMultiplier(uint256 _from, uint256 _to)\r\n        public\r\n        view\r\n        returns (uint256)\r\n    {\r\n        return _to.sub(_from).mul(BONUS_MULTIPLIER);\r\n    }\r\n\r\n    // View function to see pending CAKEs on frontend.\r\n    function pendingCake(uint256 _pid, address _user)\r\n        external\r\n        view\r\n        returns (uint256)\r\n    {\r\n        return userInfo[_pid][_user].rewardDebtZoinks;\r\n    }\r\n\r\n    // Update reward variables for all pools. Be careful of gas spending!\r\n    function massUpdatePools() public {\r\n        uint256 length = poolInfo.length;\r\n        uint256 totalSupply;\r\n        uint256 rewardZoinks = zoinks.balanceOf(address(this));\r\n        uint256 pid = 1;\r\n        for (pid = 1; pid < length; ++pid) {\r\n            totalSupply = totalSupply.add(\r\n                poolInfo[pid].lpToken.balanceOf(address(this))\r\n            );\r\n            rewardZoinks = rewardZoinks.sub(\r\n                poolInfo[pid].totalRewardDebtZoinks\r\n            );\r\n        }\r\n        if (rewardZoinks > 0) {\r\n            for (pid = 1; pid < length; ++pid) {\r\n                updatePool(totalSupply, rewardZoinks, pid);\r\n            }\r\n        }\r\n        if (length >= 1) {\r\n            PoolInfo storage pool = poolInfo[1];\r\n            uint256 lpSupply = pool.lpToken.balanceOf(address(this));\r\n            require(lpSupply != 0, \"lpSupply is 0\");\r\n            uint256 rewardSnacks = snacks.balanceOf(address(this)).sub(\r\n                pool.totalRewardDebtSnacks\r\n            );\r\n            if (rewardSnacks > 0) {\r\n                for (uint256 i = 0; i < userAddressList.length; i++) {\r\n                    userInfo[1][userAddressList[i]]\r\n                        .rewardDebtSnacks += rewardSnacks\r\n                        .mul(userInfo[1][userAddressList[i]].amount)\r\n                        .div(lpSupply);\r\n                }\r\n                pool.totalRewardDebtSnacks = pool.totalRewardDebtSnacks.add(\r\n                    rewardSnacks\r\n                );\r\n            }\r\n            uint256 rewardEthSnacks = ethSnacks.balanceOf(address(this)).sub(\r\n                pool.totalRewardDebtEthSnacks\r\n            );\r\n            if (rewardEthSnacks > 0) {\r\n                for (uint256 i = 0; i < userAddressList.length; i++) {\r\n                    userInfo[1][userAddressList[i]]\r\n                        .rewardDebtEthSnacks += rewardEthSnacks\r\n                        .mul(userInfo[1][userAddressList[i]].amount)\r\n                        .div(lpSupply);\r\n                }\r\n                pool.totalRewardDebtEthSnacks = pool\r\n                    .totalRewardDebtEthSnacks\r\n                    .add(rewardEthSnacks);\r\n            }\r\n            uint256 rewardBtcSnacks = btcSnacks.balanceOf(address(this)).sub(\r\n                pool.totalRewardDebtBtcSnacks\r\n            );\r\n            if (rewardBtcSnacks > 0) {\r\n                for (uint256 i = 0; i < userAddressList.length; i++) {\r\n                    userInfo[1][userAddressList[i]]\r\n                        .rewardDebtBtcSnacks += rewardBtcSnacks\r\n                        .mul(userInfo[1][userAddressList[i]].amount)\r\n                        .div(lpSupply);\r\n                }\r\n                pool.totalRewardDebtBtcSnacks = pool\r\n                    .totalRewardDebtBtcSnacks\r\n                    .add(rewardBtcSnacks);\r\n            }\r\n        }\r\n    }\r\n\r\n    // Update reward variables of the given pool to be up-to-date.\r\n    function updatePool(\r\n        uint256 totalSupply,\r\n        uint256 rewardZoinks,\r\n        uint256 _pid\r\n    ) internal {\r\n        PoolInfo storage pool = poolInfo[_pid];\r\n\r\n        uint256 lpSupply = pool.lpToken.balanceOf(address(this));\r\n\r\n        if (lpSupply == 0) {\r\n            return;\r\n        }\r\n\r\n        // !       inflationaryEmission\r\n        rewardZoinks = rewardZoinks.mul(lpSupply).div(totalSupply);\r\n\r\n        for (uint256 i = 0; i < userAddressList.length; i++) {\r\n            userInfo[_pid][userAddressList[i]].rewardDebtZoinks += rewardZoinks\r\n                .mul(userInfo[_pid][userAddressList[i]].amount)\r\n                .div(lpSupply);\r\n        }\r\n\r\n        pool.totalRewardDebtZoinks = pool.totalRewardDebtZoinks.add(\r\n            rewardZoinks\r\n        );\r\n    }\r\n\r\n    //add msg.sender to userAddressList\r\n    function addUser() internal {\r\n        bool isExist = false;\r\n        for (uint256 i = 0; i < userAddressList.length; i++) {\r\n            if (userAddressList[i] == msg.sender) {\r\n                isExist = true;\r\n                break;\r\n            }\r\n        }\r\n        if (!isExist) {\r\n            userAddressList.push(msg.sender);\r\n        }\r\n    }\r\n    \r\n    function deposit(uint256 _pid, uint256 _amount) public {\r\n        require(_pid != 0 && _pid < poolInfo.length, \"invalid pool id\");\r\n        require(_amount > 0, \"invalid amount\");\r\n        PoolInfo storage pool = poolInfo[_pid];\r\n        UserInfo storage user = userInfo[_pid][msg.sender];\r\n        if (user.amount > 0) {\r\n            rewardTransfer(0);\r\n        }\r\n        pool.lpToken.safeTransferFrom(address(msg.sender), address(this), _amount);\r\n        user.amount = user.amount.add(_amount);\r\n        user.lastDepositDate = block.timestamp;\r\n        addUser();\r\n        emit Deposit(msg.sender, _pid, _amount);\r\n    }\r\n    \r\n    function withdraw(uint256 _pid) public {\r\n        require(_pid != 0 && _pid < poolInfo.length, \"invalid pool id\");\r\n        rewardTransfer(_pid);\r\n    }\r\n\r\n    function emergencyWithdraw(uint256 _pid) public {\r\n        PoolInfo storage pool = poolInfo[_pid];\r\n        UserInfo storage user = userInfo[_pid][msg.sender];\r\n        require(_pid != 0 && _pid < poolInfo.length, \"invalid pool id\");\r\n        require(user.amount > 0, \"nothing to withdraw\");\r\n        uint256 amount = user.amount;\r\n        rewardTransfer(_pid);\r\n        pool.lpToken.safeTransfer(msg.sender, amount);\r\n        user.amount = 0;\r\n        emit EmergencyWithdraw(msg.sender, _pid, amount);\r\n    }\r\n    \r\n    // Stake CAKE tokens to MasterChef\r\n    function enterStaking(uint256 _amount) public {\r\n        require(_amount > 0, \"invalid amount\");\r\n        PoolInfo storage pool = poolInfo[0];\r\n        UserInfo storage user = userInfo[0][msg.sender];\r\n        if (user.amount > 0) {\r\n            rewardTransfer(0);\r\n        }\r\n        pool.lpToken.safeTransferFrom(msg.sender, address(this), _amount);\r\n        user.amount = user.amount.add(_amount);\r\n        user.lastDepositDate = block.timestamp;\r\n        addUser();\r\n        emit Deposit(msg.sender, 0, _amount);\r\n    }\r\n\r\n    // Withdraw CAKE tokens from STAKING.\r\n    function leaveStaking(uint256 _amount) public {\r\n        PoolInfo storage pool = poolInfo[0];\r\n        UserInfo storage user = userInfo[0][msg.sender];\r\n        require(user.amount >= _amount, \"Insufficient funds on the balance sheet\");\r\n        rewardTransfer(0);\r\n        if (_amount > 0) {\r\n            uint256 amountToSeniorage = user.lastDepositDate + 1 days\r\n                > block.timestamp\r\n                ? _amount / 2\r\n                : _amount / 10;\r\n            pool.lpToken.safeTransfer(seniorageAddress, amountToSeniorage);\r\n            pool.lpToken.safeTransfer(msg.sender, _amount - amountToSeniorage);\r\n        }\r\n        emit LeaveStaking(msg.sender, 0, _amount);\r\n    }\r\n\r\n    // Safe reward transfer function, just in case if rounding error causes pool to not have enough CAKEs.\r\n    function rewardTransfer(uint256 _pid) internal {\r\n        UserInfo storage user = userInfo[_pid][msg.sender];\r\n        uint256 rewardDebtZoinks = userInfo[_pid][msg.sender].rewardDebtZoinks;\r\n        uint256 amountToSeniorage;\r\n        if (rewardDebtZoinks > 0) {\r\n            amountToSeniorage = block.timestamp < user.lastDepositDate + 1 days\r\n                ? rewardDebtZoinks / 2\r\n                : rewardDebtZoinks / 10;\r\n            zoinks.transferFrom(address(this), seniorageAddress, amountToSeniorage);\r\n            zoinks.transferFrom(address(this), msg.sender, rewardDebtZoinks - amountToSeniorage);\r\n            userInfo[_pid][msg.sender].rewardDebtZoinks = 0;\r\n            poolInfo[_pid].totalRewardDebtZoinks = poolInfo[_pid]\r\n                .totalRewardDebtZoinks\r\n                .sub(rewardDebtZoinks);\r\n        }\r\n        if (_pid == 1) {\r\n            uint256 rewardDebtSnacks = userInfo[_pid][msg.sender]\r\n                .rewardDebtSnacks;\r\n            if (rewardDebtSnacks > 0) {\r\n                amountToSeniorage = block.timestamp < user.lastDepositDate + 1 days\r\n                    ? rewardDebtSnacks / 2\r\n                    : rewardDebtSnacks / 10;\r\n                snacks.transferFrom(address(this), seniorageAddress, amountToSeniorage);\r\n                snacks.transferFrom(address(this), msg.sender, rewardDebtSnacks - amountToSeniorage);\r\n                userInfo[_pid][msg.sender].rewardDebtSnacks = 0;\r\n                poolInfo[_pid].totalRewardDebtSnacks = poolInfo[_pid]\r\n                    .totalRewardDebtSnacks\r\n                    .sub(rewardDebtSnacks);\r\n            }\r\n            uint256 rewardDebtEthSnacks = userInfo[_pid][msg.sender]\r\n                .rewardDebtEthSnacks;\r\n            if (rewardDebtEthSnacks > 0) {\r\n                amountToSeniorage = block.timestamp < user.lastDepositDate + 1 days\r\n                    ? rewardDebtEthSnacks / 2\r\n                    : rewardDebtEthSnacks / 10;\r\n                ethSnacks.transferFrom(address(this), seniorageAddress, amountToSeniorage);\r\n                ethSnacks.transferFrom(address(this), msg.sender, rewardDebtEthSnacks - amountToSeniorage);\r\n                userInfo[_pid][msg.sender].rewardDebtEthSnacks = 0;\r\n                poolInfo[_pid].totalRewardDebtEthSnacks = poolInfo[_pid]\r\n                    .totalRewardDebtEthSnacks\r\n                    .sub(rewardDebtEthSnacks);\r\n            }\r\n            uint256 rewardDebtBtcSnacks = userInfo[_pid][msg.sender]\r\n                .rewardDebtBtcSnacks;\r\n            if (rewardDebtBtcSnacks > 0) {\r\n                amountToSeniorage = block.timestamp < user.lastDepositDate + 1 days\r\n                    ? rewardDebtBtcSnacks / 2\r\n                    : rewardDebtBtcSnacks / 10;\r\n                btcSnacks.transferFrom(address(this), seniorageAddress, amountToSeniorage);\r\n                btcSnacks.transferFrom(address(this), msg.sender, rewardDebtBtcSnacks - amountToSeniorage);\r\n                userInfo[_pid][msg.sender].rewardDebtBtcSnacks = 0;\r\n                poolInfo[_pid].totalRewardDebtBtcSnacks = poolInfo[_pid]\r\n                    .totalRewardDebtBtcSnacks\r\n                    .sub(rewardDebtBtcSnacks);\r\n            }\r\n            emit SnacksReward(msg.sender, rewardDebtSnacks, rewardDebtEthSnacks, rewardDebtBtcSnacks);\r\n        }\r\n        emit RewardTransfer(msg.sender, rewardDebtZoinks);\r\n    }\r\n\r\n    // Set seniorage address by owner\r\n    function setSeniorage(address seniorage) public onlyOwner {\r\n        seniorageAddress = seniorage;\r\n    }\r\n}\r\n",
  "sourcePath": "C:\\GitHub\\zoinks\\contracts\\Development\\src\\contracts\\MasterChef.sol",
  "compiler": {
    "name": "solc",
    "version": "0.8.15+commit.e14f2714.Emscripten.clang"
  },
  "schemaVersion": "3.4.8",
  "updatedAt": "2022-08-08T18:33:02.800Z",
  "devdoc": {
    "kind": "dev",
    "methods": {
      "owner()": {
        "details": "Returns the address of the current owner."
      },
      "renounceOwnership()": {
        "details": "Leaves the contract without owner. It will not be possible to call `onlyOwner` functions anymore. Can only be called by the current owner. NOTE: Renouncing ownership will leave the contract without an owner, thereby removing any functionality that is only available to the owner."
      },
      "transferOwnership(address)": {
        "details": "Transfers ownership of the contract to a new account (`newOwner`). Can only be called by the current owner."
      }
    },
    "version": 1
  },
  "userdoc": {
    "kind": "user",
    "methods": {},
    "version": 1
  }
}