{
  "contractName": "Pulse",
  "abi": [
    {
      "inputs": [
        {
          "internalType": "address",
          "name": "_BUSD",
          "type": "address"
        },
        {
          "internalType": "address",
          "name": "_router",
          "type": "address"
        },
        {
          "internalType": "address",
          "name": "_operator",
          "type": "address"
        }
      ],
      "stateMutability": "nonpayable",
      "type": "constructor"
    },
    {
      "anonymous": false,
      "inputs": [
        {
          "indexed": true,
          "internalType": "address",
          "name": "previousOwner",
          "type": "address"
        },
        {
          "indexed": true,
          "internalType": "address",
          "name": "newOwner",
          "type": "address"
        }
      ],
      "name": "OwnershipTransferred",
      "type": "event"
    },
    {
      "inputs": [],
      "name": "BTCSNACKS",
      "outputs": [
        {
          "internalType": "address",
          "name": "",
          "type": "address"
        }
      ],
      "stateMutability": "view",
      "type": "function"
    },
    {
      "inputs": [],
      "name": "BUSD",
      "outputs": [
        {
          "internalType": "address",
          "name": "",
          "type": "address"
        }
      ],
      "stateMutability": "view",
      "type": "function"
    },
    {
      "inputs": [],
      "name": "CAKELP",
      "outputs": [
        {
          "internalType": "address",
          "name": "",
          "type": "address"
        }
      ],
      "stateMutability": "view",
      "type": "function"
    },
    {
      "inputs": [],
      "name": "ETHSNACKS",
      "outputs": [
        {
          "internalType": "address",
          "name": "",
          "type": "address"
        }
      ],
      "stateMutability": "view",
      "type": "function"
    },
    {
      "inputs": [],
      "name": "SNACKS",
      "outputs": [
        {
          "internalType": "address",
          "name": "",
          "type": "address"
        }
      ],
      "stateMutability": "view",
      "type": "function"
    },
    {
      "inputs": [],
      "name": "ZOINKS",
      "outputs": [
        {
          "internalType": "address",
          "name": "",
          "type": "address"
        }
      ],
      "stateMutability": "view",
      "type": "function"
    },
    {
      "inputs": [],
      "name": "masterChef",
      "outputs": [
        {
          "internalType": "address",
          "name": "",
          "type": "address"
        }
      ],
      "stateMutability": "view",
      "type": "function"
    },
    {
      "inputs": [],
      "name": "operator",
      "outputs": [
        {
          "internalType": "address",
          "name": "",
          "type": "address"
        }
      ],
      "stateMutability": "view",
      "type": "function"
    },
    {
      "inputs": [],
      "name": "owner",
      "outputs": [
        {
          "internalType": "address",
          "name": "",
          "type": "address"
        }
      ],
      "stateMutability": "view",
      "type": "function"
    },
    {
      "inputs": [],
      "name": "renounceOwnership",
      "outputs": [],
      "stateMutability": "nonpayable",
      "type": "function"
    },
    {
      "inputs": [],
      "name": "router",
      "outputs": [
        {
          "internalType": "address",
          "name": "",
          "type": "address"
        }
      ],
      "stateMutability": "view",
      "type": "function"
    },
    {
      "inputs": [],
      "name": "snacksStakingPool",
      "outputs": [
        {
          "internalType": "address",
          "name": "",
          "type": "address"
        }
      ],
      "stateMutability": "view",
      "type": "function"
    },
    {
      "inputs": [
        {
          "internalType": "address",
          "name": "newOwner",
          "type": "address"
        }
      ],
      "name": "transferOwnership",
      "outputs": [],
      "stateMutability": "nonpayable",
      "type": "function"
    },
    {
      "inputs": [
        {
          "internalType": "address",
          "name": "_CAKELP",
          "type": "address"
        },
        {
          "internalType": "address",
          "name": "_ZOINKS",
          "type": "address"
        },
        {
          "internalType": "address",
          "name": "_SNACKS",
          "type": "address"
        },
        {
          "internalType": "address",
          "name": "_ETHSNACKS",
          "type": "address"
        },
        {
          "internalType": "address",
          "name": "_BTCSNACKS",
          "type": "address"
        },
        {
          "internalType": "address",
          "name": "_masterChef",
          "type": "address"
        },
        {
          "internalType": "address",
          "name": "_snacksStakingPool",
          "type": "address"
        }
      ],
      "name": "initialize",
      "outputs": [],
      "stateMutability": "nonpayable",
      "type": "function"
    },
    {
      "inputs": [],
      "name": "operateSNACKS",
      "outputs": [],
      "stateMutability": "nonpayable",
      "type": "function"
    },
    {
      "inputs": [],
      "name": "operateZOINKS",
      "outputs": [],
      "stateMutability": "nonpayable",
      "type": "function"
    },
    {
      "inputs": [],
      "name": "harvest",
      "outputs": [],
      "stateMutability": "nonpayable",
      "type": "function"
    },
    {
      "inputs": [
        {
          "internalType": "address",
          "name": "_operator",
          "type": "address"
        }
      ],
      "name": "setOperator",
      "outputs": [],
      "stateMutability": "nonpayable",
      "type": "function"
    }
  ],
  "bytecode": "0x60806040523480156200001157600080fd5b50604051620015d0380380620015d08339810160408190526200003491620001f6565b6200003f3362000189565b6001600160a01b038316158015906200006057506001600160a01b03821615155b80156200007557506001600160a01b03811615155b620000d25760405162461bcd60e51b815260206004820152602360248201527f50756c73653a206f6e65206f662074686520616464726573736573206973207a60448201526265726f60e81b606482015260840160405180910390fd5b600180546001600160a01b038581166001600160a01b03199283168117909355600980548683169084168117909155600a8054928616929093169190911790915560405163095ea7b360e01b81526004810191909152600019602482015263095ea7b3906044016020604051808303816000875af115801562000159573d6000803e3d6000fd5b505050506040513d601f19601f820116820180604052508101906200017f919062000240565b505050506200026b565b600080546001600160a01b038381166001600160a01b0319831681178455604051919092169283917f8be0079c531659141344cd1fd0a4f28419497f9722a3daafe3b4186f6b6457e09190a35050565b80516001600160a01b0381168114620001f157600080fd5b919050565b6000806000606084860312156200020c57600080fd5b6200021784620001d9565b92506200022760208501620001d9565b91506200023760408501620001d9565b90509250925092565b6000602082840312156200025357600080fd5b815180151581146200026457600080fd5b9392505050565b611355806200027b6000396000f3fe608060405234801561001057600080fd5b50600436106100e65760003560e01c8063069035b0146100eb578063189699ea1461011457806335876476146101275780634641257d1461013c578063484f4ea914610144578063570ca73514610157578063575a86b21461016a57806362e6cfdf1461017d578063715018a6146101855780638da5cb5b1461018d578063a9d5a77214610195578063b3ab15fb1461019d578063b467bb3b146101b0578063b670525b146101c3578063f0933389146101d6578063f2fde38b146101e9578063f7ad5650146101fc578063f887ea401461020f575b600080fd5b6004546100fe906001600160a01b031681565b60405161010b9190610fbb565b60405180910390f35b6006546100fe906001600160a01b031681565b61013a610135366004610feb565b610222565b005b61013a61055e565b6001546100fe906001600160a01b031681565b600a546100fe906001600160a01b031681565b6007546100fe906001600160a01b031681565b61013a610650565b61013a610b79565b6100fe610b8d565b61013a610b9c565b61013a6101ab366004611071565b610e03565b6005546100fe906001600160a01b031681565b6002546100fe906001600160a01b031681565b6008546100fe906001600160a01b031681565b61013a6101f7366004611071565b610e93565b6003546100fe906001600160a01b031681565b6009546100fe906001600160a01b031681565b61022a610f0c565b6001600160a01b0387161580159061024a57506001600160a01b03861615155b801561025e57506001600160a01b03851615155b801561027257506001600160a01b03831615155b801561028657506001600160a01b03841615155b801561029a57506001600160a01b03821615155b80156102ae57506001600160a01b03811615155b61030b5760405162461bcd60e51b815260206004820152602360248201527f50756c73653a206f6e65206f662074686520616464726573736573206973207a60448201526265726f60e81b60648201526084015b60405180910390fd5b600280546001600160a01b03199081166001600160a01b038a81169182179093556003805483168a8516179055600480548316898516178155600580548416898616179055600680548416888616179055600780548416878616908117909155600880549094169486169490941790925560405163095ea7b360e01b8152909263095ea7b39261039f926000199101611093565b6020604051808303816000875af11580156103be573d6000803e3d6000fd5b505050506040513d601f19601f820116820180604052508101906103e291906110ac565b506003546004805460405163095ea7b360e01b81526001600160a01b039384169363095ea7b39361041b93909116916000199101611093565b6020604051808303816000875af115801561043a573d6000803e3d6000fd5b505050506040513d601f19601f8201168201806040525081019061045e91906110ac565b5060035460095460405163095ea7b360e01b81526001600160a01b039283169263095ea7b3926104979291169060001990600401611093565b6020604051808303816000875af11580156104b6573d6000803e3d6000fd5b505050506040513d601f19601f820116820180604052508101906104da91906110ac565b506004805460085460405163095ea7b360e01b81526001600160a01b039283169363095ea7b3936105119316916000199101611093565b6020604051808303816000875af1158015610530573d6000803e3d6000fd5b505050506040513d601f19601f8201168201806040525081019061055491906110ac565b5050505050505050565b600a546001600160a01b031633146105885760405162461bcd60e51b8152600401610302906110ce565b600754604051632e1a7d4d60e01b8152600160048201526001600160a01b0390911690632e1a7d4d90602401600060405180830381600087803b1580156105ce57600080fd5b505af11580156105e2573d6000803e3d6000fd5b50505050600860009054906101000a90046001600160a01b03166001600160a01b0316633ccfd60b6040518163ffffffff1660e01b8152600401600060405180830381600087803b15801561063657600080fd5b505af115801561064a573d6000803e3d6000fd5b50505050565b600a546001600160a01b0316331461067a5760405162461bcd60e51b8152600401610302906110ce565b6003546040516370a0823160e01b81526000916001600160a01b0316906370a08231906106ab903090600401610fbb565b602060405180830381865afa1580156106c8573d6000803e3d6000fd5b505050506040513d601f19601f820116820180604052508101906106ec919061110f565b1161075e5760405162461bcd60e51b815260206004820152603c60248201527f50756c73653a20696e73756666696369656e7420616d6f756e74206f66205a4f60448201527b494e4b53206f6e2074686520636f6e74726163742062616c616e636560201b6064820152608401610302565b6003546040516370a0823160e01b81526000916001600160a01b0316906370a082319061078f903090600401610fbb565b602060405180830381865afa1580156107ac573d6000803e3d6000fd5b505050506040513d601f19601f820116820180604052508101906107d0919061110f565b905060006127106107e36103e88461113e565b6107ed919061115d565b60048054604051630c83527360e41b81529293506001600160a01b03169163c8352730916108219185910190815260200190565b600060405180830381600087803b15801561083b57600080fd5b505af115801561084f573d6000803e3d6000fd5b50505050600061271061138883610866919061113e565b610870919061115d565b6040805160028082526060820183529293506000929091602083019080368337505060035482519293506001600160a01b0316918391506000906108b6576108b6611195565b6001600160a01b03928316602091820292909201015260018054835192169183919081106108e6576108e6611195565b6001600160a01b039283166020918202929092010152600954600091166338ed17398461271061091861251c8361113e565b610922919061115d565b853061092f42600f6111ab565b6040518663ffffffff1660e01b815260040161094f9594939291906111c3565b6000604051808303816000875af115801561096e573d6000803e3d6000fd5b505050506040513d6000823e601f3d908101601f191682016040526109969190810190611234565b6009546003546001805484519495506000946001600160a01b039485169463e8e3370094811693921691879181106109d0576109d0611195565b6020026020010151866001815181106109eb576109eb611195565b602002602001015161271061251c89600181518110610a0c57610a0c611195565b6020026020010151610a1e919061113e565b610a28919061115d565b61271061251c8a600181518110610a4157610a41611195565b6020026020010151610a53919061113e565b610a5d919061115d565b30610a6942600f6111ab565b60405160e08a901b6001600160e01b03191681526001600160a01b039889166004820152968816602488015260448701959095526064860193909352608485019190915260a484015290921660c482015260e4810191909152610104016060604051808303816000875af1158015610ae5573d6000803e3d6000fd5b505050506040513d601f19601f82011682018060405250810190610b0991906112f1565b600754604051631c57762b60e31b815260016004820152602481018390529194506001600160a01b0316925063e2bbb1589150604401600060405180830381600087803b158015610b5957600080fd5b505af1158015610b6d573d6000803e3d6000fd5b50505050505050505050565b610b81610f0c565b610b8b6000610f6b565b565b6000546001600160a01b031690565b600a546001600160a01b03163314610bc65760405162461bcd60e51b8152600401610302906110ce565b600480546040516370a0823160e01b81526000926001600160a01b03909216916370a0823191610bf891309101610fbb565b602060405180830381865afa158015610c15573d6000803e3d6000fd5b505050506040513d601f19601f82011682018060405250810190610c39919061110f565b11610cab5760405162461bcd60e51b815260206004820152603c60248201527f50756c73653a20696e73756666696369656e7420616d6f756e74206f6620534e60448201527b41434b53206f6e2074686520636f6e74726163742062616c616e636560201b6064820152608401610302565b600480546040516370a0823160e01b81526000926001600160a01b03909216916370a0823191610cdd91309101610fbb565b602060405180830381865afa158015610cfa573d6000803e3d6000fd5b505050506040513d601f19601f82011682018060405250810190610d1e919061110f565b90506000612710610d316103e88461113e565b610d3b919061115d565b6004805460405163db006a7560e01b81529293506001600160a01b03169163db006a7591610d6f9185910190815260200190565b600060405180830381600087803b158015610d8957600080fd5b505af1158015610d9d573d6000803e3d6000fd5b505060085460405163b6b55f2560e01b8152600481018590526001600160a01b03909116925063b6b55f259150602401600060405180830381600087803b158015610de757600080fd5b505af1158015610dfb573d6000803e3d6000fd5b505050505050565b610e0b610f0c565b6001600160a01b038116610e715760405162461bcd60e51b815260206004820152602760248201527f50756c73653a20617474656d707420746f2061737369676e2061207a65726f206044820152666164647265737360c81b6064820152608401610302565b600a80546001600160a01b0319166001600160a01b0392909216919091179055565b610e9b610f0c565b6001600160a01b038116610f005760405162461bcd60e51b815260206004820152602660248201527f4f776e61626c653a206e6577206f776e657220697320746865207a65726f206160448201526564647265737360d01b6064820152608401610302565b610f0981610f6b565b50565b33610f15610b8d565b6001600160a01b031614610b8b5760405162461bcd60e51b815260206004820181905260248201527f4f776e61626c653a2063616c6c6572206973206e6f7420746865206f776e65726044820152606401610302565b600080546001600160a01b038381166001600160a01b0319831681178455604051919092169283917f8be0079c531659141344cd1fd0a4f28419497f9722a3daafe3b4186f6b6457e09190a35050565b6001600160a01b0391909116815260200190565b80356001600160a01b0381168114610fe657600080fd5b919050565b600080600080600080600060e0888a03121561100657600080fd5b61100f88610fcf565b965061101d60208901610fcf565b955061102b60408901610fcf565b945061103960608901610fcf565b935061104760808901610fcf565b925061105560a08901610fcf565b915061106360c08901610fcf565b905092959891949750929550565b60006020828403121561108357600080fd5b61108c82610fcf565b9392505050565b6001600160a01b03929092168252602082015260400190565b6000602082840312156110be57600080fd5b8151801515811461108c57600080fd5b60208082526021908201527f50756c73653a2063616c6c6572206973206e6f7420746865206f70657261746f6040820152603960f91b606082015260800190565b60006020828403121561112157600080fd5b5051919050565b634e487b7160e01b600052601160045260246000fd5b600081600019048311821515161561115857611158611128565b500290565b60008261117a57634e487b7160e01b600052601260045260246000fd5b500490565b634e487b7160e01b600052604160045260246000fd5b634e487b7160e01b600052603260045260246000fd5b600082198211156111be576111be611128565b500190565b600060a082018783526020878185015260a0604085015281875180845260c086019150828901935060005b818110156112135784516001600160a01b0316835293830193918301916001016111ee565b50506001600160a01b03969096166060850152505050608001529392505050565b6000602080838503121561124757600080fd5b82516001600160401b038082111561125e57600080fd5b818501915085601f83011261127257600080fd5b8151818111156112845761128461117f565b8060051b604051601f19603f830116810181811085821117156112a9576112a961117f565b6040529182528482019250838101850191888311156112c757600080fd5b938501935b828510156112e5578451845293850193928501926112cc565b98975050505050505050565b60008060006060848603121561130657600080fd5b835192506020840151915060408401519050925092509256fea2646970667358221220227ac9398ef1a377c9aa7184f827bb96de56293f881182b13c6adaabc3d7c49864736f6c634300080f0033",
  "immutableReferences": {},
  "source": "// SPDX-License-Identifier: MIT\r\npragma solidity 0.8.15;\r\n\r\nimport \"@openzeppelin/contracts/access/Ownable.sol\";\r\nimport \"@openzeppelin/contracts/token/ERC20/IERC20.sol\";\r\nimport \"@openzeppelin/contracts/token/ERC20/utils/SafeERC20.sol\";\r\nimport \"./interfaces/IMasterChef.sol\";\r\nimport \"./interfaces/ISnacksStakingPool.sol\";\r\nimport \"./interfaces/ISnacks.sol\";\r\nimport \"./interfaces/IRouter.sol\";\r\nimport \"hardhat/console.sol\";\r\n\r\ncontract Pulse is Ownable {\r\n    using SafeERC20 for IERC20;\r\n    \r\n    uint256 constant private BASE_PERCENT = 10000;\r\n    uint256 constant private TEN_PERCENT = 1000;\r\n    uint256 constant private FIFTY_PERCENT = 5000;\r\n    uint256 constant private SLIPPAGE_PERCENT = 9500;\r\n    \r\n    address public BUSD;\r\n    address public CAKELP;\r\n    address public ZOINKS;\r\n    address public SNACKS;\r\n    address public ETHSNACKS;\r\n    address public BTCSNACKS;\r\n    address public masterChef;\r\n    address public snacksStakingPool;\r\n    address public router;\r\n    address public operator;\r\n    \r\n    modifier onlyOperator {\r\n        require(\r\n            msg.sender == operator,\r\n            \"Pulse: caller is not the operator\"\r\n        );\r\n        _;\r\n    }\r\n\r\n    constructor(\r\n        address _BUSD,\r\n        address _router,\r\n        address _operator\r\n    )\r\n    {\r\n        require(\r\n            _BUSD != address(0) &&\r\n            _router != address(0) &&\r\n            _operator != address(0),\r\n            \"Pulse: one of the addresses is zero\"\r\n        );\r\n        BUSD = _BUSD;\r\n        router = _router;\r\n        operator = _operator;\r\n        IERC20(BUSD).approve(router, type(uint256).max);\r\n    }\r\n    \r\n    /*\r\n    * @notice initialize contract or sets addresses in case of redeployment\r\n    * @dev in the development phase, this function is used to reset addresses\r\n    * TODO: add initilizer modificator\r\n    */\r\n    function initialize(\r\n        address _CAKELP,\r\n        address _ZOINKS,\r\n        address _SNACKS,\r\n        address _ETHSNACKS,\r\n        address _BTCSNACKS,\r\n        address _masterChef,\r\n        address _snacksStakingPool\r\n    )\r\n        public\r\n        onlyOwner\r\n    {\r\n        require(\r\n            _CAKELP != address(0) &&\r\n            _ZOINKS != address(0) &&\r\n            _SNACKS != address(0) &&\r\n            _BTCSNACKS != address(0) &&\r\n            _ETHSNACKS != address(0) &&\r\n            _masterChef != address(0) &&\r\n            _snacksStakingPool != address(0),\r\n            \"Pulse: one of the addresses is zero\"\r\n        );\r\n        CAKELP = _CAKELP;\r\n        ZOINKS = _ZOINKS;\r\n        SNACKS = _SNACKS;\r\n        ETHSNACKS = _ETHSNACKS;\r\n        BTCSNACKS = _BTCSNACKS;\r\n        masterChef = _masterChef;\r\n        snacksStakingPool = _snacksStakingPool;\r\n        IERC20(CAKELP).approve(masterChef, type(uint256).max);\r\n        IERC20(ZOINKS).approve(SNACKS, type(uint256).max);\r\n        IERC20(ZOINKS).approve(router, type(uint256).max);\r\n        IERC20(SNACKS).approve(snacksStakingPool, type(uint256).max);\r\n    }\r\n    \r\n    /// @notice operates SNACKS\r\n    function operateSNACKS() external onlyOperator {\r\n        require(\r\n            IERC20(SNACKS).balanceOf(address(this)) > 0,\r\n            \"Pulse: insufficient amount of SNACKS on the contract balance\"\r\n        );\r\n        uint256 balance = IERC20(SNACKS).balanceOf(address(this));\r\n        uint256 amountToOperate = balance * TEN_PERCENT / BASE_PERCENT;\r\n        /// redeem 10% of the SNACKS balance\r\n        ISnacks(SNACKS).redeem(amountToOperate);\r\n        /// deposit 10% of the SNACKS balance to SNACKS staking pool\r\n        ISnacksStakingPool(snacksStakingPool).deposit(amountToOperate);\r\n    }\r\n    \r\n    /// @notice operates ZOINKS\r\n    function operateZOINKS() external onlyOperator {\r\n        require(\r\n            IERC20(ZOINKS).balanceOf(address(this)) > 0,\r\n            \"Pulse: insufficient amount of ZOINKS on the contract balance\"\r\n        );\r\n        uint256 balance = IERC20(ZOINKS).balanceOf(address(this));\r\n        uint256 amountToOperate = balance * TEN_PERCENT / BASE_PERCENT;\r\n        // buying SNACKS for 10% of the ZOINKS balance\r\n        ISnacks(SNACKS).buyTotal(amountToOperate);\r\n        // half of the 10% balance of ZOINKS changes to BUSD\r\n        uint256 toBUSD = amountToOperate * FIFTY_PERCENT / BASE_PERCENT;\r\n        address[] memory path = new address[](2);\r\n        path[0] = ZOINKS;\r\n        path[1] = BUSD;\r\n        uint256[] memory amounts = IRouter(router).swapExactTokensForTokens(\r\n            toBUSD,\r\n            toBUSD * SLIPPAGE_PERCENT / BASE_PERCENT,\r\n            path,\r\n            address(this),\r\n            block.timestamp + 15\r\n        );\r\n        // adding liquidity in the amount of 10% of the balance of ZOINKS\r\n        (, , uint256 liquidity) = IRouter(router).addLiquidity(\r\n            ZOINKS,\r\n            BUSD,\r\n            amounts[1],\r\n            amounts[1],\r\n            amounts[1] * SLIPPAGE_PERCENT / BASE_PERCENT,\r\n            amounts[1] * SLIPPAGE_PERCENT / BASE_PERCENT,\r\n            address(this),\r\n            block.timestamp + 15\r\n        );\r\n        IMasterChef(masterChef).deposit(1, liquidity);\r\n    }\r\n    \r\n    /// @notice claims reward from staking pools\r\n    function harvest() external onlyOperator {\r\n        IMasterChef(masterChef).withdraw(1);\r\n        ISnacksStakingPool(snacksStakingPool).withdraw();\r\n    }\r\n    \r\n    /// @notice sets the operator who is allowed to call the operating functions\r\n    function setOperator(address _operator) external onlyOwner {\r\n        require(\r\n            _operator != address(0),\r\n            \"Pulse: attempt to assign a zero address\"\r\n        );\r\n        operator = _operator;\r\n    }\r\n}\r\n",
  "sourcePath": "C:\\GitHub\\zoinks\\contracts\\Development\\src\\contracts\\Pulse.sol",
  "compiler": {
    "name": "solc",
    "version": "0.8.15+commit.e14f2714.Emscripten.clang"
  },
  "schemaVersion": "3.4.8",
  "updatedAt": "2022-08-08T18:33:02.849Z",
  "devdoc": {
    "kind": "dev",
    "methods": {
      "owner()": {
        "details": "Returns the address of the current owner."
      },
      "renounceOwnership()": {
        "details": "Leaves the contract without owner. It will not be possible to call `onlyOwner` functions anymore. Can only be called by the current owner. NOTE: Renouncing ownership will leave the contract without an owner, thereby removing any functionality that is only available to the owner."
      },
      "transferOwnership(address)": {
        "details": "Transfers ownership of the contract to a new account (`newOwner`). Can only be called by the current owner."
      }
    },
    "version": 1
  },
  "userdoc": {
    "kind": "user",
    "methods": {
      "harvest()": {
        "notice": "claims reward from staking pools"
      },
      "operateSNACKS()": {
        "notice": "operates SNACKS"
      },
      "operateZOINKS()": {
        "notice": "operates ZOINKS"
      },
      "setOperator(address)": {
        "notice": "sets the operator who is allowed to call the operating functions"
      }
    },
    "version": 1
  }
}