{
  "contractName": "Seniorage",
  "abi": [
    {
      "inputs": [
        {
          "internalType": "address",
          "name": "_BUSD",
          "type": "address"
        },
        {
          "internalType": "address",
          "name": "_CAKELP",
          "type": "address"
        },
        {
          "internalType": "address",
          "name": "_BTC",
          "type": "address"
        },
        {
          "internalType": "address",
          "name": "_ETH",
          "type": "address"
        },
        {
          "internalType": "address",
          "name": "_ZOINKS",
          "type": "address"
        },
        {
          "internalType": "address",
          "name": "_SNACKS",
          "type": "address"
        },
        {
          "internalType": "address",
          "name": "_BTCSNACKS",
          "type": "address"
        },
        {
          "internalType": "address",
          "name": "_ETHSNACKS",
          "type": "address"
        },
        {
          "internalType": "address",
          "name": "_distributor",
          "type": "address"
        },
        {
          "internalType": "address",
          "name": "_pulse",
          "type": "address"
        },
        {
          "internalType": "address",
          "name": "_router",
          "type": "address"
        }
      ],
      "stateMutability": "nonpayable",
      "type": "constructor"
    },
    {
      "anonymous": false,
      "inputs": [
        {
          "indexed": false,
          "internalType": "uint8",
          "name": "version",
          "type": "uint8"
        }
      ],
      "name": "Initialized",
      "type": "event"
    },
    {
      "anonymous": false,
      "inputs": [
        {
          "indexed": true,
          "internalType": "address",
          "name": "previousOwner",
          "type": "address"
        },
        {
          "indexed": true,
          "internalType": "address",
          "name": "newOwner",
          "type": "address"
        }
      ],
      "name": "OwnershipTransferred",
      "type": "event"
    },
    {
      "inputs": [],
      "name": "owner",
      "outputs": [
        {
          "internalType": "address",
          "name": "",
          "type": "address"
        }
      ],
      "stateMutability": "view",
      "type": "function"
    },
    {
      "inputs": [],
      "name": "renounceOwnership",
      "outputs": [],
      "stateMutability": "nonpayable",
      "type": "function"
    },
    {
      "inputs": [
        {
          "internalType": "address",
          "name": "newOwner",
          "type": "address"
        }
      ],
      "name": "transferOwnership",
      "outputs": [],
      "stateMutability": "nonpayable",
      "type": "function"
    },
    {
      "inputs": [
        {
          "internalType": "address",
          "name": "_bdmWallet",
          "type": "address"
        },
        {
          "internalType": "address",
          "name": "_crmWallet",
          "type": "address"
        },
        {
          "internalType": "address",
          "name": "_devManagerWallet",
          "type": "address"
        },
        {
          "internalType": "address",
          "name": "_marketingManagerWallet",
          "type": "address"
        },
        {
          "internalType": "address",
          "name": "_devWallet",
          "type": "address"
        },
        {
          "internalType": "address",
          "name": "_marketingFundWallet",
          "type": "address"
        },
        {
          "internalType": "address",
          "name": "_reservesWallet",
          "type": "address"
        },
        {
          "internalType": "address",
          "name": "_situationalFundWallet",
          "type": "address"
        },
        {
          "internalType": "address",
          "name": "_seniorageWallet",
          "type": "address"
        }
      ],
      "name": "initialize",
      "outputs": [],
      "stateMutability": "nonpayable",
      "type": "function"
    },
    {
      "inputs": [],
      "name": "distributeNonBUSDCurrencies",
      "outputs": [],
      "stateMutability": "nonpayable",
      "type": "function"
    },
    {
      "inputs": [],
      "name": "distributeBUSD",
      "outputs": [],
      "stateMutability": "nonpayable",
      "type": "function"
    },
    {
      "inputs": [
        {
          "internalType": "address",
          "name": "_distributor",
          "type": "address"
        }
      ],
      "name": "setDistributor",
      "outputs": [],
      "stateMutability": "nonpayable",
      "type": "function"
    },
    {
      "inputs": [
        {
          "internalType": "address",
          "name": "_pulse",
          "type": "address"
        }
      ],
      "name": "setPulse",
      "outputs": [],
      "stateMutability": "nonpayable",
      "type": "function"
    },
    {
      "inputs": [
        {
          "internalType": "address",
          "name": "_CAKELP",
          "type": "address"
        },
        {
          "internalType": "address",
          "name": "_BTC",
          "type": "address"
        },
        {
          "internalType": "address",
          "name": "_ETH",
          "type": "address"
        },
        {
          "internalType": "address",
          "name": "_ZOINKS",
          "type": "address"
        },
        {
          "internalType": "address",
          "name": "_SNACKS",
          "type": "address"
        },
        {
          "internalType": "address",
          "name": "_BTCSNACKS",
          "type": "address"
        },
        {
          "internalType": "address",
          "name": "_ETHSNACKS",
          "type": "address"
        }
      ],
      "name": "setNonBUSDCurrencies",
      "outputs": [],
      "stateMutability": "nonpayable",
      "type": "function"
    }
  ],
  "bytecode": "0x60806040523480156200001157600080fd5b5060405162002c6a38038062002c6a833981016040819052620000349162000888565b6200003f336200019f565b6001600160a01b038b16158015906200006057506001600160a01b03831615155b80156200007557506001600160a01b03821615155b80156200008a57506001600160a01b03811615155b620000b25760405162461bcd60e51b8152600401620000a9906200096b565b60405180910390fd5b600180546001600160a01b03808e166001600160a01b031992831617909255601280548684169083161790556013805485841690831617905560148054928416929091169190911790556200010d8a8a8a8a8a8a8a620001ef565b60015460145460405163095ea7b360e01b81526001600160a01b039283169263095ea7b392620001479291169060001990600401620009b2565b6020604051808303816000875af115801562000167573d6000803e3d6000fd5b505050506040513d601f19601f820116820180604052508101906200018d9190620009cb565b50505050505050505050505062000a67565b600080546001600160a01b038381166001600160a01b0319831681178455604051919092169283917f8be0079c531659141344cd1fd0a4f28419497f9722a3daafe3b4186f6b6457e09190a35050565b620001f962000636565b6001600160a01b038716158015906200021a57506001600160a01b03861615155b80156200022f57506001600160a01b03851615155b80156200024457506001600160a01b03841615155b80156200025957506001600160a01b03831615155b80156200026e57506001600160a01b03821615155b80156200028357506001600160a01b03811615155b620002a25760405162461bcd60e51b8152600401620000a9906200096b565b60005b620002bc60156200069460201b620017371760201c565b81101562000316576000620002e1826015620006a560201b620017471790919060201c565b9050620002fe816015620006ba60201b6200175a1790919060201c565b505080806200030d9062000a05565b915050620002a5565b50600280546001600160a01b03199081166001600160a01b038a811691909117909255600380548216898416179055600480548216888416179055600580548216878416179055600680548216868416179055600780548216858416179055600880549091169183169190911790556200039e601587620006d1602090811b6200176f17901c565b50620003ba856015620006d160201b6200176f1790919060201c565b50620003d6846015620006d160201b6200176f1790919060201c565b50620003f2836015620006d160201b6200176f1790919060201c565b506200040e826015620006d160201b6200176f1790919060201c565b506200042a816015620006d160201b6200176f1790919060201c565b5060055460145460405163095ea7b360e01b81526001600160a01b039283169263095ea7b392620004659291169060001990600401620009b2565b6020604051808303816000875af115801562000485573d6000803e3d6000fd5b505050506040513d601f19601f82011682018060405250810190620004ab9190620009cb565b5060055460065460405163095ea7b360e01b81526001600160a01b039283169263095ea7b392620004e69291169060001990600401620009b2565b6020604051808303816000875af115801562000506573d6000803e3d6000fd5b505050506040513d601f19601f820116820180604052508101906200052c9190620009cb565b5060035460075460405163095ea7b360e01b81526001600160a01b039283169263095ea7b392620005679291169060001990600401620009b2565b6020604051808303816000875af115801562000587573d6000803e3d6000fd5b505050506040513d601f19601f82011682018060405250810190620005ad9190620009cb565b506004805460085460405163095ea7b360e01b81526001600160a01b039283169363095ea7b393620005e69316916000199101620009b2565b6020604051808303816000875af115801562000606573d6000803e3d6000fd5b505050506040513d601f19601f820116820180604052508101906200062c9190620009cb565b5050505050505050565b6000546001600160a01b03163314620006925760405162461bcd60e51b815260206004820181905260248201527f4f776e61626c653a2063616c6c6572206973206e6f7420746865206f776e65726044820152606401620000a9565b565b60006200069f825490565b92915050565b6000620006b38383620006e8565b9392505050565b6000620006b3836001600160a01b03841662000715565b6000620006b3836001600160a01b03841662000819565b600082600001828154811062000702576200070262000a21565b9060005260206000200154905092915050565b600081815260018301602052604081205480156200080e5760006200073c60018362000a37565b8554909150600090620007529060019062000a37565b9050818114620007be57600086600001828154811062000776576200077662000a21565b90600052602060002001549050808760000184815481106200079c576200079c62000a21565b6000918252602080832090910192909255918252600188019052604090208390555b8554869080620007d257620007d262000a51565b6001900381819060005260206000200160009055905585600101600086815260200190815260200160002060009055600193505050506200069f565b60009150506200069f565b600081815260018301602052604081205462000862575081546001818101845560008481526020808220909301849055845484825282860190935260409020919091556200069f565b5060006200069f565b80516001600160a01b03811681146200088357600080fd5b919050565b60008060008060008060008060008060006101608c8e031215620008ab57600080fd5b620008b68c6200086b565b9a50620008c660208d016200086b565b9950620008d660408d016200086b565b9850620008e660608d016200086b565b9750620008f660808d016200086b565b96506200090660a08d016200086b565b95506200091660c08d016200086b565b94506200092660e08d016200086b565b9350620009376101008d016200086b565b9250620009486101208d016200086b565b9150620009596101408d016200086b565b90509295989b509295989b9093969950565b60208082526027908201527f53656e696f726167653a206f6e65206f662074686520616464726573736573206040820152666973207a65726f60c81b606082015260800190565b6001600160a01b03929092168252602082015260400190565b600060208284031215620009de57600080fd5b81518015158114620006b357600080fd5b634e487b7160e01b600052601160045260246000fd5b60006001820162000a1a5762000a1a620009ef565b5060010190565b634e487b7160e01b600052603260045260246000fd5b60008282101562000a4c5762000a4c620009ef565b500390565b634e487b7160e01b600052603160045260246000fd5b6121f38062000a776000396000f3fe608060405234801561001057600080fd5b50600436106100835760003560e01c806337587f4b1461008857806354e86a8214610092578063715018a61461009a57806375619ab5146100a257806386aadea8146100b55780638da5cb5b146100c8578063f2fde38b146100e6578063f5e95acb146100f9578063f7d54de31461010c575b600080fd5b61009061011f565b005b610090610ce9565b610090610fe5565b6100906100b0366004611c76565b610ff9565b6100906100c3366004611c91565b611049565b6100d06113d8565b6040516100dd9190611d17565b60405180910390f35b6100906100f4366004611c76565b6113e7565b610090610107366004611d2b565b61145d565b61009061011a366004611c76565b6116e7565b6012546001600160a01b031633146101525760405162461bcd60e51b815260040161014990611dd3565b60405180910390fd5b6001546040516370a0823160e01b81526000916001600160a01b0316906370a0823190610183903090600401611d17565b602060405180830381865afa1580156101a0573d6000803e3d6000fd5b505050506040513d601f19601f820116820180604052508101906101c49190611e1b565b9050600081116102165760405162461bcd60e51b815260206004820181905260248201527f53656e696f726167653a206e6f7468696e6720746f20646973747269627574656044820152606401610149565b60006127106102276102ee84611e4a565b6102319190611e69565b6040805160028082526060820183529293506000929091602083019080368337505060015482519293506001600160a01b03169183915060009061027757610277611ea1565b6001600160a01b0392831660209182029290920101526003548251911690829060019081106102a8576102a8611ea1565b6001600160a01b039283166020918202929092010152601454600091166338ed1739846127106102da61251c83611e4a565b6102e49190611e69565b85306102f142600f611eb7565b6040518663ffffffff1660e01b8152600401610311959493929190611ecf565b6000604051808303816000875af1158015610330573d6000803e3d6000fd5b505050506040513d6000823e601f3d908101601f191682016040526103589190810190611f40565b6007546040516370a0823160e01b81529192506000916001600160a01b03909116906370a082319061038e903090600401611d17565b602060405180830381865afa1580156103ab573d6000803e3d6000fd5b505050506040513d601f19601f820116820180604052508101906103cf9190611e1b565b60075483519192506001600160a01b03169063c835273090849060019081106103fa576103fa611ea1565b60200260200101516040518263ffffffff1660e01b815260040161042091815260200190565b600060405180830381600087803b15801561043a57600080fd5b505af115801561044e573d6000803e3d6000fd5b50506007546040516370a0823160e01b8152600093508492506001600160a01b03909116906370a0823190610487903090600401611d17565b602060405180830381865afa1580156104a4573d6000803e3d6000fd5b505050506040513d601f19601f820116820180604052508101906104c89190611e1b565b6104d29190611ffd565b601154909150610511906001600160a01b03166127106104f4611a0b85611e4a565b6104fe9190611e69565b6007546001600160a01b03169190611784565b601354610530906001600160a01b03166127106104f4610d0585611e4a565b60045484516001600160a01b03909116908590600190811061055457610554611ea1565b6001600160a01b039283166020918202929092010152601454166338ed17398661271061058361251c83611e4a565b61058d9190611e69565b873061059a42600f611eb7565b6040518663ffffffff1660e01b81526004016105ba959493929190611ecf565b6000604051808303816000875af11580156105d9573d6000803e3d6000fd5b505050506040513d6000823e601f3d908101601f191682016040526106019190810190611f40565b6008546040516370a0823160e01b81529194506001600160a01b0316906370a0823190610632903090600401611d17565b602060405180830381865afa15801561064f573d6000803e3d6000fd5b505050506040513d601f19601f820116820180604052508101906106739190611e1b565b60085484519193506001600160a01b03169063c8352730908590600190811061069e5761069e611ea1565b60200260200101516040518263ffffffff1660e01b81526004016106c491815260200190565b600060405180830381600087803b1580156106de57600080fd5b505af11580156106f2573d6000803e3d6000fd5b50506008546040516370a0823160e01b81528593506001600160a01b0390911691506370a0823190610728903090600401611d17565b602060405180830381865afa158015610745573d6000803e3d6000fd5b505050506040513d601f19601f820116820180604052508101906107699190611e1b565b6107739190611ffd565b6011549091506107b2906001600160a01b0316612710610795611a0b85611e4a565b61079f9190611e69565b6008546001600160a01b03169190611784565b6013546107d1906001600160a01b0316612710610795610d0585611e4a565b60006127106107e26107d089611e4a565b6107ec9190611e69565b60055486519192506001600160a01b0316908690600190811061081157610811611ea1565b6001600160a01b039283166020918202929092010152601454166338ed17398261271061084061251c83611e4a565b61084a9190611e69565b883061085742600f611eb7565b6040518663ffffffff1660e01b8152600401610877959493929190611ecf565b6000604051808303816000875af1158015610896573d6000803e3d6000fd5b505050506040513d6000823e601f3d908101601f191682016040526108be9190810190611f40565b6006546040516370a0823160e01b81529195506001600160a01b0316906370a08231906108ef903090600401611d17565b602060405180830381865afa15801561090c573d6000803e3d6000fd5b505050506040513d601f19601f820116820180604052508101906109309190611e1b565b60065485519194506001600160a01b03169063c8352730908690600190811061095b5761095b611ea1565b60200260200101516040518263ffffffff1660e01b815260040161098191815260200190565b600060405180830381600087803b15801561099b57600080fd5b505af11580156109af573d6000803e3d6000fd5b50506006546040516370a0823160e01b81528693506001600160a01b0390911691506370a08231906109e5903090600401611d17565b602060405180830381865afa158015610a02573d6000803e3d6000fd5b505050506040513d601f19601f82011682018060405250810190610a269190611e1b565b610a309190611ffd565b601154909250610a6f906001600160a01b0316612710610a52611d4c86611e4a565b610a5c9190611e69565b6006546001600160a01b03169190611784565b601354610a8e906001600160a01b0316612710610a526109c486611e4a565b612710610a9d6105dc89611e4a565b610aa79190611e69565b6014549091506001600160a01b03166338ed173982612710610acb61251c83611e4a565b610ad59190611e69565b8830610ae242600f611eb7565b6040518663ffffffff1660e01b8152600401610b02959493929190611ecf565b6000604051808303816000875af1158015610b21573d6000803e3d6000fd5b505050506040513d6000823e601f3d908101601f19168201604052610b499190810190611f40565b6014546001805460055484519498506000946001600160a01b039485169463e8e3370094938116939216918a918110610b8457610b84611ea1565b602002602001015189600181518110610b9f57610b9f611ea1565b602002602001015161271061251c8c600181518110610bc057610bc0611ea1565b6020026020010151610bd29190611e4a565b610bdc9190611e69565b61271061251c8d600181518110610bf557610bf5611ea1565b6020026020010151610c079190611e4a565b610c119190611e69565b30610c1d42600f611eb7565b60405160e08a901b6001600160e01b03191681526001600160a01b039889166004820152968816602488015260448701959095526064860193909352608485019190915260a484015290921660c482015260e4810191909152610104016060604051808303816000875af1158015610c99573d6000803e3d6000fd5b505050506040513d601f19601f82011682018060405250810190610cbd9190612014565b601354600254919450610cdf93506001600160a01b0391821692501683611784565b5050505050505050565b6012546001600160a01b03163314610d135760405162461bcd60e51b815260040161014990611dd3565b60005b610d206015611737565b811015610fe2576000610d34601583611747565b90506000816001600160a01b03166370a08231306040518263ffffffff1660e01b8152600401610d649190611d17565b602060405180830381865afa158015610d81573d6000803e3d6000fd5b505050506040513d601f19601f82011682018060405250810190610da59190611e1b565b90508015610fc657600954610de7906001600160a01b0316612710610dcc6101f485611e4a565b610dd69190611e69565b6001600160a01b0385169190611784565b600a54610e06906001600160a01b0316612710610dcc6101f485611e4a565b600b54610e25906001600160a01b0316612710610dcc6101f485611e4a565b600c54610e44906001600160a01b0316612710610dcc6101f485611e4a565b600d54610e63906001600160a01b0316612710610dcc6103e885611e4a565b600e54610e82906001600160a01b0316612710610dcc6107d085611e4a565b600f54610ea1906001600160a01b0316612710610dcc610dac85611e4a565b601054610ec0906001600160a01b0316612710610dcc6105dc85611e4a565b6040516370a0823160e01b81526001600160a01b038316906370a0823190610eec903090600401611d17565b602060405180830381865afa158015610f09573d6000803e3d6000fd5b505050506040513d601f19601f82011682018060405250810190610f2d9190611e1b565b15610fc1576040516370a0823160e01b81526000906001600160a01b038416906370a0823190610f61903090600401611d17565b602060405180830381865afa158015610f7e573d6000803e3d6000fd5b505050506040513d601f19601f82011682018060405250810190610fa29190611e1b565b600d54909150610fbf906001600160a01b03858116911683611784565b505b610fcd565b5050610fd0565b50505b80610fda81612042565b915050610d16565b50565b610fed6117df565b610ff7600061183e565b565b6110016117df565b6001600160a01b0381166110275760405162461bcd60e51b81526004016101499061205b565b601280546001600160a01b0319166001600160a01b0392909216919091179055565b6110516117df565b6001600160a01b0387161580159061107157506001600160a01b03861615155b801561108557506001600160a01b03851615155b801561109957506001600160a01b03841615155b80156110ad57506001600160a01b03831615155b80156110c157506001600160a01b03821615155b80156110d557506001600160a01b03811615155b6110f15760405162461bcd60e51b8152600401610149906120a6565b60005b6110fe6015611737565b811015611134576000611112601583611747565b905061111f60158261175a565b5050808061112c90612042565b9150506110f4565b50600280546001600160a01b03199081166001600160a01b038a811691909117909255600380548216898416179055600480548216888416179055600580548216878416179055600680548216868416179055600780548216858416179055600880549091169183169190911790556111ae60158761176f565b506111ba60158661176f565b506111c660158561176f565b506111d260158461176f565b506111de60158361176f565b506111ea60158261176f565b5060055460145460405163095ea7b360e01b81526001600160a01b039283169263095ea7b39261122392911690600019906004016120ed565b6020604051808303816000875af1158015611242573d6000803e3d6000fd5b505050506040513d601f19601f820116820180604052508101906112669190612106565b5060055460065460405163095ea7b360e01b81526001600160a01b039283169263095ea7b39261129f92911690600019906004016120ed565b6020604051808303816000875af11580156112be573d6000803e3d6000fd5b505050506040513d601f19601f820116820180604052508101906112e29190612106565b5060035460075460405163095ea7b360e01b81526001600160a01b039283169263095ea7b39261131b92911690600019906004016120ed565b6020604051808303816000875af115801561133a573d6000803e3d6000fd5b505050506040513d601f19601f8201168201806040525081019061135e9190612106565b506004805460085460405163095ea7b360e01b81526001600160a01b039283169363095ea7b39361139593169160001991016120ed565b6020604051808303816000875af11580156113b4573d6000803e3d6000fd5b505050506040513d601f19601f82011682018060405250810190610cdf9190612106565b6000546001600160a01b031690565b6113ef6117df565b6001600160a01b0381166114545760405162461bcd60e51b815260206004820152602660248201527f4f776e61626c653a206e6577206f776e657220697320746865207a65726f206160448201526564647265737360d01b6064820152608401610149565b610fe28161183e565b6114656117df565b600054600160a81b900460ff161580801561148d57506000546001600160a01b90910460ff16105b806114b5575061149c3061188e565b1580156114b55750600054600160a01b900460ff166001145b6115185760405162461bcd60e51b815260206004820152602e60248201527f496e697469616c697a61626c653a20636f6e747261637420697320616c72656160448201526d191e481a5b9a5d1a585b1a5e995960921b6064820152608401610149565b6000805460ff60a01b1916600160a01b1790558015611545576000805460ff60a81b1916600160a81b1790555b6001600160a01b038a161580159061156557506001600160a01b03891615155b801561157957506001600160a01b03881615155b801561158d57506001600160a01b03871615155b80156115a157506001600160a01b03861615155b80156115b557506001600160a01b03851615155b80156115c957506001600160a01b03841615155b80156115dd57506001600160a01b03831615155b80156115f157506001600160a01b03821615155b61160d5760405162461bcd60e51b8152600401610149906120a6565b600980546001600160a01b03199081166001600160a01b038d811691909117909255600a805482168c8416179055600b805482168b8416179055600c805482168a8416179055600d80548216898416179055600e80548216888416179055600f805482168784161790556010805482168684161790556011805490911691841691909117905580156116db576000805460ff60a81b19169055604051600181527f7f26b83ff96e1f2b6a682f133852f6798a09c465da95921460cefb38474024989060200160405180910390a15b50505050505050505050565b6116ef6117df565b6001600160a01b0381166117155760405162461bcd60e51b81526004016101499061205b565b601380546001600160a01b0319166001600160a01b0392909216919091179055565b6000611741825490565b92915050565b6000611753838361189d565b9392505050565b6000611753836001600160a01b0384166118c7565b6000611753836001600160a01b0384166119ba565b6117da8363a9059cbb60e01b84846040516024016117a39291906120ed565b60408051601f198184030181529190526020810180516001600160e01b03166001600160e01b031990931692909217909152611a09565b505050565b336117e86113d8565b6001600160a01b031614610ff75760405162461bcd60e51b815260206004820181905260248201527f4f776e61626c653a2063616c6c6572206973206e6f7420746865206f776e65726044820152606401610149565b600080546001600160a01b038381166001600160a01b0319831681178455604051919092169283917f8be0079c531659141344cd1fd0a4f28419497f9722a3daafe3b4186f6b6457e09190a35050565b6001600160a01b03163b151590565b60008260000182815481106118b4576118b4611ea1565b9060005260206000200154905092915050565b600081815260018301602052604081205480156119b05760006118eb600183611ffd565b85549091506000906118ff90600190611ffd565b905081811461196457600086600001828154811061191f5761191f611ea1565b906000526020600020015490508087600001848154811061194257611942611ea1565b6000918252602080832090910192909255918252600188019052604090208390555b855486908061197557611975612128565b600190038181906000526020600020016000905590558560010160008681526020019081526020016000206000905560019350505050611741565b6000915050611741565b6000818152600183016020526040812054611a0157508154600181810184556000848152602080822090930184905584548482528286019093526040902091909155611741565b506000611741565b6000611a5e826040518060400160405280602081526020017f5361666545524332303a206c6f772d6c6576656c2063616c6c206661696c6564815250856001600160a01b0316611adb9092919063ffffffff16565b8051909150156117da5780806020019051810190611a7c9190612106565b6117da5760405162461bcd60e51b815260206004820152602a60248201527f5361666545524332303a204552433230206f7065726174696f6e20646964206e6044820152691bdd081cdd58d8d9595960b21b6064820152608401610149565b6060611aea8484600085611af2565b949350505050565b606082471015611b535760405162461bcd60e51b815260206004820152602660248201527f416464726573733a20696e73756666696369656e742062616c616e636520666f6044820152651c8818d85b1b60d21b6064820152608401610149565b611b5c8561188e565b611ba85760405162461bcd60e51b815260206004820152601d60248201527f416464726573733a2063616c6c20746f206e6f6e2d636f6e74726163740000006044820152606401610149565b600080866001600160a01b03168587604051611bc4919061216e565b60006040518083038185875af1925050503d8060008114611c01576040519150601f19603f3d011682016040523d82523d6000602084013e611c06565b606091505b5091509150611c16828286611c21565b979650505050505050565b60608315611c30575081611753565b825115611c405782518084602001fd5b8160405162461bcd60e51b8152600401610149919061218a565b80356001600160a01b0381168114611c7157600080fd5b919050565b600060208284031215611c8857600080fd5b61175382611c5a565b600080600080600080600060e0888a031215611cac57600080fd5b611cb588611c5a565b9650611cc360208901611c5a565b9550611cd160408901611c5a565b9450611cdf60608901611c5a565b9350611ced60808901611c5a565b9250611cfb60a08901611c5a565b9150611d0960c08901611c5a565b905092959891949750929550565b6001600160a01b0391909116815260200190565b60008060008060008060008060006101208a8c031215611d4a57600080fd5b611d538a611c5a565b9850611d6160208b01611c5a565b9750611d6f60408b01611c5a565b9650611d7d60608b01611c5a565b9550611d8b60808b01611c5a565b9450611d9960a08b01611c5a565b9350611da760c08b01611c5a565b9250611db560e08b01611c5a565b9150611dc46101008b01611c5a565b90509295985092959850929598565b60208082526028908201527f53656e696f726167653a2063616c6c6572206973206e6f7420746865206469736040820152673a3934b13aba37b960c11b606082015260800190565b600060208284031215611e2d57600080fd5b5051919050565b634e487b7160e01b600052601160045260246000fd5b6000816000190483118215151615611e6457611e64611e34565b500290565b600082611e8657634e487b7160e01b600052601260045260246000fd5b500490565b634e487b7160e01b600052604160045260246000fd5b634e487b7160e01b600052603260045260246000fd5b60008219821115611eca57611eca611e34565b500190565b600060a082018783526020878185015260a0604085015281875180845260c086019150828901935060005b81811015611f1f5784516001600160a01b031683529383019391830191600101611efa565b50506001600160a01b03969096166060850152505050608001529392505050565b60006020808385031215611f5357600080fd5b82516001600160401b0380821115611f6a57600080fd5b818501915085601f830112611f7e57600080fd5b815181811115611f9057611f90611e8b565b8060051b604051601f19603f83011681018181108582111715611fb557611fb5611e8b565b604052918252848201925083810185019188831115611fd357600080fd5b938501935b82851015611ff157845184529385019392850192611fd8565b98975050505050505050565b60008282101561200f5761200f611e34565b500390565b60008060006060848603121561202957600080fd5b8351925060208401519150604084015190509250925092565b60006001820161205457612054611e34565b5060010190565b6020808252602b908201527f53656e696f726167653a20617474656d707420746f2061737369676e2061207a60408201526a65726f206164647265737360a81b606082015260800190565b60208082526027908201527f53656e696f726167653a206f6e65206f662074686520616464726573736573206040820152666973207a65726f60c81b606082015260800190565b6001600160a01b03929092168252602082015260400190565b60006020828403121561211857600080fd5b8151801515811461175357600080fd5b634e487b7160e01b600052603160045260246000fd5b60005b83811015612159578181015183820152602001612141565b83811115612168576000848401525b50505050565b6000825161218081846020870161213e565b9190910192915050565b60208152600082518060208401526121a981604085016020870161213e565b601f01601f1916919091016040019291505056fea2646970667358221220553930de27fa5e5703fa92fc91812267a54760d9b5d444731cf4598da67ffeea64736f6c634300080f0033",
  "immutableReferences": {},
  "source": "//SPDX-License-Identifier: MIT\r\npragma solidity 0.8.15;\r\n\r\nimport \"@openzeppelin/contracts/access/Ownable.sol\";\r\nimport \"@openzeppelin/contracts-upgradeable/proxy/utils/Initializable.sol\";\r\nimport \"@openzeppelin/contracts/token/ERC20/IERC20.sol\";\r\nimport \"@openzeppelin/contracts/token/ERC20/utils/SafeERC20.sol\";\r\nimport \"@openzeppelin/contracts/utils/structs/EnumerableSet.sol\";\r\nimport \"./interfaces/IRouter.sol\";\r\nimport \"./interfaces/ISnacks.sol\";\r\n\r\n/// @title Contract that distributes currencies\r\ncontract Seniorage is Ownable, Initializable {\r\n    using SafeERC20 for IERC20;\r\n    using EnumerableSet for EnumerableSet.AddressSet;\r\n    \r\n    uint256 constant private BASE_PERCENT = 10000;\r\n    uint256 constant private FIVE_PERCENT = 500;\r\n    uint256 constant private SEVEN_AND_A_HALF_PERCENT = 750;\r\n    uint256 constant private TEN_PERCENT = 1000;\r\n    uint256 constant private FIFTEEN_PERCENT = 1500;\r\n    uint256 constant private TWENTY_PERCENT = 2000;\r\n    uint256 constant private TWENTY_FIVE_PERCENT = 2500;\r\n    uint256 constant private THIRTY_FIVE_PERCENT = 3500;\r\n    uint256 constant private SEVENTY_FIVE_PERCENT = 7500;\r\n    uint256 constant private SLIPPAGE_PERCENT = 9500;\r\n    uint256 constant private SENIORAGE_PERCENT = 6667;\r\n    uint256 constant private PULSE_PERCENT = 3333;\r\n    \r\n    address private BUSD;\r\n    address private CAKELP;\r\n    address private BTC;\r\n    address private ETH;\r\n    address private ZOINKS;\r\n    address private SNACKS;\r\n    address private BTCSNACKS;\r\n    address private ETHSNACKS;\r\n    address private bdmWallet;\r\n    address private crmWallet;\r\n    address private devManagerWallet;\r\n    address private marketingManagerWallet;\r\n    address private devWallet;\r\n    address private marketingFundWallet;\r\n    address private reservesWallet;\r\n    address private situationalFundWallet;\r\n    address private seniorageWallet;\r\n    address private distributor;\r\n    address private pulse;\r\n    address private router;\r\n    \r\n    EnumerableSet.AddressSet private nonBUSDcurrencies;\r\n    \r\n    modifier onlyDistributor {\r\n        require(\r\n            msg.sender == distributor,\r\n            \"Seniorage: caller is not the distributor\"\r\n        );\r\n        _;\r\n    }\r\n    \r\n    constructor(\r\n        address _BUSD,\r\n        address _CAKELP,\r\n        address _BTC,\r\n        address _ETH,\r\n        address _ZOINKS,\r\n        address _SNACKS,\r\n        address _BTCSNACKS,\r\n        address _ETHSNACKS,\r\n        address _distributor,\r\n        address _pulse,\r\n        address _router\r\n    )\r\n    {\r\n        require(\r\n            _BUSD != address(0) &&\r\n            _distributor != address(0) &&\r\n            _pulse != address(0) &&\r\n            _router != address(0),\r\n            \"Seniorage: one of the addresses is zero\"\r\n        );\r\n        BUSD = _BUSD;\r\n        distributor = _distributor;\r\n        pulse = _pulse;\r\n        router = _router;\r\n        setNonBUSDCurrencies(\r\n            _CAKELP,\r\n            _BTC,\r\n            _ETH,\r\n            _ZOINKS,\r\n            _SNACKS,\r\n            _BTCSNACKS,\r\n            _ETHSNACKS\r\n        );\r\n        IERC20(BUSD).approve(router, type(uint256).max);\r\n    }\r\n    \r\n    function initialize(\r\n        address _bdmWallet,\r\n        address _crmWallet,\r\n        address _devManagerWallet,\r\n        address _marketingManagerWallet,\r\n        address _devWallet,\r\n        address _marketingFundWallet,\r\n        address _reservesWallet,\r\n        address _situationalFundWallet,\r\n        address _seniorageWallet\r\n    )\r\n        external\r\n        onlyOwner\r\n        initializer\r\n    {\r\n        require(\r\n            _bdmWallet != address(0) &&\r\n            _crmWallet != address(0) &&\r\n            _devManagerWallet != address(0) &&\r\n            _marketingManagerWallet != address(0) &&\r\n            _devWallet != address(0) &&\r\n            _marketingFundWallet != address(0) &&\r\n            _reservesWallet != address(0) &&\r\n            _situationalFundWallet != address(0) &&\r\n            _seniorageWallet != address(0),\r\n            \"Seniorage: one of the addresses is zero\"\r\n        );\r\n        bdmWallet = _bdmWallet;\r\n        crmWallet = _crmWallet;\r\n        devManagerWallet = _devManagerWallet;\r\n        marketingManagerWallet = _marketingManagerWallet;\r\n        devWallet = _devWallet;\r\n        marketingFundWallet = _marketingFundWallet;\r\n        reservesWallet = _reservesWallet;\r\n        situationalFundWallet = _situationalFundWallet;\r\n        seniorageWallet = _seniorageWallet;\r\n    }\r\n    \r\n    /// @notice distributes non BUSD currencies on the contract\r\n    function distributeNonBUSDCurrencies() external onlyDistributor {\r\n        for (uint256 i = 0; i < nonBUSDcurrencies.length(); i++) {\r\n            address currency = nonBUSDcurrencies.at(i);\r\n            uint256 balance = IERC20(currency).balanceOf(address(this));\r\n            if (balance != 0) {\r\n                IERC20(currency).safeTransfer(bdmWallet, balance * FIVE_PERCENT / BASE_PERCENT);\r\n                IERC20(currency).safeTransfer(crmWallet, balance * FIVE_PERCENT / BASE_PERCENT);\r\n                IERC20(currency).safeTransfer(devManagerWallet, balance * FIVE_PERCENT / BASE_PERCENT);\r\n                IERC20(currency).safeTransfer(marketingManagerWallet, balance * FIVE_PERCENT / BASE_PERCENT);\r\n                IERC20(currency).safeTransfer(devWallet, balance * TEN_PERCENT / BASE_PERCENT);\r\n                IERC20(currency).safeTransfer(marketingFundWallet, balance * TWENTY_PERCENT / BASE_PERCENT);\r\n                IERC20(currency).safeTransfer(reservesWallet, balance * THIRTY_FIVE_PERCENT / BASE_PERCENT);\r\n                IERC20(currency).safeTransfer(situationalFundWallet, balance * FIFTEEN_PERCENT / BASE_PERCENT);\r\n                if (IERC20(currency).balanceOf(address(this)) != 0) {\r\n                    uint256 remainingBalance = IERC20(currency).balanceOf(address(this));\r\n                    IERC20(currency).safeTransfer(devWallet, remainingBalance);\r\n                }\r\n            } else {\r\n                continue;\r\n            }\r\n        }\r\n    }\r\n    \r\n    /// @notice distributes BUSD on the contract\r\n    function distributeBUSD() external onlyDistributor {\r\n        uint256 balance = IERC20(BUSD).balanceOf(address(this));\r\n        require(\r\n            balance > 0,\r\n            \"Seniorage: nothing to distribute\"\r\n        );\r\n        // swap of 7.5% BUSD of the contract balance on BTC\r\n        uint256 amountToSwapOnBTCorETH = balance * SEVEN_AND_A_HALF_PERCENT / BASE_PERCENT;\r\n        address[] memory path = new address[](2);\r\n        path[0] = BUSD;\r\n        path[1] = BTC;\r\n        uint256[] memory amounts = IRouter(router).swapExactTokensForTokens(\r\n            amountToSwapOnBTCorETH,\r\n            amountToSwapOnBTCorETH * SLIPPAGE_PERCENT / BASE_PERCENT,\r\n            path,\r\n            address(this),\r\n            block.timestamp + 15\r\n        );\r\n        // buying BTCSNACKS for received BTC\r\n        uint256 balanceBefore = IERC20(BTCSNACKS).balanceOf(address(this));\r\n        ISnacks(BTCSNACKS).buyTotal(amounts[1]);\r\n        uint256 difference = IERC20(BTCSNACKS).balanceOf(address(this)) - balanceBefore;\r\n        // transfer BTCSNACKS to seniorage wallet and pulse\r\n        IERC20(BTCSNACKS).safeTransfer(seniorageWallet, difference * SENIORAGE_PERCENT / BASE_PERCENT);\r\n        IERC20(BTCSNACKS).safeTransfer(pulse, difference * PULSE_PERCENT / BASE_PERCENT);\r\n        // swap of 7.5% BUSD of the contract balance on ETH\r\n        path[1] = ETH;\r\n        amounts = IRouter(router).swapExactTokensForTokens(\r\n            amountToSwapOnBTCorETH,\r\n            amountToSwapOnBTCorETH * SLIPPAGE_PERCENT / BASE_PERCENT,\r\n            path,\r\n            address(this),\r\n            block.timestamp + 15\r\n        );\r\n        // buying ETHSNACKS for received ETH\r\n        balanceBefore = IERC20(ETHSNACKS).balanceOf(address(this));\r\n        ISnacks(ETHSNACKS).buyTotal(amounts[1]);\r\n        difference = IERC20(ETHSNACKS).balanceOf(address(this)) - balanceBefore;\r\n        // transfer ETHSNACKS to seniorage wallet and pulse\r\n        IERC20(ETHSNACKS).safeTransfer(seniorageWallet, difference * SENIORAGE_PERCENT / BASE_PERCENT);\r\n        IERC20(ETHSNACKS).safeTransfer(pulse, difference * PULSE_PERCENT / BASE_PERCENT);\r\n        // swap of 20% BUSD of the contract balance on ZOINKS\r\n        uint256 amountToSwapOnZoinks = balance * TWENTY_PERCENT / BASE_PERCENT;\r\n        path[1] = ZOINKS;\r\n        amounts = IRouter(router).swapExactTokensForTokens(\r\n            amountToSwapOnZoinks,\r\n            amountToSwapOnZoinks * SLIPPAGE_PERCENT / BASE_PERCENT,\r\n            path,\r\n            address(this),\r\n            block.timestamp + 15\r\n        );\r\n        // buying SNACKS for received ZOINKS\r\n        balanceBefore = IERC20(SNACKS).balanceOf(address(this));\r\n        ISnacks(SNACKS).buyTotal(amounts[1]);\r\n        difference = IERC20(SNACKS).balanceOf(address(this)) - balanceBefore;\r\n        // transfer SNACKS to seniorage wallet and pulse\r\n        IERC20(SNACKS).safeTransfer(seniorageWallet, difference * SEVENTY_FIVE_PERCENT / BASE_PERCENT);\r\n        IERC20(SNACKS).safeTransfer(pulse, difference * TWENTY_FIVE_PERCENT / BASE_PERCENT);\r\n        // swap of 15% BUSD of the contract balance on ZOINKS\r\n        amountToSwapOnZoinks = balance * FIFTEEN_PERCENT / BASE_PERCENT;\r\n        amounts = IRouter(router).swapExactTokensForTokens(\r\n            amountToSwapOnZoinks,\r\n            amountToSwapOnZoinks * SLIPPAGE_PERCENT / BASE_PERCENT,\r\n            path,\r\n            address(this),\r\n            block.timestamp + 15\r\n        );\r\n        // liquidity addition on 30% BUSD of the contract balance\r\n        (, , uint256 liquidity) = IRouter(router).addLiquidity(\r\n            BUSD,\r\n            ZOINKS,\r\n            amounts[1],\r\n            amounts[1],\r\n            amounts[1] * SLIPPAGE_PERCENT / BASE_PERCENT,\r\n            amounts[1] * SLIPPAGE_PERCENT / BASE_PERCENT,\r\n            address(this),\r\n            block.timestamp + 15\r\n        );\r\n        // transfer CAKELP to pulse\r\n        IERC20(CAKELP).safeTransfer(pulse, liquidity);\r\n    }\r\n    \r\n    /// @notice sets distributor\r\n    function setDistributor(address _distributor) external onlyOwner {\r\n        require(\r\n            _distributor != address(0),\r\n            \"Seniorage: attempt to assign a zero address\"\r\n        );\r\n        distributor = _distributor;\r\n    }\r\n    \r\n    /// @notice sets pulse\r\n    function setPulse(address _pulse) external onlyOwner {\r\n        require(\r\n            _pulse != address(0),\r\n            \"Seniorage: attempt to assign a zero address\"\r\n        );\r\n        pulse = _pulse;\r\n    }\r\n    \r\n    /// @notice sets non BUSD currencies\r\n    function setNonBUSDCurrencies(\r\n        address _CAKELP,\r\n        address _BTC,\r\n        address _ETH,\r\n        address _ZOINKS,\r\n        address _SNACKS,\r\n        address _BTCSNACKS,\r\n        address _ETHSNACKS\r\n    )\r\n        public\r\n        onlyOwner\r\n    {\r\n        require(\r\n            _CAKELP != address(0) &&\r\n            _BTC != address(0) &&\r\n            _ETH != address(0) &&\r\n            _ZOINKS != address(0) &&\r\n            _SNACKS != address(0) &&\r\n            _BTCSNACKS != address(0) &&\r\n            _ETHSNACKS != address(0),\r\n            \"Seniorage: one of the addresses is zero\"\r\n        );\r\n        for (uint256 i = 0; i < nonBUSDcurrencies.length(); i++) {\r\n            address currency = nonBUSDcurrencies.at(i);\r\n            nonBUSDcurrencies.remove(currency);\r\n        }\r\n        CAKELP = _CAKELP;\r\n        BTC = _BTC;\r\n        ETH = _ETH;\r\n        ZOINKS = _ZOINKS;\r\n        SNACKS = _SNACKS;\r\n        BTCSNACKS = _BTCSNACKS;\r\n        ETHSNACKS = _ETHSNACKS;\r\n        nonBUSDcurrencies.add(_BTC);\r\n        nonBUSDcurrencies.add(_ETH);\r\n        nonBUSDcurrencies.add(_ZOINKS);\r\n        nonBUSDcurrencies.add(_SNACKS);\r\n        nonBUSDcurrencies.add(_BTCSNACKS);\r\n        nonBUSDcurrencies.add(_ETHSNACKS);\r\n        IERC20(ZOINKS).approve(router, type(uint256).max);\r\n        IERC20(ZOINKS).approve(SNACKS, type(uint256).max);\r\n        IERC20(BTC).approve(BTCSNACKS, type(uint256).max);\r\n        IERC20(ETH).approve(ETHSNACKS, type(uint256).max);\r\n    }\r\n}\r\n",
  "sourcePath": "C:\\GitHub\\zoinks\\contracts\\Development\\src\\contracts\\Seniorage.sol",
  "compiler": {
    "name": "solc",
    "version": "0.8.15+commit.e14f2714.Emscripten.clang"
  },
  "schemaVersion": "3.4.8",
  "updatedAt": "2022-08-08T18:33:02.857Z",
  "devdoc": {
    "kind": "dev",
    "methods": {
      "owner()": {
        "details": "Returns the address of the current owner."
      },
      "renounceOwnership()": {
        "details": "Leaves the contract without owner. It will not be possible to call `onlyOwner` functions anymore. Can only be called by the current owner. NOTE: Renouncing ownership will leave the contract without an owner, thereby removing any functionality that is only available to the owner."
      },
      "transferOwnership(address)": {
        "details": "Transfers ownership of the contract to a new account (`newOwner`). Can only be called by the current owner."
      }
    },
    "title": "Contract that distributes currencies",
    "version": 1
  },
  "userdoc": {
    "kind": "user",
    "methods": {
      "distributeBUSD()": {
        "notice": "distributes BUSD on the contract"
      },
      "distributeNonBUSDCurrencies()": {
        "notice": "distributes non BUSD currencies on the contract"
      },
      "setDistributor(address)": {
        "notice": "sets distributor"
      },
      "setNonBUSDCurrencies(address,address,address,address,address,address,address)": {
        "notice": "sets non BUSD currencies"
      },
      "setPulse(address)": {
        "notice": "sets pulse"
      }
    },
    "version": 1
  }
}