{
  "contractName": "SnacksStakingPool",
  "abi": [
    {
      "inputs": [
        {
          "internalType": "address",
          "name": "_seniorage",
          "type": "address"
        }
      ],
      "stateMutability": "nonpayable",
      "type": "constructor"
    },
    {
      "anonymous": false,
      "inputs": [
        {
          "indexed": false,
          "internalType": "address",
          "name": "tokenRecovered",
          "type": "address"
        },
        {
          "indexed": false,
          "internalType": "uint256",
          "name": "amount",
          "type": "uint256"
        }
      ],
      "name": "AdminTokenRecovery",
      "type": "event"
    },
    {
      "anonymous": false,
      "inputs": [
        {
          "indexed": true,
          "internalType": "address",
          "name": "user",
          "type": "address"
        },
        {
          "indexed": false,
          "internalType": "uint256",
          "name": "amount",
          "type": "uint256"
        }
      ],
      "name": "Deposit",
      "type": "event"
    },
    {
      "anonymous": false,
      "inputs": [
        {
          "indexed": true,
          "internalType": "address",
          "name": "user",
          "type": "address"
        },
        {
          "indexed": false,
          "internalType": "uint256",
          "name": "amount",
          "type": "uint256"
        }
      ],
      "name": "EmergencyWithdraw",
      "type": "event"
    },
    {
      "anonymous": false,
      "inputs": [
        {
          "indexed": false,
          "internalType": "uint256",
          "name": "rewardPerBlock",
          "type": "uint256"
        }
      ],
      "name": "NewRewardPerBlock",
      "type": "event"
    },
    {
      "anonymous": false,
      "inputs": [
        {
          "indexed": false,
          "internalType": "uint256",
          "name": "startBlock",
          "type": "uint256"
        },
        {
          "indexed": false,
          "internalType": "uint256",
          "name": "endBlock",
          "type": "uint256"
        }
      ],
      "name": "NewStartAndEndBlocks",
      "type": "event"
    },
    {
      "anonymous": false,
      "inputs": [
        {
          "indexed": true,
          "internalType": "address",
          "name": "previousOwner",
          "type": "address"
        },
        {
          "indexed": true,
          "internalType": "address",
          "name": "newOwner",
          "type": "address"
        }
      ],
      "name": "OwnershipTransferred",
      "type": "event"
    },
    {
      "anonymous": false,
      "inputs": [
        {
          "indexed": true,
          "internalType": "address",
          "name": "user",
          "type": "address"
        },
        {
          "indexed": false,
          "internalType": "uint256",
          "name": "snacksReward",
          "type": "uint256"
        },
        {
          "indexed": false,
          "internalType": "uint256",
          "name": "ethSnacksReward",
          "type": "uint256"
        },
        {
          "indexed": false,
          "internalType": "uint256",
          "name": "btcSnacksReward",
          "type": "uint256"
        }
      ],
      "name": "RewardTransfer",
      "type": "event"
    },
    {
      "anonymous": false,
      "inputs": [
        {
          "indexed": false,
          "internalType": "uint256",
          "name": "blockNumber",
          "type": "uint256"
        }
      ],
      "name": "RewardsStop",
      "type": "event"
    },
    {
      "inputs": [],
      "name": "accTokenPerShare",
      "outputs": [
        {
          "internalType": "uint256",
          "name": "",
          "type": "uint256"
        }
      ],
      "stateMutability": "view",
      "type": "function"
    },
    {
      "inputs": [],
      "name": "bonusEndBlock",
      "outputs": [
        {
          "internalType": "uint256",
          "name": "",
          "type": "uint256"
        }
      ],
      "stateMutability": "view",
      "type": "function"
    },
    {
      "inputs": [],
      "name": "hasUserLimit",
      "outputs": [
        {
          "internalType": "bool",
          "name": "",
          "type": "bool"
        }
      ],
      "stateMutability": "view",
      "type": "function"
    },
    {
      "inputs": [],
      "name": "isInitialized",
      "outputs": [
        {
          "internalType": "bool",
          "name": "",
          "type": "bool"
        }
      ],
      "stateMutability": "view",
      "type": "function"
    },
    {
      "inputs": [],
      "name": "lastRewardBlock",
      "outputs": [
        {
          "internalType": "uint256",
          "name": "",
          "type": "uint256"
        }
      ],
      "stateMutability": "view",
      "type": "function"
    },
    {
      "inputs": [],
      "name": "owner",
      "outputs": [
        {
          "internalType": "address",
          "name": "",
          "type": "address"
        }
      ],
      "stateMutability": "view",
      "type": "function"
    },
    {
      "inputs": [],
      "name": "renounceOwnership",
      "outputs": [],
      "stateMutability": "nonpayable",
      "type": "function"
    },
    {
      "inputs": [],
      "name": "rewardBtcSnacksToken",
      "outputs": [
        {
          "internalType": "contract IBEP20",
          "name": "",
          "type": "address"
        }
      ],
      "stateMutability": "view",
      "type": "function"
    },
    {
      "inputs": [],
      "name": "rewardEthSnacksToken",
      "outputs": [
        {
          "internalType": "contract IBEP20",
          "name": "",
          "type": "address"
        }
      ],
      "stateMutability": "view",
      "type": "function"
    },
    {
      "inputs": [],
      "name": "rewardPerBlock",
      "outputs": [
        {
          "internalType": "uint256",
          "name": "",
          "type": "uint256"
        }
      ],
      "stateMutability": "view",
      "type": "function"
    },
    {
      "inputs": [],
      "name": "rewardToken",
      "outputs": [
        {
          "internalType": "contract IBEP20",
          "name": "",
          "type": "address"
        }
      ],
      "stateMutability": "view",
      "type": "function"
    },
    {
      "inputs": [],
      "name": "seniorageAddress",
      "outputs": [
        {
          "internalType": "address",
          "name": "",
          "type": "address"
        }
      ],
      "stateMutability": "view",
      "type": "function"
    },
    {
      "inputs": [],
      "name": "stakedToken",
      "outputs": [
        {
          "internalType": "contract IBEP20",
          "name": "",
          "type": "address"
        }
      ],
      "stateMutability": "view",
      "type": "function"
    },
    {
      "inputs": [],
      "name": "startBlock",
      "outputs": [
        {
          "internalType": "uint256",
          "name": "",
          "type": "uint256"
        }
      ],
      "stateMutability": "view",
      "type": "function"
    },
    {
      "inputs": [
        {
          "internalType": "address",
          "name": "newOwner",
          "type": "address"
        }
      ],
      "name": "transferOwnership",
      "outputs": [],
      "stateMutability": "nonpayable",
      "type": "function"
    },
    {
      "inputs": [
        {
          "internalType": "uint256",
          "name": "",
          "type": "uint256"
        }
      ],
      "name": "userAddressList",
      "outputs": [
        {
          "internalType": "address",
          "name": "",
          "type": "address"
        }
      ],
      "stateMutability": "view",
      "type": "function"
    },
    {
      "inputs": [
        {
          "internalType": "address",
          "name": "",
          "type": "address"
        }
      ],
      "name": "userInfo",
      "outputs": [
        {
          "internalType": "uint256",
          "name": "amount",
          "type": "uint256"
        },
        {
          "internalType": "uint256",
          "name": "rewardDebt",
          "type": "uint256"
        },
        {
          "internalType": "uint256",
          "name": "rewardDebtEthSnacks",
          "type": "uint256"
        },
        {
          "internalType": "uint256",
          "name": "rewardDebtBtcSnacks",
          "type": "uint256"
        },
        {
          "internalType": "uint256",
          "name": "lastDepositDate",
          "type": "uint256"
        }
      ],
      "stateMutability": "view",
      "type": "function"
    },
    {
      "inputs": [
        {
          "internalType": "contract IBEP20",
          "name": "_stakedToken",
          "type": "address"
        },
        {
          "internalType": "contract IBEP20",
          "name": "_rewardToken",
          "type": "address"
        },
        {
          "internalType": "contract IBEP20",
          "name": "_rewardEthSnacksToken",
          "type": "address"
        },
        {
          "internalType": "contract IBEP20",
          "name": "_rewardBtcSnacksToken",
          "type": "address"
        },
        {
          "internalType": "address",
          "name": "_admin",
          "type": "address"
        }
      ],
      "name": "initialize",
      "outputs": [],
      "stateMutability": "nonpayable",
      "type": "function"
    },
    {
      "inputs": [
        {
          "internalType": "uint256",
          "name": "_amount",
          "type": "uint256"
        }
      ],
      "name": "deposit",
      "outputs": [],
      "stateMutability": "nonpayable",
      "type": "function"
    },
    {
      "inputs": [],
      "name": "withdraw",
      "outputs": [],
      "stateMutability": "nonpayable",
      "type": "function"
    },
    {
      "inputs": [],
      "name": "emergencyWithdraw",
      "outputs": [],
      "stateMutability": "nonpayable",
      "type": "function"
    },
    {
      "inputs": [],
      "name": "emergencyRewardWithdraw",
      "outputs": [],
      "stateMutability": "nonpayable",
      "type": "function"
    },
    {
      "inputs": [
        {
          "internalType": "address",
          "name": "_tokenAddress",
          "type": "address"
        },
        {
          "internalType": "uint256",
          "name": "_tokenAmount",
          "type": "uint256"
        }
      ],
      "name": "recoverWrongTokens",
      "outputs": [],
      "stateMutability": "nonpayable",
      "type": "function"
    },
    {
      "inputs": [],
      "name": "stopReward",
      "outputs": [],
      "stateMutability": "nonpayable",
      "type": "function"
    },
    {
      "inputs": [
        {
          "internalType": "uint256",
          "name": "_rewardPerBlock",
          "type": "uint256"
        }
      ],
      "name": "updateRewardPerBlock",
      "outputs": [],
      "stateMutability": "nonpayable",
      "type": "function"
    },
    {
      "inputs": [
        {
          "internalType": "uint256",
          "name": "_startBlock",
          "type": "uint256"
        },
        {
          "internalType": "uint256",
          "name": "_bonusEndBlock",
          "type": "uint256"
        }
      ],
      "name": "updateStartAndEndBlocks",
      "outputs": [],
      "stateMutability": "nonpayable",
      "type": "function"
    },
    {
      "inputs": [
        {
          "internalType": "address",
          "name": "_user",
          "type": "address"
        }
      ],
      "name": "pendingReward",
      "outputs": [
        {
          "internalType": "uint256",
          "name": "",
          "type": "uint256"
        }
      ],
      "stateMutability": "view",
      "type": "function"
    },
    {
      "inputs": [],
      "name": "updatePool",
      "outputs": [],
      "stateMutability": "nonpayable",
      "type": "function"
    },
    {
      "inputs": [
        {
          "internalType": "address",
          "name": "seniorage",
          "type": "address"
        }
      ],
      "name": "setSeniorage",
      "outputs": [],
      "stateMutability": "nonpayable",
      "type": "function"
    }
  ],
  "bytecode": "0x60806040526305f5e0ff600455600019600d5534801561001e57600080fd5b5060405162001ccf38038062001ccf83398101604081905261003f916100c1565b61004833610071565b60018055600c80546001600160a01b0319166001600160a01b03929092169190911790556100f1565b600080546001600160a01b038381166001600160a01b0319831681178455604051919092169283917f8be0079c531659141344cd1fd0a4f28419497f9722a3daafe3b4186f6b6457e09190a35050565b6000602082840312156100d357600080fd5b81516001600160a01b03811681146100ea57600080fd5b9392505050565b611bce80620001016000396000f3fe608060405234801561001057600080fd5b506004361061015f5760003560e01c806301f8a976146101645780631459457a146101795780631959a0021461018c5780631aed6553146101f657806336b174e81461020d578063392e53cd1461022d5780633ccfd60b1461024f5780633f138d4b1461025757806348cd4cb11461026a578063715018a61461027357806380dc06721461027b5780638ae39cac146102835780638da5cb5b1461028c5780638ea8caba146102945780638f662915146102a757806392e8990e146102b05780639513997f146102bd5780639803b1cf146102d0578063a64699a3146102e3578063a9f8d181146102f6578063b6b55f25146102ff578063c635439114610312578063cc7a262e14610325578063d437c6be14610338578063db2e21bc14610340578063e3161ddd14610348578063f2fde38b14610350578063f40f0f5214610363578063f7c618c11461038f575b600080fd5b610177610172366004611830565b6103a2565b005b61017761018736600461185e565b610436565b6101c961019a3660046118cf565b601260205260009081526040902080546001820154600283015460038401546004909401549293919290919085565b604080519586526020860194909452928401919091526060830152608082015260a0015b60405180910390f35b6101ff60045481565b6040519081526020016101ed565b600a54610220906001600160a01b031681565b6040516101ed91906118ec565b60025461023f90610100900460ff1681565b60405190151581526020016101ed565b610177610648565b610177610265366004611900565b61067d565b6101ff60055481565b6101776107de565b610177610819565b6101ff60075481565b61022061084e565b600c54610220906001600160a01b031681565b6101ff60035481565b60025461023f9060ff1681565b6101776102cb36600461192c565b61085d565b600954610220906001600160a01b031681565b6102206102f1366004611830565b6109c0565b6101ff60065481565b61017761030d366004611830565b6109ea565b6101776103203660046118cf565b610ae2565b600b54610220906001600160a01b031681565b610177610b33565b610177610b6a565b610177610ca6565b61017761035e3660046118cf565b611002565b6101ff6103713660046118cf565b6001600160a01b031660009081526012602052604090206001015490565b600854610220906001600160a01b031681565b336103ab61084e565b6001600160a01b0316146103da5760405162461bcd60e51b81526004016103d19061194e565b60405180910390fd5b60055443106103fb5760405162461bcd60e51b81526004016103d190611983565b60078190556040518181527f0c4d677eef92893ac7ec52faf8140fc6c851ab4736302b4f3a89dfb20696a0df9060200160405180910390a150565b600254610100900460ff16156104845760405162461bcd60e51b8152602060048201526013602482015272105b1c9958591e481a5b9a5d1a585b1a5e9959606a1b60448201526064016103d1565b6002805461ff001916610100179055600b80546001600160a01b038088166001600160a01b03199283161790925560088054878416908316811790915560098054878516908416179055600a805493861693909216929092179055600d5460405163095ea7b360e01b815263095ea7b391610504913091906004016119ad565b6020604051808303816000875af1158015610523573d6000803e3d6000fd5b505050506040513d601f19601f8201168201806040525081019061054791906119c6565b50600954600d5460405163095ea7b360e01b81526001600160a01b039092169163095ea7b39161057c913091906004016119ad565b6020604051808303816000875af115801561059b573d6000803e3d6000fd5b505050506040513d601f19601f820116820180604052508101906105bf91906119c6565b50600a54600d5460405163095ea7b360e01b81526001600160a01b039092169163095ea7b3916105f4913091906004016119ad565b6020604051808303816000875af1158015610613573d6000803e3d6000fd5b505050506040513d601f19601f8201168201806040525081019061063791906119c6565b5061064181611002565b5050505050565b60026001540361066a5760405162461bcd60e51b81526004016103d1906119e8565b60026001556106776110a2565b60018055565b3361068661084e565b6001600160a01b0316146106ac5760405162461bcd60e51b81526004016103d19061194e565b600b546001600160a01b03908116908316036107035760405162461bcd60e51b815260206004820152601660248201527521b0b73737ba1031329039ba30b5b2b2103a37b5b2b760511b60448201526064016103d1565b6008546001600160a01b03908116908316036107315760405162461bcd60e51b81526004016103d190611a1f565b6009546001600160a01b039081169083160361075f5760405162461bcd60e51b81526004016103d190611a1f565b600a546001600160a01b039081169083160361078d5760405162461bcd60e51b81526004016103d190611a1f565b6107a16001600160a01b03831633836112b9565b7f74545154aac348a3eac92596bd1971957ca94795f4e954ec5f613b55fab7812982826040516107d29291906119ad565b60405180910390a15050565b336107e761084e565b6001600160a01b03161461080d5760405162461bcd60e51b81526004016103d19061194e565b610817600061130f565b565b3361082261084e565b6001600160a01b0316146108485760405162461bcd60e51b81526004016103d19061194e565b43600455565b6000546001600160a01b031690565b3361086661084e565b6001600160a01b03161461088c5760405162461bcd60e51b81526004016103d19061194e565b60055443106108ad5760405162461bcd60e51b81526004016103d190611983565b8082106109135760405162461bcd60e51b815260206004820152602e60248201527f4e6577207374617274426c6f636b206d757374206265206c6f7765722074686160448201526d6e206e657720656e64426c6f636b60901b60648201526084016103d1565b81431061097b5760405162461bcd60e51b815260206004820152603060248201527f4e6577207374617274426c6f636b206d7573742062652068696768657220746860448201526f616e2063757272656e7420626c6f636b60801b60648201526084016103d1565b60058290556004819055600682905560408051838152602081018390527f7cd0ab87d19036f3dfadadb232c78aa4879dda3f0c994a9d637532410ee2ce0691016107d2565b601381815481106109d057600080fd5b6000918252602090912001546001600160a01b0316905081565b600260015403610a0c5760405162461bcd60e51b81526004016103d1906119e8565b600260015580610a4f5760405162461bcd60e51b815260206004820152600e60248201526d1a5b9d985b1a5908185b5bdd5b9d60921b60448201526064016103d1565b3360009081526012602052604090208054610a6b908390611a65565b8155600e54610a7b908390611a65565b600e55600b54610a96906001600160a01b031633308561135f565b426004820155610aa461139d565b60405182815233907fe1fffcc4923d04b559f4d29a8bfc6cda04eb5b0d3c460751c2402c5c5cc9109c906020015b60405180910390a2505060018055565b33610aeb61084e565b6001600160a01b031614610b115760405162461bcd60e51b81526004016103d19061194e565b600c80546001600160a01b0319166001600160a01b0392909216919091179055565b33610b3c61084e565b6001600160a01b031614610b625760405162461bcd60e51b81526004016103d19061194e565b6108176110a2565b600260015403610b8c5760405162461bcd60e51b81526004016103d1906119e8565b60026001553360009081526012602052604090208054610be45760405162461bcd60e51b81526020600482015260136024820152724e6f7468696e6720746f20776974686472617760681b60448201526064016103d1565b8054600e54610bf39082611448565b600e5560008255610c026110a2565b6004820154610c149062015180611a65565b421015610c5d57600c54610c49906001600160a01b0316610c368360026114ad565b600b546001600160a01b031691906112b9565b610c5833610c368360026114ad565b610c74565b600b54610c74906001600160a01b031633836112b9565b60405181815233907f5fafa99d0643513820be26656b45130b01e1c03062e1266bf36f88cbd3bd969590602001610ad2565b600e54600003610cb257565b600f546008546040516370a0823160e01b8152600092610d359290916001600160a01b03909116906370a0823190610cee9030906004016118ec565b602060405180830381865afa158015610d0b573d6000803e3d6000fd5b505050506040513d601f19601f82011682018060405250810190610d2f9190611a7d565b90611448565b9050610d4c600e548261144890919063ffffffff16565b90508015610e2b5760005b601354811015610e1957610db3600e54610dad6012600060138681548110610d8157610d81611a96565b60009182526020808320909101546001600160a01b031683528201929092526040019020548590611505565b906114ad565b6012600060138481548110610dca57610dca611a96565b60009182526020808320909101546001600160a01b0316835282019290925260400181206001018054909190610e01908490611a65565b90915550819050610e1181611aac565b915050610d57565b50600f54610e279082611587565b600f555b6010546009546040516370a0823160e01b8152600092610e679290916001600160a01b03909116906370a0823190610cee9030906004016118ec565b90508015610f145760005b601354811015610f0257610e9c600e54610dad6012600060138681548110610d8157610d81611a96565b6012600060138481548110610eb357610eb3611a96565b60009182526020808320909101546001600160a01b0316835282019290925260400181206002018054909190610eea908490611a65565b90915550819050610efa81611aac565b915050610e72565b50601054610f109082611587565b6010555b601154600a546040516370a0823160e01b8152600092610f509290916001600160a01b03909116906370a0823190610cee9030906004016118ec565b90508015610ffd5760005b601354811015610feb57610f85600e54610dad6012600060138681548110610d8157610d81611a96565b6012600060138481548110610f9c57610f9c611a96565b60009182526020808320909101546001600160a01b0316835282019290925260400181206003018054909190610fd3908490611a65565b90915550819050610fe381611aac565b915050610f5b565b50601154610ff99082611587565b6011555b505050565b3361100b61084e565b6001600160a01b0316146110315760405162461bcd60e51b81526004016103d19061194e565b6001600160a01b0381166110965760405162461bcd60e51b815260206004820152602660248201527f4f776e61626c653a206e6577206f776e657220697320746865207a65726f206160448201526564647265737360d01b60648201526084016103d1565b61109f8161130f565b50565b336000908152601260205260409020600181015480156111465760048201546110ce9062015180611a65565b42101561111757600c54611103906001600160a01b03166110f08360026114ad565b6008546001600160a01b031691906112b9565b611112336110f08360026114ad565b61112e565b60085461112e906001600160a01b031633836112b9565b60006001830155600f546111429082611448565b600f555b600282015480156111db5760048301546111639062015180611a65565b4210156111ac57600c54611198906001600160a01b03166111858360026114ad565b6009546001600160a01b031691906112b9565b6111a7336111858360026114ad565b6111c3565b6009546111c3906001600160a01b031633836112b9565b600060028401556010546111d79082611448565b6010555b600383015480156112705760048401546111f89062015180611a65565b42101561124157600c5461122d906001600160a01b031661121a8360026114ad565b600a546001600160a01b031691906112b9565b61123c3361121a8360026114ad565b611258565b600a54611258906001600160a01b031633836112b9565b6000600385015560115461126c9082611448565b6011555b604080518481526020810184905290810182905233907f5b474f610b6d1cc89c52986825a8321c814ff17ee82b9afc02ffedcb285d732b9060600160405180910390a250505050565b610ffd8363a9059cbb60e01b84846040516024016112d89291906119ad565b60408051601f198184030181529190526020810180516001600160e01b03166001600160e01b0319909316929092179091526115e4565b600080546001600160a01b038381166001600160a01b0319831681178455604051919092169283917f8be0079c531659141344cd1fd0a4f28419497f9722a3daafe3b4186f6b6457e09190a35050565b6040516001600160a01b03808516602483015283166044820152606481018290526113979085906323b872dd60e01b906084016112d8565b50505050565b6000805b6013548110156113fd57336001600160a01b0316601382815481106113c8576113c8611a96565b6000918252602090912001546001600160a01b0316036113eb57600191506113fd565b806113f581611aac565b9150506113a1565b508061109f57601380546001810182556000919091527f66de8ffda797e3de9c05e8fc57b3bf0ec28a930d40b0d285d93c06501cf6a0900180546001600160a01b0319163317905550565b60008282111561149a5760405162461bcd60e51b815260206004820152601e60248201527f536166654d6174683a207375627472616374696f6e206f766572666c6f77000060448201526064016103d1565b6114a48284611ac5565b90505b92915050565b60008082116114fb5760405162461bcd60e51b815260206004820152601a602482015279536166654d6174683a206469766973696f6e206279207a65726f60301b60448201526064016103d1565b6114a48284611adc565b600082600003611517575060006114a7565b60006115238385611afe565b9050826115308583611adc565b146114a45760405162461bcd60e51b815260206004820152602160248201527f536166654d6174683a206d756c7469706c69636174696f6e206f766572666c6f6044820152607760f81b60648201526084016103d1565b6000806115948385611a65565b9050838110156114a45760405162461bcd60e51b815260206004820152601b60248201527a536166654d6174683a206164646974696f6e206f766572666c6f7760281b60448201526064016103d1565b6000611639826040518060400160405280602081526020017f5361666542455032303a206c6f772d6c6576656c2063616c6c206661696c6564815250856001600160a01b03166116b69092919063ffffffff16565b805190915015610ffd578080602001905181019061165791906119c6565b610ffd5760405162461bcd60e51b815260206004820152602a60248201527f5361666542455032303a204245503230206f7065726174696f6e20646964206e6044820152691bdd081cdd58d8d9595960b21b60648201526084016103d1565b60606116c584846000856116cf565b90505b9392505050565b6060824710156117305760405162461bcd60e51b815260206004820152602660248201527f416464726573733a20696e73756666696369656e742062616c616e636520666f6044820152651c8818d85b1b60d21b60648201526084016103d1565b843b61177e5760405162461bcd60e51b815260206004820152601d60248201527f416464726573733a2063616c6c20746f206e6f6e2d636f6e747261637400000060448201526064016103d1565b600080866001600160a01b0316858760405161179a9190611b49565b60006040518083038185875af1925050503d80600081146117d7576040519150601f19603f3d011682016040523d82523d6000602084013e6117dc565b606091505b50915091506117ec8282866117f7565b979650505050505050565b606083156118065750816116c8565b8251156118165782518084602001fd5b8160405162461bcd60e51b81526004016103d19190611b65565b60006020828403121561184257600080fd5b5035919050565b6001600160a01b038116811461109f57600080fd5b600080600080600060a0868803121561187657600080fd5b853561188181611849565b9450602086013561189181611849565b935060408601356118a181611849565b925060608601356118b181611849565b915060808601356118c181611849565b809150509295509295909350565b6000602082840312156118e157600080fd5b81356114a481611849565b6001600160a01b0391909116815260200190565b6000806040838503121561191357600080fd5b823561191e81611849565b946020939093013593505050565b6000806040838503121561193f57600080fd5b50508035926020909101359150565b6020808252818101527f4f776e61626c653a2063616c6c6572206973206e6f7420746865206f776e6572604082015260600190565b60208082526010908201526f141bdbdb081a185cc81cdd185c9d195960821b604082015260600190565b6001600160a01b03929092168252602082015260400190565b6000602082840312156119d857600080fd5b815180151581146114a457600080fd5b6020808252601f908201527f5265656e7472616e637947756172643a207265656e7472616e742063616c6c00604082015260600190565b60208082526016908201527521b0b73737ba103132903932bbb0b932103a37b5b2b760511b604082015260600190565b634e487b7160e01b600052601160045260246000fd5b60008219821115611a7857611a78611a4f565b500190565b600060208284031215611a8f57600080fd5b5051919050565b634e487b7160e01b600052603260045260246000fd5b600060018201611abe57611abe611a4f565b5060010190565b600082821015611ad757611ad7611a4f565b500390565b600082611af957634e487b7160e01b600052601260045260246000fd5b500490565b6000816000190483118215151615611b1857611b18611a4f565b500290565b60005b83811015611b38578181015183820152602001611b20565b838111156113975750506000910152565b60008251611b5b818460208701611b1d565b9190910192915050565b6020815260008251806020840152611b84816040850160208701611b1d565b601f01601f1916919091016040019291505056fea264697066735822122048ee26254e6fd79ef0e25ca0ad21b5a96b67c9a30b861a08f5843d0d2868a0dd64736f6c634300080f0033",
  "immutableReferences": {},
  "source": "/************************************************************\r\n *\r\n * Autor: Zoinks\r\n *\r\n * 446576656c6f7065723a20416e746f6e20506f6c656e79616b61 ****/\r\n\r\n// SPDX-License-Identifier: UNLICENSED\r\npragma solidity 0.8.15;\r\n\r\nimport \"./abstract/Ownable.sol\";\r\nimport \"./abstract/ReentrancyGuard.sol\";\r\nimport \"./librarys/SafeMath.sol\";\r\nimport \"./librarys/SafeBEP20.sol\";\r\n\r\ncontract SnacksStakingPool is Ownable, ReentrancyGuard {\r\n    using SafeMath for uint256;\r\n    using SafeBEP20 for IBEP20;\r\n\r\n    // Whether a limit is set for users\r\n    bool public hasUserLimit;\r\n\r\n    // Whether it is initialized\r\n    bool public isInitialized;\r\n\r\n    //* Accrued token per share\r\n    uint256 public accTokenPerShare;\r\n\r\n    //* The block number when CAKE mining ends.\r\n    uint256 public bonusEndBlock = 99999999;\r\n\r\n    //* The block number when CAKE mining starts.\r\n    uint256 public startBlock;\r\n\r\n    //* The block number of the last pool update\r\n    uint256 public lastRewardBlock;\r\n    //* CAKE tokens created per block.\r\n    uint256 public rewardPerBlock;\r\n\r\n    // The reward token\r\n    IBEP20 public rewardToken; // reward snacks token\r\n    IBEP20 public rewardEthSnacksToken;\r\n    IBEP20 public rewardBtcSnacksToken;\r\n\r\n    // The staked token\r\n    IBEP20 public stakedToken;\r\n\r\n    // Seniorage address\r\n    address public seniorageAddress;\r\n\r\n    //maximum-integer\r\n    uint256 MAX_INT =\r\n        0xffffffffffffffffffffffffffffffffffffffffffffffffffffffffffffffff;\r\n\r\n    uint256 totalStakedSnacks; // Total staked snacks = totalSupply() - rewardSnacks\r\n    uint256 totalRewardDebtSnacks; // Total Reward debt of snacks\r\n    uint256 totalRewardDebtEthSnacks; // Total Reward debt of ethSnacks\r\n    uint256 totalRewardDebtBtcSnacks; // Total Reward debt of btcSnacks\r\n\r\n    // Info of each user that stakes tokens (stakedToken)\r\n    mapping(address => UserInfo) public userInfo;\r\n    address[] public userAddressList;\r\n\r\n    struct UserInfo {\r\n        uint256 amount; // How many staked tokens the user has provided\r\n        uint256 rewardDebt; // Reward debt of snacks. See explanation below.\r\n        uint256 rewardDebtEthSnacks; // Reward debt of ethSnacks. See explanation below.\r\n        uint256 rewardDebtBtcSnacks; // Reward debt of btcSnacks. See explanation below.\r\n        uint256 lastDepositDate;\r\n    }\r\n\r\n    event AdminTokenRecovery(address tokenRecovered, uint256 amount);\r\n    event Deposit(address indexed user, uint256 amount);\r\n    event EmergencyWithdraw(address indexed user, uint256 amount);\r\n    event NewStartAndEndBlocks(uint256 startBlock, uint256 endBlock);\r\n    event NewRewardPerBlock(uint256 rewardPerBlock);\r\n    event RewardsStop(uint256 blockNumber);\r\n    event RewardTransfer(\r\n        address indexed user,\r\n        uint256 snacksReward,\r\n        uint256 ethSnacksReward,\r\n        uint256 btcSnacksReward\r\n    );\r\n\r\n    constructor(address _seniorage) {\r\n        seniorageAddress = _seniorage; // Ex.: 0x467927774B59F7cB023863b07960669f958EC19a\r\n    }\r\n\r\n    /*\r\n     * @notice Initialize the contract\r\n     * @param _stakedToken: staked token address\r\n     * @param _rewardToken: reward snacks token address\r\n     * @param _rewardEthSnacksToken: reward ethSnacks token address\r\n     * @param _rewardBtcSnacksToken: reward btcSnacks token address\r\n     * @param _admin: admin address with ownership\r\n     */\r\n    function initialize(\r\n        IBEP20 _stakedToken,\r\n        IBEP20 _rewardToken,\r\n        IBEP20 _rewardEthSnacksToken,\r\n        IBEP20 _rewardBtcSnacksToken,\r\n        address _admin\r\n    ) external {\r\n        require(!isInitialized, \"Already initialized\");\r\n\r\n        // Make this contract initialized\r\n        isInitialized = true;\r\n\r\n        stakedToken = _stakedToken;\r\n        rewardToken = _rewardToken;\r\n        rewardEthSnacksToken = _rewardEthSnacksToken;\r\n        rewardBtcSnacksToken = _rewardBtcSnacksToken;\r\n\r\n        //Approve contracts  for rewardTransfer\r\n        rewardToken.approve(address(this), MAX_INT);\r\n        rewardEthSnacksToken.approve(address(this), MAX_INT);\r\n        rewardBtcSnacksToken.approve(address(this), MAX_INT);\r\n\r\n        // Transfer ownership to the admin address who becomes owner of the contract\r\n        transferOwnership(_admin);\r\n    }\r\n\r\n    //add msg.sender to userAddressList\r\n    function addUser() internal {\r\n        bool isExist = false;\r\n        for (uint256 i = 0; i < userAddressList.length; i++) {\r\n            if (userAddressList[i] == msg.sender) {\r\n                isExist = true;\r\n                break;\r\n            }\r\n        }\r\n        if (!isExist) {\r\n            userAddressList.push(msg.sender);\r\n        }\r\n    }\r\n\r\n    /*\r\n     * @notice Deposit staked tokens and collect reward tokens (if any)\r\n     * @param _amount: amount to withdraw (in rewardToken)\r\n     */\r\n    function deposit(uint256 _amount) external nonReentrant {\r\n        require(_amount > 0, \"invalid amount\");\r\n        UserInfo storage user = userInfo[msg.sender];\r\n        user.amount = user.amount + _amount;\r\n        totalStakedSnacks = totalStakedSnacks + _amount;\r\n        stakedToken.safeTransferFrom(msg.sender, address(this), _amount);\r\n        user.lastDepositDate = block.timestamp;\r\n        addUser();\r\n        emit Deposit(msg.sender, _amount);\r\n    }\r\n\r\n    /*\r\n     * @notice Withdraw staked tokens and collect reward tokens\r\n     * @param _amount: amount to withdraw (in rewardToken)\r\n     */\r\n    function withdraw() external nonReentrant {\r\n        rewardTransfer();\r\n    }\r\n\r\n    /*\r\n     * @notice Withdraw staked tokens without caring about rewards rewards\r\n     * @dev Needs to be for emergency.\r\n     */\r\n    function emergencyWithdraw() external nonReentrant {\r\n        UserInfo storage user = userInfo[msg.sender];\r\n        require(user.amount > 0, \"Nothing to withdraw\");\r\n        uint256 amountToTransfer = user.amount;\r\n        totalStakedSnacks = totalStakedSnacks.sub(user.amount);\r\n        user.amount = 0;\r\n        rewardTransfer();\r\n        if (block.timestamp < user.lastDepositDate + 1 days) {\r\n            stakedToken.safeTransfer(seniorageAddress, amountToTransfer.div(2));\r\n            stakedToken.safeTransfer(msg.sender, amountToTransfer.div(2));\r\n        } else {\r\n            stakedToken.safeTransfer(msg.sender, amountToTransfer);\r\n        }\r\n        emit EmergencyWithdraw(msg.sender, amountToTransfer);\r\n    }\r\n\r\n    /*\r\n     * @notice Stop rewards\r\n     * @dev Only callable by owner. Needs to be for emergency.\r\n     */\r\n    function emergencyRewardWithdraw() external onlyOwner {\r\n        rewardTransfer();\r\n    }\r\n\r\n    /**\r\n     * @notice It allows the admin to recover wrong tokens sent to the contract\r\n     * @param _tokenAddress: the address of the token to withdraw\r\n     * @param _tokenAmount: the number of tokens to withdraw\r\n     * @dev This function is only callable by admin.\r\n     */\r\n    function recoverWrongTokens(address _tokenAddress, uint256 _tokenAmount)\r\n        external\r\n        onlyOwner\r\n    {\r\n        require(\r\n            _tokenAddress != address(stakedToken),\r\n            \"Cannot be staked token\"\r\n        );\r\n        require(\r\n            _tokenAddress != address(rewardToken),\r\n            \"Cannot be reward token\"\r\n        );\r\n        require(\r\n            _tokenAddress != address(rewardEthSnacksToken),\r\n            \"Cannot be reward token\"\r\n        );\r\n        require(\r\n            _tokenAddress != address(rewardBtcSnacksToken),\r\n            \"Cannot be reward token\"\r\n        );\r\n\r\n        IBEP20(_tokenAddress).safeTransfer(address(msg.sender), _tokenAmount);\r\n\r\n        emit AdminTokenRecovery(_tokenAddress, _tokenAmount);\r\n    }\r\n\r\n    /*\r\n     * @notice Stop rewards\r\n     * @dev Only callable by owner\r\n     */\r\n    function stopReward() external onlyOwner {\r\n        bonusEndBlock = block.number;\r\n    }\r\n    /*\r\n     * @notice Update reward per block\r\n     * @dev Only callable by owner.\r\n     * @param _rewardPerBlock: the reward per block\r\n     */\r\n    function updateRewardPerBlock(uint256 _rewardPerBlock) external onlyOwner {\r\n        require(block.number < startBlock, \"Pool has started\");\r\n        rewardPerBlock = _rewardPerBlock;\r\n        emit NewRewardPerBlock(_rewardPerBlock);\r\n    }\r\n\r\n    /**\r\n     * @notice It allows the admin to update start and end blocks\r\n     * @dev This function is only callable by owner.\r\n     * @param _startBlock: the new start block\r\n     * @param _bonusEndBlock: the new end block\r\n     */\r\n    function updateStartAndEndBlocks(\r\n        uint256 _startBlock,\r\n        uint256 _bonusEndBlock\r\n    ) external onlyOwner {\r\n        require(block.number < startBlock, \"Pool has started\");\r\n        require(\r\n            _startBlock < _bonusEndBlock,\r\n            \"New startBlock must be lower than new endBlock\"\r\n        );\r\n        require(\r\n            block.number < _startBlock,\r\n            \"New startBlock must be higher than current block\"\r\n        );\r\n\r\n        startBlock = _startBlock;\r\n        bonusEndBlock = _bonusEndBlock;\r\n\r\n        // Set the lastRewardBlock as the startBlock\r\n        lastRewardBlock = startBlock;\r\n\r\n        emit NewStartAndEndBlocks(_startBlock, _bonusEndBlock);\r\n    }\r\n\r\n    /*\r\n     * @notice View function to see pending reward on frontend.\r\n     * @param _user: user address\r\n     * @return Pending reward for a given user\r\n     */\r\n    function pendingReward(address _user) external view returns (uint256) {\r\n        return userInfo[_user].rewardDebt;\r\n    }\r\n\r\n    /*\r\n     * @notice Update reward variables of the given pool to be up-to-date.\r\n     */\r\n    function updatePool() public {\r\n        if (totalStakedSnacks == 0) {\r\n            return;\r\n        }\r\n\r\n        uint256 rewardSnacks = rewardToken.balanceOf(address(this)).sub(\r\n            totalRewardDebtSnacks\r\n        );\r\n        rewardSnacks = rewardSnacks.sub(totalStakedSnacks);\r\n        if (rewardSnacks > 0) {\r\n            for (uint256 i = 0; i < userAddressList.length; i++) {\r\n                userInfo[userAddressList[i]].rewardDebt += rewardSnacks\r\n                    .mul(userInfo[userAddressList[i]].amount)\r\n                    .div(totalStakedSnacks);\r\n            }\r\n\r\n            totalRewardDebtSnacks = totalRewardDebtSnacks.add(rewardSnacks);\r\n        }\r\n\r\n        uint256 rewardEthSnacks = rewardEthSnacksToken\r\n            .balanceOf(address(this))\r\n            .sub(totalRewardDebtEthSnacks);\r\n        if (rewardEthSnacks > 0) {\r\n            for (uint256 i = 0; i < userAddressList.length; i++) {\r\n                userInfo[userAddressList[i]]\r\n                    .rewardDebtEthSnacks += rewardEthSnacks\r\n                    .mul(userInfo[userAddressList[i]].amount)\r\n                    .div(totalStakedSnacks);\r\n            }\r\n\r\n            totalRewardDebtEthSnacks = totalRewardDebtEthSnacks.add(\r\n                rewardEthSnacks\r\n            );\r\n        }\r\n\r\n        uint256 rewardBtcSnacks = rewardBtcSnacksToken\r\n            .balanceOf(address(this))\r\n            .sub(totalRewardDebtBtcSnacks);\r\n        if (rewardBtcSnacks > 0) {\r\n            for (uint256 i = 0; i < userAddressList.length; i++) {\r\n                userInfo[userAddressList[i]]\r\n                    .rewardDebtBtcSnacks += rewardBtcSnacks\r\n                    .mul(userInfo[userAddressList[i]].amount)\r\n                    .div(totalStakedSnacks);\r\n            }\r\n\r\n            totalRewardDebtBtcSnacks = totalRewardDebtBtcSnacks.add(\r\n                rewardBtcSnacks\r\n            );\r\n        }\r\n    }\r\n\r\n    // Safe reward transfer function, just in case if rounding error causes pool to not have enough snacks.\r\n    function rewardTransfer() internal {\r\n        UserInfo storage user = userInfo[msg.sender];\r\n        uint256 rewardDebt = user.rewardDebt;\r\n        if (rewardDebt > 0) {\r\n            if (block.timestamp < user.lastDepositDate + 1 days) {\r\n                rewardToken.safeTransfer(seniorageAddress, rewardDebt.div(2));\r\n                rewardToken.safeTransfer(msg.sender, rewardDebt.div(2));\r\n            } else {\r\n                rewardToken.safeTransfer(msg.sender, rewardDebt);\r\n            }\r\n            user.rewardDebt = 0;\r\n            totalRewardDebtSnacks = totalRewardDebtSnacks.sub(rewardDebt);\r\n        }\r\n        uint256 rewardDebtEthSnacks = user.rewardDebtEthSnacks;\r\n        if (rewardDebtEthSnacks > 0) {\r\n            if (block.timestamp < user.lastDepositDate + 1 days) {\r\n                rewardEthSnacksToken.safeTransfer(seniorageAddress, rewardDebtEthSnacks.div(2));\r\n                rewardEthSnacksToken.safeTransfer(msg.sender, rewardDebtEthSnacks.div(2));\r\n            } else {\r\n                rewardEthSnacksToken.safeTransfer(msg.sender, rewardDebtEthSnacks);\r\n            }\r\n            user.rewardDebtEthSnacks = 0;\r\n            totalRewardDebtEthSnacks = totalRewardDebtEthSnacks.sub(\r\n                rewardDebtEthSnacks\r\n            );\r\n        }\r\n        uint256 rewardDebtBtcSnacks = user.rewardDebtBtcSnacks;\r\n        if (rewardDebtBtcSnacks > 0) {\r\n            if (block.timestamp < user.lastDepositDate + 1 days) {\r\n                rewardBtcSnacksToken.safeTransfer(seniorageAddress, rewardDebtBtcSnacks.div(2));\r\n                rewardBtcSnacksToken.safeTransfer(msg.sender, rewardDebtBtcSnacks.div(2));\r\n            } else {\r\n                rewardBtcSnacksToken.safeTransfer(msg.sender, rewardDebtBtcSnacks);\r\n            }\r\n            user.rewardDebtBtcSnacks = 0;\r\n            totalRewardDebtBtcSnacks = totalRewardDebtBtcSnacks.sub(\r\n                rewardDebtBtcSnacks\r\n            );\r\n        }\r\n        emit RewardTransfer(msg.sender, rewardDebt, rewardDebtEthSnacks, rewardDebtBtcSnacks);\r\n    }\r\n\r\n    /*\r\n     * @notice Return reward multiplier over the given _from to _to block.\r\n     * @param _from: block to start\r\n     * @param _to: block to finish\r\n     */\r\n    function _getMultiplier(uint256 _from, uint256 _to)\r\n        internal\r\n        view\r\n        returns (uint256)\r\n    {\r\n        if (_to <= bonusEndBlock) {\r\n            return _to.sub(_from);\r\n        } else if (_from >= bonusEndBlock) {\r\n            return 0;\r\n        } else {\r\n            return bonusEndBlock.sub(_from);\r\n        }\r\n    }\r\n\r\n    // Set seniorage address by owner\r\n    function setSeniorage(address seniorage) public onlyOwner {\r\n        seniorageAddress = seniorage;\r\n    }\r\n}\r\n",
  "sourcePath": "C:\\GitHub\\zoinks\\contracts\\Development\\src\\contracts\\SnacksStakingPool.sol",
  "compiler": {
    "name": "solc",
    "version": "0.8.15+commit.e14f2714.Emscripten.clang"
  },
  "schemaVersion": "3.4.8",
  "updatedAt": "2022-08-08T18:33:02.889Z",
  "devdoc": {
    "kind": "dev",
    "methods": {
      "owner()": {
        "details": "Returns the address of the current owner."
      },
      "recoverWrongTokens(address,uint256)": {
        "details": "This function is only callable by admin.",
        "params": {
          "_tokenAddress": ": the address of the token to withdraw",
          "_tokenAmount": ": the number of tokens to withdraw"
        }
      },
      "renounceOwnership()": {
        "details": "Leaves the contract without owner. It will not be possible to call `onlyOwner` functions anymore. Can only be called by the current owner. NOTE: Renouncing ownership will leave the contract without an owner, thereby removing any functionality that is only available to the owner."
      },
      "transferOwnership(address)": {
        "details": "Transfers ownership of the contract to a new account (`newOwner`). Can only be called by the current owner."
      },
      "updateStartAndEndBlocks(uint256,uint256)": {
        "details": "This function is only callable by owner.",
        "params": {
          "_bonusEndBlock": ": the new end block",
          "_startBlock": ": the new start block"
        }
      }
    },
    "version": 1
  },
  "userdoc": {
    "kind": "user",
    "methods": {
      "recoverWrongTokens(address,uint256)": {
        "notice": "It allows the admin to recover wrong tokens sent to the contract"
      },
      "updateStartAndEndBlocks(uint256,uint256)": {
        "notice": "It allows the admin to update start and end blocks"
      }
    },
    "version": 1
  }
}