{
  "contractName": "Snacks",
  "abi": [
    {
      "inputs": [
        {
          "internalType": "contract IERC20",
          "name": "zoinks_",
          "type": "address"
        },
        {
          "internalType": "address",
          "name": "pulse_",
          "type": "address"
        },
        {
          "internalType": "address",
          "name": "masterChef_",
          "type": "address"
        },
        {
          "internalType": "address",
          "name": "zoinksStakingPool_",
          "type": "address"
        },
        {
          "internalType": "address",
          "name": "snacksStakingPool_",
          "type": "address"
        },
        {
          "internalType": "contract IERC20",
          "name": "btcSnacks_",
          "type": "address"
        },
        {
          "internalType": "contract IERC20",
          "name": "ethSnacks_",
          "type": "address"
        },
        {
          "internalType": "address",
          "name": "seniorageAddress_",
          "type": "address"
        }
      ],
      "stateMutability": "nonpayable",
      "type": "constructor"
    },
    {
      "inputs": [
        {
          "internalType": "uint256",
          "name": "prod1",
          "type": "uint256"
        },
        {
          "internalType": "uint256",
          "name": "denominator",
          "type": "uint256"
        }
      ],
      "name": "PRBMath__MulDivOverflow",
      "type": "error"
    },
    {
      "anonymous": false,
      "inputs": [
        {
          "indexed": true,
          "internalType": "address",
          "name": "owner",
          "type": "address"
        },
        {
          "indexed": true,
          "internalType": "address",
          "name": "spender",
          "type": "address"
        },
        {
          "indexed": false,
          "internalType": "uint256",
          "name": "value",
          "type": "uint256"
        }
      ],
      "name": "Approval",
      "type": "event"
    },
    {
      "anonymous": false,
      "inputs": [
        {
          "indexed": false,
          "internalType": "address",
          "name": "buyer",
          "type": "address"
        },
        {
          "indexed": false,
          "internalType": "uint256",
          "name": "startTotalSupply",
          "type": "uint256"
        },
        {
          "indexed": false,
          "internalType": "uint256",
          "name": "snacksRealBuyed",
          "type": "uint256"
        },
        {
          "indexed": false,
          "internalType": "uint256",
          "name": "snacksFee",
          "type": "uint256"
        },
        {
          "indexed": false,
          "internalType": "uint256",
          "name": "zoinksPayed",
          "type": "uint256"
        }
      ],
      "name": "Buy",
      "type": "event"
    },
    {
      "anonymous": false,
      "inputs": [
        {
          "indexed": true,
          "internalType": "address",
          "name": "previousOwner",
          "type": "address"
        },
        {
          "indexed": true,
          "internalType": "address",
          "name": "newOwner",
          "type": "address"
        }
      ],
      "name": "OwnershipTransferred",
      "type": "event"
    },
    {
      "anonymous": false,
      "inputs": [
        {
          "indexed": false,
          "internalType": "address",
          "name": "seller",
          "type": "address"
        },
        {
          "indexed": false,
          "internalType": "uint256",
          "name": "currentTotalSupply",
          "type": "uint256"
        },
        {
          "indexed": false,
          "internalType": "uint256",
          "name": "snacksRealReturned",
          "type": "uint256"
        },
        {
          "indexed": false,
          "internalType": "uint256",
          "name": "snacksFee",
          "type": "uint256"
        },
        {
          "indexed": false,
          "internalType": "uint256",
          "name": "zoinksReturned",
          "type": "uint256"
        }
      ],
      "name": "Redeem",
      "type": "event"
    },
    {
      "anonymous": false,
      "inputs": [
        {
          "indexed": true,
          "internalType": "address",
          "name": "from",
          "type": "address"
        },
        {
          "indexed": true,
          "internalType": "address",
          "name": "to",
          "type": "address"
        },
        {
          "indexed": false,
          "internalType": "uint256",
          "name": "value",
          "type": "uint256"
        }
      ],
      "name": "Transfer",
      "type": "event"
    },
    {
      "inputs": [],
      "name": "D",
      "outputs": [
        {
          "internalType": "uint256",
          "name": "",
          "type": "uint256"
        }
      ],
      "stateMutability": "view",
      "type": "function"
    },
    {
      "inputs": [],
      "name": "FEE_BTCETH_SNACK_HOLDERS",
      "outputs": [
        {
          "internalType": "uint256",
          "name": "",
          "type": "uint256"
        }
      ],
      "stateMutability": "view",
      "type": "function"
    },
    {
      "inputs": [],
      "name": "FEE_MASTERCHEF",
      "outputs": [
        {
          "internalType": "uint256",
          "name": "",
          "type": "uint256"
        }
      ],
      "stateMutability": "view",
      "type": "function"
    },
    {
      "inputs": [],
      "name": "FEE_PULSE",
      "outputs": [
        {
          "internalType": "uint256",
          "name": "",
          "type": "uint256"
        }
      ],
      "stateMutability": "view",
      "type": "function"
    },
    {
      "inputs": [],
      "name": "FEE_SENIORAGE",
      "outputs": [
        {
          "internalType": "uint256",
          "name": "",
          "type": "uint256"
        }
      ],
      "stateMutability": "view",
      "type": "function"
    },
    {
      "inputs": [],
      "name": "FEE_SNACKS_STAKING",
      "outputs": [
        {
          "internalType": "uint256",
          "name": "",
          "type": "uint256"
        }
      ],
      "stateMutability": "view",
      "type": "function"
    },
    {
      "inputs": [],
      "name": "FEE_SNACK_HOLDERS",
      "outputs": [
        {
          "internalType": "uint256",
          "name": "",
          "type": "uint256"
        }
      ],
      "stateMutability": "view",
      "type": "function"
    },
    {
      "inputs": [],
      "name": "FEE_ZOINKS_STAKING",
      "outputs": [
        {
          "internalType": "uint256",
          "name": "",
          "type": "uint256"
        }
      ],
      "stateMutability": "view",
      "type": "function"
    },
    {
      "inputs": [],
      "name": "ONE_SNACK",
      "outputs": [
        {
          "internalType": "uint256",
          "name": "",
          "type": "uint256"
        }
      ],
      "stateMutability": "view",
      "type": "function"
    },
    {
      "inputs": [],
      "name": "SNACKS_MULTIPLIER",
      "outputs": [
        {
          "internalType": "uint256",
          "name": "",
          "type": "uint256"
        }
      ],
      "stateMutability": "view",
      "type": "function"
    },
    {
      "inputs": [],
      "name": "TAX_PERCENT_FOR_BUY",
      "outputs": [
        {
          "internalType": "uint8",
          "name": "",
          "type": "uint8"
        }
      ],
      "stateMutability": "view",
      "type": "function"
    },
    {
      "inputs": [],
      "name": "TAX_PERCENT_FOR_REDEEM",
      "outputs": [
        {
          "internalType": "uint8",
          "name": "",
          "type": "uint8"
        }
      ],
      "stateMutability": "view",
      "type": "function"
    },
    {
      "inputs": [
        {
          "internalType": "address",
          "name": "owner",
          "type": "address"
        },
        {
          "internalType": "address",
          "name": "spender",
          "type": "address"
        }
      ],
      "name": "allowance",
      "outputs": [
        {
          "internalType": "uint256",
          "name": "",
          "type": "uint256"
        }
      ],
      "stateMutability": "view",
      "type": "function"
    },
    {
      "inputs": [
        {
          "internalType": "address",
          "name": "spender",
          "type": "address"
        },
        {
          "internalType": "uint256",
          "name": "amount",
          "type": "uint256"
        }
      ],
      "name": "approve",
      "outputs": [
        {
          "internalType": "bool",
          "name": "",
          "type": "bool"
        }
      ],
      "stateMutability": "nonpayable",
      "type": "function"
    },
    {
      "inputs": [
        {
          "internalType": "address",
          "name": "account",
          "type": "address"
        }
      ],
      "name": "balanceOf",
      "outputs": [
        {
          "internalType": "uint256",
          "name": "",
          "type": "uint256"
        }
      ],
      "stateMutability": "view",
      "type": "function"
    },
    {
      "inputs": [],
      "name": "btcSnacks",
      "outputs": [
        {
          "internalType": "contract IERC20",
          "name": "",
          "type": "address"
        }
      ],
      "stateMutability": "view",
      "type": "function"
    },
    {
      "inputs": [
        {
          "internalType": "uint256",
          "name": "amountSnacksToMint",
          "type": "uint256"
        }
      ],
      "name": "buy",
      "outputs": [],
      "stateMutability": "nonpayable",
      "type": "function"
    },
    {
      "inputs": [
        {
          "internalType": "uint256",
          "name": "payTokenAmount_",
          "type": "uint256"
        }
      ],
      "name": "buyTotal",
      "outputs": [],
      "stateMutability": "nonpayable",
      "type": "function"
    },
    {
      "inputs": [
        {
          "internalType": "uint256",
          "name": "currentTotalSupply",
          "type": "uint256"
        },
        {
          "internalType": "uint256",
          "name": "amountSnacksToMint",
          "type": "uint256"
        }
      ],
      "name": "calculateBuyAmount",
      "outputs": [
        {
          "internalType": "uint256",
          "name": "",
          "type": "uint256"
        }
      ],
      "stateMutability": "view",
      "type": "function"
    },
    {
      "inputs": [
        {
          "internalType": "uint256",
          "name": "payTokenAmount_",
          "type": "uint256"
        }
      ],
      "name": "calculateBuyTotal",
      "outputs": [
        {
          "internalType": "uint256",
          "name": "",
          "type": "uint256"
        }
      ],
      "stateMutability": "view",
      "type": "function"
    },
    {
      "inputs": [
        {
          "internalType": "uint256",
          "name": "currentTotalSupply",
          "type": "uint256"
        },
        {
          "internalType": "uint256",
          "name": "amountSnacksToBurn",
          "type": "uint256"
        }
      ],
      "name": "calculateRedeemAmount",
      "outputs": [
        {
          "internalType": "uint256",
          "name": "",
          "type": "uint256"
        }
      ],
      "stateMutability": "view",
      "type": "function"
    },
    {
      "inputs": [],
      "name": "decimals",
      "outputs": [
        {
          "internalType": "uint8",
          "name": "",
          "type": "uint8"
        }
      ],
      "stateMutability": "view",
      "type": "function"
    },
    {
      "inputs": [
        {
          "internalType": "address",
          "name": "spender",
          "type": "address"
        },
        {
          "internalType": "uint256",
          "name": "subtractedValue",
          "type": "uint256"
        }
      ],
      "name": "decreaseAllowance",
      "outputs": [
        {
          "internalType": "bool",
          "name": "",
          "type": "bool"
        }
      ],
      "stateMutability": "nonpayable",
      "type": "function"
    },
    {
      "inputs": [],
      "name": "distributeFee",
      "outputs": [],
      "stateMutability": "nonpayable",
      "type": "function"
    },
    {
      "inputs": [],
      "name": "ethSnacks",
      "outputs": [
        {
          "internalType": "contract IERC20",
          "name": "",
          "type": "address"
        }
      ],
      "stateMutability": "view",
      "type": "function"
    },
    {
      "inputs": [],
      "name": "feeBTCETHSnacksHolders",
      "outputs": [
        {
          "internalType": "uint256",
          "name": "",
          "type": "uint256"
        }
      ],
      "stateMutability": "view",
      "type": "function"
    },
    {
      "inputs": [],
      "name": "feeMasterChef",
      "outputs": [
        {
          "internalType": "uint256",
          "name": "",
          "type": "uint256"
        }
      ],
      "stateMutability": "view",
      "type": "function"
    },
    {
      "inputs": [],
      "name": "feePulse",
      "outputs": [
        {
          "internalType": "uint256",
          "name": "",
          "type": "uint256"
        }
      ],
      "stateMutability": "view",
      "type": "function"
    },
    {
      "inputs": [],
      "name": "feeSeniorage",
      "outputs": [
        {
          "internalType": "uint256",
          "name": "",
          "type": "uint256"
        }
      ],
      "stateMutability": "view",
      "type": "function"
    },
    {
      "inputs": [],
      "name": "feeSnacksHolders",
      "outputs": [
        {
          "internalType": "uint256",
          "name": "",
          "type": "uint256"
        }
      ],
      "stateMutability": "view",
      "type": "function"
    },
    {
      "inputs": [],
      "name": "feeSnacksStakingPool",
      "outputs": [
        {
          "internalType": "uint256",
          "name": "",
          "type": "uint256"
        }
      ],
      "stateMutability": "view",
      "type": "function"
    },
    {
      "inputs": [],
      "name": "feeZoinksStakingPool",
      "outputs": [
        {
          "internalType": "uint256",
          "name": "",
          "type": "uint256"
        }
      ],
      "stateMutability": "view",
      "type": "function"
    },
    {
      "inputs": [],
      "name": "getTotalHoldersBalance",
      "outputs": [
        {
          "internalType": "uint256",
          "name": "",
          "type": "uint256"
        }
      ],
      "stateMutability": "view",
      "type": "function"
    },
    {
      "inputs": [
        {
          "internalType": "uint256",
          "name": "",
          "type": "uint256"
        }
      ],
      "name": "holderList",
      "outputs": [
        {
          "internalType": "address",
          "name": "",
          "type": "address"
        }
      ],
      "stateMutability": "view",
      "type": "function"
    },
    {
      "inputs": [
        {
          "internalType": "address",
          "name": "spender",
          "type": "address"
        },
        {
          "internalType": "uint256",
          "name": "addedValue",
          "type": "uint256"
        }
      ],
      "name": "increaseAllowance",
      "outputs": [
        {
          "internalType": "bool",
          "name": "",
          "type": "bool"
        }
      ],
      "stateMutability": "nonpayable",
      "type": "function"
    },
    {
      "inputs": [],
      "name": "isInitilized",
      "outputs": [
        {
          "internalType": "bool",
          "name": "",
          "type": "bool"
        }
      ],
      "stateMutability": "view",
      "type": "function"
    },
    {
      "inputs": [],
      "name": "masterChef",
      "outputs": [
        {
          "internalType": "address",
          "name": "",
          "type": "address"
        }
      ],
      "stateMutability": "view",
      "type": "function"
    },
    {
      "inputs": [],
      "name": "multiplier",
      "outputs": [
        {
          "internalType": "uint256",
          "name": "",
          "type": "uint256"
        }
      ],
      "stateMutability": "view",
      "type": "function"
    },
    {
      "inputs": [],
      "name": "name",
      "outputs": [
        {
          "internalType": "string",
          "name": "",
          "type": "string"
        }
      ],
      "stateMutability": "view",
      "type": "function"
    },
    {
      "inputs": [],
      "name": "numberOfHolders",
      "outputs": [
        {
          "internalType": "uint256",
          "name": "",
          "type": "uint256"
        }
      ],
      "stateMutability": "view",
      "type": "function"
    },
    {
      "inputs": [],
      "name": "owner",
      "outputs": [
        {
          "internalType": "address",
          "name": "",
          "type": "address"
        }
      ],
      "stateMutability": "view",
      "type": "function"
    },
    {
      "inputs": [],
      "name": "payToken",
      "outputs": [
        {
          "internalType": "contract IERC20",
          "name": "",
          "type": "address"
        }
      ],
      "stateMutability": "view",
      "type": "function"
    },
    {
      "inputs": [],
      "name": "pulse",
      "outputs": [
        {
          "internalType": "address",
          "name": "",
          "type": "address"
        }
      ],
      "stateMutability": "view",
      "type": "function"
    },
    {
      "inputs": [
        {
          "internalType": "uint256",
          "name": "amountSnacksToBurn",
          "type": "uint256"
        }
      ],
      "name": "redeem",
      "outputs": [],
      "stateMutability": "nonpayable",
      "type": "function"
    },
    {
      "inputs": [],
      "name": "renounceOwnership",
      "outputs": [],
      "stateMutability": "nonpayable",
      "type": "function"
    },
    {
      "inputs": [],
      "name": "seniorageAddress",
      "outputs": [
        {
          "internalType": "address",
          "name": "",
          "type": "address"
        }
      ],
      "stateMutability": "view",
      "type": "function"
    },
    {
      "inputs": [
        {
          "internalType": "address",
          "name": "seniorage",
          "type": "address"
        }
      ],
      "name": "setSeniorage",
      "outputs": [],
      "stateMutability": "nonpayable",
      "type": "function"
    },
    {
      "inputs": [],
      "name": "snacksStakingPool",
      "outputs": [
        {
          "internalType": "address",
          "name": "",
          "type": "address"
        }
      ],
      "stateMutability": "view",
      "type": "function"
    },
    {
      "inputs": [],
      "name": "symbol",
      "outputs": [
        {
          "internalType": "string",
          "name": "",
          "type": "string"
        }
      ],
      "stateMutability": "view",
      "type": "function"
    },
    {
      "inputs": [],
      "name": "totalSupply",
      "outputs": [
        {
          "internalType": "uint256",
          "name": "",
          "type": "uint256"
        }
      ],
      "stateMutability": "view",
      "type": "function"
    },
    {
      "inputs": [
        {
          "internalType": "address",
          "name": "to",
          "type": "address"
        },
        {
          "internalType": "uint256",
          "name": "amount",
          "type": "uint256"
        }
      ],
      "name": "transfer",
      "outputs": [
        {
          "internalType": "bool",
          "name": "",
          "type": "bool"
        }
      ],
      "stateMutability": "nonpayable",
      "type": "function"
    },
    {
      "inputs": [
        {
          "internalType": "address",
          "name": "from",
          "type": "address"
        },
        {
          "internalType": "address",
          "name": "to",
          "type": "address"
        },
        {
          "internalType": "uint256",
          "name": "amount",
          "type": "uint256"
        }
      ],
      "name": "transferFrom",
      "outputs": [
        {
          "internalType": "bool",
          "name": "",
          "type": "bool"
        }
      ],
      "stateMutability": "nonpayable",
      "type": "function"
    },
    {
      "inputs": [
        {
          "internalType": "address",
          "name": "newOwner",
          "type": "address"
        }
      ],
      "name": "transferOwnership",
      "outputs": [],
      "stateMutability": "nonpayable",
      "type": "function"
    },
    {
      "inputs": [],
      "name": "undistributedFeeSnacks",
      "outputs": [
        {
          "internalType": "uint256",
          "name": "",
          "type": "uint256"
        }
      ],
      "stateMutability": "view",
      "type": "function"
    },
    {
      "inputs": [],
      "name": "zoinksStakingPool",
      "outputs": [
        {
          "internalType": "address",
          "name": "",
          "type": "address"
        }
      ],
      "stateMutability": "view",
      "type": "function"
    },
    {
      "inputs": [],
      "name": "undistributedFeeBTCSnacks",
      "outputs": [
        {
          "internalType": "uint256",
          "name": "",
          "type": "uint256"
        }
      ],
      "stateMutability": "view",
      "type": "function"
    },
    {
      "inputs": [],
      "name": "undistributedFeeETHSnacks",
      "outputs": [
        {
          "internalType": "uint256",
          "name": "",
          "type": "uint256"
        }
      ],
      "stateMutability": "view",
      "type": "function"
    }
  ],
  "bytecode": "0x6102806040523480156200001257600080fd5b50604051620038dc380380620038dc8339810160408190526200003591620004b5565b8787878660405180604001604052806006815260200165534e41434b5360d01b81525060405180604001604052806006815260200165534e41434b5360d01b81525064e8d4a5100087601e80600f6000600f6005808a8a81600390816200009d91906200061b565b506004620000ac82826200061b565b505050620000c9620000c36200044660201b60201c565b6200044a565b8e6001600160a01b03166080816001600160a01b0316815250508d6001600160a01b031660a0816001600160a01b0316815250508c6001600160a01b031660c0816001600160a01b0316815250508b6001600160a01b031660e0816001600160a01b031681525050306001600160a01b0316610100816001600160a01b03168152505088610120818152505087600660006101000a8154816001600160a01b0302191690836001600160a01b03160217905550866101408181525050856101608181525050846101808181525050836101a08181525050826101c08181525050816101e08181525050806102008181525050600160086000806001600160a01b03166001600160a01b0316815260200190815260200160002060006101000a81548160ff0219169083151502179055506001600860006080516001600160a01b03166001600160a01b0316815260200190815260200160002060006101000a81548160ff02191690831515021790555060016008600060c0516001600160a01b03166001600160a01b0316815260200190815260200160002060006101000a81548160ff02191690831515021790555060016008600060e0516001600160a01b03166001600160a01b0316815260200190815260200160002060006101000a81548160ff021916908315150217905550600160086000610100516001600160a01b03166001600160a01b0316815260200190815260200160002060006101000a81548160ff021916908315150217905550505050505050505050505050505050826001600160a01b0316610220816001600160a01b031681525050816001600160a01b0316610240816001600160a01b031681525050846001600160a01b0316610260816001600160a01b031681525050600160086000610220516001600160a01b03166001600160a01b0316815260200190815260200160002060006101000a81548160ff021916908315150217905550600160086000610240516001600160a01b03166001600160a01b0316815260200190815260200160002060006101000a81548160ff021916908315150217905550600160086000610260516001600160a01b03166001600160a01b0316815260200190815260200160002060006101000a81548160ff0219169083151502179055506001600560146101000a81548160ff0219169083151502179055505050505050505050620006e7565b3390565b600580546001600160a01b038381166001600160a01b0319831681179093556040519116919082907f8be0079c531659141344cd1fd0a4f28419497f9722a3daafe3b4186f6b6457e090600090a35050565b6001600160a01b0381168114620004b257600080fd5b50565b600080600080600080600080610100898b031215620004d357600080fd5b8851620004e0816200049c565b60208a0151909850620004f3816200049c565b60408a015190975062000506816200049c565b60608a015190965062000519816200049c565b60808a01519095506200052c816200049c565b60a08a01519094506200053f816200049c565b60c08a015190935062000552816200049c565b60e08a015190925062000565816200049c565b809150509295985092959890939650565b634e487b7160e01b600052604160045260246000fd5b600181811c90821680620005a157607f821691505b602082108103620005c257634e487b7160e01b600052602260045260246000fd5b50919050565b601f8211156200061657600081815260208120601f850160051c81016020861015620005f15750805b601f850160051c820191505b818110156200061257828155600101620005fd565b5050505b505050565b81516001600160401b0381111562000637576200063762000576565b6200064f816200064884546200058c565b84620005c8565b602080601f8311600181146200068757600084156200066e5750858301515b600019600386901b1c1916600185901b17855562000612565b600085815260208120601f198616915b82811015620006b85788860151825594840194600190910190840162000697565b5085821015620006d75787850151600019600388901b60f8161c191681555b5050505050600190811b01905550565b60805160a05160c05160e05161010051610120516101405161016051610180516101a0516101c0516101e05161020051610220516102405161026051613049620008936000396000818161061b0152611ee401526000818161043c01528181610dd601528181612184015261225101526000818161029c01528181610ebc0152818161200301526120d00152600081816105840152610cc40152600081816104dc01528181611e8f0152611f0a0152600081816103e30152611d410152600061064201526000818161052e01528181610bbd0152610c3c0152600081816103a701528181610ab60152610b35015260008181610492015281816109af0152610a2e015260008181610363015281816107a70152818161179401526118090152600081816109dd01528181610ae401528181610beb01528181610d0f01528181611dba0152611ebd0152600081816106f00152610c120152600081816104630152610b0b0152600081816106c10152610a0401526000818161055d0152818161107c015281816111680152818161128201528181611376015281816114ff01526115f801526130496000f3fe608060405234801561001057600080fd5b50600436106102925760003560e01c806256c930146102975780630199c7b2146102d457806303ff40fb146102e657806306fdde03146102f9578063095ea7b31461030e5780630f529ba214610331578063104e8cfc1461033b57806316ad42ad1461034357806318160ddd146103565780631b3ed7221461035e57806323b872dd1461038557806326c4e60d146103985780632e2674fd146103a2578063313ce567146103c9578063339b825a146103de57806339509351146104055780633ec059f8146104185780633eef5a9f1461042057806342e95e8e1461042857806356b2f01f14610437578063575a86b21461045e5780635c51cfd2146104205780635ca1ce2c146104855780635f3c7a7e1461048d57806370a08231146104b4578063715018a6146104c757806374d68726146104cf5780637efb801a146104d757806383a3c7fd146104fe5780638525e0e3146105065780638da5cb5b1461050e5780638ea8caba14610516578063924340df1461052957806395d89b411461055057806396336b301461055857806398bab16e1461057f5780639bcca00a146105a6578063a0b45d2c146105ae578063a457c2d7146105b6578063a70da64c146104fe578063a9059cbb146105c9578063a9689e27146105dc578063c6354391146105f0578063c835273014610603578063d3d0385d14610616578063d43ce22b1461063d578063d96a094a14610664578063db006a7514610677578063dd62ed3e1461068a578063de3502bb1461069d578063dea0ff25146106b0578063deb189b5146106bc578063e8507314146106e3578063f0933389146106eb578063f2fde38b14610712578063f7392d5b146105ae578063fc3ac45514610725575b600080fd5b6102be7f000000000000000000000000000000000000000000000000000000000000000081565b6040516102cb9190612b5c565b60405180910390f35b6007545b6040519081526020016102cb565b6102d86102f4366004612b70565b610738565b6103016107df565b6040516102cb9190612bbe565b61032161031c366004612c08565b610871565b60405190151581526020016102cb565b6102d8620f424081565b6102d8610889565b6102be610351366004612c32565b610899565b6002546102d8565b6102d87f000000000000000000000000000000000000000000000000000000000000000081565b610321610393366004612c4b565b6108c3565b6103a06108e9565b005b6102d87f000000000000000000000000000000000000000000000000000000000000000081565b60125b60405160ff90911681526020016102cb565b6102d87f000000000000000000000000000000000000000000000000000000000000000081565b610321610413366004612c08565b610d9a565b6102d8600081565b6102d8600581565b6102d8670de0b6b3a764000081565b6102be7f000000000000000000000000000000000000000000000000000000000000000081565b6102be7f000000000000000000000000000000000000000000000000000000000000000081565b6102d8610dbc565b6102d87f000000000000000000000000000000000000000000000000000000000000000081565b6102d86104c2366004612c87565b610e4c565b6103a0610e67565b6102d8610ea2565b6102d87f000000000000000000000000000000000000000000000000000000000000000081565b6102d8600f81565b6102d8610ef1565b6102be610f60565b6006546102be906001600160a01b031681565b6102d87f000000000000000000000000000000000000000000000000000000000000000081565b610301610f6f565b6102be7f000000000000000000000000000000000000000000000000000000000000000081565b6102d87f000000000000000000000000000000000000000000000000000000000000000081565b6103cc600581565b6102d8601e81565b6103216105c4366004612c08565b610f7e565b6103216105d7366004612c08565b611004565b60055461032190600160a01b900460ff1681565b6103a06105fe366004612c87565b611012565b6103a0610611366004612c32565b611063565b6102be7f000000000000000000000000000000000000000000000000000000000000000081565b6102d87f000000000000000000000000000000000000000000000000000000000000000081565b6103a0610672366004612c32565b61120d565b6103a0610685366004612c32565b611402565b6102d8610698366004612ca2565b611671565b6102d86106ab366004612b70565b61169c565b6102d864e8d4a5100081565b6102be7f000000000000000000000000000000000000000000000000000000000000000081565b6103cc600a81565b6102be7f000000000000000000000000000000000000000000000000000000000000000081565b6103a0610720366004612c87565b6116da565b6102d8610733366004612c32565b61177a565b60008061074d670de0b6b3a764000085612ceb565b9050600061075b8486612ceb565b9050600061079a6002610794670de0b6b3a764000061077a8787612d03565b6107849190612ceb565b61078e8787612ceb565b906118b9565b9061193b565b905060006107d26107cb837f00000000000000000000000000000000000000000000000000000000000000006118b9565b6002611993565b9450505050505b92915050565b6060600380546107ee90612d1a565b80601f016020809104026020016040519081016040528092919081815260200182805461081a90612d1a565b80156108675780601f1061083c57610100808354040283529160200191610867565b820191906000526020600020905b81548152906001019060200180831161084a57829003601f168201915b5050505050905090565b60003361087f8185856119d2565b5060019392505050565b600061089430610e4c565b905090565b600781815481106108a957600080fd5b6000918252602090912001546001600160a01b0316905081565b6000336108d1858285611af6565b6108dc858585611b70565b60019150505b9392505050565b336108f2610f60565b6001600160a01b0316146109215760405162461bcd60e51b815260040161091890612d4e565b60405180910390fd5b600554600160a01b900460ff166109855760405162461bcd60e51b815260206004820152602260248201527f4552524f523a20436f6e7472616374206973206e6f7420696e6974696c697a65604482015261642160f01b6064820152608401610918565b600061098f610ef1565b9050600061099b610889565b90506109a78183611d32565b8015610d8d577f000000000000000000000000000000000000000000000000000000000000000015610ab4576001600160a01b037f00000000000000000000000000000000000000000000000000000000000000001663a9059cbb7f0000000000000000000000000000000000000000000000000000000000000000610a526064610794867f00000000000000000000000000000000000000000000000000000000000000006118b9565b6040518363ffffffff1660e01b8152600401610a6f929190612d83565b6020604051808303816000875af1158015610a8e573d6000803e3d6000fd5b505050506040513d601f19601f82011682018060405250810190610ab29190612d9c565b505b7f000000000000000000000000000000000000000000000000000000000000000015610bbb576001600160a01b037f00000000000000000000000000000000000000000000000000000000000000001663a9059cbb7f0000000000000000000000000000000000000000000000000000000000000000610b596064610794867f00000000000000000000000000000000000000000000000000000000000000006118b9565b6040518363ffffffff1660e01b8152600401610b76929190612d83565b6020604051808303816000875af1158015610b95573d6000803e3d6000fd5b505050506040513d601f19601f82011682018060405250810190610bb99190612d9c565b505b7f000000000000000000000000000000000000000000000000000000000000000015610cc2576001600160a01b037f00000000000000000000000000000000000000000000000000000000000000001663a9059cbb7f0000000000000000000000000000000000000000000000000000000000000000610c606064610794867f00000000000000000000000000000000000000000000000000000000000000006118b9565b6040518363ffffffff1660e01b8152600401610c7d929190612d83565b6020604051808303816000875af1158015610c9c573d6000803e3d6000fd5b505050506040513d601f19601f82011682018060405250810190610cc09190612d9c565b505b7f000000000000000000000000000000000000000000000000000000000000000015610d8d576000610cf2610889565b60065460405163a9059cbb60e01b81529192506001600160a01b037f000000000000000000000000000000000000000000000000000000000000000081169263a9059cbb92610d479216908590600401612d83565b6020604051808303816000875af1158015610d66573d6000803e3d6000fd5b505050506040513d601f19601f82011682018060405250810190610d8a9190612d9c565b50505b610d9682611f9e565b5050565b60003361087f818585610dad8383611671565b610db79190612ceb565b6119d2565b6040516370a0823160e01b81526000906001600160a01b037f000000000000000000000000000000000000000000000000000000000000000016906370a0823190610e0b903090600401612b5c565b602060405180830381865afa158015610e28573d6000803e3d6000fd5b505050506040513d601f19601f820116820180604052508101906108949190612dbe565b6001600160a01b031660009081526020819052604090205490565b33610e70610f60565b6001600160a01b031614610e965760405162461bcd60e51b815260040161091890612d4e565b610ea06000612291565b565b6040516370a0823160e01b81526000906001600160a01b037f000000000000000000000000000000000000000000000000000000000000000016906370a0823190610e0b903090600401612b5c565b600080805b60075463ffffffff82161015610f5a57610f3c60078263ffffffff1681548110610f2257610f22612dd7565b6000918252602090912001546001600160a01b0316610e4c565b610f469083612ceb565b915080610f5281612ded565b915050610ef6565b50919050565b6005546001600160a01b031690565b6060600480546107ee90612d1a565b60003381610f8c8286611671565b905083811015610fec5760405162461bcd60e51b815260206004820152602560248201527f45524332303a2064656372656173656420616c6c6f77616e63652062656c6f77604482015264207a65726f60d81b6064820152608401610918565b610ff982868684036119d2565b506001949350505050565b60003361087f818585611b70565b3361101b610f60565b6001600160a01b0316146110415760405162461bcd60e51b815260040161091890612d4e565b600680546001600160a01b0319166001600160a01b0392909216919091179055565b6040516370a0823160e01b815281906001600160a01b037f000000000000000000000000000000000000000000000000000000000000000016906370a08231906110b1903390600401612b5c565b602060405180830381865afa1580156110ce573d6000803e3d6000fd5b505050506040513d601f19601f820116820180604052508101906110f29190612dbe565b101561114e5760405162461bcd60e51b815260206004820152602560248201527f4552524f523a206e656564206d616e7920746f6b656e7320746f2070617920536044820152646e61636b7360d81b6064820152608401610918565b60006111598261177a565b90506111906001600160a01b037f0000000000000000000000000000000000000000000000000000000000000000163330856122e3565b6000606461119f600584612e10565b6111a99190612e45565b90506111b5308261234e565b6111c8336111c38385612d03565b61234e565b600080516020612fd483398151915233836111e260025490565b6111ec9190612d03565b848487604051611200959493929190612e67565b60405180910390a1505050565b600081116112695760405162461bcd60e51b815260206004820152602360248201527f4552524f523a20616d6f756e7420536e61636b7320746f20627579206973207a60448201526265726f60e81b6064820152608401610918565b600061127d61127760025490565b83610738565b9050807f00000000000000000000000000000000000000000000000000000000000000006001600160a01b03166370a08231336040518263ffffffff1660e01b81526004016112cc9190612b5c565b602060405180830381865afa1580156112e9573d6000803e3d6000fd5b505050506040513d601f19601f8201168201806040525081019061130d9190612dbe565b10156113695760405162461bcd60e51b815260206004820152602560248201527f4552524f523a206e656564206d616e79205a6f696e6b7320746f2070617920536044820152646e61636b7360d81b6064820152608401610918565b61139e6001600160a01b037f0000000000000000000000000000000000000000000000000000000000000000163330846122e3565b60006113b060646107948560056118b9565b90506113bc308261234e565b6113ca336111c38386612d03565b600080516020612fd483398151915233846113e460025490565b6113ee9190612d03565b858486604051611200959493929190612e67565b600081116114615760405162461bcd60e51b815260206004820152602660248201527f4552524f523a20616d6f756e7420536e61636b7320746f2072656465656d206960448201526573207a65726f60d01b6064820152608401610918565b8061146b33610e4c565b10156114c35760405162461bcd60e51b815260206004820152602160248201527f4552524f523a20616d6f756e74206578636565647320796f757220536e61636b6044820152607360f81b6064820152608401610918565b60006114d5606461079484600a6118b9565b90506114e13082611004565b5060006114fa6114f060025490565b6106ab8486612d03565b9050807f00000000000000000000000000000000000000000000000000000000000000006001600160a01b03166370a08231306040518263ffffffff1660e01b81526004016115499190612b5c565b602060405180830381865afa158015611566573d6000803e3d6000fd5b505050506040513d601f19601f8201168201806040525081019061158a9190612dbe565b10156115eb5760405162461bcd60e51b815260206004820152602a60248201527f4552524f523a206e6f74205a6f696e6b732066756e647320746f20627579206260448201526961636b20536e61636b7360b01b6064820152608401610918565b61161f6001600160a01b037f0000000000000000000000000000000000000000000000000000000000000000163383612423565b6116323361162d8486612d03565b612442565b7fe02f6383e19e87c24e0c03e2cd5dbd05156cb29a1b0f3dbca1fa3430e444f63d3361165d60025490565b858585604051611200959493929190612e67565b6001600160a01b03918216600090815260016020908152604080832093909416825291909152205490565b60008281670de0b6b3a76400006116b38584612d03565b6116bd9190612ceb565b9050600061079a60026107946116d38587612ceb565b88906118b9565b336116e3610f60565b6001600160a01b0316146117095760405162461bcd60e51b815260040161091890612d4e565b6001600160a01b03811661176e5760405162461bcd60e51b815260206004820152602660248201527f4f776e61626c653a206e6577206f776e657220697320746865207a65726f206160448201526564647265737360d01b6064820152608401610918565b61177781612291565b50565b600080620f424060025461178e9190612e45565b6117b8907f0000000000000000000000000000000000000000000000000000000000000000612ceb565b9050808310156118075760405162461bcd60e51b815260206004820152601a602482015279125b9cdd59999a58da595b9d081d1bdad95b9cc8185b5bdd5b9d60321b6044820152606401610918565b7f0000000000000000000000000000000000000000000000000000000000000000600081611836846002612e10565b6118409190612d03565b9050600061184f866002612e10565b905060008161185f856004612e10565b6118699190612e10565b611874600285612f79565b61187e9190612ceb565b9050600061188b82612585565b905060006118ac61189c8684612d03565b6118a7886002612e10565b6125ef565b9998505050505050505050565b6000826000036118cb575060006107d9565b60006118d78385612e10565b9050826118e48583612e45565b146108e25760405162461bcd60e51b815260206004820152602160248201527f536166654d6174683a206d756c7469706c69636174696f6e206f766572666c6f6044820152607760f81b6064820152608401610918565b60008082116119895760405162461bcd60e51b815260206004820152601a602482015279536166654d6174683a206469766973696f6e206279207a65726f60301b6044820152606401610918565b6108e28284612e45565b600082815b838110156119ca576119b66119af6012600a612f79565b839061193b565b9150806119c281612f88565b915050611998565b509392505050565b6001600160a01b038316611a345760405162461bcd60e51b8152602060048201526024808201527f45524332303a20617070726f76652066726f6d20746865207a65726f206164646044820152637265737360e01b6064820152608401610918565b6001600160a01b038216611a955760405162461bcd60e51b815260206004820152602260248201527f45524332303a20617070726f766520746f20746865207a65726f206164647265604482015261737360f01b6064820152608401610918565b6001600160a01b0383811660008181526001602090815260408083209487168084529482529182902085905590518481527f8c5be1e5ebec7d5bd14f71427d1e84f3dd0314c0f7b2291e5b200ac8c7c3b925910160405180910390a3505050565b6000611b028484611671565b90506000198114611b6a5781811015611b5d5760405162461bcd60e51b815260206004820152601d60248201527f45524332303a20696e73756666696369656e7420616c6c6f77616e63650000006044820152606401610918565b611b6a84848484036119d2565b50505050565b6001600160a01b038316611bd45760405162461bcd60e51b815260206004820152602560248201527f45524332303a207472616e736665722066726f6d20746865207a65726f206164604482015264647265737360d81b6064820152608401610918565b6001600160a01b038216611c365760405162461bcd60e51b815260206004820152602360248201527f45524332303a207472616e7366657220746f20746865207a65726f206164647260448201526265737360e81b6064820152608401610918565b6001600160a01b03831660009081526020819052604090205481811015611cae5760405162461bcd60e51b815260206004820152602660248201527f45524332303a207472616e7366657220616d6f756e7420657863656564732062604482015265616c616e636560d01b6064820152608401610918565b6001600160a01b03808516600090815260208190526040808220858503905591851681529081208054849290611ce5908490612ceb565b92505081905550826001600160a01b0316846001600160a01b0316600080516020612ff483398151915284604051611d1f91815260200190565b60405180910390a3611b6a848484612604565b8115610d965760006064611d667f000000000000000000000000000000000000000000000000000000000000000085612e10565b611d709190612e45565b90508115611e8d5760005b600754811015611e8b576000611d9d60078381548110610f2257610f22612dd7565b9050600081611dac8686612e45565b611db69190612e10565b90507f00000000000000000000000000000000000000000000000000000000000000006001600160a01b031663a9059cbb60078581548110611dfa57611dfa612dd7565b6000918252602090912001546040516001600160e01b031960e084901b168152611e32916001600160a01b0316908590600401612d83565b6020604051808303816000875af1158015611e51573d6000803e3d6000fd5b505050506040513d601f19601f82011682018060405250810190611e759190612d9c565b5050508080611e8390612f88565b915050611d7b565b505b7f000000000000000000000000000000000000000000000000000000000000000015611f99576001600160a01b037f00000000000000000000000000000000000000000000000000000000000000001663a9059cbb7f00000000000000000000000000000000000000000000000000000000000000006064611f2f7f000000000000000000000000000000000000000000000000000000000000000088612e10565b611f399190612e45565b6040518363ffffffff1660e01b8152600401611f56929190612d83565b6020604051808303816000875af1158015611f75573d6000803e3d6000fd5b505050506040513d601f19601f82011682018060405250810190611b6a9190612d9c565b505050565b6000611fa8610ea2565b9050600081118015611fba5750600082115b156121125760005b600754811015612110576000611fe460078381548110610f2257610f22612dd7565b9050600084611ff38386612e10565b611ffd9190612e45565b905060007f00000000000000000000000000000000000000000000000000000000000000006001600160a01b03166370a08231306040518263ffffffff1660e01b815260040161204d9190612b5c565b602060405180830381865afa15801561206a573d6000803e3d6000fd5b505050506040513d601f19601f8201168201806040525081019061208e9190612dbe565b90506000828210156120a057816120a2565b825b90506120f9600786815481106120ba576120ba612dd7565b6000918252602090912001546001600160a01b037f00000000000000000000000000000000000000000000000000000000000000008116911683612423565b50505050808061210890612f88565b915050611fc2565b505b600061211c610dbc565b905060008111801561212e5750600083115b801561213b575060075415155b15611f995760005b600754811015611b6a57600061216560078381548110610f2257610f22612dd7565b90506000856121748386612e10565b61217e9190612e45565b905060007f00000000000000000000000000000000000000000000000000000000000000006001600160a01b03166370a08231306040518263ffffffff1660e01b81526004016121ce9190612b5c565b602060405180830381865afa1580156121eb573d6000803e3d6000fd5b505050506040513d601f19601f8201168201806040525081019061220f9190612dbe565b90506000828210156122215781612223565b825b905061227a6007868154811061223b5761223b612dd7565b6000918252602090912001546001600160a01b037f00000000000000000000000000000000000000000000000000000000000000008116911683612423565b50505050808061228990612f88565b915050612143565b600580546001600160a01b038381166001600160a01b0319831681179093556040519116919082907f8be0079c531659141344cd1fd0a4f28419497f9722a3daafe3b4186f6b6457e090600090a35050565b6040516001600160a01b0380851660248301528316604482015260648101829052611b6a9085906323b872dd60e01b906084015b60408051601f198184030181529190526020810180516001600160e01b03166001600160e01b031990931692909217909152612662565b6001600160a01b0382166123a45760405162461bcd60e51b815260206004820152601f60248201527f45524332303a206d696e7420746f20746865207a65726f2061646472657373006044820152606401610918565b80600260008282546123b69190612ceb565b90915550506001600160a01b038216600090815260208190526040812080548392906123e3908490612ceb565b90915550506040518181526001600160a01b03831690600090600080516020612ff48339815191529060200160405180910390a3610d9660008383612604565b611f998363a9059cbb60e01b8484604051602401612317929190612d83565b6001600160a01b0382166124a25760405162461bcd60e51b815260206004820152602160248201527f45524332303a206275726e2066726f6d20746865207a65726f206164647265736044820152607360f81b6064820152608401610918565b6001600160a01b038216600090815260208190526040902054818110156125165760405162461bcd60e51b815260206004820152602260248201527f45524332303a206275726e20616d6f756e7420657863656564732062616c616e604482015261636560f01b6064820152608401610918565b6001600160a01b0383166000908152602081905260408120838303905560028054849290612545908490612d03565b90915550506040518281526000906001600160a01b03851690600080516020612ff48339815191529060200160405180910390a3611f9983600084612604565b600060038211156125e0575080600061259f600283612e45565b6125aa906001612ceb565b90505b81811015610f5a579050806002816125c58186612e45565b6125cf9190612ceb565b6125d99190612e45565b90506125ad565b81156125ea575060015b919050565b60006108e283670de0b6b3a764000084612734565b8015611f99576001600160a01b03831615801590612628575061262683610e4c565b155b156126365761263683612801565b6001600160a01b03821615801590612654575061265282612908565b155b15611f9957611f9982612970565b60006126b7826040518060400160405280602081526020017f5361666545524332303a206c6f772d6c6576656c2063616c6c206661696c6564815250856001600160a01b03166129e49092919063ffffffff16565b805190915015611f9957808060200190518101906126d59190612d9c565b611f995760405162461bcd60e51b815260206004820152602a60248201527f5361666545524332303a204552433230206f7065726174696f6e20646964206e6044820152691bdd081cdd58d8d9595960b21b6064820152608401610918565b600080806000198587098587029250828110838203039150508060000361276e5783828161276457612764612e2f565b04925050506108e2565b83811061279857604051631dcf306360e21b81526004810182905260248101859052604401610918565b60008486880960026001871981018816978890046003810283188082028403028082028403028082028403028082028403028082028403029081029092039091026000889003889004909101858311909403939093029303949094049190911702949350505050565b60005b600754811015610d9657816001600160a01b03166007828154811061282b5761282b612dd7565b6000918252602090912001546001600160a01b0316036128f6576007805461285590600190612d03565b8154811061286557612865612dd7565b600091825260209091200154600780546001600160a01b03909216918390811061289157612891612dd7565b9060005260206000200160006101000a8154816001600160a01b0302191690836001600160a01b0316021790555060078054806128d0576128d0612fa1565b600082815260209020810160001990810180546001600160a01b03191690550190555050565b8061290081612f88565b915050612804565b600080805b60075481101561296957836001600160a01b03166007828154811061293457612934612dd7565b6000918252602090912001546001600160a01b0316036129575760019150612969565b8061296181612f88565b91505061290d565b5092915050565b6001600160a01b03811660009081526008602052604081205460ff161515900361177757600780546001810182556000919091527fa66cc928b5edb82af9bd49922954155ab7b0942694bea4ce44661d9a8736c6880180546001600160a01b0383166001600160a01b031990911617905550565b60606129f384846000856129fb565b949350505050565b606082471015612a5c5760405162461bcd60e51b815260206004820152602660248201527f416464726573733a20696e73756666696369656e742062616c616e636520666f6044820152651c8818d85b1b60d21b6064820152608401610918565b843b612aaa5760405162461bcd60e51b815260206004820152601d60248201527f416464726573733a2063616c6c20746f206e6f6e2d636f6e74726163740000006044820152606401610918565b600080866001600160a01b03168587604051612ac69190612fb7565b60006040518083038185875af1925050503d8060008114612b03576040519150601f19603f3d011682016040523d82523d6000602084013e612b08565b606091505b5091509150612b18828286612b23565b979650505050505050565b60608315612b325750816108e2565b825115612b425782518084602001fd5b8160405162461bcd60e51b81526004016109189190612bbe565b6001600160a01b0391909116815260200190565b60008060408385031215612b8357600080fd5b50508035926020909101359150565b60005b83811015612bad578181015183820152602001612b95565b83811115611b6a5750506000910152565b6020815260008251806020840152612bdd816040850160208701612b92565b601f01601f19169190910160400192915050565b80356001600160a01b03811681146125ea57600080fd5b60008060408385031215612c1b57600080fd5b612c2483612bf1565b946020939093013593505050565b600060208284031215612c4457600080fd5b5035919050565b600080600060608486031215612c6057600080fd5b612c6984612bf1565b9250612c7760208501612bf1565b9150604084013590509250925092565b600060208284031215612c9957600080fd5b6108e282612bf1565b60008060408385031215612cb557600080fd5b612cbe83612bf1565b9150612ccc60208401612bf1565b90509250929050565b634e487b7160e01b600052601160045260246000fd5b60008219821115612cfe57612cfe612cd5565b500190565b600082821015612d1557612d15612cd5565b500390565b600181811c90821680612d2e57607f821691505b602082108103610f5a57634e487b7160e01b600052602260045260246000fd5b6020808252818101527f4f776e61626c653a2063616c6c6572206973206e6f7420746865206f776e6572604082015260600190565b6001600160a01b03929092168252602082015260400190565b600060208284031215612dae57600080fd5b815180151581146108e257600080fd5b600060208284031215612dd057600080fd5b5051919050565b634e487b7160e01b600052603260045260246000fd5b600063ffffffff808316818103612e0657612e06612cd5565b6001019392505050565b6000816000190483118215151615612e2a57612e2a612cd5565b500290565b634e487b7160e01b600052601260045260246000fd5b600082612e6257634e487b7160e01b600052601260045260246000fd5b500490565b6001600160a01b03959095168552602085019390935260408401919091526060830152608082015260a00190565b600181815b80851115612ed0578160001904821115612eb657612eb6612cd5565b80851615612ec357918102915b93841c9390800290612e9a565b509250929050565b600082612ee7575060016107d9565b81612ef4575060006107d9565b8160018114612f0a5760028114612f1457612f30565b60019150506107d9565b60ff841115612f2557612f25612cd5565b50506001821b6107d9565b5060208310610133831016604e8410600b8410161715612f53575081810a6107d9565b612f5d8383612e95565b8060001904821115612f7157612f71612cd5565b029392505050565b60006108e260ff841683612ed8565b600060018201612f9a57612f9a612cd5565b5060010190565b634e487b7160e01b600052603160045260246000fd5b60008251612fc9818460208701612b92565b919091019291505056fe064fb1933e186be0b289a87e98518dc18cc9856ecbc9f1353d1a138ddf733ec5ddf252ad1be2c89b69c2b068fc378daa952ba7f163c4a11628f55a4df523b3efa26469706673582212202f9177d5d087d3461407aa73620c8b82bce24e078e04f96c851b9f7749f8fe9564736f6c634300080f0033",
  "immutableReferences": {
    "18365": [
      {
        "length": 32,
        "start": 668
      },
      {
        "length": 32,
        "start": 3772
      },
      {
        "length": 32,
        "start": 8195
      },
      {
        "length": 32,
        "start": 8400
      }
    ],
    "18368": [
      {
        "length": 32,
        "start": 1084
      },
      {
        "length": 32,
        "start": 3542
      },
      {
        "length": 32,
        "start": 8580
      },
      {
        "length": 32,
        "start": 8785
      }
    ],
    "18370": [
      {
        "length": 32,
        "start": 1563
      },
      {
        "length": 32,
        "start": 7908
      }
    ],
    "22138": [
      {
        "length": 32,
        "start": 1373
      },
      {
        "length": 32,
        "start": 4220
      },
      {
        "length": 32,
        "start": 4456
      },
      {
        "length": 32,
        "start": 4738
      },
      {
        "length": 32,
        "start": 4982
      },
      {
        "length": 32,
        "start": 5375
      },
      {
        "length": 32,
        "start": 5624
      }
    ],
    "22140": [
      {
        "length": 32,
        "start": 1729
      },
      {
        "length": 32,
        "start": 2564
      }
    ],
    "22142": [
      {
        "length": 32,
        "start": 1123
      },
      {
        "length": 32,
        "start": 2827
      }
    ],
    "22144": [
      {
        "length": 32,
        "start": 1776
      },
      {
        "length": 32,
        "start": 3090
      }
    ],
    "22147": [
      {
        "length": 32,
        "start": 2525
      },
      {
        "length": 32,
        "start": 2788
      },
      {
        "length": 32,
        "start": 3051
      },
      {
        "length": 32,
        "start": 3343
      },
      {
        "length": 32,
        "start": 7610
      },
      {
        "length": 32,
        "start": 7869
      }
    ],
    "22149": [
      {
        "length": 32,
        "start": 867
      },
      {
        "length": 32,
        "start": 1959
      },
      {
        "length": 32,
        "start": 6036
      },
      {
        "length": 32,
        "start": 6153
      }
    ],
    "22153": [
      {
        "length": 32,
        "start": 1170
      },
      {
        "length": 32,
        "start": 2479
      },
      {
        "length": 32,
        "start": 2606
      }
    ],
    "22155": [
      {
        "length": 32,
        "start": 935
      },
      {
        "length": 32,
        "start": 2742
      },
      {
        "length": 32,
        "start": 2869
      }
    ],
    "22157": [
      {
        "length": 32,
        "start": 1326
      },
      {
        "length": 32,
        "start": 3005
      },
      {
        "length": 32,
        "start": 3132
      }
    ],
    "22159": [
      {
        "length": 32,
        "start": 1602
      }
    ],
    "22161": [
      {
        "length": 32,
        "start": 995
      },
      {
        "length": 32,
        "start": 7489
      }
    ],
    "22163": [
      {
        "length": 32,
        "start": 1244
      },
      {
        "length": 32,
        "start": 7823
      },
      {
        "length": 32,
        "start": 7946
      }
    ],
    "22165": [
      {
        "length": 32,
        "start": 1412
      },
      {
        "length": 32,
        "start": 3268
      }
    ]
  },
  "source": "/************************************************************\r\n *\r\n * Autor: Zoinks\r\n *\r\n * 446576656c6f7065723a20416e746f6e20506f6c656e79616b61 ****/\r\n\r\n// SPDX-License-Identifier: UNLICENSED\r\npragma solidity 0.8.15;\r\n\r\nimport \"./abstract/SnacksBase.sol\";\r\n\r\ncontract Snacks is SnacksBase {\r\n    // ================= Library using =================================================================\r\n    using SafeERC20 for IERC20;\r\n    using PRBMathUD60x18 for uint256;\r\n    // ================= Constants =====================================================================\r\n\r\n    uint256 public constant SNACKS_MULTIPLIER = 0.000001 * 10**18; // 18 - decimals(\r\n    uint256 public constant FEE_PULSE = 30;\r\n    uint256 public constant D = 1000000;\r\n    uint256 public constant FEE_MASTERCHEF = 30;\r\n    uint256 public constant FEE_SNACKS_STAKING = 15;\r\n    uint256 public constant FEE_BTCETH_SNACK_HOLDERS = 0;\r\n    uint256 public constant FEE_SNACK_HOLDERS = 15;\r\n    uint256 public constant FEE_ZOINKS_STAKING = 5;\r\n    uint256 public constant FEE_SENIORAGE = 5;\r\n\r\n    // ================= Attributies/Properties ========================================================\r\n\r\n    IERC20 public immutable btcSnacks; // BtcSnacks contract address\r\n    IERC20 public immutable ethSnacks; // EthSnacks contract address\r\n    address public immutable zoinksStakingPool; // Zoinks Staking Pool contract address (Zoinks Staking)\r\n\r\n    // ================= Constructors ===================================================================\r\n\r\n    constructor(\r\n        IERC20 zoinks_, // The ZOINKS TOKEN!\r\n        address pulse_,\r\n        address masterChef_,\r\n        address zoinksStakingPool_,\r\n        address snacksStakingPool_,\r\n        IERC20 btcSnacks_,\r\n        IERC20 ethSnacks_,\r\n        address seniorageAddress_\r\n    )\r\n        SnacksBase(\r\n            zoinks_,\r\n            pulse_,\r\n            masterChef_,\r\n            snacksStakingPool_,\r\n            \"SNACKS\",\r\n            \"SNACKS\",\r\n            SNACKS_MULTIPLIER,\r\n            seniorageAddress_,\r\n            FEE_PULSE,\r\n            FEE_MASTERCHEF,\r\n            FEE_SNACKS_STAKING,\r\n            FEE_BTCETH_SNACK_HOLDERS,\r\n            FEE_SNACK_HOLDERS,\r\n            FEE_ZOINKS_STAKING,\r\n            FEE_SENIORAGE\r\n        )\r\n    {\r\n        btcSnacks = btcSnacks_;\r\n        ethSnacks = ethSnacks_;\r\n        zoinksStakingPool = zoinksStakingPool_;\r\n\r\n        _blockedHolders[address(btcSnacks)] = true;\r\n        _blockedHolders[address(ethSnacks)] = true;\r\n        _blockedHolders[zoinksStakingPool] = true;\r\n\r\n        isInitilized = true;\r\n    }\r\n\r\n    // ================= Methods: Publics/External ======================================================\r\n\r\n    // Description:\r\n    //  Calculate pending undistributed fee in BtcSnacks.\r\n    function undistributedFeeBTCSnacks() public view returns (uint256) {\r\n        return btcSnacks.balanceOf(address(this));\r\n    }\r\n\r\n    // Description:\r\n    //  Calculate pending undistributed fee in EthSnacks.\r\n    function undistributedFeeETHSnacks() public view returns (uint256) {\r\n        return ethSnacks.balanceOf(address(this));\r\n    }\r\n\r\n    function _beforeDistributeFee(\r\n        uint256 feeSnacks_,\r\n        uint256 totalHoldersBalance_\r\n    ) internal override {\r\n        if (feeSnacks_ > 0) {\r\n            // % Snacks holders\r\n            uint256 feeToHolders = (feeSnacks_ * feeSnacksHolders) / 100;\r\n            // Calculate and give fee of snacks to every holder\r\n            // Check if we have any holder with balance, if is not correct, we save this fee to next lap\r\n            if (totalHoldersBalance_ > 0) {\r\n                for (uint256 i = 0; i < holderList.length; i++) {\r\n                    uint256 holderBalance = balanceOf(holderList[i]);\r\n                    uint256 holderFee = (feeToHolders / totalHoldersBalance_) *\r\n                        holderBalance;\r\n                    _selfTokenSnacks.transfer(holderList[i], holderFee);\r\n                }\r\n            }\r\n            // % Zoinks staking pool\r\n            if (feeZoinksStakingPool > 0) {\r\n                _selfTokenSnacks.transfer(\r\n                    zoinksStakingPool,\r\n                    (feeSnacks_ * feeZoinksStakingPool) / 100\r\n                );\r\n            }\r\n        }\r\n    }\r\n\r\n    function _afterDistributeFee(uint256 totalHoldersBalance_)\r\n        internal\r\n        override\r\n    {\r\n        // STEP 2: Distribute fee of BTCSnacks\r\n        uint256 feeBtcSnacks = undistributedFeeBTCSnacks();\r\n        if (feeBtcSnacks > 0 && totalHoldersBalance_ > 0) {\r\n            // Calculate and give fee of btc snacks to every holder\r\n            for (uint256 i = 0; i < holderList.length; i++) {\r\n                uint256 holderBalance = balanceOf(holderList[i]);\r\n                uint256 holderFee = (feeBtcSnacks * holderBalance) /\r\n                    totalHoldersBalance_;\r\n                uint256 btcBalance = btcSnacks.balanceOf(address(this));\r\n                uint256 amount = (btcBalance >= holderFee)\r\n                    ? holderFee\r\n                    : btcBalance;\r\n                btcSnacks.safeTransfer(holderList[i], amount);\r\n            }\r\n        }\r\n        // STEP 3: Distribute fee of ETHSnacks\r\n        uint256 feeEthSnacks = undistributedFeeETHSnacks();\r\n        if (\r\n            feeEthSnacks > 0 &&\r\n            totalHoldersBalance_ > 0 &&\r\n            holderList.length > 0\r\n        ) {\r\n            // Calculate and give fee of btc snacks to every holder\r\n            for (uint256 i = 0; i < holderList.length; i++) {\r\n                uint256 holderBalance = balanceOf(holderList[i]);\r\n                uint256 holderFee = (feeEthSnacks * holderBalance) /\r\n                    totalHoldersBalance_;\r\n                uint256 ethBalance = ethSnacks.balanceOf(address(this));\r\n                uint256 amount = (ethBalance >= holderFee)\r\n                    ? holderFee\r\n                    : ethBalance;\r\n                ethSnacks.safeTransfer(holderList[i], amount);\r\n            }\r\n        }\r\n    }\r\n\r\n    function _D() internal pure override returns (uint256) {\r\n        return D;\r\n    }\r\n}\r\n",
  "sourcePath": "C:\\GitHub\\zoinks\\contracts\\Development\\src\\contracts\\Snacks.sol",
  "compiler": {
    "name": "solc",
    "version": "0.8.15+commit.e14f2714.Emscripten.clang"
  },
  "schemaVersion": "3.4.8",
  "updatedAt": "2022-08-08T18:33:02.875Z",
  "devdoc": {
    "kind": "dev",
    "methods": {
      "allowance(address,address)": {
        "details": "See {IERC20-allowance}."
      },
      "approve(address,uint256)": {
        "details": "See {IERC20-approve}. NOTE: If `amount` is the maximum `uint256`, the allowance is not updated on `transferFrom`. This is semantically equivalent to an infinite approval. Requirements: - `spender` cannot be the zero address."
      },
      "balanceOf(address)": {
        "details": "See {IERC20-balanceOf}."
      },
      "calculateBuyTotal(uint256)": {
        "details": "Stepan",
        "params": {
          "payTokenAmount_": "How many tokens we wont to pay to get Snacks/BTCSnacks/ETHSnacks"
        },
        "returns": {
          "_0": "How many Snacks/BTCSnacks/ETHSnacks can you buy with Zoinks/BTC/ETH"
        }
      },
      "decimals()": {
        "details": "Returns the number of decimals used to get its user representation. For example, if `decimals` equals `2`, a balance of `505` tokens should be displayed to a user as `5.05` (`505 / 10 ** 2`). Tokens usually opt for a value of 18, imitating the relationship between Ether and Wei. This is the value {ERC20} uses, unless this function is overridden; NOTE: This information is only used for _display_ purposes: it in no way affects any of the arithmetic of the contract, including {IERC20-balanceOf} and {IERC20-transfer}."
      },
      "decreaseAllowance(address,uint256)": {
        "details": "Atomically decreases the allowance granted to `spender` by the caller. This is an alternative to {approve} that can be used as a mitigation for problems described in {IERC20-approve}. Emits an {Approval} event indicating the updated allowance. Requirements: - `spender` cannot be the zero address. - `spender` must have allowance for the caller of at least `subtractedValue`."
      },
      "increaseAllowance(address,uint256)": {
        "details": "Atomically increases the allowance granted to `spender` by the caller. This is an alternative to {approve} that can be used as a mitigation for problems described in {IERC20-approve}. Emits an {Approval} event indicating the updated allowance. Requirements: - `spender` cannot be the zero address."
      },
      "name()": {
        "details": "Returns the name of the token."
      },
      "owner()": {
        "details": "Returns the address of the current owner."
      },
      "renounceOwnership()": {
        "details": "Leaves the contract without owner. It will not be possible to call `onlyOwner` functions anymore. Can only be called by the current owner. NOTE: Renouncing ownership will leave the contract without an owner, thereby removing any functionality that is only available to the owner."
      },
      "symbol()": {
        "details": "Returns the symbol of the token, usually a shorter version of the name."
      },
      "totalSupply()": {
        "details": "See {IERC20-totalSupply}."
      },
      "transfer(address,uint256)": {
        "details": "See {IERC20-transfer}. Requirements: - `to` cannot be the zero address. - the caller must have a balance of at least `amount`."
      },
      "transferFrom(address,address,uint256)": {
        "details": "See {IERC20-transferFrom}. Emits an {Approval} event indicating the updated allowance. This is not required by the EIP. See the note at the beginning of {ERC20}. NOTE: Does not update the allowance if the current allowance is the maximum `uint256`. Requirements: - `from` and `to` cannot be the zero address. - `from` must have a balance of at least `amount`. - the caller must have allowance for ``from``'s tokens of at least `amount`."
      },
      "transferOwnership(address)": {
        "details": "Transfers ownership of the contract to a new account (`newOwner`). Can only be called by the current owner."
      }
    },
    "version": 1
  },
  "userdoc": {
    "errors": {
      "PRBMath__MulDivOverflow(uint256,uint256)": [
        {
          "notice": "Emitted when the result overflows uint256."
        }
      ]
    },
    "kind": "user",
    "methods": {
      "calculateBuyTotal(uint256)": {
        "notice": "Calculate how many Snacks/ETHSnacks/BTCSnacks we can buy with this amount"
      }
    },
    "version": 1
  }
}