{
  "contractName": "ZoinksStakingPool",
  "abi": [
    {
      "inputs": [
        {
          "internalType": "address",
          "name": "_seniorage",
          "type": "address"
        }
      ],
      "stateMutability": "nonpayable",
      "type": "constructor"
    },
    {
      "anonymous": false,
      "inputs": [
        {
          "indexed": false,
          "internalType": "address",
          "name": "tokenRecovered",
          "type": "address"
        },
        {
          "indexed": false,
          "internalType": "uint256",
          "name": "amount",
          "type": "uint256"
        }
      ],
      "name": "AdminTokenRecovery",
      "type": "event"
    },
    {
      "anonymous": false,
      "inputs": [
        {
          "indexed": true,
          "internalType": "address",
          "name": "user",
          "type": "address"
        },
        {
          "indexed": false,
          "internalType": "uint256",
          "name": "amount",
          "type": "uint256"
        }
      ],
      "name": "Deposit",
      "type": "event"
    },
    {
      "anonymous": false,
      "inputs": [
        {
          "indexed": true,
          "internalType": "address",
          "name": "user",
          "type": "address"
        },
        {
          "indexed": false,
          "internalType": "uint256",
          "name": "amount",
          "type": "uint256"
        }
      ],
      "name": "EmergencyWithdraw",
      "type": "event"
    },
    {
      "anonymous": false,
      "inputs": [
        {
          "indexed": false,
          "internalType": "uint256",
          "name": "poolLimitPerUser",
          "type": "uint256"
        }
      ],
      "name": "NewPoolLimit",
      "type": "event"
    },
    {
      "anonymous": false,
      "inputs": [
        {
          "indexed": false,
          "internalType": "uint256",
          "name": "rewardPerBlock",
          "type": "uint256"
        }
      ],
      "name": "NewRewardPerBlock",
      "type": "event"
    },
    {
      "anonymous": false,
      "inputs": [
        {
          "indexed": false,
          "internalType": "uint256",
          "name": "startBlock",
          "type": "uint256"
        },
        {
          "indexed": false,
          "internalType": "uint256",
          "name": "endBlock",
          "type": "uint256"
        }
      ],
      "name": "NewStartAndEndBlocks",
      "type": "event"
    },
    {
      "anonymous": false,
      "inputs": [
        {
          "indexed": true,
          "internalType": "address",
          "name": "previousOwner",
          "type": "address"
        },
        {
          "indexed": true,
          "internalType": "address",
          "name": "newOwner",
          "type": "address"
        }
      ],
      "name": "OwnershipTransferred",
      "type": "event"
    },
    {
      "anonymous": false,
      "inputs": [
        {
          "indexed": true,
          "internalType": "address",
          "name": "user",
          "type": "address"
        },
        {
          "indexed": false,
          "internalType": "uint256",
          "name": "zoinksReward",
          "type": "uint256"
        },
        {
          "indexed": false,
          "internalType": "uint256",
          "name": "snacksReward",
          "type": "uint256"
        }
      ],
      "name": "RewardTransfer",
      "type": "event"
    },
    {
      "anonymous": false,
      "inputs": [
        {
          "indexed": false,
          "internalType": "uint256",
          "name": "blockNumber",
          "type": "uint256"
        }
      ],
      "name": "RewardsStop",
      "type": "event"
    },
    {
      "inputs": [],
      "name": "PRECISION_FACTOR",
      "outputs": [
        {
          "internalType": "uint256",
          "name": "",
          "type": "uint256"
        }
      ],
      "stateMutability": "view",
      "type": "function"
    },
    {
      "inputs": [],
      "name": "SMART_CHEF_FACTORY",
      "outputs": [
        {
          "internalType": "address",
          "name": "",
          "type": "address"
        }
      ],
      "stateMutability": "view",
      "type": "function"
    },
    {
      "inputs": [],
      "name": "accTokenPerShare",
      "outputs": [
        {
          "internalType": "uint256",
          "name": "",
          "type": "uint256"
        }
      ],
      "stateMutability": "view",
      "type": "function"
    },
    {
      "inputs": [],
      "name": "bonusEndBlock",
      "outputs": [
        {
          "internalType": "uint256",
          "name": "",
          "type": "uint256"
        }
      ],
      "stateMutability": "view",
      "type": "function"
    },
    {
      "inputs": [],
      "name": "hasUserLimit",
      "outputs": [
        {
          "internalType": "bool",
          "name": "",
          "type": "bool"
        }
      ],
      "stateMutability": "view",
      "type": "function"
    },
    {
      "inputs": [],
      "name": "isInitialized",
      "outputs": [
        {
          "internalType": "bool",
          "name": "",
          "type": "bool"
        }
      ],
      "stateMutability": "view",
      "type": "function"
    },
    {
      "inputs": [],
      "name": "lastRewardBlock",
      "outputs": [
        {
          "internalType": "uint256",
          "name": "",
          "type": "uint256"
        }
      ],
      "stateMutability": "view",
      "type": "function"
    },
    {
      "inputs": [],
      "name": "owner",
      "outputs": [
        {
          "internalType": "address",
          "name": "",
          "type": "address"
        }
      ],
      "stateMutability": "view",
      "type": "function"
    },
    {
      "inputs": [],
      "name": "poolLimitPerUser",
      "outputs": [
        {
          "internalType": "uint256",
          "name": "",
          "type": "uint256"
        }
      ],
      "stateMutability": "view",
      "type": "function"
    },
    {
      "inputs": [],
      "name": "renounceOwnership",
      "outputs": [],
      "stateMutability": "nonpayable",
      "type": "function"
    },
    {
      "inputs": [],
      "name": "rewardPerBlock",
      "outputs": [
        {
          "internalType": "uint256",
          "name": "",
          "type": "uint256"
        }
      ],
      "stateMutability": "view",
      "type": "function"
    },
    {
      "inputs": [],
      "name": "rewardSnacksToken",
      "outputs": [
        {
          "internalType": "contract IERC20",
          "name": "",
          "type": "address"
        }
      ],
      "stateMutability": "view",
      "type": "function"
    },
    {
      "inputs": [],
      "name": "rewardToken",
      "outputs": [
        {
          "internalType": "contract IERC20",
          "name": "",
          "type": "address"
        }
      ],
      "stateMutability": "view",
      "type": "function"
    },
    {
      "inputs": [],
      "name": "seniorageAddress",
      "outputs": [
        {
          "internalType": "address",
          "name": "",
          "type": "address"
        }
      ],
      "stateMutability": "view",
      "type": "function"
    },
    {
      "inputs": [],
      "name": "stakedToken",
      "outputs": [
        {
          "internalType": "contract IERC20",
          "name": "",
          "type": "address"
        }
      ],
      "stateMutability": "view",
      "type": "function"
    },
    {
      "inputs": [],
      "name": "startBlock",
      "outputs": [
        {
          "internalType": "uint256",
          "name": "",
          "type": "uint256"
        }
      ],
      "stateMutability": "view",
      "type": "function"
    },
    {
      "inputs": [],
      "name": "totalRewardDebtSnacks",
      "outputs": [
        {
          "internalType": "uint256",
          "name": "",
          "type": "uint256"
        }
      ],
      "stateMutability": "view",
      "type": "function"
    },
    {
      "inputs": [],
      "name": "totalRewardDebtZoinks",
      "outputs": [
        {
          "internalType": "uint256",
          "name": "",
          "type": "uint256"
        }
      ],
      "stateMutability": "view",
      "type": "function"
    },
    {
      "inputs": [],
      "name": "totalStakedZoinks",
      "outputs": [
        {
          "internalType": "uint256",
          "name": "",
          "type": "uint256"
        }
      ],
      "stateMutability": "view",
      "type": "function"
    },
    {
      "inputs": [
        {
          "internalType": "address",
          "name": "newOwner",
          "type": "address"
        }
      ],
      "name": "transferOwnership",
      "outputs": [],
      "stateMutability": "nonpayable",
      "type": "function"
    },
    {
      "inputs": [
        {
          "internalType": "uint256",
          "name": "",
          "type": "uint256"
        }
      ],
      "name": "userAddressList",
      "outputs": [
        {
          "internalType": "address",
          "name": "",
          "type": "address"
        }
      ],
      "stateMutability": "view",
      "type": "function"
    },
    {
      "inputs": [
        {
          "internalType": "address",
          "name": "",
          "type": "address"
        }
      ],
      "name": "userInfo",
      "outputs": [
        {
          "internalType": "uint256",
          "name": "amount",
          "type": "uint256"
        },
        {
          "internalType": "uint256",
          "name": "rewardDebt",
          "type": "uint256"
        },
        {
          "internalType": "uint256",
          "name": "rewardDebtSnacks",
          "type": "uint256"
        },
        {
          "internalType": "uint256",
          "name": "lastDepositDate",
          "type": "uint256"
        }
      ],
      "stateMutability": "view",
      "type": "function"
    },
    {
      "inputs": [
        {
          "internalType": "contract IERC20",
          "name": "_stakedToken",
          "type": "address"
        },
        {
          "internalType": "contract IERC20",
          "name": "_rewardToken",
          "type": "address"
        },
        {
          "internalType": "contract IERC20",
          "name": "_rewardSnacksToken",
          "type": "address"
        },
        {
          "internalType": "uint256",
          "name": "_poolLimitPerUser",
          "type": "uint256"
        },
        {
          "internalType": "address",
          "name": "_admin",
          "type": "address"
        }
      ],
      "name": "initialize",
      "outputs": [],
      "stateMutability": "nonpayable",
      "type": "function"
    },
    {
      "inputs": [
        {
          "internalType": "uint256",
          "name": "_amount",
          "type": "uint256"
        }
      ],
      "name": "deposit",
      "outputs": [],
      "stateMutability": "nonpayable",
      "type": "function"
    },
    {
      "inputs": [],
      "name": "withdraw",
      "outputs": [],
      "stateMutability": "nonpayable",
      "type": "function"
    },
    {
      "inputs": [],
      "name": "emergencyWithdraw",
      "outputs": [],
      "stateMutability": "nonpayable",
      "type": "function"
    },
    {
      "inputs": [],
      "name": "emergencyRewardWithdraw",
      "outputs": [],
      "stateMutability": "nonpayable",
      "type": "function"
    },
    {
      "inputs": [
        {
          "internalType": "address",
          "name": "_tokenAddress",
          "type": "address"
        },
        {
          "internalType": "uint256",
          "name": "_tokenAmount",
          "type": "uint256"
        }
      ],
      "name": "recoverWrongTokens",
      "outputs": [],
      "stateMutability": "nonpayable",
      "type": "function"
    },
    {
      "inputs": [],
      "name": "stopReward",
      "outputs": [],
      "stateMutability": "nonpayable",
      "type": "function"
    },
    {
      "inputs": [
        {
          "internalType": "bool",
          "name": "_hasUserLimit",
          "type": "bool"
        },
        {
          "internalType": "uint256",
          "name": "_poolLimitPerUser",
          "type": "uint256"
        }
      ],
      "name": "updatePoolLimitPerUser",
      "outputs": [],
      "stateMutability": "nonpayable",
      "type": "function"
    },
    {
      "inputs": [
        {
          "internalType": "uint256",
          "name": "_rewardPerBlock",
          "type": "uint256"
        }
      ],
      "name": "updateRewardPerBlock",
      "outputs": [],
      "stateMutability": "nonpayable",
      "type": "function"
    },
    {
      "inputs": [
        {
          "internalType": "uint256",
          "name": "_startBlock",
          "type": "uint256"
        },
        {
          "internalType": "uint256",
          "name": "_bonusEndBlock",
          "type": "uint256"
        }
      ],
      "name": "updateStartAndEndBlocks",
      "outputs": [],
      "stateMutability": "nonpayable",
      "type": "function"
    },
    {
      "inputs": [
        {
          "internalType": "address",
          "name": "_user",
          "type": "address"
        }
      ],
      "name": "pendingReward",
      "outputs": [
        {
          "internalType": "uint256",
          "name": "",
          "type": "uint256"
        }
      ],
      "stateMutability": "view",
      "type": "function"
    },
    {
      "inputs": [],
      "name": "updatePool",
      "outputs": [],
      "stateMutability": "nonpayable",
      "type": "function"
    },
    {
      "inputs": [
        {
          "internalType": "address",
          "name": "seniorage",
          "type": "address"
        }
      ],
      "name": "setSeniorage",
      "outputs": [],
      "stateMutability": "nonpayable",
      "type": "function"
    }
  ],
  "bytecode": "0x60806040526305f5e0ff600455600019600e5534801561001e57600080fd5b5060405162001ccf38038062001ccf83398101604081905261003f916100c1565b61004833610071565b60018055600d80546001600160a01b0319166001600160a01b03929092169190911790556100f1565b600080546001600160a01b038381166001600160a01b0319831681178455604051919092169283917f8be0079c531659141344cd1fd0a4f28419497f9722a3daafe3b4186f6b6457e09190a35050565b6000602082840312156100d357600080fd5b81516001600160a01b03811681146100ea57600080fd5b9392505050565b611bce80620001016000396000f3fe608060405234801561001057600080fd5b50600436106101a15760003560e01c806301f8a976146101a657806304be34c5146101bb57806307f3d55f146101d75780631959a002146101e05780631aed655314610235578063392e53cd1461023e5780633ccfd60b146102625780633f138d4b1461026a57806348cd4cb11461027d578063530b97a4146102865780635db656951461029957806366fe9f8a146102a2578063715018a6146102ab57806380dc0672146102b35780638ae39cac146102bb5780638b8f65aa146102c45780638da5cb5b146102e45780638ea8caba146102ec5780638f662915146102ff57806392e8990e146103085780639513997f1461031c578063a0b409051461032f578063a64699a314610342578063a9f8d18114610355578063b6b55f251461035e578063bd61719114610371578063c635439114610384578063cc7a262e14610397578063ccd34cd5146103aa578063d437c6be146103b3578063db2e21bc146103bb578063e3161ddd146103c3578063f2fde38b146103cb578063f40f0f52146103de578063f7c618c11461040a575b600080fd5b6101b96101b4366004611879565b61041d565b005b6101c4600f5481565b6040519081526020015b60405180910390f35b6101c460105481565b6102156101ee3660046118a7565b60126020526000908152604090208054600182015460028301546003909301549192909184565b6040805194855260208501939093529183015260608201526080016101ce565b6101c460045481565b60025461025290600160a81b900460ff1681565b60405190151581526020016101ce565b6101b96104b1565b6101b96102783660046118c4565b6104bb565b6101c460055481565b6101b96102943660046118f0565b6105e9565b6101c460115481565b6101c460075481565b6101b96107ca565b6101b9610803565b6101c460085481565b600b546102d7906001600160a01b031681565b6040516101ce9190611958565b6102d7610838565b600d546102d7906001600160a01b031681565b6101c460035481565b60025461025290600160a01b900460ff1681565b6101b961032a36600461196c565b610847565b6101b961033d36600461199c565b6109aa565b6102d7610350366004611879565b610acc565b6101c460065481565b6101b961036c366004611879565b610af6565b6002546102d7906001600160a01b031681565b6101b96103923660046118a7565b610bc5565b600c546102d7906001600160a01b031681565b6101c460095481565b6101b9610c16565b6101b9610c45565b6101b9610dbc565b6101b96103d93660046118a7565b6110e4565b6101c46103ec3660046118a7565b6001600160a01b031660009081526012602052604090206001015490565b600a546102d7906001600160a01b031681565b33610426610838565b6001600160a01b0316146104555760405162461bcd60e51b815260040161044c906119ba565b60405180910390fd5b60055443106104765760405162461bcd60e51b815260040161044c906119ef565b60088190556040518181527f0c4d677eef92893ac7ec52faf8140fc6c851ab4736302b4f3a89dfb20696a0df9060200160405180910390a150565b6104b9611184565b565b336104c4610838565b6001600160a01b0316146104ea5760405162461bcd60e51b815260040161044c906119ba565b600c546001600160a01b03908116908316036105415760405162461bcd60e51b815260206004820152601660248201527521b0b73737ba1031329039ba30b5b2b2103a37b5b2b760511b604482015260640161044c565b600a546001600160a01b03908116908316036105985760405162461bcd60e51b815260206004820152601660248201527521b0b73737ba103132903932bbb0b932103a37b5b2b760511b604482015260640161044c565b6105ac6001600160a01b03831633836112fd565b7f74545154aac348a3eac92596bd1971957ca94795f4e954ec5f613b55fab7812982826040516105dd929190611a19565b60405180910390a15050565b336105f2610838565b6001600160a01b0316146106185760405162461bcd60e51b815260040161044c906119ba565b600254600160a81b900460ff16156106685760405162461bcd60e51b8152602060048201526013602482015272105b1c9958591e481a5b9a5d1a585b1a5e9959606a1b604482015260640161044c565b6002805460ff60a81b1916600160a81b179055600c80546001600160a01b038088166001600160a01b031992831617909255600a80548784169083168117909155600b805493871693909216929092179055600e5460405163095ea7b360e01b815263095ea7b3916106df91309190600401611a19565b6020604051808303816000875af11580156106fe573d6000803e3d6000fd5b505050506040513d601f19601f820116820180604052508101906107229190611a32565b50600b54600e5460405163095ea7b360e01b81526001600160a01b039092169163095ea7b39161075791309190600401611a19565b6020604051808303816000875af1158015610776573d6000803e3d6000fd5b505050506040513d601f19601f8201168201806040525081019061079a9190611a32565b5081156107ba576002805460ff60a01b1916600160a01b17905560078290555b6107c3816110e4565b5050505050565b336107d3610838565b6001600160a01b0316146107f95760405162461bcd60e51b815260040161044c906119ba565b6104b96000611358565b3361080c610838565b6001600160a01b0316146108325760405162461bcd60e51b815260040161044c906119ba565b43600455565b6000546001600160a01b031690565b33610850610838565b6001600160a01b0316146108765760405162461bcd60e51b815260040161044c906119ba565b60055443106108975760405162461bcd60e51b815260040161044c906119ef565b8082106108fd5760405162461bcd60e51b815260206004820152602e60248201527f4e6577207374617274426c6f636b206d757374206265206c6f7765722074686160448201526d6e206e657720656e64426c6f636b60901b606482015260840161044c565b8143106109655760405162461bcd60e51b815260206004820152603060248201527f4e6577207374617274426c6f636b206d7573742062652068696768657220746860448201526f616e2063757272656e7420626c6f636b60801b606482015260840161044c565b60058290556004819055600682905560408051838152602081018390527f7cd0ab87d19036f3dfadadb232c78aa4879dda3f0c994a9d637532410ee2ce0691016105dd565b336109b3610838565b6001600160a01b0316146109d95760405162461bcd60e51b815260040161044c906119ba565b600254600160a01b900460ff16610a205760405162461bcd60e51b815260206004820152600b60248201526a135d5cdd081899481cd95d60aa1b604482015260640161044c565b8115610a7c576007548111610a725760405162461bcd60e51b81526020600482015260186024820152772732bb903634b6b4ba1036bab9ba103132903434b3b432b960411b604482015260640161044c565b6007819055610a99565b6002805460ff60a01b1916600160a01b8415150217905560006007555b7f241f67ee5f41b7a5cabf911367329be7215900f602ebfc47f89dce2a6bcd847c6007546040516105dd91815260200190565b60138181548110610adc57600080fd5b6000918252602090912001546001600160a01b0316905081565b60008111610b375760405162461bcd60e51b815260206004820152600e60248201526d1a5b9d985b1a5908185b5bdd5b9d60921b604482015260640161044c565b3360009081526012602052604090208054610b53908390611a65565b8155600f54610b63908390611a65565b600f55600c54610b7e906001600160a01b03163330856113a8565b426003820155610b8c6113e6565b60405182815233907fe1fffcc4923d04b559f4d29a8bfc6cda04eb5b0d3c460751c2402c5c5cc9109c9060200160405180910390a25050565b33610bce610838565b6001600160a01b031614610bf45760405162461bcd60e51b815260040161044c906119ba565b600d80546001600160a01b0319166001600160a01b0392909216919091179055565b33610c1f610838565b6001600160a01b0316146104b15760405162461bcd60e51b815260040161044c906119ba565b600260015403610c975760405162461bcd60e51b815260206004820152601f60248201527f5265656e7472616e637947756172643a207265656e7472616e742063616c6c00604482015260640161044c565b60026001553360009081526012602052604090208054610cef5760405162461bcd60e51b81526020600482015260136024820152724e6f7468696e6720746f20776974686472617760681b604482015260640161044c565b8054600f54610cfe9082611491565b600f5560008255610d0d611184565b6003820154610d1f9062015180611a65565b421015610d6857600d54610d54906001600160a01b0316610d418360026114f6565b600c546001600160a01b031691906112fd565b610d6333610d418360026114f6565b610d7f565b600c54610d7f906001600160a01b031633836112fd565b60405181815233907f5fafa99d0643513820be26656b45130b01e1c03062e1266bf36f88cbd3bd96959060200160405180910390a2505060018055565b6000600f5411610e005760405162461bcd60e51b815260206004820152600f60248201526e30207374616b6564207a6f696e6b7360881b604482015260640161044c565b601054600a546040516370a0823160e01b8152600092916001600160a01b0316906370a0823190610e35903090600401611958565b602060405180830381865afa158015610e52573d6000803e3d6000fd5b505050506040513d601f19601f82011682018060405250810190610e769190611a7d565b610e809190611a96565b600a54600c549192506001600160a01b03908116911603610eac57600f54610ea9908290611491565b90505b8015610f895760005b601354811015610f7757610f11600f54610f0b6012600060138681548110610edf57610edf611aad565b60009182526020808320909101546001600160a01b03168352820192909252604001902054859061154e565b906114f6565b6012600060138481548110610f2857610f28611aad565b60009182526020808320909101546001600160a01b0316835282019290925260400181206001018054909190610f5f908490611a65565b90915550819050610f6f81611ac3565b915050610eb5565b50601054610f8590826115d0565b6010555b601154600b546040516370a0823160e01b8152600092916001600160a01b0316906370a0823190610fbe903090600401611958565b602060405180830381865afa158015610fdb573d6000803e3d6000fd5b505050506040513d601f19601f82011682018060405250810190610fff9190611a7d565b6110099190611a96565b600b54600c549192506001600160a01b0390811691160361103557600f54611032908290611491565b90505b80156110e05760005b6013548110156110ce57611068600f54610f0b6012600060138681548110610edf57610edf611aad565b601260006013848154811061107f5761107f611aad565b60009182526020808320909101546001600160a01b03168352820192909252604001812060020180549091906110b6908490611a65565b909155508190506110c681611ac3565b91505061103e565b506011546110dc90826115d0565b6011555b5050565b336110ed610838565b6001600160a01b0316146111135760405162461bcd60e51b815260040161044c906119ba565b6001600160a01b0381166111785760405162461bcd60e51b815260206004820152602660248201527f4f776e61626c653a206e6577206f776e657220697320746865207a65726f206160448201526564647265737360d01b606482015260840161044c565b61118181611358565b50565b336000908152601260205260409020600181015480156112285760038201546111b09062015180611a65565b4210156111f957600d546111e5906001600160a01b03166111d28360026114f6565b600a546001600160a01b031691906112fd565b6111f4336111d28360026114f6565b611210565b600a54611210906001600160a01b031633836112fd565b600060018301556010546112249082611491565b6010555b600282015480156112bd5760038301546112459062015180611a65565b42101561128e57600d5461127a906001600160a01b03166112678360026114f6565b600b546001600160a01b031691906112fd565b611289336112678360026114f6565b6112a5565b600b546112a5906001600160a01b031633836112fd565b600060028401556011546112b99082611491565b6011555b604080518381526020810183905233917fde4b270b85220be8667a409a29030ac282a8a252a2bc0c2a9fdd009698eb7b8e910160405180910390a2505050565b6113538363a9059cbb60e01b848460405160240161131c929190611a19565b60408051601f198184030181529190526020810180516001600160e01b03166001600160e01b03199093169290921790915261162d565b505050565b600080546001600160a01b038381166001600160a01b0319831681178455604051919092169283917f8be0079c531659141344cd1fd0a4f28419497f9722a3daafe3b4186f6b6457e09190a35050565b6040516001600160a01b03808516602483015283166044820152606481018290526113e09085906323b872dd60e01b9060840161131c565b50505050565b6000805b60135481101561144657336001600160a01b03166013828154811061141157611411611aad565b6000918252602090912001546001600160a01b0316036114345760019150611446565b8061143e81611ac3565b9150506113ea565b508061118157601380546001810182556000919091527f66de8ffda797e3de9c05e8fc57b3bf0ec28a930d40b0d285d93c06501cf6a0900180546001600160a01b0319163317905550565b6000828211156114e35760405162461bcd60e51b815260206004820152601e60248201527f536166654d6174683a207375627472616374696f6e206f766572666c6f770000604482015260640161044c565b6114ed8284611a96565b90505b92915050565b60008082116115445760405162461bcd60e51b815260206004820152601a602482015279536166654d6174683a206469766973696f6e206279207a65726f60301b604482015260640161044c565b6114ed8284611adc565b600082600003611560575060006114f0565b600061156c8385611afe565b9050826115798583611adc565b146114ed5760405162461bcd60e51b815260206004820152602160248201527f536166654d6174683a206d756c7469706c69636174696f6e206f766572666c6f6044820152607760f81b606482015260840161044c565b6000806115dd8385611a65565b9050838110156114ed5760405162461bcd60e51b815260206004820152601b60248201527a536166654d6174683a206164646974696f6e206f766572666c6f7760281b604482015260640161044c565b6000611682826040518060400160405280602081526020017f5361666545524332303a206c6f772d6c6576656c2063616c6c206661696c6564815250856001600160a01b03166116ff9092919063ffffffff16565b80519091501561135357808060200190518101906116a09190611a32565b6113535760405162461bcd60e51b815260206004820152602a60248201527f5361666545524332303a204552433230206f7065726174696f6e20646964206e6044820152691bdd081cdd58d8d9595960b21b606482015260840161044c565b606061170e8484600085611718565b90505b9392505050565b6060824710156117795760405162461bcd60e51b815260206004820152602660248201527f416464726573733a20696e73756666696369656e742062616c616e636520666f6044820152651c8818d85b1b60d21b606482015260840161044c565b843b6117c75760405162461bcd60e51b815260206004820152601d60248201527f416464726573733a2063616c6c20746f206e6f6e2d636f6e7472616374000000604482015260640161044c565b600080866001600160a01b031685876040516117e39190611b49565b60006040518083038185875af1925050503d8060008114611820576040519150601f19603f3d011682016040523d82523d6000602084013e611825565b606091505b5091509150611835828286611840565b979650505050505050565b6060831561184f575081611711565b82511561185f5782518084602001fd5b8160405162461bcd60e51b815260040161044c9190611b65565b60006020828403121561188b57600080fd5b5035919050565b6001600160a01b038116811461118157600080fd5b6000602082840312156118b957600080fd5b81356114ed81611892565b600080604083850312156118d757600080fd5b82356118e281611892565b946020939093013593505050565b600080600080600060a0868803121561190857600080fd5b853561191381611892565b9450602086013561192381611892565b9350604086013561193381611892565b925060608601359150608086013561194a81611892565b809150509295509295909350565b6001600160a01b0391909116815260200190565b6000806040838503121561197f57600080fd5b50508035926020909101359150565b801515811461118157600080fd5b600080604083850312156119af57600080fd5b82356118e28161198e565b6020808252818101527f4f776e61626c653a2063616c6c6572206973206e6f7420746865206f776e6572604082015260600190565b60208082526010908201526f141bdbdb081a185cc81cdd185c9d195960821b604082015260600190565b6001600160a01b03929092168252602082015260400190565b600060208284031215611a4457600080fd5b81516114ed8161198e565b634e487b7160e01b600052601160045260246000fd5b60008219821115611a7857611a78611a4f565b500190565b600060208284031215611a8f57600080fd5b5051919050565b600082821015611aa857611aa8611a4f565b500390565b634e487b7160e01b600052603260045260246000fd5b600060018201611ad557611ad5611a4f565b5060010190565b600082611af957634e487b7160e01b600052601260045260246000fd5b500490565b6000816000190483118215151615611b1857611b18611a4f565b500290565b60005b83811015611b38578181015183820152602001611b20565b838111156113e05750506000910152565b60008251611b5b818460208701611b1d565b9190910192915050565b6020815260008251806020840152611b84816040850160208701611b1d565b601f01601f1916919091016040019291505056fea26469706673582212201f0dc20ad41367abb09b8df20fe7e89cdd54bc4238e0b63a529d78d3388163c564736f6c634300080f0033",
  "immutableReferences": {},
  "source": "/************************************************************\r\n *\r\n * Autor: Zoinks\r\n *\r\n * 446576656c6f7065723a20416e746f6e20506f6c656e79616b61 ****/\r\n\r\n// SPDX-License-Identifier: GPL-3.0\r\npragma solidity 0.8.15;\r\n\r\nimport \"./abstract/Ownable.sol\";\r\nimport \"./abstract/ReentrancyGuard.sol\";\r\nimport \"./abstract/Ownable.sol\";\r\nimport \"./librarys/SafeERC20.sol\";\r\nimport \"./librarys/SafeMath.sol\";\r\nimport \"./interfaces/IERC20.sol\";\r\n\r\ncontract ZoinksStakingPool is Ownable, ReentrancyGuard {\r\n    using SafeMath for uint256;\r\n    using SafeERC20 for IERC20;\r\n\r\n    // The address of the smart chef factory\r\n    address public SMART_CHEF_FACTORY;\r\n\r\n    // Whether a limit is set for users\r\n    bool public hasUserLimit;\r\n\r\n    // Whether it is initialized\r\n    bool public isInitialized;\r\n\r\n    //* Accrued token per share\r\n    uint256 public accTokenPerShare;\r\n\r\n    //* The block number when CAKE mining ends.\r\n    uint256 public bonusEndBlock = 99999999;\r\n\r\n    //* The block number when CAKE mining starts.\r\n    uint256 public startBlock;\r\n\r\n    //* The block number of the last pool update\r\n    uint256 public lastRewardBlock;\r\n\r\n    // The pool limit (0 if none)\r\n    uint256 public poolLimitPerUser;\r\n\r\n    //* CAKE tokens created per block.\r\n    uint256 public rewardPerBlock;\r\n\r\n    // The precision factor\r\n    uint256 public PRECISION_FACTOR;\r\n\r\n    // The reward token\r\n    IERC20 public rewardToken; //reward zoinks token\r\n    IERC20 public rewardSnacksToken;\r\n\r\n    // The staked token\r\n    IERC20 public stakedToken;\r\n\r\n    // Seniorage address\r\n    address public seniorageAddress;\r\n\r\n    //maximum-integer\r\n    uint256 MAX_INT =\r\n        0xffffffffffffffffffffffffffffffffffffffffffffffffffffffffffffffff;\r\n\r\n    uint256 public totalStakedZoinks; // Total staked amount = totalSupply() - reward\r\n    uint256 public totalRewardDebtZoinks; // Total Reward debt of zoinks\r\n    uint256 public totalRewardDebtSnacks; // Total Reward debt of snacks\r\n\r\n    // Info of each user that stakes tokens (stakedToken)\r\n    mapping(address => UserInfo) public userInfo;\r\n    address[] public userAddressList;\r\n\r\n    struct UserInfo {\r\n        uint256 amount; // How many staked tokens the user has provided\r\n        uint256 rewardDebt; // Reward debt of zoinks. See explanation below.\r\n        uint256 rewardDebtSnacks; // Reward debt of snacks. See explanation below.\r\n        uint256 lastDepositDate;\r\n    }\r\n\r\n    event AdminTokenRecovery(address tokenRecovered, uint256 amount);\r\n    event Deposit(address indexed user, uint256 amount);\r\n    event EmergencyWithdraw(address indexed user, uint256 amount);\r\n    event NewStartAndEndBlocks(uint256 startBlock, uint256 endBlock);\r\n    event NewRewardPerBlock(uint256 rewardPerBlock);\r\n    event NewPoolLimit(uint256 poolLimitPerUser);\r\n    event RewardsStop(uint256 blockNumber);\r\n    event RewardTransfer(address indexed user, uint256 zoinksReward, uint256 snacksReward);\r\n\r\n    constructor(address _seniorage) {\r\n        seniorageAddress = _seniorage; // Ex.: 0x467927774B59F7cB023863b07960669f958EC19a\r\n    }\r\n\r\n    /*\r\n     * @notice Initialize the contract\r\n     * @param _stakedToken: staked token address\r\n     * @param _rewardToken: reward zoinks token address\r\n     * @param _rewardSnacksToken: reward snacks token address\r\n     * @param _poolLimitPerUser: pool limit per user in stakedToken (if any, else 0)\r\n     * @param _admin: admin address with ownership\r\n     */\r\n    function initialize(\r\n        IERC20 _stakedToken,\r\n        IERC20 _rewardToken,\r\n        IERC20 _rewardSnacksToken,\r\n        uint256 _poolLimitPerUser,\r\n        address _admin\r\n    ) external onlyOwner {\r\n        require(!isInitialized, \"Already initialized\");\r\n\r\n        // Make this contract initialized\r\n        isInitialized = true;\r\n\r\n        stakedToken = _stakedToken;\r\n        rewardToken = _rewardToken;\r\n        rewardSnacksToken = _rewardSnacksToken;\r\n\r\n        //Approve contracts  for rewardTransfer\r\n        rewardToken.approve(address(this), MAX_INT);\r\n        rewardSnacksToken.approve(address(this), MAX_INT);\r\n\r\n        if (_poolLimitPerUser > 0) {\r\n            hasUserLimit = true;\r\n            poolLimitPerUser = _poolLimitPerUser;\r\n        }\r\n\r\n        // Transfer ownership to the admin address who becomes owner of the contract\r\n        transferOwnership(_admin);\r\n    }\r\n\r\n    //add msg.sender to userAddressList\r\n    function addUser() internal {\r\n        bool isExist = false;\r\n        for (uint256 i = 0; i < userAddressList.length; i++) {\r\n            if (userAddressList[i] == msg.sender) {\r\n                isExist = true;\r\n                break;\r\n            }\r\n        }\r\n        if (!isExist) {\r\n            userAddressList.push(msg.sender);\r\n        }\r\n    }\r\n\r\n    /*\r\n     * @notice Deposit staked tokens and collect reward tokens (if any)\r\n     * @param _amount: amount to withdraw (in rewardToken)\r\n     */\r\n    function deposit(uint256 _amount) external {\r\n        require(_amount > 0, \"invalid amount\");\r\n        UserInfo storage user = userInfo[msg.sender];\r\n        user.amount = user.amount + _amount;\r\n        totalStakedZoinks = totalStakedZoinks + _amount;\r\n        stakedToken.safeTransferFrom(msg.sender, address(this), _amount);\r\n        user.lastDepositDate = block.timestamp;\r\n        addUser();\r\n        emit Deposit(msg.sender, _amount);\r\n    }\r\n\r\n    /*\r\n     * @notice Withdraw staked tokens and collect reward tokens\r\n     * @param _amount: amount to withdraw (in rewardToken)\r\n     */\r\n    function withdraw() external {\r\n        rewardTransfer();\r\n    }\r\n\r\n    /*\r\n     * @notice Withdraw staked tokens without caring about rewards rewards\r\n     * @dev Needs to be for emergency.\r\n     */\r\n    function emergencyWithdraw() external nonReentrant {\r\n        UserInfo storage user = userInfo[msg.sender];\r\n        require(user.amount > 0, \"Nothing to withdraw\");\r\n        uint256 amountToTransfer = user.amount;\r\n        totalStakedZoinks = totalStakedZoinks.sub(user.amount);\r\n        user.amount = 0;\r\n        rewardTransfer();\r\n        if (block.timestamp < user.lastDepositDate + 1 days) {\r\n            stakedToken.safeTransfer(seniorageAddress, amountToTransfer.div(2));\r\n            stakedToken.safeTransfer(msg.sender, amountToTransfer.div(2));\r\n        } else {\r\n            stakedToken.safeTransfer(msg.sender, amountToTransfer);\r\n        }\r\n        emit EmergencyWithdraw(msg.sender, amountToTransfer);\r\n    }\r\n\r\n    /*\r\n     * @notice Stop rewards\r\n     * @dev Only callable by owner. Needs to be for emergency.\r\n     */\r\n    function emergencyRewardWithdraw() external onlyOwner {\r\n        rewardTransfer();\r\n    }\r\n\r\n    /**\r\n     * @notice It allows the admin to recover wrong tokens sent to the contract\r\n     * @param _tokenAddress: the address of the token to withdraw\r\n     * @param _tokenAmount: the number of tokens to withdraw\r\n     * @dev This function is only callable by admin.\r\n     */\r\n    function recoverWrongTokens(address _tokenAddress, uint256 _tokenAmount)\r\n        external\r\n        onlyOwner\r\n    {\r\n        require(\r\n            _tokenAddress != address(stakedToken),\r\n            \"Cannot be staked token\"\r\n        );\r\n        require(\r\n            _tokenAddress != address(rewardToken),\r\n            \"Cannot be reward token\"\r\n        );\r\n\r\n        IERC20(_tokenAddress).safeTransfer(address(msg.sender), _tokenAmount);\r\n\r\n        emit AdminTokenRecovery(_tokenAddress, _tokenAmount);\r\n    }\r\n\r\n    /*\r\n     * @notice Stop rewards\r\n     * @dev Only callable by owner\r\n     */\r\n    function stopReward() external onlyOwner {\r\n        bonusEndBlock = block.number;\r\n    }\r\n\r\n    /*\r\n     * @notice Update pool limit per user\r\n     * @dev Only callable by owner.\r\n     * @param _hasUserLimit: whether the limit remains forced\r\n     * @param _poolLimitPerUser: new pool limit per user\r\n     */\r\n    function updatePoolLimitPerUser(\r\n        bool _hasUserLimit,\r\n        uint256 _poolLimitPerUser\r\n    ) external onlyOwner {\r\n        require(hasUserLimit, \"Must be set\");\r\n        if (_hasUserLimit) {\r\n            require(\r\n                _poolLimitPerUser > poolLimitPerUser,\r\n                \"New limit must be higher\"\r\n            );\r\n            poolLimitPerUser = _poolLimitPerUser;\r\n        } else {\r\n            hasUserLimit = _hasUserLimit;\r\n            poolLimitPerUser = 0;\r\n        }\r\n        emit NewPoolLimit(poolLimitPerUser);\r\n    }\r\n\r\n    /*\r\n     * @notice Update reward per block\r\n     * @dev Only callable by owner.\r\n     * @param _rewardPerBlock: the reward per block\r\n     */\r\n    function updateRewardPerBlock(uint256 _rewardPerBlock) external onlyOwner {\r\n        require(block.number < startBlock, \"Pool has started\");\r\n        rewardPerBlock = _rewardPerBlock;\r\n        emit NewRewardPerBlock(_rewardPerBlock);\r\n    }\r\n\r\n    /**\r\n     * @notice It allows the admin to update start and end blocks\r\n     * @dev This function is only callable by owner.\r\n     * @param _startBlock: the new start block\r\n     * @param _bonusEndBlock: the new end block\r\n     */\r\n    function updateStartAndEndBlocks(\r\n        uint256 _startBlock,\r\n        uint256 _bonusEndBlock\r\n    ) external onlyOwner {\r\n        require(block.number < startBlock, \"Pool has started\");\r\n        require(\r\n            _startBlock < _bonusEndBlock,\r\n            \"New startBlock must be lower than new endBlock\"\r\n        );\r\n        require(\r\n            block.number < _startBlock,\r\n            \"New startBlock must be higher than current block\"\r\n        );\r\n\r\n        startBlock = _startBlock;\r\n        bonusEndBlock = _bonusEndBlock;\r\n\r\n        // Set the lastRewardBlock as the startBlock\r\n        lastRewardBlock = startBlock;\r\n\r\n        emit NewStartAndEndBlocks(_startBlock, _bonusEndBlock);\r\n    }\r\n\r\n    /*\r\n     * @notice View function to see pending reward on frontend.\r\n     * @param _user: user address\r\n     * @return Pending reward for a given user\r\n     */\r\n    function pendingReward(address _user) external view returns (uint256) {\r\n        return userInfo[_user].rewardDebt;\r\n    }\r\n\r\n    /*\r\n     * @notice Update reward variables of the given pool to be up-to-date.\r\n     */\r\n    function updatePool() external {\r\n        // ! who is actor to give acces?\r\n\r\n        require(\r\n            totalStakedZoinks > 0,\r\n            \"0 staked zoinks\"\r\n        );\r\n        uint256 rewardZoinks = rewardToken.balanceOf(address(this)) -\r\n            totalRewardDebtZoinks;\r\n\r\n        if (stakedToken == rewardToken) {\r\n            rewardZoinks = rewardZoinks.sub(totalStakedZoinks);\r\n        }\r\n        if (rewardZoinks > 0) {\r\n            for (uint256 i = 0; i < userAddressList.length; i++) {\r\n                userInfo[userAddressList[i]].rewardDebt += rewardZoinks\r\n                    .mul(userInfo[userAddressList[i]].amount)\r\n                    .div(totalStakedZoinks);\r\n            }\r\n\r\n            totalRewardDebtZoinks = totalRewardDebtZoinks.add(rewardZoinks);\r\n        }\r\n\r\n        uint256 rewardSnacks = rewardSnacksToken.balanceOf(address(this)) -\r\n            totalRewardDebtSnacks;\r\n\r\n        if (stakedToken == rewardSnacksToken) {\r\n            rewardSnacks = rewardSnacks.sub(totalStakedZoinks);\r\n        }\r\n        if (rewardSnacks > 0) {\r\n            for (uint256 i = 0; i < userAddressList.length; i++) {\r\n                userInfo[userAddressList[i]].rewardDebtSnacks += rewardSnacks\r\n                    .mul(userInfo[userAddressList[i]].amount)\r\n                    .div(totalStakedZoinks);\r\n            }\r\n\r\n            totalRewardDebtSnacks = totalRewardDebtSnacks.add(rewardSnacks);\r\n        }\r\n    }\r\n\r\n    // Safe reward transfer function, just in case if rounding error causes pool to not have enough snacks.\r\n    function rewardTransfer() internal {\r\n        UserInfo storage user = userInfo[msg.sender];\r\n        uint256 rewardDebt = user.rewardDebt;\r\n        if (rewardDebt > 0) {\r\n            if (block.timestamp < user.lastDepositDate + 1 days) {\r\n                rewardToken.safeTransfer(seniorageAddress, rewardDebt.div(2));\r\n                rewardToken.safeTransfer(msg.sender, rewardDebt.div(2));\r\n            } else {\r\n                rewardToken.safeTransfer(msg.sender, rewardDebt);\r\n            }\r\n            user.rewardDebt = 0;\r\n            totalRewardDebtZoinks = totalRewardDebtZoinks.sub(rewardDebt);\r\n        }\r\n        uint256 rewardDebtSnacks = user.rewardDebtSnacks;\r\n        if (rewardDebtSnacks > 0) {\r\n            if (block.timestamp < user.lastDepositDate + 1 days) {\r\n                rewardSnacksToken.safeTransfer(seniorageAddress, rewardDebtSnacks.div(2));\r\n                rewardSnacksToken.safeTransfer(msg.sender, rewardDebtSnacks.div(2));\r\n            } else {\r\n                rewardSnacksToken.safeTransfer(msg.sender, rewardDebtSnacks);\r\n            }\r\n            user.rewardDebtSnacks = 0;\r\n            totalRewardDebtSnacks = totalRewardDebtSnacks.sub(rewardDebtSnacks);\r\n        }\r\n        emit RewardTransfer(msg.sender, rewardDebt, rewardDebtSnacks);\r\n    }\r\n\r\n    /*\r\n     * @notice Return reward multiplier over the given _from to _to block.\r\n     * @param _from: block to start\r\n     * @param _to: block to finish\r\n     */\r\n    function _getMultiplier(uint256 _from, uint256 _to)\r\n        internal\r\n        view\r\n        returns (uint256)\r\n    {\r\n        if (_to <= bonusEndBlock) {\r\n            return _to.sub(_from);\r\n        } else if (_from >= bonusEndBlock) {\r\n            return 0;\r\n        } else {\r\n            return bonusEndBlock.sub(_from);\r\n        }\r\n    }\r\n\r\n    // Set seniorage address by owner\r\n    function setSeniorage(address seniorage) public onlyOwner {\r\n        seniorageAddress = seniorage;\r\n    }\r\n}\r\n",
  "sourcePath": "C:\\GitHub\\zoinks\\contracts\\Development\\src\\contracts\\ZoinksStakingPool.sol",
  "compiler": {
    "name": "solc",
    "version": "0.8.15+commit.e14f2714.Emscripten.clang"
  },
  "schemaVersion": "3.4.8",
  "updatedAt": "2022-08-08T18:33:02.923Z",
  "devdoc": {
    "kind": "dev",
    "methods": {
      "owner()": {
        "details": "Returns the address of the current owner."
      },
      "recoverWrongTokens(address,uint256)": {
        "details": "This function is only callable by admin.",
        "params": {
          "_tokenAddress": ": the address of the token to withdraw",
          "_tokenAmount": ": the number of tokens to withdraw"
        }
      },
      "renounceOwnership()": {
        "details": "Leaves the contract without owner. It will not be possible to call `onlyOwner` functions anymore. Can only be called by the current owner. NOTE: Renouncing ownership will leave the contract without an owner, thereby removing any functionality that is only available to the owner."
      },
      "transferOwnership(address)": {
        "details": "Transfers ownership of the contract to a new account (`newOwner`). Can only be called by the current owner."
      },
      "updateStartAndEndBlocks(uint256,uint256)": {
        "details": "This function is only callable by owner.",
        "params": {
          "_bonusEndBlock": ": the new end block",
          "_startBlock": ": the new start block"
        }
      }
    },
    "version": 1
  },
  "userdoc": {
    "kind": "user",
    "methods": {
      "recoverWrongTokens(address,uint256)": {
        "notice": "It allows the admin to recover wrong tokens sent to the contract"
      },
      "updateStartAndEndBlocks(uint256,uint256)": {
        "notice": "It allows the admin to update start and end blocks"
      }
    },
    "version": 1
  }
}