{
  "contractName": "ZoinksToken",
  "abi": [
    {
      "inputs": [
        {
          "internalType": "address",
          "name": "_zoinksAdmin",
          "type": "address"
        },
        {
          "internalType": "address",
          "name": "_seniorage",
          "type": "address"
        },
        {
          "internalType": "contract IERC20",
          "name": "_BUSD",
          "type": "address"
        }
      ],
      "stateMutability": "nonpayable",
      "type": "constructor"
    },
    {
      "anonymous": false,
      "inputs": [
        {
          "indexed": true,
          "internalType": "address",
          "name": "owner",
          "type": "address"
        },
        {
          "indexed": true,
          "internalType": "address",
          "name": "spender",
          "type": "address"
        },
        {
          "indexed": false,
          "internalType": "uint256",
          "name": "value",
          "type": "uint256"
        }
      ],
      "name": "Approval",
      "type": "event"
    },
    {
      "anonymous": false,
      "inputs": [
        {
          "indexed": true,
          "internalType": "address",
          "name": "previousOwner",
          "type": "address"
        },
        {
          "indexed": true,
          "internalType": "address",
          "name": "newOwner",
          "type": "address"
        }
      ],
      "name": "OwnershipTransferred",
      "type": "event"
    },
    {
      "anonymous": false,
      "inputs": [
        {
          "indexed": false,
          "internalType": "address",
          "name": "sender",
          "type": "address"
        },
        {
          "indexed": false,
          "internalType": "uint256",
          "name": "amountIn",
          "type": "uint256"
        },
        {
          "indexed": false,
          "internalType": "uint256",
          "name": "amountOut",
          "type": "uint256"
        }
      ],
      "name": "Swap",
      "type": "event"
    },
    {
      "anonymous": false,
      "inputs": [
        {
          "indexed": true,
          "internalType": "address",
          "name": "from",
          "type": "address"
        },
        {
          "indexed": true,
          "internalType": "address",
          "name": "to",
          "type": "address"
        },
        {
          "indexed": false,
          "internalType": "uint256",
          "name": "value",
          "type": "uint256"
        }
      ],
      "name": "Transfer",
      "type": "event"
    },
    {
      "inputs": [],
      "name": "BUSD",
      "outputs": [
        {
          "internalType": "contract IERC20",
          "name": "",
          "type": "address"
        }
      ],
      "stateMutability": "view",
      "type": "function"
    },
    {
      "inputs": [],
      "name": "MAX_ZOINKS_SUPPLY",
      "outputs": [
        {
          "internalType": "uint256",
          "name": "",
          "type": "uint256"
        }
      ],
      "stateMutability": "view",
      "type": "function"
    },
    {
      "inputs": [],
      "name": "ZOINKS",
      "outputs": [
        {
          "internalType": "contract IERC20",
          "name": "",
          "type": "address"
        }
      ],
      "stateMutability": "view",
      "type": "function"
    },
    {
      "inputs": [
        {
          "internalType": "address",
          "name": "owner",
          "type": "address"
        },
        {
          "internalType": "address",
          "name": "spender",
          "type": "address"
        }
      ],
      "name": "allowance",
      "outputs": [
        {
          "internalType": "uint256",
          "name": "",
          "type": "uint256"
        }
      ],
      "stateMutability": "view",
      "type": "function"
    },
    {
      "inputs": [],
      "name": "apeFactory",
      "outputs": [
        {
          "internalType": "contract IPancakeFactory",
          "name": "",
          "type": "address"
        }
      ],
      "stateMutability": "view",
      "type": "function"
    },
    {
      "inputs": [],
      "name": "apePair",
      "outputs": [
        {
          "internalType": "contract IPancakePair",
          "name": "",
          "type": "address"
        }
      ],
      "stateMutability": "view",
      "type": "function"
    },
    {
      "inputs": [
        {
          "internalType": "address",
          "name": "spender",
          "type": "address"
        },
        {
          "internalType": "uint256",
          "name": "amount",
          "type": "uint256"
        }
      ],
      "name": "approve",
      "outputs": [
        {
          "internalType": "bool",
          "name": "",
          "type": "bool"
        }
      ],
      "stateMutability": "nonpayable",
      "type": "function"
    },
    {
      "inputs": [
        {
          "internalType": "address",
          "name": "account",
          "type": "address"
        }
      ],
      "name": "balanceOf",
      "outputs": [
        {
          "internalType": "uint256",
          "name": "",
          "type": "uint256"
        }
      ],
      "stateMutability": "view",
      "type": "function"
    },
    {
      "inputs": [],
      "name": "biswapFactory",
      "outputs": [
        {
          "internalType": "contract IPancakeFactory",
          "name": "",
          "type": "address"
        }
      ],
      "stateMutability": "view",
      "type": "function"
    },
    {
      "inputs": [],
      "name": "biswapPair",
      "outputs": [
        {
          "internalType": "contract IPancakePair",
          "name": "",
          "type": "address"
        }
      ],
      "stateMutability": "view",
      "type": "function"
    },
    {
      "inputs": [],
      "name": "buffer",
      "outputs": [
        {
          "internalType": "uint256",
          "name": "",
          "type": "uint256"
        }
      ],
      "stateMutability": "view",
      "type": "function"
    },
    {
      "inputs": [],
      "name": "decimals",
      "outputs": [
        {
          "internalType": "uint8",
          "name": "",
          "type": "uint8"
        }
      ],
      "stateMutability": "view",
      "type": "function"
    },
    {
      "inputs": [
        {
          "internalType": "address",
          "name": "spender",
          "type": "address"
        },
        {
          "internalType": "uint256",
          "name": "subtractedValue",
          "type": "uint256"
        }
      ],
      "name": "decreaseAllowance",
      "outputs": [
        {
          "internalType": "bool",
          "name": "",
          "type": "bool"
        }
      ],
      "stateMutability": "nonpayable",
      "type": "function"
    },
    {
      "inputs": [
        {
          "internalType": "address",
          "name": "spender",
          "type": "address"
        },
        {
          "internalType": "uint256",
          "name": "addedValue",
          "type": "uint256"
        }
      ],
      "name": "increaseAllowance",
      "outputs": [
        {
          "internalType": "bool",
          "name": "",
          "type": "bool"
        }
      ],
      "stateMutability": "nonpayable",
      "type": "function"
    },
    {
      "inputs": [
        {
          "internalType": "uint256",
          "name": "",
          "type": "uint256"
        }
      ],
      "name": "inflationRewards",
      "outputs": [
        {
          "internalType": "address",
          "name": "accountAddress",
          "type": "address"
        },
        {
          "internalType": "uint256",
          "name": "percentage",
          "type": "uint256"
        }
      ],
      "stateMutability": "view",
      "type": "function"
    },
    {
      "inputs": [],
      "name": "isInitialized",
      "outputs": [
        {
          "internalType": "bool",
          "name": "",
          "type": "bool"
        }
      ],
      "stateMutability": "view",
      "type": "function"
    },
    {
      "inputs": [],
      "name": "name",
      "outputs": [
        {
          "internalType": "string",
          "name": "",
          "type": "string"
        }
      ],
      "stateMutability": "view",
      "type": "function"
    },
    {
      "inputs": [],
      "name": "owner",
      "outputs": [
        {
          "internalType": "address",
          "name": "",
          "type": "address"
        }
      ],
      "stateMutability": "view",
      "type": "function"
    },
    {
      "inputs": [],
      "name": "pancakeFactory",
      "outputs": [
        {
          "internalType": "contract IPancakeFactory",
          "name": "",
          "type": "address"
        }
      ],
      "stateMutability": "view",
      "type": "function"
    },
    {
      "inputs": [],
      "name": "pancakePair",
      "outputs": [
        {
          "internalType": "contract IPancakePair",
          "name": "",
          "type": "address"
        }
      ],
      "stateMutability": "view",
      "type": "function"
    },
    {
      "inputs": [],
      "name": "pulse",
      "outputs": [
        {
          "internalType": "address",
          "name": "",
          "type": "address"
        }
      ],
      "stateMutability": "view",
      "type": "function"
    },
    {
      "inputs": [],
      "name": "renounceOwnership",
      "outputs": [],
      "stateMutability": "nonpayable",
      "type": "function"
    },
    {
      "inputs": [],
      "name": "router",
      "outputs": [
        {
          "internalType": "contract IZoinksRouter",
          "name": "",
          "type": "address"
        }
      ],
      "stateMutability": "view",
      "type": "function"
    },
    {
      "inputs": [],
      "name": "seniorage",
      "outputs": [
        {
          "internalType": "address",
          "name": "",
          "type": "address"
        }
      ],
      "stateMutability": "view",
      "type": "function"
    },
    {
      "inputs": [],
      "name": "snacks",
      "outputs": [
        {
          "internalType": "contract IERC20",
          "name": "",
          "type": "address"
        }
      ],
      "stateMutability": "view",
      "type": "function"
    },
    {
      "inputs": [],
      "name": "symbol",
      "outputs": [
        {
          "internalType": "string",
          "name": "",
          "type": "string"
        }
      ],
      "stateMutability": "view",
      "type": "function"
    },
    {
      "inputs": [],
      "name": "totalSupply",
      "outputs": [
        {
          "internalType": "uint256",
          "name": "",
          "type": "uint256"
        }
      ],
      "stateMutability": "view",
      "type": "function"
    },
    {
      "inputs": [
        {
          "internalType": "address",
          "name": "to",
          "type": "address"
        },
        {
          "internalType": "uint256",
          "name": "amount",
          "type": "uint256"
        }
      ],
      "name": "transfer",
      "outputs": [
        {
          "internalType": "bool",
          "name": "",
          "type": "bool"
        }
      ],
      "stateMutability": "nonpayable",
      "type": "function"
    },
    {
      "inputs": [
        {
          "internalType": "address",
          "name": "from",
          "type": "address"
        },
        {
          "internalType": "address",
          "name": "to",
          "type": "address"
        },
        {
          "internalType": "uint256",
          "name": "amount",
          "type": "uint256"
        }
      ],
      "name": "transferFrom",
      "outputs": [
        {
          "internalType": "bool",
          "name": "",
          "type": "bool"
        }
      ],
      "stateMutability": "nonpayable",
      "type": "function"
    },
    {
      "inputs": [
        {
          "internalType": "address",
          "name": "newOwner",
          "type": "address"
        }
      ],
      "name": "transferOwnership",
      "outputs": [],
      "stateMutability": "nonpayable",
      "type": "function"
    },
    {
      "inputs": [
        {
          "internalType": "contract IZoinksRouter",
          "name": "_router",
          "type": "address"
        },
        {
          "internalType": "contract IERC20",
          "name": "_snacks",
          "type": "address"
        },
        {
          "internalType": "address",
          "name": "_pulse",
          "type": "address"
        }
      ],
      "name": "initialize",
      "outputs": [],
      "stateMutability": "nonpayable",
      "type": "function"
    },
    {
      "inputs": [
        {
          "internalType": "uint256",
          "name": "_amount",
          "type": "uint256"
        }
      ],
      "name": "zoinksMint",
      "outputs": [],
      "stateMutability": "nonpayable",
      "type": "function"
    },
    {
      "inputs": [
        {
          "internalType": "uint256",
          "name": "_amount",
          "type": "uint256"
        }
      ],
      "name": "buySnacks",
      "outputs": [],
      "stateMutability": "nonpayable",
      "type": "function"
    },
    {
      "inputs": [
        {
          "internalType": "uint256",
          "name": "_amount",
          "type": "uint256"
        },
        {
          "internalType": "uint256",
          "name": "_amountZoinksMin",
          "type": "uint256"
        },
        {
          "internalType": "uint256",
          "name": "_deadline",
          "type": "uint256"
        }
      ],
      "name": "swapOnZoinks",
      "outputs": [],
      "stateMutability": "nonpayable",
      "type": "function"
    },
    {
      "inputs": [
        {
          "internalType": "uint256",
          "name": "_amount",
          "type": "uint256"
        }
      ],
      "name": "calculateBuyAmount",
      "outputs": [
        {
          "internalType": "uint256",
          "name": "",
          "type": "uint256"
        }
      ],
      "stateMutability": "view",
      "type": "function"
    },
    {
      "inputs": [],
      "name": "applyTWAP",
      "outputs": [],
      "stateMutability": "nonpayable",
      "type": "function"
    },
    {
      "inputs": [],
      "name": "getTWAP",
      "outputs": [
        {
          "internalType": "uint256",
          "name": "TWAP",
          "type": "uint256"
        }
      ],
      "stateMutability": "view",
      "type": "function"
    },
    {
      "inputs": [
        {
          "internalType": "uint256",
          "name": "newBufferAmount",
          "type": "uint256"
        }
      ],
      "name": "setBuffer",
      "outputs": [],
      "stateMutability": "nonpayable",
      "type": "function"
    },
    {
      "inputs": [
        {
          "internalType": "address",
          "name": "_account",
          "type": "address"
        }
      ],
      "name": "setRebaseContract",
      "outputs": [],
      "stateMutability": "nonpayable",
      "type": "function"
    },
    {
      "inputs": [
        {
          "internalType": "address",
          "name": "_account",
          "type": "address"
        },
        {
          "internalType": "uint256",
          "name": "_percentage",
          "type": "uint256"
        }
      ],
      "name": "setInflationReward",
      "outputs": [],
      "stateMutability": "nonpayable",
      "type": "function"
    },
    {
      "inputs": [],
      "name": "resetInflationRewards",
      "outputs": [],
      "stateMutability": "nonpayable",
      "type": "function"
    }
  ],
  "bytecode": "0x60c0604052600019600655620000186012600a6200028e565b6200002990640826299e00620002a6565b6080523060a05264e8d4a510006016553480156200004657600080fd5b5060405162002c0738038062002c078339810160408190526200006991620002e1565b6040805180820182526006808252655a4f494e4b5360d01b6020808401829052845180860190955291845290830152906003620000a78382620003da565b506004620000b68282620003da565b505050620000d3620000cd6200012360201b60201c565b62000127565b600c80546001600160a01b039485166001600160a01b03199182168117909255600b80548216909217909155601580549385169382169390931790925560118054919093169116179055620004a6565b3390565b600580546001600160a01b038381166001600160a01b0319831681179093556040519116919082907f8be0079c531659141344cd1fd0a4f28419497f9722a3daafe3b4186f6b6457e090600090a35050565b634e487b7160e01b600052601160045260246000fd5b600181815b80851115620001d0578160001904821115620001b457620001b462000179565b80851615620001c257918102915b93841c939080029062000194565b509250929050565b600082620001e95750600162000288565b81620001f85750600062000288565b81600181146200021157600281146200021c576200023c565b600191505062000288565b60ff84111562000230576200023062000179565b50506001821b62000288565b5060208310610133831016604e8410600b841016171562000261575081810a62000288565b6200026d83836200018f565b806000190482111562000284576200028462000179565b0290505b92915050565b60006200029f60ff841683620001d8565b9392505050565b6000816000190483118215151615620002c357620002c362000179565b500290565b6001600160a01b0381168114620002de57600080fd5b50565b600080600060608486031215620002f757600080fd5b83516200030481620002c8565b60208501519093506200031781620002c8565b60408501519092506200032a81620002c8565b809150509250925092565b634e487b7160e01b600052604160045260246000fd5b600181811c908216806200036057607f821691505b6020821081036200038157634e487b7160e01b600052602260045260246000fd5b50919050565b601f821115620003d557600081815260208120601f850160051c81016020861015620003b05750805b601f850160051c820191505b81811015620003d157828155600101620003bc565b5050505b505050565b81516001600160401b03811115620003f657620003f662000335565b6200040e816200040784546200034b565b8462000387565b602080601f8311600181146200044657600084156200042d5750858301515b600019600386901b1c1916600185901b178555620003d1565b600085815260208120601f198616915b82811015620004775788860151825594840194600190910190840162000456565b5085821015620004965787850151600019600388901b60f8161c191681555b5050505050600190811b01905550565b60805160a051612734620004d360003960006104ea0152600081816102c8015261121701526127346000f3fe608060405234801561001057600080fd5b50600436106101e35760003560e01c80630244234f146101e857806305ecd0031461021157806306fdde0314610227578063095ea7b31461023c57806318160ddd1461025f57806323b872dd14610267578063313ce5671461027a578063351f4f6d14610289578063392e53cd1461029c57806339509351146102b057806341c55d56146102c3578063484f4ea9146102ea5780635c064139146102fd5780636c679ddb1461031057806370a082311461032b578063715018a61461033e5780637d73bcb7146103485780637f4196391461035057806382639852146103635780638da5cb5b1461037657806395d89b411461037e578063a457c2d714610386578063a9059cbb14610399578063adc7ea37146103ac578063b8c9d25c146103bf578063c0c53b8b146103d2578063cd29cd7e146103e5578063d9e3fbe1146103f8578063dd62ed3e1461040b578063deb189b51461041e578063e0f1c9c514610431578063e1e07af51461044c578063e6ce9dbb1461046d578063eac1f9c214610480578063eb8a587214610488578063ec34c0321461049b578063edaafe20146104ae578063eefed9a1146104b7578063f2fde38b146104d2578063f7ad5650146104e5578063f887ea401461050c575b600080fd5b6012546101fb906001600160a01b031681565b60405161020891906120af565b60405180910390f35b61021961051f565b604051908152602001610208565b61022f6105ca565b60405161020891906120ef565b61024f61024a366004612137565b61065c565b6040519015158152602001610208565b600254610219565b61024f610275366004612163565b610674565b60405160128152602001610208565b6009546101fb906001600160a01b031681565b60155461024f90600160a01b900460ff1681565b61024f6102be366004612137565b61069a565b6102197f000000000000000000000000000000000000000000000000000000000000000081565b6011546101fb906001600160a01b031681565b6015546101fb906001600160a01b031681565b6101fb73858e3312ed3a876947ea49d572a7c42de08af7ee81565b6102196103393660046121a4565b6106bc565b6103466106d7565b005b61034661071b565b6008546101fb906001600160a01b031681565b6102196103713660046121c1565b61080b565b6101fb610902565b61022f610911565b61024f610394366004612137565b610920565b61024f6103a7366004612137565b6109a6565b6103466103ba3660046121c1565b6109b4565b6007546101fb906001600160a01b031681565b6103466103e03660046121da565b6109e8565b6103466103f33660046121c1565b610d57565b610346610406366004612137565b610e92565b610219610419366004612225565b610f5e565b6014546101fb906001600160a01b031681565b6101fb73ca143ce32fe78f1f7019d7d551a6402fc5350c7381565b61045f61045a3660046121c1565b610f89565b60405161020892919061225e565b61034661047b366004612277565b610fc1565b6103466111bf565b6103466104963660046121c1565b6111f5565b6103466104a93660046121a4565b6112c4565b610219600a5481565b6101fb730841bd0b734e4f5853f0dd8d7ea041c241fb0da681565b6103466104e03660046121a4565b611310565b6101fb7f000000000000000000000000000000000000000000000000000000000000000081565b6013546101fb906001600160a01b031681565b60075460009081906105c49061053d906001600160a01b03166106bc565b6011546007546040516370a0823160e01b81526105be926064926001600160a01b03918216926370a08231926105779216906004016120af565b602060405180830381865afa158015610594573d6000803e3d6000fd5b505050506040513d601f19601f820116820180604052508101906105b891906122a3565b906113ad565b9061142f565b92915050565b6060600380546105d9906122bc565b80601f0160208091040260200160405190810160405280929190818152602001828054610605906122bc565b80156106525780601f1061062757610100808354040283529160200191610652565b820191906000526020600020905b81548152906001019060200180831161063557829003601f168201915b5050505050905090565b60003361066a818585611487565b5060019392505050565b6000336106828582856115ab565b61068d858585611625565b60019150505b9392505050565b60003361066a8185856106ad8383610f5e565b6106b79190612306565b611487565b6001600160a01b031660009081526020819052604090205490565b336106e0610902565b6001600160a01b03161461070f5760405162461bcd60e51b81526004016107069061231e565b60405180910390fd5b61071960006117ec565b565b600b546001600160a01b0316331461076b5760405162461bcd60e51b81526020600482015260136024820152721b9bdd081c9958985cd94818dbdb9d1c9858dd606a1b6044820152606401610706565b600061077561051f565b9050606381101561078e576107898161183e565b6107a0565b60658111156107a057610789816118b1565b600760009054906101000a90046001600160a01b03166001600160a01b031663fff6cae96040518163ffffffff1660e01b8152600401600060405180830381600087803b1580156107f057600080fd5b505af1158015610804573d6000803e3d6000fd5b5050505050565b600081600003610819575090565b60008061089f670de0b6b3a7640000601260009054906101000a90046001600160a01b03166001600160a01b03166318160ddd6040518163ffffffff1660e01b8152600401602060405180830381865afa15801561087b573d6000803e3d6000fd5b505050506040513d601f19601f820116820180604052508101906105be91906122a3565b90506108b760016108b18360026113ad565b90611987565b90506108e96108e46108d96016546105be6008896113ad90919063ffffffff16565b6108b1600285612437565b6119e4565b91506108fa60026105be8484611a54565b949350505050565b6005546001600160a01b031690565b6060600480546105d9906122bc565b6000338161092e8286610f5e565b90508381101561098e5760405162461bcd60e51b815260206004820152602560248201527f45524332303a2064656372656173656420616c6c6f77616e63652062656c6f77604482015264207a65726f60d81b6064820152608401610706565b61099b8286868403611487565b506001949350505050565b60003361066a818585611625565b336109bd610902565b6001600160a01b0316146109e35760405162461bcd60e51b81526004016107069061231e565b600a55565b601554600160a01b900460ff1615610a385760405162461bcd60e51b8152602060048201526013602482015272105b1c9958591e481a5b9a5d1a585b1a5e9959606a1b6044820152606401610706565b6015805460ff60a01b1916600160a01b179055601380546001600160a01b038086166001600160a01b031992831617909255601280548584169083168117909155601480549385169390921692909217905560065460405163095ea7b360e01b8152309263095ea7b392610aae9260040161225e565b6020604051808303816000875af1158015610acd573d6000803e3d6000fd5b505050506040513d601f19601f82011682018060405250810190610af19190612446565b5060115460135460065460405163095ea7b360e01b81526001600160a01b039384169363095ea7b393610b299391169160040161225e565b6020604051808303816000875af1158015610b48573d6000803e3d6000fd5b505050506040513d601f19601f82011682018060405250810190610b6c9190612446565b506011546040516364e329cb60e11b815273ca143ce32fe78f1f7019d7d551a6402fc5350c739163c9c6539691610bb39130916001600160a01b0390911690600401612468565b6020604051808303816000875af1158015610bd2573d6000803e3d6000fd5b505050506040513d601f19601f82011682018060405250810190610bf69190612482565b600780546001600160a01b0319166001600160a01b039283161790556011546040516364e329cb60e11b8152730841bd0b734e4f5853f0dd8d7ea041c241fb0da69263c9c6539692610c519230929190911690600401612468565b6020604051808303816000875af1158015610c70573d6000803e3d6000fd5b505050506040513d601f19601f82011682018060405250810190610c949190612482565b600880546001600160a01b0319166001600160a01b039283161790556011546040516364e329cb60e11b815273858e3312ed3a876947ea49d572a7c42de08af7ee9263c9c6539692610cef9230929190911690600401612468565b6020604051808303816000875af1158015610d0e573d6000803e3d6000fd5b505050506040513d601f19601f82011682018060405250810190610d329190612482565b600980546001600160a01b0319166001600160a01b0392909216919091179055505050565b80600003610d625750565b601254604080518082018252600c81526b6275792875696e743235362960a01b60209182015281516024808201869052835180830390910181526044909101835290810180516001600160e01b0316636cb504a560e11b179052905160009283926001600160a01b0390911691610dd9919061249f565b6000604051808303816000865af19150503d8060008114610e16576040519150601f19603f3d011682016040523d82523d6000602084013e610e1b565b606091505b5091509150818015610e45575080511580610e45575080806020019051810190610e459190612446565b610e8d5760405162461bcd60e51b81526020600482015260196024820152781693d25392d4ce8810955657d4d39050d2d4d7d19052531151603a1b6044820152606401610706565b505050565b600c546001600160a01b03163314610ebc5760405162461bcd60e51b8152600401610706906124bb565b601754600710610f5a57604080518082019091526001600160a01b038381168252602082018381526017805460018101825560009190915292517fc624b66cc0138b8fabc209247f72d758e1cf3343756d543badbf24212bed8c15600290940293840180546001600160a01b0319169190931617909155517fc624b66cc0138b8fabc209247f72d758e1cf3343756d543badbf24212bed8c16909101555b5050565b6001600160a01b03918216600090815260016020908152604080832093909416825291909152205490565b60178181548110610f9957600080fd5b6000918252602090912060029091020180546001909101546001600160a01b03909116915082565b60008311610fe15760405162461bcd60e51b8152600401610706906124de565b4281116110305760405162461bcd60e51b815260206004820152601d60248201527f5a6f696e6b73546f6b656e3a20696e76616c696420646561646c696e650000006044820152606401610706565b601154611048906001600160a01b0316333086611ab0565b604080516002808252606082018352600092602083019080368337505060115482519293506001600160a01b03169183915060009061108957611089612529565b60200260200101906001600160a01b031690816001600160a01b03168152505030816001815181106110bd576110bd612529565b6001600160a01b0392831660209182029290920101526013546040516338ed173960e01b815260009291909116906338ed1739906111079088908890879033908a9060040161253f565b6000604051808303816000875af1158015611126573d6000803e3d6000fd5b505050506040513d6000823e601f3d908101601f1916820160405261114e91908101906125b0565b90507f77f92a1b6a1a11de8ca49515ad4c1fad45632dd3442167d74b90b304a3c7a75833868360018151811061118657611186612529565b602090810291909101810151604080516001600160a01b0390951685529184019290925282015260600160405180910390a15050505050565b600c546001600160a01b031633146111e95760405162461bcd60e51b8152600401610706906124bb565b61071960176000612069565b600081116112155760405162461bcd60e51b8152600401610706906124de565b7f00000000000000000000000000000000000000000000000000000000000000008161124060025490565b61124a9190612306565b11156112985760405162461bcd60e51b815260206004820181905260248201527f5a6f696e6b73546f6b656e3a206d617820737570706c792065786365656465646044820152606401610706565b6015546011546112b7916001600160a01b039182169133911684611ab0565b6112c13382611b0a565b50565b600c546001600160a01b031633146112ee5760405162461bcd60e51b8152600401610706906124bb565b600b80546001600160a01b0319166001600160a01b0392909216919091179055565b33611319610902565b6001600160a01b03161461133f5760405162461bcd60e51b81526004016107069061231e565b6001600160a01b0381166113a45760405162461bcd60e51b815260206004820152602660248201527f4f776e61626c653a206e6577206f776e657220697320746865207a65726f206160448201526564647265737360d01b6064820152608401610706565b6112c1816117ec565b6000826000036113bf575060006105c4565b60006113cb838561266d565b9050826113d8858361268c565b146106935760405162461bcd60e51b815260206004820152602160248201527f536166654d6174683a206d756c7469706c69636174696f6e206f766572666c6f6044820152607760f81b6064820152608401610706565b600080821161147d5760405162461bcd60e51b815260206004820152601a602482015279536166654d6174683a206469766973696f6e206279207a65726f60301b6044820152606401610706565b610693828461268c565b6001600160a01b0383166114e95760405162461bcd60e51b8152602060048201526024808201527f45524332303a20617070726f76652066726f6d20746865207a65726f206164646044820152637265737360e01b6064820152608401610706565b6001600160a01b03821661154a5760405162461bcd60e51b815260206004820152602260248201527f45524332303a20617070726f766520746f20746865207a65726f206164647265604482015261737360f01b6064820152608401610706565b6001600160a01b0383811660008181526001602090815260408083209487168084529482529182902085905590518481527f8c5be1e5ebec7d5bd14f71427d1e84f3dd0314c0f7b2291e5b200ac8c7c3b925910160405180910390a3505050565b60006115b78484610f5e565b9050600019811461161f57818110156116125760405162461bcd60e51b815260206004820152601d60248201527f45524332303a20696e73756666696369656e7420616c6c6f77616e63650000006044820152606401610706565b61161f8484848403611487565b50505050565b6001600160a01b0383166116895760405162461bcd60e51b815260206004820152602560248201527f45524332303a207472616e736665722066726f6d20746865207a65726f206164604482015264647265737360d81b6064820152608401610706565b6001600160a01b0382166116eb5760405162461bcd60e51b815260206004820152602360248201527f45524332303a207472616e7366657220746f20746865207a65726f206164647260448201526265737360e81b6064820152608401610706565b6116f6838383611be3565b6001600160a01b0383166000908152602081905260409020548181101561176e5760405162461bcd60e51b815260206004820152602660248201527f45524332303a207472616e7366657220616d6f756e7420657863656564732062604482015265616c616e636560d01b6064820152608401610706565b6001600160a01b038085166000908152602081905260408082208585039055918516815290812080548492906117a5908490612306565b92505081905550826001600160a01b0316846001600160a01b03166000805160206126df833981519152846040516117df91815260200190565b60405180910390a361161f565b600580546001600160a01b038381166001600160a01b0319831681179093556040519116919082907f8be0079c531659141344cd1fd0a4f28419497f9722a3daafe3b4186f6b6457e090600090a35050565b600061184b8260646126ae565b905060005b61185a600d611c13565b811015610e8d576000606483611874610339600d86611c1d565b61187e919061266d565b611888919061268c565b905061189e611898600d84611c1d565b82611c29565b50806118a9816126c5565b915050611850565b6000600a5460646118c2919061266d565b6002546118d06064856126ae565b6118da919061266d565b6118e4919061268c565b90506118f03082611b0a565b60005b601754811015610e8d57600060646017838154811061191457611914612529565b90600052602060002090600202016001015484611931919061266d565b61193b919061268c565b9050611974306017848154811061195457611954612529565b60009182526020909120600290910201546001600160a01b031683611625565b508061197f816126c5565b9150506118f3565b6000806119948385612306565b9050838110156106935760405162461bcd60e51b815260206004820152601b60248201527a536166654d6174683a206164646974696f6e206f766572666c6f7760281b6044820152606401610706565b60006003821115611a4557508060006119fe60028361268c565b611a09906001612306565b90505b81811015611a3f57905080600281611a24818661268c565b611a2e9190612306565b611a38919061268c565b9050611a0c565b50919050565b8115611a4f575060015b919050565b600082821115611aa65760405162461bcd60e51b815260206004820152601e60248201527f536166654d6174683a207375627472616374696f6e206f766572666c6f7700006044820152606401610706565b61069382846126ae565b604080516001600160a01b0385811660248301528416604482015260648082018490528251808303909101815260849091019091526020810180516001600160e01b03166323b872dd60e01b17905261161f908590611d71565b6001600160a01b038216611b605760405162461bcd60e51b815260206004820152601f60248201527f45524332303a206d696e7420746f20746865207a65726f2061646472657373006044820152606401610706565b611b6c60008383611be3565b8060026000828254611b7e9190612306565b90915550506001600160a01b03821660009081526020819052604081208054839290611bab908490612306565b90915550506040518181526001600160a01b038316906000906000805160206126df8339815191529060200160405180910390a35050565b611bee600d83611e43565b158015611c0357506001600160a01b03821615155b15610e8d5761161f600d83611e58565b60006105c4825490565b60006106938383611e6d565b6001600160a01b038216611c895760405162461bcd60e51b815260206004820152602160248201527f45524332303a206275726e2066726f6d20746865207a65726f206164647265736044820152607360f81b6064820152608401610706565b611c9582600083611be3565b6001600160a01b03821660009081526020819052604090205481811015611d095760405162461bcd60e51b815260206004820152602260248201527f45524332303a206275726e20616d6f756e7420657863656564732062616c616e604482015261636560f01b6064820152608401610706565b6001600160a01b0383166000908152602081905260408120838303905560028054849290611d389084906126ae565b90915550506040518281526000906001600160a01b038516906000805160206126df8339815191529060200160405180910390a3505050565b6000611dc6826040518060400160405280602081526020017f5361666545524332303a206c6f772d6c6576656c2063616c6c206661696c6564815250856001600160a01b0316611e979092919063ffffffff16565b805190915015610e8d5780806020019051810190611de49190612446565b610e8d5760405162461bcd60e51b815260206004820152602a60248201527f5361666545524332303a204552433230206f7065726174696f6e20646964206e6044820152691bdd081cdd58d8d9595960b21b6064820152608401610706565b6000610693836001600160a01b038416611ea6565b6000610693836001600160a01b038416611ebe565b6000826000018281548110611e8457611e84612529565b9060005260206000200154905092915050565b60606108fa8484600085611f08565b60009081526001919091016020526040902054151590565b6000611eca8383611ea6565b611f00575081546001818101845560008481526020808220909301849055845484825282860190935260409020919091556105c4565b5060006105c4565b606082471015611f695760405162461bcd60e51b815260206004820152602660248201527f416464726573733a20696e73756666696369656e742062616c616e636520666f6044820152651c8818d85b1b60d21b6064820152608401610706565b843b611fb75760405162461bcd60e51b815260206004820152601d60248201527f416464726573733a2063616c6c20746f206e6f6e2d636f6e74726163740000006044820152606401610706565b600080866001600160a01b03168587604051611fd3919061249f565b60006040518083038185875af1925050503d8060008114612010576040519150601f19603f3d011682016040523d82523d6000602084013e612015565b606091505b5091509150612025828286612030565b979650505050505050565b6060831561203f575081610693565b82511561204f5782518084602001fd5b8160405162461bcd60e51b815260040161070691906120ef565b50805460008255600202906000526020600020908101906112c191905b808211156120ab5780546001600160a01b031916815560006001820155600201612086565b5090565b6001600160a01b0391909116815260200190565b60005b838110156120de5781810151838201526020016120c6565b8381111561161f5750506000910152565b602081526000825180602084015261210e8160408501602087016120c3565b601f01601f19169190910160400192915050565b6001600160a01b03811681146112c157600080fd5b6000806040838503121561214a57600080fd5b823561215581612122565b946020939093013593505050565b60008060006060848603121561217857600080fd5b833561218381612122565b9250602084013561219381612122565b929592945050506040919091013590565b6000602082840312156121b657600080fd5b813561069381612122565b6000602082840312156121d357600080fd5b5035919050565b6000806000606084860312156121ef57600080fd5b83356121fa81612122565b9250602084013561220a81612122565b9150604084013561221a81612122565b809150509250925092565b6000806040838503121561223857600080fd5b823561224381612122565b9150602083013561225381612122565b809150509250929050565b6001600160a01b03929092168252602082015260400190565b60008060006060848603121561228c57600080fd5b505081359360208301359350604090920135919050565b6000602082840312156122b557600080fd5b5051919050565b600181811c908216806122d057607f821691505b602082108103611a3f57634e487b7160e01b600052602260045260246000fd5b634e487b7160e01b600052601160045260246000fd5b60008219821115612319576123196122f0565b500190565b6020808252818101527f4f776e61626c653a2063616c6c6572206973206e6f7420746865206f776e6572604082015260600190565b600181815b8085111561238e578160001904821115612374576123746122f0565b8085161561238157918102915b93841c9390800290612358565b509250929050565b6000826123a5575060016105c4565b816123b2575060006105c4565b81600181146123c857600281146123d2576123ee565b60019150506105c4565b60ff8411156123e3576123e36122f0565b50506001821b6105c4565b5060208310610133831016604e8410600b8410161715612411575081810a6105c4565b61241b8383612353565b806000190482111561242f5761242f6122f0565b029392505050565b600061069360ff841683612396565b60006020828403121561245857600080fd5b8151801515811461069357600080fd5b6001600160a01b0392831681529116602082015260400190565b60006020828403121561249457600080fd5b815161069381612122565b600082516124b18184602087016120c3565b9190910192915050565b6020808252600990820152683737ba1030b236b4b760b91b604082015260600190565b6020808252601b908201527a169bda5b9adcd51bdad95b8e881a5b9d985b1a5908185b5bdd5b9d602a1b604082015260600190565b634e487b7160e01b600052604160045260246000fd5b634e487b7160e01b600052603260045260246000fd5b600060a082018783526020878185015260a0604085015281875180845260c086019150828901935060005b8181101561258f5784516001600160a01b03168352938301939183019160010161256a565b50506001600160a01b03969096166060850152505050608001529392505050565b600060208083850312156125c357600080fd5b82516001600160401b03808211156125da57600080fd5b818501915085601f8301126125ee57600080fd5b81518181111561260057612600612513565b8060051b604051601f19603f8301168101818110858211171561262557612625612513565b60405291825284820192508381018501918883111561264357600080fd5b938501935b8285101561266157845184529385019392850192612648565b98975050505050505050565b6000816000190483118215151615612687576126876122f0565b500290565b6000826126a957634e487b7160e01b600052601260045260246000fd5b500490565b6000828210156126c0576126c06122f0565b500390565b6000600182016126d7576126d76122f0565b506001019056feddf252ad1be2c89b69c2b068fc378daa952ba7f163c4a11628f55a4df523b3efa2646970667358221220f1094a3222adcfab3b90191c2b4b5bc7c28b3a5eab260835e0498cb7dc40ba7264736f6c634300080f0033",
  "immutableReferences": {
    "21134": [
      {
        "length": 32,
        "start": 712
      },
      {
        "length": 32,
        "start": 4631
      }
    ],
    "21196": [
      {
        "length": 32,
        "start": 1258
      }
    ]
  },
  "source": "/************************************************************\r\n *\r\n * Autor: Zoinks\r\n *\r\n * 446576656c6f7065723a20416e746f6e20506f6c656e79616b61 ****/\r\n\r\n// SPDX-License-Identifier: GPL-3.0\r\npragma solidity 0.8.15;\r\n\r\nimport \"./abstract/Ownable.sol\";\r\nimport \"./common/ERC20.sol\";\r\nimport \"./interfaces/IZoinksRouter.sol\";\r\nimport \"./librarys/Math.sol\";\r\nimport \"./librarys/SafeMath.sol\";\r\nimport \"./librarys/SafeERC20.sol\";\r\nimport \"./librarys/EnumerableSet.sol\";\r\nimport \"./Pancake/IPancakeFactory.sol\";\r\nimport \"./Pancake/IPancakePair.sol\";\r\n// import \"./libraries/MathSqrt.sol\";\r\n// import \"./interfaces/IZoinksRouter.sol\";\r\n// import \"./interfaces/IFactory.sol\";\r\n// import \"./interfaces/IPair.sol\";\r\n\r\ncontract ZoinksToken is ERC20, Ownable {\r\n    using Math for uint256;\r\n    using SafeMath for uint256;\r\n    using SafeERC20 for IERC20;\r\n    using EnumerableSet for EnumerableSet.AddressSet;\r\n\r\n    // maximum-integer\r\n    uint256 MAX_INT = type(uint256).max;\r\n\r\n    /// @dev max ZOINKS supply\r\n    uint256 public immutable MAX_ZOINKS_SUPPLY =\r\n        35_000_000_000 * 10**decimals();\r\n\r\n    // ! Can be deleted later\r\n    IPancakeFactory public constant pancakeFactory =\r\n        IPancakeFactory(0xcA143Ce32Fe78f1f7019d7d551a6402fC5350c73);\r\n    IPancakeFactory public constant apeFactory =\r\n        IPancakeFactory(0x0841BD0B734E4F5853f0dD8d7Ea041c241fb0Da6);\r\n    IPancakeFactory public constant biswapFactory =\r\n        IPancakeFactory(0x858E3312ed3A876947EA49d572A7C42DE08af7EE);\r\n    // !\r\n\r\n    IPancakePair public pancakePair;\r\n    IPancakePair public apePair;\r\n    IPancakePair public biswapPair;\r\n\r\n    uint256 public buffer;\r\n\r\n    /// @dev the rebase contract address\r\n    address private _rebaseContract;\r\n\r\n    /// @dev private admin minter\r\n    address private _admin;\r\n    \r\n    EnumerableSet.AddressSet private holders;\r\n    /// @dev Official percent of ZOINKS token balances for each account\r\n    mapping(address => uint256) private _balances;\r\n\r\n    /// @dev Allowance amounts on behalf of others\r\n    mapping(address => mapping(address => uint256)) private _allowances;\r\n\r\n    // BUSD contract\r\n    // TestNet old BUSD: 0xD0F7d3611d2faDc1838FBAc6c2Dbe19EC8cCE359\r\n    // TestNet new BUSD: 0xAFA8413aB62B3e2A4C0E0Dbc460d32b89db93aFd\r\n    // MainNet 0xe9e7CEA3DedcA5984780Bafc599bD69ADd087D56\r\n    IERC20 public BUSD;\r\n\r\n    //ZOINKS contract\r\n    IERC20 public immutable ZOINKS = IERC20(address(this));\r\n\r\n    //snacks contract\r\n    IERC20 public snacks;\r\n\r\n    //router contract\r\n    IZoinksRouter public router;\r\n\r\n    //pulse contract address\r\n    address public pulse;\r\n\r\n    // Seniorage address\r\n    address public seniorage;\r\n\r\n    // Whether it is initialized\r\n    bool public isInitialized;\r\n\r\n    //rate between ZOINKS and snacks\r\n    uint256 private RATE_ZOINKS_SNACKS = 1000000000000000000 * 0.000001;\r\n\r\n    struct InflationRewards {\r\n        address accountAddress;\r\n        uint256 percentage;\r\n    }\r\n\r\n    InflationRewards[] public inflationRewards;\r\n    \r\n    event Swap(address sender, uint256 amountIn, uint256 amountOut);\r\n\r\n    /**\r\n     * @notice Construct a new Zoinks token\r\n     */\r\n\r\n    constructor(\r\n        address _zoinksAdmin,\r\n        address _seniorage,\r\n        IERC20 _BUSD\r\n    )\r\n        ERC20(\"ZOINKS\", \"ZOINKS\")\r\n    {\r\n        _admin = _zoinksAdmin;\r\n        _rebaseContract = _zoinksAdmin;\r\n        seniorage = _seniorage;\r\n        BUSD = _BUSD;\r\n    }\r\n\r\n    /*\r\n     * @notice Initialize the contract\r\n     * @param _router: router contract address\r\n     * @param _snacks: snacks token address\r\n     * @param _pulse: pulse contract address\r\n     */\r\n    function initialize(\r\n        IZoinksRouter _router,\r\n        IERC20 _snacks,\r\n        address _pulse\r\n    ) external {\r\n        require(!isInitialized, \"Already initialized\");\r\n\r\n        // Make this contract initialized\r\n        isInitialized = true;\r\n\r\n        router = _router;\r\n        snacks = _snacks;\r\n        pulse = _pulse;\r\n\r\n        // Approve ZOINKS to snacks for buy(ZOINKS -> snacks)\r\n        IERC20(address(this)).approve(address(snacks), MAX_INT);\r\n        // Approve ZOINKS to router for swap(ZOINKS to BUSD)\r\n        BUSD.approve(address(router), MAX_INT);\r\n\r\n        pancakePair = IPancakePair(\r\n            pancakeFactory.createPair(address(this), address(BUSD))\r\n        );\r\n\r\n        apePair = IPancakePair(apeFactory.createPair(address(this), address(BUSD)));\r\n\r\n        biswapPair = IPancakePair(\r\n            biswapFactory.createPair(address(this), address(BUSD))\r\n        );\r\n    }\r\n\r\n    modifier onlyRebaseContract() {\r\n        require(_rebaseContract == msg.sender, \"not rebase contract\");\r\n        _;\r\n    }\r\n\r\n    modifier onlyAdminContract() {\r\n        require(_admin == msg.sender, \"not admin\");\r\n        _;\r\n    }\r\n\r\n    function zoinksMint(uint256 _amount) external {\r\n        require(\r\n            _amount > 0,\r\n            \"ZoinksToken: invalid amount\"\r\n        );\r\n        require(\r\n            totalSupply() + _amount <= MAX_ZOINKS_SUPPLY,\r\n            \"ZoinksToken: max supply exceeded\"\r\n        );\r\n        BUSD.safeTransferFrom(msg.sender, seniorage, _amount);\r\n        _mint(msg.sender, _amount);\r\n    }\r\n\r\n    /*\r\n     * @notice buy snacks corresponding amount of ZOINKS\r\n     * @param _amount: amount of ZOINKS\r\n     */\r\n    function buySnacks(uint256 _amount) public {\r\n        if (_amount == 0) {\r\n            return;\r\n        }\r\n        (bool success, bytes memory data) = address(snacks).call(\r\n            abi.encodeWithSelector(\r\n                bytes4(keccak256(bytes(\"buy(uint256)\"))),\r\n                _amount\r\n            )\r\n        );\r\n        require(\r\n            success && (data.length == 0 || abi.decode(data, (bool))),\r\n            \"ZOINKS: BUY_SNACKS_FAILED\"\r\n        );\r\n    }\r\n\r\n    function swapOnZoinks(\r\n        uint256 _amount,\r\n        uint256 _amountZoinksMin,\r\n        uint256 _deadline\r\n    )\r\n        external\r\n    {\r\n        require(\r\n            _amount > 0,\r\n            \"ZoinksToken: invalid amount\"\r\n        );\r\n        require(\r\n            _deadline > block.timestamp,\r\n            \"ZoinksToken: invalid deadline\"\r\n        );\r\n        BUSD.safeTransferFrom(msg.sender, address(this), _amount);\r\n        address[] memory path = new address[](2);\r\n        path[0] = address(BUSD);\r\n        path[1] = address(this);\r\n        uint256[] memory amounts = router.swapExactTokensForTokens(\r\n            _amount,\r\n            _amountZoinksMin,\r\n            path,\r\n            msg.sender,\r\n            _deadline\r\n        );\r\n        emit Swap(msg.sender, _amount, amounts[1]);\r\n    }\r\n\r\n    /*\r\n     * @notice calculate amount of snacks corresponding amount of ZOINKS\r\n     * @param _amount: amount of ZOINKS\r\n     */\r\n    function calculateBuyAmount(uint256 _amount) public view returns (uint256) {\r\n        if (_amount == 0) {\r\n            return _amount;\r\n        }\r\n        uint256 _snacksAmount;\r\n        uint256 localtotalSupply = snacks.totalSupply().div(10**18);\r\n        localtotalSupply = localtotalSupply.mul(2).add(1);\r\n        _snacksAmount = Math.sqrt(\r\n            (localtotalSupply**2).add(_amount.mul(8).div(RATE_ZOINKS_SNACKS))\r\n        );\r\n        _snacksAmount = _snacksAmount.sub(localtotalSupply).div(2);\r\n        return _snacksAmount;\r\n    }\r\n\r\n    function applyTWAP() external onlyRebaseContract {\r\n        uint256 TWAP = getTWAP();\r\n        if (TWAP < 99) {\r\n            _burnZoinks(TWAP);\r\n        } else if (TWAP > 101) {\r\n            _rebaseInflations(TWAP);\r\n        } else {\r\n            // TWAP = 100 is ok, don't do anytning\r\n        }\r\n        pancakePair.sync();\r\n    }\r\n\r\n    function _burnZoinks(uint256 _TWAP) internal {\r\n        uint256 burnPercent = 100 - _TWAP;\r\n        for (uint256 i = 0; i < holders.length(); i++) {\r\n            uint256 amount = balanceOf(holders.at(i)) * burnPercent / 100;\r\n            _burn(holders.at(i), amount);\r\n        }\r\n    }\r\n\r\n    function _rebaseInflations(uint256 _TWAP) internal {\r\n        uint256 inflationReward = ((_TWAP - 100) * totalSupply()) / (100 * buffer);\r\n        _mint(address(this), inflationReward);\r\n        for (uint256 i = 0; i < inflationRewards.length; i++) {\r\n            uint256 amount = inflationReward * inflationRewards[i].percentage / 100;\r\n            _transfer(address(this), inflationRewards[i].accountAddress, amount);\r\n        }\r\n    }\r\n\r\n    function getTWAP() public view returns (uint256 TWAP) {\r\n        // ! Not a last version will be change\r\n        uint256 pcsPrice = BUSD.balanceOf(address(pancakePair)).mul(100).div(\r\n            balanceOf(address(pancakePair))\r\n        );\r\n        // uint256 apePrice = BUSD.balanceOf(address(apePair)).div(\r\n        //     balanceOf(address(apePair))\r\n        // );\r\n        // uint256 biswapPrice = BUSD.balanceOf(address(biswapPair)).div(\r\n        //     balanceOf(address(biswapPair))\r\n        // );\r\n\r\n        // uint256 TWAP = ((35 * pcsPrice) +\r\n        //     (15 * apePrice) +\r\n        //     (15 * biswapPrice)) / 65;\r\n\r\n        TWAP = pcsPrice;\r\n    }\r\n\r\n    function setBuffer(uint256 newBufferAmount) external onlyOwner {\r\n        buffer = newBufferAmount;\r\n    }\r\n\r\n    function setRebaseContract(address _account) external onlyAdminContract {\r\n        _rebaseContract = _account;\r\n    }\r\n\r\n    function setInflationReward(address _account, uint256 _percentage)\r\n        public\r\n        onlyAdminContract\r\n    {\r\n        if (inflationRewards.length <= 7) {\r\n            InflationRewards memory inflationReward;\r\n            inflationReward.accountAddress = _account;\r\n            inflationReward.percentage = _percentage;\r\n            inflationRewards.push(inflationReward);\r\n        }\r\n    }\r\n\r\n    function resetInflationRewards() public onlyAdminContract {\r\n        delete inflationRewards;\r\n    }\r\n    \r\n    function _beforeTokenTransfer(\r\n        address,\r\n        address _to,\r\n        uint256\r\n    ) internal override {\r\n        if (!holders.contains(_to) && _to != address(0)) {\r\n            holders.add(_to);\r\n        }\r\n    }\r\n\r\n    function getChainId() internal view returns (uint256) {\r\n        uint256 chainId;\r\n        assembly {\r\n            chainId := chainid()\r\n        }\r\n        return chainId;\r\n    }\r\n}\r\n",
  "sourcePath": "C:\\GitHub\\zoinks\\contracts\\Development\\src\\contracts\\ZoinksToken.sol",
  "compiler": {
    "name": "solc",
    "version": "0.8.15+commit.e14f2714.Emscripten.clang"
  },
  "schemaVersion": "3.4.8",
  "updatedAt": "2022-08-08T18:33:02.944Z",
  "devdoc": {
    "kind": "dev",
    "methods": {
      "allowance(address,address)": {
        "details": "See {IERC20-allowance}."
      },
      "approve(address,uint256)": {
        "details": "See {IERC20-approve}. NOTE: If `amount` is the maximum `uint256`, the allowance is not updated on `transferFrom`. This is semantically equivalent to an infinite approval. Requirements: - `spender` cannot be the zero address."
      },
      "balanceOf(address)": {
        "details": "See {IERC20-balanceOf}."
      },
      "decimals()": {
        "details": "Returns the number of decimals used to get its user representation. For example, if `decimals` equals `2`, a balance of `505` tokens should be displayed to a user as `5.05` (`505 / 10 ** 2`). Tokens usually opt for a value of 18, imitating the relationship between Ether and Wei. This is the value {ERC20} uses, unless this function is overridden; NOTE: This information is only used for _display_ purposes: it in no way affects any of the arithmetic of the contract, including {IERC20-balanceOf} and {IERC20-transfer}."
      },
      "decreaseAllowance(address,uint256)": {
        "details": "Atomically decreases the allowance granted to `spender` by the caller. This is an alternative to {approve} that can be used as a mitigation for problems described in {IERC20-approve}. Emits an {Approval} event indicating the updated allowance. Requirements: - `spender` cannot be the zero address. - `spender` must have allowance for the caller of at least `subtractedValue`."
      },
      "increaseAllowance(address,uint256)": {
        "details": "Atomically increases the allowance granted to `spender` by the caller. This is an alternative to {approve} that can be used as a mitigation for problems described in {IERC20-approve}. Emits an {Approval} event indicating the updated allowance. Requirements: - `spender` cannot be the zero address."
      },
      "name()": {
        "details": "Returns the name of the token."
      },
      "owner()": {
        "details": "Returns the address of the current owner."
      },
      "renounceOwnership()": {
        "details": "Leaves the contract without owner. It will not be possible to call `onlyOwner` functions anymore. Can only be called by the current owner. NOTE: Renouncing ownership will leave the contract without an owner, thereby removing any functionality that is only available to the owner."
      },
      "symbol()": {
        "details": "Returns the symbol of the token, usually a shorter version of the name."
      },
      "totalSupply()": {
        "details": "See {IERC20-totalSupply}."
      },
      "transfer(address,uint256)": {
        "details": "See {IERC20-transfer}. Requirements: - `to` cannot be the zero address. - the caller must have a balance of at least `amount`."
      },
      "transferFrom(address,address,uint256)": {
        "details": "See {IERC20-transferFrom}. Emits an {Approval} event indicating the updated allowance. This is not required by the EIP. See the note at the beginning of {ERC20}. NOTE: Does not update the allowance if the current allowance is the maximum `uint256`. Requirements: - `from` and `to` cannot be the zero address. - `from` must have a balance of at least `amount`. - the caller must have allowance for ``from``'s tokens of at least `amount`."
      },
      "transferOwnership(address)": {
        "details": "Transfers ownership of the contract to a new account (`newOwner`). Can only be called by the current owner."
      }
    },
    "stateVariables": {
      "MAX_ZOINKS_SUPPLY": {
        "details": "max ZOINKS supply"
      },
      "_admin": {
        "details": "private admin minter"
      },
      "_allowances": {
        "details": "Allowance amounts on behalf of others"
      },
      "_balances": {
        "details": "Official percent of ZOINKS token balances for each account"
      },
      "_rebaseContract": {
        "details": "the rebase contract address"
      }
    },
    "version": 1
  },
  "userdoc": {
    "kind": "user",
    "methods": {
      "constructor": {
        "notice": "Construct a new Zoinks token"
      }
    },
    "version": 1
  }
}